{
  "_format": "hh-sol-artifact-1",
  "contractName": "TheWill",
  "sourceName": "contracts/TheWill.sol",
  "abi": [
    {
      "anonymous": false,
      "inputs": [
        {
          "indexed": false,
          "internalType": "uint256",
          "name": "ID",
          "type": "uint256"
        },
        {
          "indexed": false,
          "internalType": "address",
          "name": "owner",
          "type": "address"
        },
        {
          "indexed": false,
          "internalType": "address",
          "name": "heir",
          "type": "address"
        },
        {
          "indexed": false,
          "internalType": "address",
          "name": "token",
          "type": "address"
        },
        {
          "indexed": false,
          "internalType": "uint256",
          "name": "timeWhenWithdraw",
          "type": "uint256"
        },
        {
          "indexed": false,
          "internalType": "uint256",
          "name": "amount",
          "type": "uint256"
        }
      ],
      "name": "AddAnHeir",
      "type": "event"
    },
    {
      "anonymous": false,
      "inputs": [
        {
          "indexed": false,
          "internalType": "uint256",
          "name": "ID",
          "type": "uint256"
        },
        {
          "indexed": false,
          "internalType": "address",
          "name": "owner",
          "type": "address"
        },
        {
          "indexed": false,
          "internalType": "address",
          "name": "heir",
          "type": "address"
        }
      ],
      "name": "RemoveWill",
      "type": "event"
    },
    {
      "anonymous": false,
      "inputs": [
        {
          "indexed": false,
          "internalType": "uint256",
          "name": "ID",
          "type": "uint256"
        },
        {
          "indexed": false,
          "internalType": "address",
          "name": "owner",
          "type": "address"
        },
        {
          "indexed": false,
          "internalType": "uint256",
          "name": "newAmount",
          "type": "uint256"
        }
      ],
      "name": "UpdateAmount",
      "type": "event"
    },
    {
      "anonymous": false,
      "inputs": [
        {
          "indexed": false,
          "internalType": "uint256",
          "name": "ID",
          "type": "uint256"
        },
        {
          "indexed": false,
          "internalType": "address",
          "name": "owner",
          "type": "address"
        },
        {
          "indexed": false,
          "internalType": "address",
          "name": "newHeir",
          "type": "address"
        }
      ],
      "name": "UpdateAnHeir",
      "type": "event"
    },
    {
      "anonymous": false,
      "inputs": [
        {
          "indexed": false,
          "internalType": "uint256",
          "name": "ID",
          "type": "uint256"
        },
        {
          "indexed": false,
          "internalType": "address",
          "name": "owner",
          "type": "address"
        },
        {
          "indexed": false,
          "internalType": "address",
          "name": "heir",
          "type": "address"
        },
        {
          "indexed": false,
          "internalType": "uint256",
          "name": "newTime",
          "type": "uint256"
        }
      ],
      "name": "UpdateWillTimeWhenWithdraw",
      "type": "event"
    },
    {
      "anonymous": false,
      "inputs": [
        {
          "indexed": false,
          "internalType": "uint256",
          "name": "ID",
          "type": "uint256"
        },
        {
          "indexed": false,
          "internalType": "address",
          "name": "owner",
          "type": "address"
        },
        {
          "indexed": false,
          "internalType": "address",
          "name": "heir",
          "type": "address"
        },
        {
          "indexed": false,
          "internalType": "uint256",
          "name": "timeWhenWithdrawn",
          "type": "uint256"
        }
      ],
      "name": "Withdraw",
      "type": "event"
    },
    {
      "inputs": [
        {
          "internalType": "address",
          "name": "heir",
          "type": "address"
        },
        {
          "internalType": "address",
          "name": "token",
          "type": "address"
        },
        {
          "internalType": "uint256",
          "name": "timeWhenWithdraw",
          "type": "uint256"
        },
        {
          "internalType": "uint256",
          "name": "amount",
          "type": "uint256"
        }
      ],
      "name": "addNewWill",
      "outputs": [],
      "stateMutability": "nonpayable",
      "type": "function"
    },
    {
      "inputs": [
        {
          "internalType": "address",
          "name": "heir",
          "type": "address"
        }
      ],
      "name": "getAllInheritances",
      "outputs": [
        {
          "components": [
            {
              "internalType": "uint256",
              "name": "ID",
              "type": "uint256"
            },
            {
              "internalType": "address",
              "name": "owner",
              "type": "address"
            },
            {
              "internalType": "address",
              "name": "heir",
              "type": "address"
            },
            {
              "internalType": "address",
              "name": "token",
              "type": "address"
            },
            {
              "internalType": "uint256",
              "name": "timeWhenWithdraw",
              "type": "uint256"
            },
            {
              "internalType": "uint256",
              "name": "timeBetweenWithdrawAndStart",
              "type": "uint256"
            },
            {
              "internalType": "uint256",
              "name": "amount",
              "type": "uint256"
            },
            {
              "internalType": "bool",
              "name": "done",
              "type": "bool"
            }
          ],
          "internalType": "struct IHeritage.InheritanceData[]",
          "name": "",
          "type": "tuple[]"
        }
      ],
      "stateMutability": "view",
      "type": "function"
    },
    {
      "inputs": [
        {
          "internalType": "address",
          "name": "owner",
          "type": "address"
        }
      ],
      "name": "getAllWills",
      "outputs": [
        {
          "components": [
            {
              "internalType": "uint256",
              "name": "ID",
              "type": "uint256"
            },
            {
              "internalType": "address",
              "name": "owner",
              "type": "address"
            },
            {
              "internalType": "address",
              "name": "heir",
              "type": "address"
            },
            {
              "internalType": "address",
              "name": "token",
              "type": "address"
            },
            {
              "internalType": "uint256",
              "name": "timeWhenWithdraw",
              "type": "uint256"
            },
            {
              "internalType": "uint256",
              "name": "timeBetweenWithdrawAndStart",
              "type": "uint256"
            },
            {
              "internalType": "uint256",
              "name": "amount",
              "type": "uint256"
            },
            {
              "internalType": "bool",
              "name": "done",
              "type": "bool"
            }
          ],
          "internalType": "struct IHeritage.InheritanceData[]",
          "name": "",
          "type": "tuple[]"
        }
      ],
      "stateMutability": "view",
      "type": "function"
    },
    {
      "inputs": [
        {
          "internalType": "uint256",
          "name": "",
          "type": "uint256"
        }
      ],
      "name": "inheritanceData",
      "outputs": [
        {
          "internalType": "uint256",
          "name": "ID",
          "type": "uint256"
        },
        {
          "internalType": "address",
          "name": "owner",
          "type": "address"
        },
        {
          "internalType": "address",
          "name": "heir",
          "type": "address"
        },
        {
          "internalType": "address",
          "name": "token",
          "type": "address"
        },
        {
          "internalType": "uint256",
          "name": "timeWhenWithdraw",
          "type": "uint256"
        },
        {
          "internalType": "uint256",
          "name": "timeBetweenWithdrawAndStart",
          "type": "uint256"
        },
        {
          "internalType": "uint256",
          "name": "amount",
          "type": "uint256"
        },
        {
          "internalType": "bool",
          "name": "done",
          "type": "bool"
        }
      ],
      "stateMutability": "view",
      "type": "function"
    },
    {
      "inputs": [
        {
          "internalType": "address",
          "name": "",
          "type": "address"
        },
        {
          "internalType": "uint256",
          "name": "",
          "type": "uint256"
        }
      ],
      "name": "inheritancesHeir",
      "outputs": [
        {
          "internalType": "uint256",
          "name": "",
          "type": "uint256"
        }
      ],
      "stateMutability": "view",
      "type": "function"
    },
    {
      "inputs": [
        {
          "internalType": "address",
          "name": "",
          "type": "address"
        },
        {
          "internalType": "uint256",
          "name": "",
          "type": "uint256"
        }
      ],
      "name": "inheritancesOwner",
      "outputs": [
        {
          "internalType": "uint256",
          "name": "",
          "type": "uint256"
        }
      ],
      "stateMutability": "view",
      "type": "function"
    },
    {
      "inputs": [
        {
          "internalType": "uint256",
          "name": "ID",
          "type": "uint256"
        }
      ],
      "name": "removeWill",
      "outputs": [],
      "stateMutability": "nonpayable",
      "type": "function"
    },
    {
      "inputs": [],
      "name": "resetTimers",
      "outputs": [],
      "stateMutability": "nonpayable",
      "type": "function"
    },
    {
      "inputs": [
        {
          "internalType": "uint256",
          "name": "ID",
          "type": "uint256"
        }
      ],
      "name": "resetTimersAtOne",
      "outputs": [],
      "stateMutability": "nonpayable",
      "type": "function"
    },
    {
      "inputs": [
        {
          "internalType": "uint256",
          "name": "ID",
          "type": "uint256"
        },
        {
          "internalType": "uint256",
          "name": "newTime",
          "type": "uint256"
        },
        {
          "internalType": "address",
          "name": "_heir",
          "type": "address"
        },
        {
          "internalType": "uint256",
          "name": "amount",
          "type": "uint256"
        },
        {
          "internalType": "bool",
          "name": "_updateTime",
          "type": "bool"
        },
        {
          "internalType": "bool",
          "name": "_updateHeir",
          "type": "bool"
        },
        {
          "internalType": "bool",
          "name": "_updateAmount",
          "type": "bool"
        }
      ],
      "name": "update",
      "outputs": [],
      "stateMutability": "nonpayable",
      "type": "function"
    },
    {
      "inputs": [
        {
          "internalType": "uint256",
          "name": "ID",
          "type": "uint256"
        },
        {
          "internalType": "uint256",
          "name": "amount",
          "type": "uint256"
        }
      ],
      "name": "updateAmount",
      "outputs": [],
      "stateMutability": "nonpayable",
      "type": "function"
    },
    {
      "inputs": [
        {
          "internalType": "uint256",
          "name": "ID",
          "type": "uint256"
        },
        {
          "internalType": "address",
          "name": "_heir",
          "type": "address"
        }
      ],
      "name": "updateAnHeir",
      "outputs": [],
      "stateMutability": "nonpayable",
      "type": "function"
    },
    {
      "inputs": [
        {
          "internalType": "uint256",
          "name": "ID",
          "type": "uint256"
        },
        {
          "internalType": "uint256",
          "name": "newTime",
          "type": "uint256"
        }
      ],
      "name": "updateWillTimeWhenWithdraw",
      "outputs": [],
      "stateMutability": "nonpayable",
      "type": "function"
    },
    {
      "inputs": [
        {
          "internalType": "uint256",
          "name": "ID",
          "type": "uint256"
        }
      ],
      "name": "withdraw",
      "outputs": [],
      "stateMutability": "nonpayable",
      "type": "function"
    }
  ],
  "bytecode": "0x608060405234801561001057600080fd5b506144c3806100206000396000f3fe608060405234801561001057600080fd5b50600436106100ea5760003560e01c80636aec11061161008c578063b282e7b811610066578063b282e7b814610245578063e1ff9e8114610261578063e41c377c1461027d578063fcb25e5d146102b4576100ea565b80636aec1106146101c957806372a370bc146101f95780639c7e996814610229576100ea565b806334b12c2b116100c857806334b12c2b1461014357806337013e10146101735780633795b60e146101a357806343cc60b1146101ad576100ea565b80630179cc52146100ef5780632e1a7d4d1461010b57806333a8a2fb14610127575b600080fd5b61010960048036038101906101049190613770565b6102d0565b005b610125600480360381019061012091906137b0565b6108aa565b005b610141600480360381019061013c9190613770565b6110d8565b005b61015d6004803603810190610158919061383b565b611555565b60405161016a91906139f3565b60405180910390f35b61018d60048036038101906101889190613a15565b611817565b60405161019a9190613a64565b60405180910390f35b6101ab611848565b005b6101c760048036038101906101c291906137b0565b611b84565b005b6101e360048036038101906101de919061383b565b61232a565b6040516101f091906139f3565b60405180910390f35b610213600480360381019061020e9190613a15565b6125ec565b6040516102209190613a64565b60405180910390f35b610243600480360381019061023e9190613a7f565b61261d565b005b61025f600480360381019061025a9190613ae6565b612afe565b005b61027b600480360381019061027691906137b0565b61324b565b005b610297600480360381019061029291906137b0565b613599565b6040516102ab989796959493929190613b44565b60405180910390f35b6102ce60048036038101906102c99190613bee565b61365e565b005b60008083815481106102e5576102e4613c90565b5b906000526020600020906008020160405180610100016040529081600082015481526020016001820160009054906101000a900473ffffffffffffffffffffffffffffffffffffffff1673ffffffffffffffffffffffffffffffffffffffff1673ffffffffffffffffffffffffffffffffffffffff1681526020016002820160009054906101000a900473ffffffffffffffffffffffffffffffffffffffff1673ffffffffffffffffffffffffffffffffffffffff1673ffffffffffffffffffffffffffffffffffffffff1681526020016003820160009054906101000a900473ffffffffffffffffffffffffffffffffffffffff1673ffffffffffffffffffffffffffffffffffffffff1673ffffffffffffffffffffffffffffffffffffffff1681526020016004820154815260200160058201548152602001600682015481526020016007820160009054906101000a900460ff16151515158152505090503373ffffffffffffffffffffffffffffffffffffffff16816020015173ffffffffffffffffffffffffffffffffffffffff16146104b8576040517f08c379a00000000000000000000000000000000000000000000000000000000081526004016104af90613d1c565b60405180910390fd5b80608001514211156104ff576040517f08c379a00000000000000000000000000000000000000000000000000000000081526004016104f690613d88565b60405180910390fd5b600015158160e0015115151461054a576040517f08c379a000000000000000000000000000000000000000000000000000000000815260040161054190613df4565b60405180910390fd5b6000820361058d576040517f08c379a000000000000000000000000000000000000000000000000000000000815260040161058490613e60565b60405180910390fd5b8060c0015182036105d3576040517f08c379a00000000000000000000000000000000000000000000000000000000081526004016105ca90613ecc565b60405180910390fd5b6000816060015190508160c001518311156106835760008260c00151846105fa9190613f1b565b90508173ffffffffffffffffffffffffffffffffffffffff166323b872dd3330846040518463ffffffff1660e01b815260040161063993929190613f4f565b6020604051808303816000875af1158015610658573d6000803e3d6000fd5b505050506040513d601f19601f8201168201806040525081019061067c9190613f9b565b5050610718565b6000838360c001516106959190613f1b565b90508173ffffffffffffffffffffffffffffffffffffffff1663a9059cbb33836040518363ffffffff1660e01b81526004016106d2929190613fc8565b6020604051808303816000875af11580156106f1573d6000803e3d6000fd5b505050506040513d601f19601f820116820180604052508101906107159190613f9b565b50505b828260c0018181525050816000858154811061073757610736613c90565b5b90600052602060002090600802016000820151816000015560208201518160010160006101000a81548173ffffffffffffffffffffffffffffffffffffffff021916908373ffffffffffffffffffffffffffffffffffffffff16021790555060408201518160020160006101000a81548173ffffffffffffffffffffffffffffffffffffffff021916908373ffffffffffffffffffffffffffffffffffffffff16021790555060608201518160030160006101000a81548173ffffffffffffffffffffffffffffffffffffffff021916908373ffffffffffffffffffffffffffffffffffffffff1602179055506080820151816004015560a0820151816005015560c0820151816006015560e08201518160070160006101000a81548160ff0219169083151502179055509050507f07f364a0e22025373fbd73737f9a989e95741c0a7a85fa996d5c34a8198a482d8483602001518560405161089c93929190613ff1565b60405180910390a150505050565b60008082815481106108bf576108be613c90565b5b906000526020600020906008020160405180610100016040529081600082015481526020016001820160009054906101000a900473ffffffffffffffffffffffffffffffffffffffff1673ffffffffffffffffffffffffffffffffffffffff1673ffffffffffffffffffffffffffffffffffffffff1681526020016002820160009054906101000a900473ffffffffffffffffffffffffffffffffffffffff1673ffffffffffffffffffffffffffffffffffffffff1673ffffffffffffffffffffffffffffffffffffffff1681526020016003820160009054906101000a900473ffffffffffffffffffffffffffffffffffffffff1673ffffffffffffffffffffffffffffffffffffffff1673ffffffffffffffffffffffffffffffffffffffff1681526020016004820154815260200160058201548152602001600682015481526020016007820160009054906101000a900460ff1615151515815250509050806040015173ffffffffffffffffffffffffffffffffffffffff163373ffffffffffffffffffffffffffffffffffffffff1614610a92576040517f08c379a0000000000000000000000000000000000000000000000000000000008152600401610a8990614074565b60405180910390fd5b8060800151421015610ad9576040517f08c379a0000000000000000000000000000000000000000000000000000000008152600401610ad0906140e0565b60405180910390fd5b600015158160e00151151514610b24576040517f08c379a0000000000000000000000000000000000000000000000000000000008152600401610b1b90613df4565b60405180910390fd5b60018160e00190151590811515815250506000600160003373ffffffffffffffffffffffffffffffffffffffff1673ffffffffffffffffffffffffffffffffffffffff168152602001908152602001600020805480602002602001604051908101604052809291908181526020018280548015610bc057602002820191906000526020600020905b815481526020019060010190808311610bac575b50505050509050600060026000846040015173ffffffffffffffffffffffffffffffffffffffff1673ffffffffffffffffffffffffffffffffffffffff168152602001908152602001600020805480602002602001604051908101604052809291908181526020018280548015610c5657602002820191906000526020600020905b815481526020019060010190808311610c42575b5050505050905060005b8251811015610d8a5784838281518110610c7d57610c7c613c90565b5b602002602001015103610d77578260018451610c999190613f1b565b81518110610caa57610ca9613c90565b5b6020026020010151600160003373ffffffffffffffffffffffffffffffffffffffff1673ffffffffffffffffffffffffffffffffffffffff1681526020019081526020016000208281548110610d0357610d02613c90565b5b9060005260206000200181905550600160003373ffffffffffffffffffffffffffffffffffffffff1673ffffffffffffffffffffffffffffffffffffffff168152602001908152602001600020805480610d6057610d5f614100565b5b600190038181906000526020600020016000905590555b8080610d829061412f565b915050610c60565b5060005b8151811015610ec05784828281518110610dab57610daa613c90565b5b602002602001015103610ead578160018351610dc79190613f1b565b81518110610dd857610dd7613c90565b5b602002602001015160026000866040015173ffffffffffffffffffffffffffffffffffffffff1673ffffffffffffffffffffffffffffffffffffffff1681526020019081526020016000208281548110610e3557610e34613c90565b5b906000526020600020018190555060026000856040015173ffffffffffffffffffffffffffffffffffffffff1673ffffffffffffffffffffffffffffffffffffffff168152602001908152602001600020805480610e9657610e95614100565b5b600190038181906000526020600020016000905590555b8080610eb89061412f565b915050610d8e565b506000836060015190508073ffffffffffffffffffffffffffffffffffffffff1663a9059cbb338660c001516040518363ffffffff1660e01b8152600401610f09929190613fc8565b6020604051808303816000875af1158015610f28573d6000803e3d6000fd5b505050506040513d601f19601f82011682018060405250810190610f4c9190613f9b565b507ffeb2000dca3e617cd6f3a8bbb63014bb54a124aac6ccbf73ee7229b4cd01f1208585602001513342604051610f869493929190614177565b60405180910390a18360008681548110610fa357610fa2613c90565b5b90600052602060002090600802016000820151816000015560208201518160010160006101000a81548173ffffffffffffffffffffffffffffffffffffffff021916908373ffffffffffffffffffffffffffffffffffffffff16021790555060408201518160020160006101000a81548173ffffffffffffffffffffffffffffffffffffffff021916908373ffffffffffffffffffffffffffffffffffffffff16021790555060608201518160030160006101000a81548173ffffffffffffffffffffffffffffffffffffffff021916908373ffffffffffffffffffffffffffffffffffffffff1602179055506080820151816004015560a0820151816005015560c0820151816006015560e08201518160070160006101000a81548160ff0219169083151502179055509050505050505050565b60008083815481106110ed576110ec613c90565b5b906000526020600020906008020160405180610100016040529081600082015481526020016001820160009054906101000a900473ffffffffffffffffffffffffffffffffffffffff1673ffffffffffffffffffffffffffffffffffffffff1673ffffffffffffffffffffffffffffffffffffffff1681526020016002820160009054906101000a900473ffffffffffffffffffffffffffffffffffffffff1673ffffffffffffffffffffffffffffffffffffffff1673ffffffffffffffffffffffffffffffffffffffff1681526020016003820160009054906101000a900473ffffffffffffffffffffffffffffffffffffffff1673ffffffffffffffffffffffffffffffffffffffff1673ffffffffffffffffffffffffffffffffffffffff1681526020016004820154815260200160058201548152602001600682015481526020016007820160009054906101000a900460ff16151515158152505090503373ffffffffffffffffffffffffffffffffffffffff16816020015173ffffffffffffffffffffffffffffffffffffffff16146112c0576040517f08c379a00000000000000000000000000000000000000000000000000000000081526004016112b790613d1c565b60405180910390fd5b8060800151421115611307576040517f08c379a00000000000000000000000000000000000000000000000000000000081526004016112fe90613d88565b60405180910390fd5b428211611349576040517f08c379a00000000000000000000000000000000000000000000000000000000081526004016113409061422e565b60405180910390fd5b600015158160e00151151514611394576040517f08c379a000000000000000000000000000000000000000000000000000000000815260040161138b90613df4565b60405180910390fd5b60008160a0015182608001516113aa9190613f1b565b90508282608001818152505080836113c29190613f1b565b8260a001818152505081600085815481106113e0576113df613c90565b5b90600052602060002090600802016000820151816000015560208201518160010160006101000a81548173ffffffffffffffffffffffffffffffffffffffff021916908373ffffffffffffffffffffffffffffffffffffffff16021790555060408201518160020160006101000a81548173ffffffffffffffffffffffffffffffffffffffff021916908373ffffffffffffffffffffffffffffffffffffffff16021790555060608201518160030160006101000a81548173ffffffffffffffffffffffffffffffffffffffff021916908373ffffffffffffffffffffffffffffffffffffffff1602179055506080820151816004015560a0820151816005015560c0820151816006015560e08201518160070160006101000a81548160ff0219169083151502179055509050507ff6d4f4eb4a955223539787dd64c67a7a9571039c5deccabaf47d097f93e8b41f84338460400151866040516115479493929190614177565b60405180910390a150505050565b60606000600160008473ffffffffffffffffffffffffffffffffffffffff1673ffffffffffffffffffffffffffffffffffffffff1681526020019081526020016000208054806020026020016040519081016040528092919081815260200182805480156115e257602002820191906000526020600020905b8154815260200190600101908083116115ce575b505050505090506000815167ffffffffffffffff8111156116065761160561424e565b5b60405190808252806020026020018201604052801561163f57816020015b61162c6136ac565b8152602001906001900390816116245790505b50905060005b825181101561180c57600083828151811061166357611662613c90565b5b60200260200101518154811061167c5761167b613c90565b5b906000526020600020906008020160405180610100016040529081600082015481526020016001820160009054906101000a900473ffffffffffffffffffffffffffffffffffffffff1673ffffffffffffffffffffffffffffffffffffffff1673ffffffffffffffffffffffffffffffffffffffff1681526020016002820160009054906101000a900473ffffffffffffffffffffffffffffffffffffffff1673ffffffffffffffffffffffffffffffffffffffff1673ffffffffffffffffffffffffffffffffffffffff1681526020016003820160009054906101000a900473ffffffffffffffffffffffffffffffffffffffff1673ffffffffffffffffffffffffffffffffffffffff1673ffffffffffffffffffffffffffffffffffffffff1681526020016004820154815260200160058201548152602001600682015481526020016007820160009054906101000a900460ff1615151515815250508282815181106117ee576117ed613c90565b5b602002602001018190525080806118049061412f565b915050611645565b508092505050919050565b6002602052816000526040600020818154811061183357600080fd5b90600052602060002001600091509150505481565b60005b600160003373ffffffffffffffffffffffffffffffffffffffff1673ffffffffffffffffffffffffffffffffffffffff16815260200190815260200160002080549050811015611b815760008082815481106118aa576118a9613c90565b5b906000526020600020906008020160405180610100016040529081600082015481526020016001820160009054906101000a900473ffffffffffffffffffffffffffffffffffffffff1673ffffffffffffffffffffffffffffffffffffffff1673ffffffffffffffffffffffffffffffffffffffff1681526020016002820160009054906101000a900473ffffffffffffffffffffffffffffffffffffffff1673ffffffffffffffffffffffffffffffffffffffff1673ffffffffffffffffffffffffffffffffffffffff1681526020016003820160009054906101000a900473ffffffffffffffffffffffffffffffffffffffff1673ffffffffffffffffffffffffffffffffffffffff1673ffffffffffffffffffffffffffffffffffffffff1681526020016004820154815260200160058201548152602001600682015481526020016007820160009054906101000a900460ff16151515158152505090506000428260a00151611a1d919061427d565b9050808260800181815250508160008481548110611a3e57611a3d613c90565b5b90600052602060002090600802016000820151816000015560208201518160010160006101000a81548173ffffffffffffffffffffffffffffffffffffffff021916908373ffffffffffffffffffffffffffffffffffffffff16021790555060408201518160020160006101000a81548173ffffffffffffffffffffffffffffffffffffffff021916908373ffffffffffffffffffffffffffffffffffffffff16021790555060608201518160030160006101000a81548173ffffffffffffffffffffffffffffffffffffffff021916908373ffffffffffffffffffffffffffffffffffffffff1602179055506080820151816004015560a0820151816005015560c0820151816006015560e08201518160070160006101000a81548160ff02191690831515021790555090505050508080611b799061412f565b91505061184b565b50565b6000808281548110611b9957611b98613c90565b5b906000526020600020906008020160405180610100016040529081600082015481526020016001820160009054906101000a900473ffffffffffffffffffffffffffffffffffffffff1673ffffffffffffffffffffffffffffffffffffffff1673ffffffffffffffffffffffffffffffffffffffff1681526020016002820160009054906101000a900473ffffffffffffffffffffffffffffffffffffffff1673ffffffffffffffffffffffffffffffffffffffff1673ffffffffffffffffffffffffffffffffffffffff1681526020016003820160009054906101000a900473ffffffffffffffffffffffffffffffffffffffff1673ffffffffffffffffffffffffffffffffffffffff1673ffffffffffffffffffffffffffffffffffffffff1681526020016004820154815260200160058201548152602001600682015481526020016007820160009054906101000a900460ff16151515158152505090503373ffffffffffffffffffffffffffffffffffffffff16816020015173ffffffffffffffffffffffffffffffffffffffff1614611d6c576040517f08c379a0000000000000000000000000000000000000000000000000000000008152600401611d6390613d1c565b60405180910390fd5b8060800151421115611db3576040517f08c379a0000000000000000000000000000000000000000000000000000000008152600401611daa90613d88565b60405180910390fd5b600015158160e00151151514611dfe576040517f08c379a0000000000000000000000000000000000000000000000000000000008152600401611df590613df4565b60405180910390fd5b6000816060015190508073ffffffffffffffffffffffffffffffffffffffff1663a9059cbb338460c001516040518363ffffffff1660e01b8152600401611e46929190613fc8565b6020604051808303816000875af1158015611e65573d6000803e3d6000fd5b505050506040513d601f19601f82011682018060405250810190611e899190613f9b565b506000600160003373ffffffffffffffffffffffffffffffffffffffff1673ffffffffffffffffffffffffffffffffffffffff168152602001908152602001600020805480602002602001604051908101604052809291908181526020018280548015611f1557602002820191906000526020600020905b815481526020019060010190808311611f01575b50505050509050600060026000856040015173ffffffffffffffffffffffffffffffffffffffff1673ffffffffffffffffffffffffffffffffffffffff168152602001908152602001600020805480602002602001604051908101604052809291908181526020018280548015611fab57602002820191906000526020600020905b815481526020019060010190808311611f97575b5050505050905060005b82518110156120df5785838281518110611fd257611fd1613c90565b5b6020026020010151036120cc578260018451611fee9190613f1b565b81518110611fff57611ffe613c90565b5b6020026020010151600160003373ffffffffffffffffffffffffffffffffffffffff1673ffffffffffffffffffffffffffffffffffffffff168152602001908152602001600020828154811061205857612057613c90565b5b9060005260206000200181905550600160003373ffffffffffffffffffffffffffffffffffffffff1673ffffffffffffffffffffffffffffffffffffffff1681526020019081526020016000208054806120b5576120b4614100565b5b600190038181906000526020600020016000905590555b80806120d79061412f565b915050611fb5565b5060005b81518110156122155785828281518110612100576120ff613c90565b5b60200260200101510361220257816001835161211c9190613f1b565b8151811061212d5761212c613c90565b5b602002602001015160026000876040015173ffffffffffffffffffffffffffffffffffffffff1673ffffffffffffffffffffffffffffffffffffffff168152602001908152602001600020828154811061218a57612189613c90565b5b906000526020600020018190555060026000866040015173ffffffffffffffffffffffffffffffffffffffff1673ffffffffffffffffffffffffffffffffffffffff1681526020019081526020016000208054806121eb576121ea614100565b5b600190038181906000526020600020016000905590555b808061220d9061412f565b9150506120e3565b506000858154811061222a57612229613c90565b5b90600052602060002090600802016000808201600090556001820160006101000a81549073ffffffffffffffffffffffffffffffffffffffff02191690556002820160006101000a81549073ffffffffffffffffffffffffffffffffffffffff02191690556003820160006101000a81549073ffffffffffffffffffffffffffffffffffffffff02191690556004820160009055600582016000905560068201600090556007820160006101000a81549060ff021916905550507f2e6ce80b05d67b5aba812f8e95333d141bb7fd2d335f955800635cfdbbb8630e8533866040015160405161231b939291906142b1565b60405180910390a15050505050565b60606000600260008473ffffffffffffffffffffffffffffffffffffffff1673ffffffffffffffffffffffffffffffffffffffff1681526020019081526020016000208054806020026020016040519081016040528092919081815260200182805480156123b757602002820191906000526020600020905b8154815260200190600101908083116123a3575b505050505090506000815167ffffffffffffffff8111156123db576123da61424e565b5b60405190808252806020026020018201604052801561241457816020015b6124016136ac565b8152602001906001900390816123f95790505b50905060005b82518110156125e157600083828151811061243857612437613c90565b5b60200260200101518154811061245157612450613c90565b5b906000526020600020906008020160405180610100016040529081600082015481526020016001820160009054906101000a900473ffffffffffffffffffffffffffffffffffffffff1673ffffffffffffffffffffffffffffffffffffffff1673ffffffffffffffffffffffffffffffffffffffff1681526020016002820160009054906101000a900473ffffffffffffffffffffffffffffffffffffffff1673ffffffffffffffffffffffffffffffffffffffff1673ffffffffffffffffffffffffffffffffffffffff1681526020016003820160009054906101000a900473ffffffffffffffffffffffffffffffffffffffff1673ffffffffffffffffffffffffffffffffffffffff1673ffffffffffffffffffffffffffffffffffffffff1681526020016004820154815260200160058201548152602001600682015481526020016007820160009054906101000a900460ff1615151515815250508282815181106125c3576125c2613c90565b5b602002602001018190525080806125d99061412f565b91505061241a565b508092505050919050565b6001602052816000526040600020818154811061260857600080fd5b90600052602060002001600091509150505481565b600073ffffffffffffffffffffffffffffffffffffffff168473ffffffffffffffffffffffffffffffffffffffff160361268c576040517f08c379a000000000000000000000000000000000000000000000000000000000815260040161268390614334565b60405180910390fd5b600073ffffffffffffffffffffffffffffffffffffffff168373ffffffffffffffffffffffffffffffffffffffff16036126fb576040517f08c379a00000000000000000000000000000000000000000000000000000000081526004016126f2906143a0565b60405180910390fd5b42821161273d576040517f08c379a00000000000000000000000000000000000000000000000000000000081526004016127349061422e565b60405180910390fd5b60008103612780576040517f08c379a000000000000000000000000000000000000000000000000000000000815260040161277790613e60565b60405180910390fd5b60008390508073ffffffffffffffffffffffffffffffffffffffff166323b872dd3330856040518463ffffffff1660e01b81526004016127c293929190613f4f565b6020604051808303816000875af11580156127e1573d6000803e3d6000fd5b505050506040513d601f19601f820116820180604052508101906128059190613f9b565b5060008080549050905060006040518061010001604052808381526020013373ffffffffffffffffffffffffffffffffffffffff1681526020018873ffffffffffffffffffffffffffffffffffffffff1681526020018773ffffffffffffffffffffffffffffffffffffffff16815260200186815260200142876128899190613f1b565b8152602001858152602001600015158152509050600160003373ffffffffffffffffffffffffffffffffffffffff1673ffffffffffffffffffffffffffffffffffffffff168152602001908152602001600020829080600181540180825580915050600190039060005260206000200160009091909190915055600260008873ffffffffffffffffffffffffffffffffffffffff1673ffffffffffffffffffffffffffffffffffffffff16815260200190815260200160002082908060018154018082558091505060019003906000526020600020016000909190919091505560008190806001815401808255809150506001900390600052602060002090600802016000909190919091506000820151816000015560208201518160010160006101000a81548173ffffffffffffffffffffffffffffffffffffffff021916908373ffffffffffffffffffffffffffffffffffffffff16021790555060408201518160020160006101000a81548173ffffffffffffffffffffffffffffffffffffffff021916908373ffffffffffffffffffffffffffffffffffffffff16021790555060608201518160030160006101000a81548173ffffffffffffffffffffffffffffffffffffffff021916908373ffffffffffffffffffffffffffffffffffffffff1602179055506080820151816004015560a0820151816005015560c0820151816006015560e08201518160070160006101000a81548160ff02191690831515021790555050507f13f4f2b8e248db04b9c06909af2f8eb5954c0a467baaa4823e14a9f55dee9b45823389898989604051612aed969594939291906143c0565b60405180910390a150505050505050565b6000808381548110612b1357612b12613c90565b5b906000526020600020906008020160405180610100016040529081600082015481526020016001820160009054906101000a900473ffffffffffffffffffffffffffffffffffffffff1673ffffffffffffffffffffffffffffffffffffffff1673ffffffffffffffffffffffffffffffffffffffff1681526020016002820160009054906101000a900473ffffffffffffffffffffffffffffffffffffffff1673ffffffffffffffffffffffffffffffffffffffff1673ffffffffffffffffffffffffffffffffffffffff1681526020016003820160009054906101000a900473ffffffffffffffffffffffffffffffffffffffff1673ffffffffffffffffffffffffffffffffffffffff1673ffffffffffffffffffffffffffffffffffffffff1681526020016004820154815260200160058201548152602001600682015481526020016007820160009054906101000a900460ff16151515158152505090503373ffffffffffffffffffffffffffffffffffffffff16816020015173ffffffffffffffffffffffffffffffffffffffff1614612ce6576040517f08c379a0000000000000000000000000000000000000000000000000000000008152600401612cdd90613d1c565b60405180910390fd5b8173ffffffffffffffffffffffffffffffffffffffff16816040015173ffffffffffffffffffffffffffffffffffffffff1603612d58576040517f08c379a0000000000000000000000000000000000000000000000000000000008152600401612d4f9061446d565b60405180910390fd5b600073ffffffffffffffffffffffffffffffffffffffff16816040015173ffffffffffffffffffffffffffffffffffffffff1603612dcb576040517f08c379a0000000000000000000000000000000000000000000000000000000008152600401612dc290614334565b60405180910390fd5b8060800151421115612e12576040517f08c379a0000000000000000000000000000000000000000000000000000000008152600401612e0990613d88565b60405180910390fd5b600015158160e00151151514612e5d576040517f08c379a0000000000000000000000000000000000000000000000000000000008152600401612e5490613df4565b60405180910390fd5b600060026000836040015173ffffffffffffffffffffffffffffffffffffffff1673ffffffffffffffffffffffffffffffffffffffff168152602001908152602001600020805480602002602001604051908101604052809291908181526020018280548015612eec57602002820191906000526020600020905b815481526020019060010190808311612ed8575b5050505050905060005b81518110156130285784828281518110612f1357612f12613c90565b5b602002602001015103613015578160018351612f2f9190613f1b565b81518110612f4057612f3f613c90565b5b602002602001015160026000856040015173ffffffffffffffffffffffffffffffffffffffff1673ffffffffffffffffffffffffffffffffffffffff1681526020019081526020016000208281548110612f9d57612f9c613c90565b5b906000526020600020018190555060026000846040015173ffffffffffffffffffffffffffffffffffffffff1673ffffffffffffffffffffffffffffffffffffffff168152602001908152602001600020805480612ffe57612ffd614100565b5b600190038181906000526020600020016000905590555b80806130209061412f565b915050612ef6565b50600260008473ffffffffffffffffffffffffffffffffffffffff1673ffffffffffffffffffffffffffffffffffffffff16815260200190815260200160002084908060018154018082558091505060019003906000526020600020016000909190919091505582826040019073ffffffffffffffffffffffffffffffffffffffff16908173ffffffffffffffffffffffffffffffffffffffff168152505081600085815481106130dc576130db613c90565b5b90600052602060002090600802016000820151816000015560208201518160010160006101000a81548173ffffffffffffffffffffffffffffffffffffffff021916908373ffffffffffffffffffffffffffffffffffffffff16021790555060408201518160020160006101000a81548173ffffffffffffffffffffffffffffffffffffffff021916908373ffffffffffffffffffffffffffffffffffffffff16021790555060608201518160030160006101000a81548173ffffffffffffffffffffffffffffffffffffffff021916908373ffffffffffffffffffffffffffffffffffffffff1602179055506080820151816004015560a0820151816005015560c0820151816006015560e08201518160070160006101000a81548160ff0219169083151502179055509050507f2ae974d7f90755778f8a13273920e403d2265f2f0063297e45c50d873f3fad6f84338560405161323d939291906142b1565b60405180910390a150505050565b60008082815481106132605761325f613c90565b5b906000526020600020906008020160405180610100016040529081600082015481526020016001820160009054906101000a900473ffffffffffffffffffffffffffffffffffffffff1673ffffffffffffffffffffffffffffffffffffffff1673ffffffffffffffffffffffffffffffffffffffff1681526020016002820160009054906101000a900473ffffffffffffffffffffffffffffffffffffffff1673ffffffffffffffffffffffffffffffffffffffff1673ffffffffffffffffffffffffffffffffffffffff1681526020016003820160009054906101000a900473ffffffffffffffffffffffffffffffffffffffff1673ffffffffffffffffffffffffffffffffffffffff1673ffffffffffffffffffffffffffffffffffffffff1681526020016004820154815260200160058201548152602001600682015481526020016007820160009054906101000a900460ff16151515158152505090503373ffffffffffffffffffffffffffffffffffffffff16816020015173ffffffffffffffffffffffffffffffffffffffff1614613433576040517f08c379a000000000000000000000000000000000000000000000000000000000815260040161342a90613d1c565b60405180910390fd5b6000428260a00151613445919061427d565b905080826080018181525050816000848154811061346657613465613c90565b5b90600052602060002090600802016000820151816000015560208201518160010160006101000a81548173ffffffffffffffffffffffffffffffffffffffff021916908373ffffffffffffffffffffffffffffffffffffffff16021790555060408201518160020160006101000a81548173ffffffffffffffffffffffffffffffffffffffff021916908373ffffffffffffffffffffffffffffffffffffffff16021790555060608201518160030160006101000a81548173ffffffffffffffffffffffffffffffffffffffff021916908373ffffffffffffffffffffffffffffffffffffffff1602179055506080820151816004015560a0820151816005015560c0820151816006015560e08201518160070160006101000a81548160ff021916908315150217905550905050505050565b600081815481106135a957600080fd5b90600052602060002090600802016000915090508060000154908060010160009054906101000a900473ffffffffffffffffffffffffffffffffffffffff16908060020160009054906101000a900473ffffffffffffffffffffffffffffffffffffffff16908060030160009054906101000a900473ffffffffffffffffffffffffffffffffffffffff16908060040154908060050154908060060154908060070160009054906101000a900460ff16905088565b60011515831515036136755761367487876110d8565b5b600115158215150361368c5761368b8786612afe565b5b60011515811515036136a3576136a287856102d0565b5b50505050505050565b60405180610100016040528060008152602001600073ffffffffffffffffffffffffffffffffffffffff168152602001600073ffffffffffffffffffffffffffffffffffffffff168152602001600073ffffffffffffffffffffffffffffffffffffffff1681526020016000815260200160008152602001600081526020016000151581525090565b600080fd5b6000819050919050565b61374d8161373a565b811461375857600080fd5b50565b60008135905061376a81613744565b92915050565b6000806040838503121561378757613786613735565b5b60006137958582860161375b565b92505060206137a68582860161375b565b9150509250929050565b6000602082840312156137c6576137c5613735565b5b60006137d48482850161375b565b91505092915050565b600073ffffffffffffffffffffffffffffffffffffffff82169050919050565b6000613808826137dd565b9050919050565b613818816137fd565b811461382357600080fd5b50565b6000813590506138358161380f565b92915050565b60006020828403121561385157613850613735565b5b600061385f84828501613826565b91505092915050565b600081519050919050565b600082825260208201905092915050565b6000819050602082019050919050565b61389d8161373a565b82525050565b6138ac816137fd565b82525050565b60008115159050919050565b6138c7816138b2565b82525050565b610100820160008201516138e46000850182613894565b5060208201516138f760208501826138a3565b50604082015161390a60408501826138a3565b50606082015161391d60608501826138a3565b5060808201516139306080850182613894565b5060a082015161394360a0850182613894565b5060c082015161395660c0850182613894565b5060e082015161396960e08501826138be565b50505050565b600061397b83836138cd565b6101008301905092915050565b6000602082019050919050565b60006139a082613868565b6139aa8185613873565b93506139b583613884565b8060005b838110156139e65781516139cd888261396f565b97506139d883613988565b9250506001810190506139b9565b5085935050505092915050565b60006020820190508181036000830152613a0d8184613995565b905092915050565b60008060408385031215613a2c57613a2b613735565b5b6000613a3a85828601613826565b9250506020613a4b8582860161375b565b9150509250929050565b613a5e8161373a565b82525050565b6000602082019050613a796000830184613a55565b92915050565b60008060008060808587031215613a9957613a98613735565b5b6000613aa787828801613826565b9450506020613ab887828801613826565b9350506040613ac98782880161375b565b9250506060613ada8782880161375b565b91505092959194509250565b60008060408385031215613afd57613afc613735565b5b6000613b0b8582860161375b565b9250506020613b1c85828601613826565b9150509250929050565b613b2f816137fd565b82525050565b613b3e816138b2565b82525050565b600061010082019050613b5a600083018b613a55565b613b67602083018a613b26565b613b746040830189613b26565b613b816060830188613b26565b613b8e6080830187613a55565b613b9b60a0830186613a55565b613ba860c0830185613a55565b613bb560e0830184613b35565b9998505050505050505050565b613bcb816138b2565b8114613bd657600080fd5b50565b600081359050613be881613bc2565b92915050565b600080600080600080600060e0888a031215613c0d57613c0c613735565b5b6000613c1b8a828b0161375b565b9750506020613c2c8a828b0161375b565b9650506040613c3d8a828b01613826565b9550506060613c4e8a828b0161375b565b9450506080613c5f8a828b01613bd9565b93505060a0613c708a828b01613bd9565b92505060c0613c818a828b01613bd9565b91505092959891949750929550565b7f4e487b7100000000000000000000000000000000000000000000000000000000600052603260045260246000fd5b600082825260208201905092915050565b7f48657269746167653a20596f75206e6f74206f776e6572000000000000000000600082015250565b6000613d06601783613cbf565b9150613d1182613cd0565b602082019050919050565b60006020820190508181036000830152613d3581613cf9565b9050919050565b7f48657269746167653a2054696d65206973206f76657220796574000000000000600082015250565b6000613d72601a83613cbf565b9150613d7d82613d3c565b602082019050919050565b60006020820190508181036000830152613da181613d65565b9050919050565b7f48657269746167653a20416c72656164792077697468647261776e0000000000600082015250565b6000613dde601b83613cbf565b9150613de982613da8565b602082019050919050565b60006020820190508181036000830152613e0d81613dd1565b9050919050565b7f48657269746167653a20416d6f756e7420300000000000000000000000000000600082015250565b6000613e4a601283613cbf565b9150613e5582613e14565b602082019050919050565b60006020820190508181036000830152613e7981613e3d565b9050919050565b7f48657269746167653a20416d6f756e74206973207468652073616d6500000000600082015250565b6000613eb6601c83613cbf565b9150613ec182613e80565b602082019050919050565b60006020820190508181036000830152613ee581613ea9565b9050919050565b7f4e487b7100000000000000000000000000000000000000000000000000000000600052601160045260246000fd5b6000613f268261373a565b9150613f318361373a565b9250828203905081811115613f4957613f48613eec565b5b92915050565b6000606082019050613f646000830186613b26565b613f716020830185613b26565b613f7e6040830184613a55565b949350505050565b600081519050613f9581613bc2565b92915050565b600060208284031215613fb157613fb0613735565b5b6000613fbf84828501613f86565b91505092915050565b6000604082019050613fdd6000830185613b26565b613fea6020830184613a55565b9392505050565b60006060820190506140066000830186613a55565b6140136020830185613b26565b6140206040830184613a55565b949350505050565b7f48657269746167653a20596f75206e6f74206865697200000000000000000000600082015250565b600061405e601683613cbf565b915061406982614028565b602082019050919050565b6000602082019050818103600083015261408d81614051565b9050919050565b7f48657269746167653a2054696d65206973206e6f74206f766572207965740000600082015250565b60006140ca601e83613cbf565b91506140d582614094565b602082019050919050565b600060208201905081810360008301526140f9816140bd565b9050919050565b7f4e487b7100000000000000000000000000000000000000000000000000000000600052603160045260246000fd5b600061413a8261373a565b91507fffffffffffffffffffffffffffffffffffffffffffffffffffffffffffffffff820361416c5761416b613eec565b5b600182019050919050565b600060808201905061418c6000830187613a55565b6141996020830186613b26565b6141a66040830185613b26565b6141b36060830184613a55565b95945050505050565b7f48657269746167653a2054696d65207768656e2077697468647261772069732060008201527f6c6f776572207468656e206e6f77000000000000000000000000000000000000602082015250565b6000614218602e83613cbf565b9150614223826141bc565b604082019050919050565b600060208201905081810360008301526142478161420b565b9050919050565b7f4e487b7100000000000000000000000000000000000000000000000000000000600052604160045260246000fd5b60006142888261373a565b91506142938361373a565b92508282019050808211156142ab576142aa613eec565b5b92915050565b60006060820190506142c66000830186613a55565b6142d36020830185613b26565b6142e06040830184613b26565b949350505050565b7f48657269746167653a2048656972206973206164647265737328302900000000600082015250565b600061431e601c83613cbf565b9150614329826142e8565b602082019050919050565b6000602082019050818103600083015261434d81614311565b9050919050565b7f48657269746167653a20546f6b656e2069732061646472657373283029000000600082015250565b600061438a601d83613cbf565b915061439582614354565b602082019050919050565b600060208201905081810360008301526143b98161437d565b9050919050565b600060c0820190506143d56000830189613a55565b6143e26020830188613b26565b6143ef6040830187613b26565b6143fc6060830186613b26565b6144096080830185613a55565b61441660a0830184613a55565b979650505050505050565b7f48657269746167653a2053616d65206865697200000000000000000000000000600082015250565b6000614457601383613cbf565b915061446282614421565b602082019050919050565b600060208201905081810360008301526144868161444a565b905091905056fea2646970667358221220b32fd6ad76f49a47a43602ab4b535ae80c5e8666b1b05b9da8b41fa5dd2f50f864736f6c63430008110033",
  "linkReferences": {},
  "deployedLinkReferences": {}
}