{
  "_format": "hh-sol-artifact-1",
  "contractName": "TheWill",
  "sourceName": "contracts/TheWill.sol",
  "abi": [
    {
      "anonymous": false,
      "inputs": [
        {
          "indexed": false,
          "internalType": "uint256",
          "name": "ID",
          "type": "uint256"
        },
        {
          "indexed": false,
          "internalType": "address",
          "name": "heir",
          "type": "address"
        },
        {
          "indexed": false,
          "internalType": "address",
          "name": "token",
          "type": "address"
        },
        {
          "indexed": false,
          "internalType": "uint256",
          "name": "timeWhenWithdraw",
          "type": "uint256"
        },
        {
          "indexed": false,
          "internalType": "uint256",
          "name": "amount",
          "type": "uint256"
        }
      ],
      "name": "AddAnHeir",
      "type": "event"
    },
    {
      "anonymous": false,
      "inputs": [
        {
          "indexed": false,
          "internalType": "uint256",
          "name": "ID",
          "type": "uint256"
        },
        {
          "indexed": false,
          "internalType": "uint256",
          "name": "timeWhenWithdrawn",
          "type": "uint256"
        }
      ],
      "name": "Withdraw",
      "type": "event"
    },
    {
      "inputs": [
        {
          "internalType": "address",
          "name": "heir",
          "type": "address"
        },
        {
          "internalType": "address",
          "name": "token",
          "type": "address"
        },
        {
          "internalType": "uint256",
          "name": "timeWhenWithdraw",
          "type": "uint256"
        },
        {
          "internalType": "uint256",
          "name": "amount",
          "type": "uint256"
        }
      ],
      "name": "addNewWill",
      "outputs": [],
      "stateMutability": "nonpayable",
      "type": "function"
    },
    {
      "inputs": [
        {
          "internalType": "address",
          "name": "heir",
          "type": "address"
        }
      ],
      "name": "getAllInheritances",
      "outputs": [
        {
          "components": [
            {
              "internalType": "uint256",
              "name": "ID",
              "type": "uint256"
            },
            {
              "internalType": "address",
              "name": "owner",
              "type": "address"
            },
            {
              "internalType": "address",
              "name": "heir",
              "type": "address"
            },
            {
              "internalType": "address",
              "name": "token",
              "type": "address"
            },
            {
              "internalType": "uint256",
              "name": "timeWhenWithdraw",
              "type": "uint256"
            },
            {
              "internalType": "uint256",
              "name": "amount",
              "type": "uint256"
            },
            {
              "internalType": "bool",
              "name": "done",
              "type": "bool"
            }
          ],
          "internalType": "struct IHeritage.InheritanceData[]",
          "name": "",
          "type": "tuple[]"
        }
      ],
      "stateMutability": "view",
      "type": "function"
    },
    {
      "inputs": [
        {
          "internalType": "address",
          "name": "owner",
          "type": "address"
        }
      ],
      "name": "getAllWills",
      "outputs": [
        {
          "components": [
            {
              "internalType": "uint256",
              "name": "ID",
              "type": "uint256"
            },
            {
              "internalType": "address",
              "name": "owner",
              "type": "address"
            },
            {
              "internalType": "address",
              "name": "heir",
              "type": "address"
            },
            {
              "internalType": "address",
              "name": "token",
              "type": "address"
            },
            {
              "internalType": "uint256",
              "name": "timeWhenWithdraw",
              "type": "uint256"
            },
            {
              "internalType": "uint256",
              "name": "amount",
              "type": "uint256"
            },
            {
              "internalType": "bool",
              "name": "done",
              "type": "bool"
            }
          ],
          "internalType": "struct IHeritage.InheritanceData[]",
          "name": "",
          "type": "tuple[]"
        }
      ],
      "stateMutability": "view",
      "type": "function"
    },
    {
      "inputs": [
        {
          "internalType": "uint256",
          "name": "",
          "type": "uint256"
        }
      ],
      "name": "inheritanceData",
      "outputs": [
        {
          "internalType": "uint256",
          "name": "ID",
          "type": "uint256"
        },
        {
          "internalType": "address",
          "name": "owner",
          "type": "address"
        },
        {
          "internalType": "address",
          "name": "heir",
          "type": "address"
        },
        {
          "internalType": "address",
          "name": "token",
          "type": "address"
        },
        {
          "internalType": "uint256",
          "name": "timeWhenWithdraw",
          "type": "uint256"
        },
        {
          "internalType": "uint256",
          "name": "amount",
          "type": "uint256"
        },
        {
          "internalType": "bool",
          "name": "done",
          "type": "bool"
        }
      ],
      "stateMutability": "view",
      "type": "function"
    },
    {
      "inputs": [
        {
          "internalType": "address",
          "name": "",
          "type": "address"
        }
      ],
      "name": "inheritancesAmountHeir",
      "outputs": [
        {
          "internalType": "uint64",
          "name": "",
          "type": "uint64"
        }
      ],
      "stateMutability": "view",
      "type": "function"
    },
    {
      "inputs": [
        {
          "internalType": "address",
          "name": "",
          "type": "address"
        }
      ],
      "name": "inheritancesAmountOwner",
      "outputs": [
        {
          "internalType": "uint64",
          "name": "",
          "type": "uint64"
        }
      ],
      "stateMutability": "view",
      "type": "function"
    },
    {
      "inputs": [
        {
          "internalType": "uint256",
          "name": "ID",
          "type": "uint256"
        }
      ],
      "name": "removeWill",
      "outputs": [],
      "stateMutability": "nonpayable",
      "type": "function"
    },
    {
      "inputs": [
        {
          "internalType": "uint256",
          "name": "ID",
          "type": "uint256"
        },
        {
          "internalType": "address",
          "name": "_heir",
          "type": "address"
        }
      ],
      "name": "updateAnHeir",
      "outputs": [],
      "stateMutability": "nonpayable",
      "type": "function"
    },
    {
      "inputs": [
        {
          "internalType": "uint256",
          "name": "ID",
          "type": "uint256"
        },
        {
          "internalType": "uint256",
          "name": "newTime",
          "type": "uint256"
        }
      ],
      "name": "updateWillTimeWhenWithdraw",
      "outputs": [],
      "stateMutability": "nonpayable",
      "type": "function"
    },
    {
      "inputs": [
        {
          "internalType": "uint256",
          "name": "ID",
          "type": "uint256"
        }
      ],
      "name": "withdraw",
      "outputs": [],
      "stateMutability": "nonpayable",
      "type": "function"
    }
  ],
  "bytecode": "0x608060405234801561001057600080fd5b50613054806100206000396000f3fe608060405234801561001057600080fd5b506004361061009e5760003560e01c80636aec1106116100665780636aec1106146101575780639c7e996814610187578063b282e7b8146101a3578063dac1215b146101bf578063e41c377c146101ef5761009e565b80632e1a7d4d146100a357806333a8a2fb146100bf57806334b12c2b146100db57806343cc60b11461010b5780635dae92d814610127575b600080fd5b6100bd60048036038101906100b891906124e8565b610225565b005b6100d960048036038101906100d49190612515565b6107c1565b005b6100f560048036038101906100f091906125b3565b610bba565b6040516101029190612756565b60405180910390f35b610125600480360381019061012091906124e8565b610f27565b005b610141600480360381019061013c91906125b3565b6114be565b60405161014e919061279b565b60405180910390f35b610171600480360381019061016c91906125b3565b6114e5565b60405161017e9190612756565b60405180910390f35b6101a1600480360381019061019c91906127b6565b611852565b005b6101bd60048036038101906101b8919061281d565b611d66565b005b6101d960048036038101906101d491906125b3565b612346565b6040516101e6919061279b565b60405180910390f35b610209600480360381019061020491906124e8565b61236d565b60405161021c979695949392919061288a565b60405180910390f35b600080828154811061023a576102396128f9565b5b90600052602060002090600702016040518060e0016040529081600082015481526020016001820160009054906101000a900473ffffffffffffffffffffffffffffffffffffffff1673ffffffffffffffffffffffffffffffffffffffff1673ffffffffffffffffffffffffffffffffffffffff1681526020016002820160009054906101000a900473ffffffffffffffffffffffffffffffffffffffff1673ffffffffffffffffffffffffffffffffffffffff1673ffffffffffffffffffffffffffffffffffffffff1681526020016003820160009054906101000a900473ffffffffffffffffffffffffffffffffffffffff1673ffffffffffffffffffffffffffffffffffffffff1673ffffffffffffffffffffffffffffffffffffffff16815260200160048201548152602001600582015481526020016006820160009054906101000a900460ff1615151515815250509050806040015173ffffffffffffffffffffffffffffffffffffffff163373ffffffffffffffffffffffffffffffffffffffff1614610402576040517f08c379a00000000000000000000000000000000000000000000000000000000081526004016103f990612985565b60405180910390fd5b8060800151421015610449576040517f08c379a0000000000000000000000000000000000000000000000000000000008152600401610440906129f1565b60405180910390fd5b600015158160c00151151514610494576040517f08c379a000000000000000000000000000000000000000000000000000000000815260040161048b90612a5d565b60405180910390fd5b60018160c00190151590811515815250506001806000836020015173ffffffffffffffffffffffffffffffffffffffff1673ffffffffffffffffffffffffffffffffffffffff16815260200190815260200160002060008282829054906101000a900467ffffffffffffffff1661050b9190612aac565b92506101000a81548167ffffffffffffffff021916908367ffffffffffffffff160217905550600160026000836040015173ffffffffffffffffffffffffffffffffffffffff1673ffffffffffffffffffffffffffffffffffffffff16815260200190815260200160002060008282829054906101000a900467ffffffffffffffff166105989190612aac565b92506101000a81548167ffffffffffffffff021916908367ffffffffffffffff1602179055506000816060015190508073ffffffffffffffffffffffffffffffffffffffff1663a9059cbb338460a001516040518363ffffffff1660e01b8152600401610606929190612ae8565b6020604051808303816000875af1158015610625573d6000803e3d6000fd5b505050506040513d601f19601f820116820180604052508101906106499190612b3d565b50816000848154811061065f5761065e6128f9565b5b90600052602060002090600702016000820151816000015560208201518160010160006101000a81548173ffffffffffffffffffffffffffffffffffffffff021916908373ffffffffffffffffffffffffffffffffffffffff16021790555060408201518160020160006101000a81548173ffffffffffffffffffffffffffffffffffffffff021916908373ffffffffffffffffffffffffffffffffffffffff16021790555060608201518160030160006101000a81548173ffffffffffffffffffffffffffffffffffffffff021916908373ffffffffffffffffffffffffffffffffffffffff1602179055506080820151816004015560a0820151816005015560c08201518160060160006101000a81548160ff0219169083151502179055509050507f56ca301a9219608c91e7bcee90e083c19671d2cdcc96752c7af291cee5f9c8c883426040516107b4929190612b6a565b60405180910390a1505050565b60008083815481106107d6576107d56128f9565b5b90600052602060002090600702016040518060e0016040529081600082015481526020016001820160009054906101000a900473ffffffffffffffffffffffffffffffffffffffff1673ffffffffffffffffffffffffffffffffffffffff1673ffffffffffffffffffffffffffffffffffffffff1681526020016002820160009054906101000a900473ffffffffffffffffffffffffffffffffffffffff1673ffffffffffffffffffffffffffffffffffffffff1673ffffffffffffffffffffffffffffffffffffffff1681526020016003820160009054906101000a900473ffffffffffffffffffffffffffffffffffffffff1673ffffffffffffffffffffffffffffffffffffffff1673ffffffffffffffffffffffffffffffffffffffff16815260200160048201548152602001600582015481526020016006820160009054906101000a900460ff16151515158152505090503373ffffffffffffffffffffffffffffffffffffffff16816020015173ffffffffffffffffffffffffffffffffffffffff161461099e576040517f08c379a000000000000000000000000000000000000000000000000000000000815260040161099590612bdf565b60405180910390fd5b80608001514211156109e5576040517f08c379a00000000000000000000000000000000000000000000000000000000081526004016109dc90612c4b565b60405180910390fd5b428211610a27576040517f08c379a0000000000000000000000000000000000000000000000000000000008152600401610a1e90612cdd565b60405180910390fd5b600015158160c00151151514610a72576040517f08c379a0000000000000000000000000000000000000000000000000000000008152600401610a6990612a5d565b60405180910390fd5b818160800181815250508060008481548110610a9157610a906128f9565b5b90600052602060002090600702016000820151816000015560208201518160010160006101000a81548173ffffffffffffffffffffffffffffffffffffffff021916908373ffffffffffffffffffffffffffffffffffffffff16021790555060408201518160020160006101000a81548173ffffffffffffffffffffffffffffffffffffffff021916908373ffffffffffffffffffffffffffffffffffffffff16021790555060608201518160030160006101000a81548173ffffffffffffffffffffffffffffffffffffffff021916908373ffffffffffffffffffffffffffffffffffffffff1602179055506080820151816004015560a0820151816005015560c08201518160060160006101000a81548160ff021916908315150217905550905050505050565b60606000600160008473ffffffffffffffffffffffffffffffffffffffff1673ffffffffffffffffffffffffffffffffffffffff16815260200190815260200160002060009054906101000a900467ffffffffffffffff1667ffffffffffffffff1667ffffffffffffffff811115610c3557610c34612cfd565b5b604051908082528060200260200182016040528015610c6e57816020015b610c5b61242c565b815260200190600190039081610c535790505b5090506000600160008573ffffffffffffffffffffffffffffffffffffffff1673ffffffffffffffffffffffffffffffffffffffff16815260200190815260200160002060009054906101000a900467ffffffffffffffff1667ffffffffffffffff1603610cdf5780915050610f22565b6000805b600080549050811015610f1b578473ffffffffffffffffffffffffffffffffffffffff1660008281548110610d1b57610d1a6128f9565b5b906000526020600020906007020160010160009054906101000a900473ffffffffffffffffffffffffffffffffffffffff1673ffffffffffffffffffffffffffffffffffffffff1603610f085760008181548110610d7c57610d7b6128f9565b5b90600052602060002090600702016040518060e0016040529081600082015481526020016001820160009054906101000a900473ffffffffffffffffffffffffffffffffffffffff1673ffffffffffffffffffffffffffffffffffffffff1673ffffffffffffffffffffffffffffffffffffffff1681526020016002820160009054906101000a900473ffffffffffffffffffffffffffffffffffffffff1673ffffffffffffffffffffffffffffffffffffffff1673ffffffffffffffffffffffffffffffffffffffff1681526020016003820160009054906101000a900473ffffffffffffffffffffffffffffffffffffffff1673ffffffffffffffffffffffffffffffffffffffff1673ffffffffffffffffffffffffffffffffffffffff16815260200160048201548152602001600582015481526020016006820160009054906101000a900460ff161515151581525050838367ffffffffffffffff1681518110610eed57610eec6128f9565b5b6020026020010181905250600182610f059190612d2c565b91505b8080610f1390612d68565b915050610ce3565b5081925050505b919050565b6000808281548110610f3c57610f3b6128f9565b5b90600052602060002090600702016040518060e0016040529081600082015481526020016001820160009054906101000a900473ffffffffffffffffffffffffffffffffffffffff1673ffffffffffffffffffffffffffffffffffffffff1673ffffffffffffffffffffffffffffffffffffffff1681526020016002820160009054906101000a900473ffffffffffffffffffffffffffffffffffffffff1673ffffffffffffffffffffffffffffffffffffffff1673ffffffffffffffffffffffffffffffffffffffff1681526020016003820160009054906101000a900473ffffffffffffffffffffffffffffffffffffffff1673ffffffffffffffffffffffffffffffffffffffff1673ffffffffffffffffffffffffffffffffffffffff16815260200160048201548152602001600582015481526020016006820160009054906101000a900460ff16151515158152505090503373ffffffffffffffffffffffffffffffffffffffff16816020015173ffffffffffffffffffffffffffffffffffffffff1614611104576040517f08c379a00000000000000000000000000000000000000000000000000000000081526004016110fb90612bdf565b60405180910390fd5b806080015142111561114b576040517f08c379a000000000000000000000000000000000000000000000000000000000815260040161114290612c4b565b60405180910390fd5b600015158160c00151151514611196576040517f08c379a000000000000000000000000000000000000000000000000000000000815260040161118d90612a5d565b60405180910390fd5b6000816060015190508073ffffffffffffffffffffffffffffffffffffffff1663a9059cbb338460a001516040518363ffffffff1660e01b81526004016111de929190612ae8565b6020604051808303816000875af11580156111fd573d6000803e3d6000fd5b505050506040513d601f19601f820116820180604052508101906112219190612b3d565b506001806000846020015173ffffffffffffffffffffffffffffffffffffffff1673ffffffffffffffffffffffffffffffffffffffff16815260200190815260200160002060008282829054906101000a900467ffffffffffffffff166112889190612aac565b92506101000a81548167ffffffffffffffff021916908367ffffffffffffffff1602179055506000826020019073ffffffffffffffffffffffffffffffffffffffff16908173ffffffffffffffffffffffffffffffffffffffff168152505060008260a00181815250506000826060019073ffffffffffffffffffffffffffffffffffffffff16908173ffffffffffffffffffffffffffffffffffffffff16815250506000826040019073ffffffffffffffffffffffffffffffffffffffff16908173ffffffffffffffffffffffffffffffffffffffff1681525050600082608001818152505060008260c00190151590811515815250508160008481548110611395576113946128f9565b5b90600052602060002090600702016000820151816000015560208201518160010160006101000a81548173ffffffffffffffffffffffffffffffffffffffff021916908373ffffffffffffffffffffffffffffffffffffffff16021790555060408201518160020160006101000a81548173ffffffffffffffffffffffffffffffffffffffff021916908373ffffffffffffffffffffffffffffffffffffffff16021790555060608201518160030160006101000a81548173ffffffffffffffffffffffffffffffffffffffff021916908373ffffffffffffffffffffffffffffffffffffffff1602179055506080820151816004015560a0820151816005015560c08201518160060160006101000a81548160ff021916908315150217905550905050505050565b60016020528060005260406000206000915054906101000a900467ffffffffffffffff1681565b60606000600260008473ffffffffffffffffffffffffffffffffffffffff1673ffffffffffffffffffffffffffffffffffffffff16815260200190815260200160002060009054906101000a900467ffffffffffffffff1667ffffffffffffffff1667ffffffffffffffff8111156115605761155f612cfd565b5b60405190808252806020026020018201604052801561159957816020015b61158661242c565b81526020019060019003908161157e5790505b5090506000600260008573ffffffffffffffffffffffffffffffffffffffff1673ffffffffffffffffffffffffffffffffffffffff16815260200190815260200160002060009054906101000a900467ffffffffffffffff1667ffffffffffffffff160361160a578091505061184d565b6000805b600080549050811015611846578473ffffffffffffffffffffffffffffffffffffffff1660008281548110611646576116456128f9565b5b906000526020600020906007020160020160009054906101000a900473ffffffffffffffffffffffffffffffffffffffff1673ffffffffffffffffffffffffffffffffffffffff160361183357600081815481106116a7576116a66128f9565b5b90600052602060002090600702016040518060e0016040529081600082015481526020016001820160009054906101000a900473ffffffffffffffffffffffffffffffffffffffff1673ffffffffffffffffffffffffffffffffffffffff1673ffffffffffffffffffffffffffffffffffffffff1681526020016002820160009054906101000a900473ffffffffffffffffffffffffffffffffffffffff1673ffffffffffffffffffffffffffffffffffffffff1673ffffffffffffffffffffffffffffffffffffffff1681526020016003820160009054906101000a900473ffffffffffffffffffffffffffffffffffffffff1673ffffffffffffffffffffffffffffffffffffffff1673ffffffffffffffffffffffffffffffffffffffff16815260200160048201548152602001600582015481526020016006820160009054906101000a900460ff161515151581525050838367ffffffffffffffff1681518110611818576118176128f9565b5b60200260200101819052506001826118309190612d2c565b91505b808061183e90612d68565b91505061160e565b5081925050505b919050565b600073ffffffffffffffffffffffffffffffffffffffff168473ffffffffffffffffffffffffffffffffffffffff16036118c1576040517f08c379a00000000000000000000000000000000000000000000000000000000081526004016118b890612dfc565b60405180910390fd5b600073ffffffffffffffffffffffffffffffffffffffff168373ffffffffffffffffffffffffffffffffffffffff1603611930576040517f08c379a000000000000000000000000000000000000000000000000000000000815260040161192790612e68565b60405180910390fd5b428211611972576040517f08c379a000000000000000000000000000000000000000000000000000000000815260040161196990612cdd565b60405180910390fd5b600081036119b5576040517f08c379a00000000000000000000000000000000000000000000000000000000081526004016119ac90612ed4565b60405180910390fd5b60008390508073ffffffffffffffffffffffffffffffffffffffff166323b872dd3330856040518463ffffffff1660e01b81526004016119f793929190612ef4565b6020604051808303816000875af1158015611a16573d6000803e3d6000fd5b505050506040513d601f19601f82011682018060405250810190611a3a9190612b3d565b5060006040518060e0016040528060008054905081526020013373ffffffffffffffffffffffffffffffffffffffff1681526020018773ffffffffffffffffffffffffffffffffffffffff1681526020018673ffffffffffffffffffffffffffffffffffffffff16815260200185815260200184815260200160001515815250905060008190806001815401808255809150506001900390600052602060002090600702016000909190919091506000820151816000015560208201518160010160006101000a81548173ffffffffffffffffffffffffffffffffffffffff021916908373ffffffffffffffffffffffffffffffffffffffff16021790555060408201518160020160006101000a81548173ffffffffffffffffffffffffffffffffffffffff021916908373ffffffffffffffffffffffffffffffffffffffff16021790555060608201518160030160006101000a81548173ffffffffffffffffffffffffffffffffffffffff021916908373ffffffffffffffffffffffffffffffffffffffff1602179055506080820151816004015560a0820151816005015560c08201518160060160006101000a81548160ff021916908315150217905550505060018060003373ffffffffffffffffffffffffffffffffffffffff1673ffffffffffffffffffffffffffffffffffffffff16815260200190815260200160002060008282829054906101000a900467ffffffffffffffff16611c5f9190612d2c565b92506101000a81548167ffffffffffffffff021916908367ffffffffffffffff1602179055506001600260008873ffffffffffffffffffffffffffffffffffffffff1673ffffffffffffffffffffffffffffffffffffffff16815260200190815260200160002060008282829054906101000a900467ffffffffffffffff16611ce89190612d2c565b92506101000a81548167ffffffffffffffff021916908367ffffffffffffffff1602179055507f811f15659bb1e8b798231524857e53faeb3bff2a90fc2bf81ebbc80747e81e356001600080549050611d419190612f2b565b87878787604051611d56959493929190612f5f565b60405180910390a1505050505050565b6000808381548110611d7b57611d7a6128f9565b5b90600052602060002090600702016040518060e0016040529081600082015481526020016001820160009054906101000a900473ffffffffffffffffffffffffffffffffffffffff1673ffffffffffffffffffffffffffffffffffffffff1673ffffffffffffffffffffffffffffffffffffffff1681526020016002820160009054906101000a900473ffffffffffffffffffffffffffffffffffffffff1673ffffffffffffffffffffffffffffffffffffffff1673ffffffffffffffffffffffffffffffffffffffff1681526020016003820160009054906101000a900473ffffffffffffffffffffffffffffffffffffffff1673ffffffffffffffffffffffffffffffffffffffff1673ffffffffffffffffffffffffffffffffffffffff16815260200160048201548152602001600582015481526020016006820160009054906101000a900460ff16151515158152505090503373ffffffffffffffffffffffffffffffffffffffff16816020015173ffffffffffffffffffffffffffffffffffffffff1614611f43576040517f08c379a0000000000000000000000000000000000000000000000000000000008152600401611f3a90612bdf565b60405180910390fd5b8173ffffffffffffffffffffffffffffffffffffffff16816040015173ffffffffffffffffffffffffffffffffffffffff1603611fb5576040517f08c379a0000000000000000000000000000000000000000000000000000000008152600401611fac90612ffe565b60405180910390fd5b600073ffffffffffffffffffffffffffffffffffffffff16816040015173ffffffffffffffffffffffffffffffffffffffff1603612028576040517f08c379a000000000000000000000000000000000000000000000000000000000815260040161201f90612dfc565b60405180910390fd5b806080015142111561206f576040517f08c379a000000000000000000000000000000000000000000000000000000000815260040161206690612c4b565b60405180910390fd5b600015158160c001511515146120ba576040517f08c379a00000000000000000000000000000000000000000000000000000000081526004016120b190612a5d565b60405180910390fd5b600160026000836040015173ffffffffffffffffffffffffffffffffffffffff1673ffffffffffffffffffffffffffffffffffffffff16815260200190815260200160002060008282829054906101000a900467ffffffffffffffff166121219190612aac565b92506101000a81548167ffffffffffffffff021916908367ffffffffffffffff16021790555081816040019073ffffffffffffffffffffffffffffffffffffffff16908173ffffffffffffffffffffffffffffffffffffffff16815250506001600260008473ffffffffffffffffffffffffffffffffffffffff1673ffffffffffffffffffffffffffffffffffffffff16815260200190815260200160002060008282829054906101000a900467ffffffffffffffff166121e29190612d2c565b92506101000a81548167ffffffffffffffff021916908367ffffffffffffffff160217905550806000848154811061221d5761221c6128f9565b5b90600052602060002090600702016000820151816000015560208201518160010160006101000a81548173ffffffffffffffffffffffffffffffffffffffff021916908373ffffffffffffffffffffffffffffffffffffffff16021790555060408201518160020160006101000a81548173ffffffffffffffffffffffffffffffffffffffff021916908373ffffffffffffffffffffffffffffffffffffffff16021790555060608201518160030160006101000a81548173ffffffffffffffffffffffffffffffffffffffff021916908373ffffffffffffffffffffffffffffffffffffffff1602179055506080820151816004015560a0820151816005015560c08201518160060160006101000a81548160ff021916908315150217905550905050505050565b60026020528060005260406000206000915054906101000a900467ffffffffffffffff1681565b6000818154811061237d57600080fd5b90600052602060002090600702016000915090508060000154908060010160009054906101000a900473ffffffffffffffffffffffffffffffffffffffff16908060020160009054906101000a900473ffffffffffffffffffffffffffffffffffffffff16908060030160009054906101000a900473ffffffffffffffffffffffffffffffffffffffff16908060040154908060050154908060060160009054906101000a900460ff16905087565b6040518060e0016040528060008152602001600073ffffffffffffffffffffffffffffffffffffffff168152602001600073ffffffffffffffffffffffffffffffffffffffff168152602001600073ffffffffffffffffffffffffffffffffffffffff16815260200160008152602001600081526020016000151581525090565b600080fd5b6000819050919050565b6124c5816124b2565b81146124d057600080fd5b50565b6000813590506124e2816124bc565b92915050565b6000602082840312156124fe576124fd6124ad565b5b600061250c848285016124d3565b91505092915050565b6000806040838503121561252c5761252b6124ad565b5b600061253a858286016124d3565b925050602061254b858286016124d3565b9150509250929050565b600073ffffffffffffffffffffffffffffffffffffffff82169050919050565b600061258082612555565b9050919050565b61259081612575565b811461259b57600080fd5b50565b6000813590506125ad81612587565b92915050565b6000602082840312156125c9576125c86124ad565b5b60006125d78482850161259e565b91505092915050565b600081519050919050565b600082825260208201905092915050565b6000819050602082019050919050565b612615816124b2565b82525050565b61262481612575565b82525050565b60008115159050919050565b61263f8161262a565b82525050565b60e08201600082015161265b600085018261260c565b50602082015161266e602085018261261b565b506040820151612681604085018261261b565b506060820151612694606085018261261b565b5060808201516126a7608085018261260c565b5060a08201516126ba60a085018261260c565b5060c08201516126cd60c0850182612636565b50505050565b60006126df8383612645565b60e08301905092915050565b6000602082019050919050565b6000612703826125e0565b61270d81856125eb565b9350612718836125fc565b8060005b8381101561274957815161273088826126d3565b975061273b836126eb565b92505060018101905061271c565b5085935050505092915050565b6000602082019050818103600083015261277081846126f8565b905092915050565b600067ffffffffffffffff82169050919050565b61279581612778565b82525050565b60006020820190506127b0600083018461278c565b92915050565b600080600080608085870312156127d0576127cf6124ad565b5b60006127de8782880161259e565b94505060206127ef8782880161259e565b9350506040612800878288016124d3565b9250506060612811878288016124d3565b91505092959194509250565b60008060408385031215612834576128336124ad565b5b6000612842858286016124d3565b92505060206128538582860161259e565b9150509250929050565b612866816124b2565b82525050565b61287581612575565b82525050565b6128848161262a565b82525050565b600060e08201905061289f600083018a61285d565b6128ac602083018961286c565b6128b9604083018861286c565b6128c6606083018761286c565b6128d3608083018661285d565b6128e060a083018561285d565b6128ed60c083018461287b565b98975050505050505050565b7f4e487b7100000000000000000000000000000000000000000000000000000000600052603260045260246000fd5b600082825260208201905092915050565b7f48657269746167653a20596f75206e6f74206865697200000000000000000000600082015250565b600061296f601683612928565b915061297a82612939565b602082019050919050565b6000602082019050818103600083015261299e81612962565b9050919050565b7f48657269746167653a2054696d65206973206e6f74206f766572207965740000600082015250565b60006129db601e83612928565b91506129e6826129a5565b602082019050919050565b60006020820190508181036000830152612a0a816129ce565b9050919050565b7f48657269746167653a20416c72656164792077697468647261776e0000000000600082015250565b6000612a47601b83612928565b9150612a5282612a11565b602082019050919050565b60006020820190508181036000830152612a7681612a3a565b9050919050565b7f4e487b7100000000000000000000000000000000000000000000000000000000600052601160045260246000fd5b6000612ab782612778565b9150612ac283612778565b9250828203905067ffffffffffffffff811115612ae257612ae1612a7d565b5b92915050565b6000604082019050612afd600083018561286c565b612b0a602083018461285d565b9392505050565b612b1a8161262a565b8114612b2557600080fd5b50565b600081519050612b3781612b11565b92915050565b600060208284031215612b5357612b526124ad565b5b6000612b6184828501612b28565b91505092915050565b6000604082019050612b7f600083018561285d565b612b8c602083018461285d565b9392505050565b7f48657269746167653a20596f75206e6f74206f776e6572000000000000000000600082015250565b6000612bc9601783612928565b9150612bd482612b93565b602082019050919050565b60006020820190508181036000830152612bf881612bbc565b9050919050565b7f48657269746167653a2054696d65206973206f76657220796574000000000000600082015250565b6000612c35601a83612928565b9150612c4082612bff565b602082019050919050565b60006020820190508181036000830152612c6481612c28565b9050919050565b7f48657269746167653a2054696d65207768656e2077697468647261772069732060008201527f6c6f776572207468656e206e6f77000000000000000000000000000000000000602082015250565b6000612cc7602e83612928565b9150612cd282612c6b565b604082019050919050565b60006020820190508181036000830152612cf681612cba565b9050919050565b7f4e487b7100000000000000000000000000000000000000000000000000000000600052604160045260246000fd5b6000612d3782612778565b9150612d4283612778565b9250828201905067ffffffffffffffff811115612d6257612d61612a7d565b5b92915050565b6000612d73826124b2565b91507fffffffffffffffffffffffffffffffffffffffffffffffffffffffffffffffff8203612da557612da4612a7d565b5b600182019050919050565b7f48657269746167653a2048656972206973206164647265737328302900000000600082015250565b6000612de6601c83612928565b9150612df182612db0565b602082019050919050565b60006020820190508181036000830152612e1581612dd9565b9050919050565b7f48657269746167653a20546f6b656e2069732061646472657373283029000000600082015250565b6000612e52601d83612928565b9150612e5d82612e1c565b602082019050919050565b60006020820190508181036000830152612e8181612e45565b9050919050565b7f48657269746167653a20416d6f756e7420300000000000000000000000000000600082015250565b6000612ebe601283612928565b9150612ec982612e88565b602082019050919050565b60006020820190508181036000830152612eed81612eb1565b9050919050565b6000606082019050612f09600083018661286c565b612f16602083018561286c565b612f23604083018461285d565b949350505050565b6000612f36826124b2565b9150612f41836124b2565b9250828203905081811115612f5957612f58612a7d565b5b92915050565b600060a082019050612f74600083018861285d565b612f81602083018761286c565b612f8e604083018661286c565b612f9b606083018561285d565b612fa8608083018461285d565b9695505050505050565b7f48657269746167653a2053616d65206865697200000000000000000000000000600082015250565b6000612fe8601383612928565b9150612ff382612fb2565b602082019050919050565b6000602082019050818103600083015261301781612fdb565b905091905056fea26469706673582212207129bbe65a4d671598fe6e2ae03ab60fb243ce863539f0de6ff18a008ec8417164736f6c63430008110033",
  "linkReferences": {},
  "deployedLinkReferences": {}
}