{
  "_format": "hh-sol-artifact-1",
  "contractName": "TheWill",
  "sourceName": "contracts/TheWill.sol",
  "abi": [
    {
      "anonymous": false,
      "inputs": [
        {
          "indexed": false,
          "internalType": "uint256",
          "name": "ID",
          "type": "uint256"
        },
        {
          "indexed": false,
          "internalType": "address",
          "name": "owner",
          "type": "address"
        },
        {
          "indexed": false,
          "internalType": "address",
          "name": "heir",
          "type": "address"
        },
        {
          "indexed": false,
          "internalType": "address",
          "name": "token",
          "type": "address"
        },
        {
          "indexed": false,
          "internalType": "uint256",
          "name": "timeWhenWithdraw",
          "type": "uint256"
        },
        {
          "indexed": false,
          "internalType": "uint256",
          "name": "amount",
          "type": "uint256"
        }
      ],
      "name": "AddAnHeir",
      "type": "event"
    },
    {
      "anonymous": false,
      "inputs": [
        {
          "indexed": false,
          "internalType": "uint256",
          "name": "ID",
          "type": "uint256"
        },
        {
          "indexed": false,
          "internalType": "address",
          "name": "owner",
          "type": "address"
        },
        {
          "indexed": false,
          "internalType": "address",
          "name": "heir",
          "type": "address"
        }
      ],
      "name": "RemoveWill",
      "type": "event"
    },
    {
      "anonymous": false,
      "inputs": [
        {
          "indexed": false,
          "internalType": "uint256",
          "name": "ID",
          "type": "uint256"
        },
        {
          "indexed": false,
          "internalType": "address",
          "name": "owner",
          "type": "address"
        },
        {
          "indexed": false,
          "internalType": "address",
          "name": "newHeir",
          "type": "address"
        }
      ],
      "name": "UpdateAnHeir",
      "type": "event"
    },
    {
      "anonymous": false,
      "inputs": [
        {
          "indexed": false,
          "internalType": "uint256",
          "name": "ID",
          "type": "uint256"
        },
        {
          "indexed": false,
          "internalType": "address",
          "name": "owner",
          "type": "address"
        },
        {
          "indexed": false,
          "internalType": "address",
          "name": "heir",
          "type": "address"
        },
        {
          "indexed": false,
          "internalType": "uint256",
          "name": "newTime",
          "type": "uint256"
        }
      ],
      "name": "UpdateWillTimeWhenWithdraw",
      "type": "event"
    },
    {
      "anonymous": false,
      "inputs": [
        {
          "indexed": false,
          "internalType": "uint256",
          "name": "ID",
          "type": "uint256"
        },
        {
          "indexed": false,
          "internalType": "address",
          "name": "owner",
          "type": "address"
        },
        {
          "indexed": false,
          "internalType": "address",
          "name": "heir",
          "type": "address"
        },
        {
          "indexed": false,
          "internalType": "uint256",
          "name": "timeWhenWithdrawn",
          "type": "uint256"
        }
      ],
      "name": "Withdraw",
      "type": "event"
    },
    {
      "inputs": [
        {
          "internalType": "address",
          "name": "heir",
          "type": "address"
        },
        {
          "internalType": "address",
          "name": "token",
          "type": "address"
        },
        {
          "internalType": "uint256",
          "name": "timeWhenWithdraw",
          "type": "uint256"
        },
        {
          "internalType": "uint256",
          "name": "amount",
          "type": "uint256"
        }
      ],
      "name": "addNewWill",
      "outputs": [],
      "stateMutability": "nonpayable",
      "type": "function"
    },
    {
      "inputs": [
        {
          "internalType": "address",
          "name": "heir",
          "type": "address"
        }
      ],
      "name": "getAllInheritances",
      "outputs": [
        {
          "components": [
            {
              "internalType": "uint256",
              "name": "ID",
              "type": "uint256"
            },
            {
              "internalType": "address",
              "name": "owner",
              "type": "address"
            },
            {
              "internalType": "address",
              "name": "heir",
              "type": "address"
            },
            {
              "internalType": "address",
              "name": "token",
              "type": "address"
            },
            {
              "internalType": "uint256",
              "name": "timeWhenWithdraw",
              "type": "uint256"
            },
            {
              "internalType": "uint256",
              "name": "amount",
              "type": "uint256"
            },
            {
              "internalType": "bool",
              "name": "done",
              "type": "bool"
            }
          ],
          "internalType": "struct IHeritage.InheritanceData[]",
          "name": "",
          "type": "tuple[]"
        }
      ],
      "stateMutability": "view",
      "type": "function"
    },
    {
      "inputs": [
        {
          "internalType": "address",
          "name": "owner",
          "type": "address"
        }
      ],
      "name": "getAllWills",
      "outputs": [
        {
          "components": [
            {
              "internalType": "uint256",
              "name": "ID",
              "type": "uint256"
            },
            {
              "internalType": "address",
              "name": "owner",
              "type": "address"
            },
            {
              "internalType": "address",
              "name": "heir",
              "type": "address"
            },
            {
              "internalType": "address",
              "name": "token",
              "type": "address"
            },
            {
              "internalType": "uint256",
              "name": "timeWhenWithdraw",
              "type": "uint256"
            },
            {
              "internalType": "uint256",
              "name": "amount",
              "type": "uint256"
            },
            {
              "internalType": "bool",
              "name": "done",
              "type": "bool"
            }
          ],
          "internalType": "struct IHeritage.InheritanceData[]",
          "name": "",
          "type": "tuple[]"
        }
      ],
      "stateMutability": "view",
      "type": "function"
    },
    {
      "inputs": [
        {
          "internalType": "uint256",
          "name": "",
          "type": "uint256"
        }
      ],
      "name": "inheritanceData",
      "outputs": [
        {
          "internalType": "uint256",
          "name": "ID",
          "type": "uint256"
        },
        {
          "internalType": "address",
          "name": "owner",
          "type": "address"
        },
        {
          "internalType": "address",
          "name": "heir",
          "type": "address"
        },
        {
          "internalType": "address",
          "name": "token",
          "type": "address"
        },
        {
          "internalType": "uint256",
          "name": "timeWhenWithdraw",
          "type": "uint256"
        },
        {
          "internalType": "uint256",
          "name": "amount",
          "type": "uint256"
        },
        {
          "internalType": "bool",
          "name": "done",
          "type": "bool"
        }
      ],
      "stateMutability": "view",
      "type": "function"
    },
    {
      "inputs": [
        {
          "internalType": "address",
          "name": "",
          "type": "address"
        }
      ],
      "name": "inheritancesAmountHeir",
      "outputs": [
        {
          "internalType": "uint64",
          "name": "",
          "type": "uint64"
        }
      ],
      "stateMutability": "view",
      "type": "function"
    },
    {
      "inputs": [
        {
          "internalType": "address",
          "name": "",
          "type": "address"
        }
      ],
      "name": "inheritancesAmountOwner",
      "outputs": [
        {
          "internalType": "uint64",
          "name": "",
          "type": "uint64"
        }
      ],
      "stateMutability": "view",
      "type": "function"
    },
    {
      "inputs": [
        {
          "internalType": "uint256",
          "name": "ID",
          "type": "uint256"
        }
      ],
      "name": "removeWill",
      "outputs": [],
      "stateMutability": "nonpayable",
      "type": "function"
    },
    {
      "inputs": [
        {
          "internalType": "uint256",
          "name": "ID",
          "type": "uint256"
        },
        {
          "internalType": "address",
          "name": "_heir",
          "type": "address"
        }
      ],
      "name": "updateAnHeir",
      "outputs": [],
      "stateMutability": "nonpayable",
      "type": "function"
    },
    {
      "inputs": [
        {
          "internalType": "uint256",
          "name": "ID",
          "type": "uint256"
        },
        {
          "internalType": "uint256",
          "name": "newTime",
          "type": "uint256"
        }
      ],
      "name": "updateWillTimeWhenWithdraw",
      "outputs": [],
      "stateMutability": "nonpayable",
      "type": "function"
    },
    {
      "inputs": [
        {
          "internalType": "uint256",
          "name": "ID",
          "type": "uint256"
        }
      ],
      "name": "withdraw",
      "outputs": [],
      "stateMutability": "nonpayable",
      "type": "function"
    }
  ],
  "bytecode": "0x608060405234801561001057600080fd5b5061317a806100206000396000f3fe608060405234801561001057600080fd5b506004361061009e5760003560e01c80636aec1106116100665780636aec1106146101575780639c7e996814610187578063b282e7b8146101a3578063dac1215b146101bf578063e41c377c146101ef5761009e565b80632e1a7d4d146100a357806333a8a2fb146100bf57806334b12c2b146100db57806343cc60b11461010b5780635dae92d814610127575b600080fd5b6100bd60048036038101906100b891906125ad565b610225565b005b6100d960048036038101906100d491906125da565b6107c9565b005b6100f560048036038101906100f09190612678565b610c03565b604051610102919061281b565b60405180910390f35b610125600480360381019061012091906125ad565b610f70565b005b610141600480360381019061013c9190612678565b611546565b60405161014e9190612860565b60405180910390f35b610171600480360381019061016c9190612678565b61156d565b60405161017e919061281b565b60405180910390f35b6101a1600480360381019061019c919061287b565b6118da565b005b6101bd60048036038101906101b891906128e2565b611df0565b005b6101d960048036038101906101d49190612678565b61240b565b6040516101e69190612860565b60405180910390f35b610209600480360381019061020491906125ad565b612432565b60405161021c979695949392919061294f565b60405180910390f35b600080828154811061023a576102396129be565b5b90600052602060002090600702016040518060e0016040529081600082015481526020016001820160009054906101000a900473ffffffffffffffffffffffffffffffffffffffff1673ffffffffffffffffffffffffffffffffffffffff1673ffffffffffffffffffffffffffffffffffffffff1681526020016002820160009054906101000a900473ffffffffffffffffffffffffffffffffffffffff1673ffffffffffffffffffffffffffffffffffffffff1673ffffffffffffffffffffffffffffffffffffffff1681526020016003820160009054906101000a900473ffffffffffffffffffffffffffffffffffffffff1673ffffffffffffffffffffffffffffffffffffffff1673ffffffffffffffffffffffffffffffffffffffff16815260200160048201548152602001600582015481526020016006820160009054906101000a900460ff1615151515815250509050806040015173ffffffffffffffffffffffffffffffffffffffff163373ffffffffffffffffffffffffffffffffffffffff1614610402576040517f08c379a00000000000000000000000000000000000000000000000000000000081526004016103f990612a4a565b60405180910390fd5b8060800151421015610449576040517f08c379a000000000000000000000000000000000000000000000000000000000815260040161044090612ab6565b60405180910390fd5b600015158160c00151151514610494576040517f08c379a000000000000000000000000000000000000000000000000000000000815260040161048b90612b22565b60405180910390fd5b60018160c00190151590811515815250506001806000836020015173ffffffffffffffffffffffffffffffffffffffff1673ffffffffffffffffffffffffffffffffffffffff16815260200190815260200160002060008282829054906101000a900467ffffffffffffffff1661050b9190612b71565b92506101000a81548167ffffffffffffffff021916908367ffffffffffffffff160217905550600160026000836040015173ffffffffffffffffffffffffffffffffffffffff1673ffffffffffffffffffffffffffffffffffffffff16815260200190815260200160002060008282829054906101000a900467ffffffffffffffff166105989190612b71565b92506101000a81548167ffffffffffffffff021916908367ffffffffffffffff1602179055506000816060015190508073ffffffffffffffffffffffffffffffffffffffff1663a9059cbb338460a001516040518363ffffffff1660e01b8152600401610606929190612bad565b6020604051808303816000875af1158015610625573d6000803e3d6000fd5b505050506040513d601f19601f820116820180604052508101906106499190612c02565b507ffeb2000dca3e617cd6f3a8bbb63014bb54a124aac6ccbf73ee7229b4cd01f12083836020015133426040516106839493929190612c2f565b60405180910390a181600084815481106106a05761069f6129be565b5b90600052602060002090600702016000820151816000015560208201518160010160006101000a81548173ffffffffffffffffffffffffffffffffffffffff021916908373ffffffffffffffffffffffffffffffffffffffff16021790555060408201518160020160006101000a81548173ffffffffffffffffffffffffffffffffffffffff021916908373ffffffffffffffffffffffffffffffffffffffff16021790555060608201518160030160006101000a81548173ffffffffffffffffffffffffffffffffffffffff021916908373ffffffffffffffffffffffffffffffffffffffff1602179055506080820151816004015560a0820151816005015560c08201518160060160006101000a81548160ff021916908315150217905550905050505050565b60008083815481106107de576107dd6129be565b5b90600052602060002090600702016040518060e0016040529081600082015481526020016001820160009054906101000a900473ffffffffffffffffffffffffffffffffffffffff1673ffffffffffffffffffffffffffffffffffffffff1673ffffffffffffffffffffffffffffffffffffffff1681526020016002820160009054906101000a900473ffffffffffffffffffffffffffffffffffffffff1673ffffffffffffffffffffffffffffffffffffffff1673ffffffffffffffffffffffffffffffffffffffff1681526020016003820160009054906101000a900473ffffffffffffffffffffffffffffffffffffffff1673ffffffffffffffffffffffffffffffffffffffff1673ffffffffffffffffffffffffffffffffffffffff16815260200160048201548152602001600582015481526020016006820160009054906101000a900460ff16151515158152505090503373ffffffffffffffffffffffffffffffffffffffff16816020015173ffffffffffffffffffffffffffffffffffffffff16146109a6576040517f08c379a000000000000000000000000000000000000000000000000000000000815260040161099d90612cc0565b60405180910390fd5b80608001514211156109ed576040517f08c379a00000000000000000000000000000000000000000000000000000000081526004016109e490612d2c565b60405180910390fd5b428211610a2f576040517f08c379a0000000000000000000000000000000000000000000000000000000008152600401610a2690612dbe565b60405180910390fd5b600015158160c00151151514610a7a576040517f08c379a0000000000000000000000000000000000000000000000000000000008152600401610a7190612b22565b60405180910390fd5b818160800181815250508060008481548110610a9957610a986129be565b5b90600052602060002090600702016000820151816000015560208201518160010160006101000a81548173ffffffffffffffffffffffffffffffffffffffff021916908373ffffffffffffffffffffffffffffffffffffffff16021790555060408201518160020160006101000a81548173ffffffffffffffffffffffffffffffffffffffff021916908373ffffffffffffffffffffffffffffffffffffffff16021790555060608201518160030160006101000a81548173ffffffffffffffffffffffffffffffffffffffff021916908373ffffffffffffffffffffffffffffffffffffffff1602179055506080820151816004015560a0820151816005015560c08201518160060160006101000a81548160ff0219169083151502179055509050507ff6d4f4eb4a955223539787dd64c67a7a9571039c5deccabaf47d097f93e8b41f8333836040015185604051610bf69493929190612c2f565b60405180910390a1505050565b60606000600160008473ffffffffffffffffffffffffffffffffffffffff1673ffffffffffffffffffffffffffffffffffffffff16815260200190815260200160002060009054906101000a900467ffffffffffffffff1667ffffffffffffffff1667ffffffffffffffff811115610c7e57610c7d612dde565b5b604051908082528060200260200182016040528015610cb757816020015b610ca46124f1565b815260200190600190039081610c9c5790505b5090506000600160008573ffffffffffffffffffffffffffffffffffffffff1673ffffffffffffffffffffffffffffffffffffffff16815260200190815260200160002060009054906101000a900467ffffffffffffffff1667ffffffffffffffff1603610d285780915050610f6b565b6000805b600080549050811015610f64578473ffffffffffffffffffffffffffffffffffffffff1660008281548110610d6457610d636129be565b5b906000526020600020906007020160010160009054906101000a900473ffffffffffffffffffffffffffffffffffffffff1673ffffffffffffffffffffffffffffffffffffffff1603610f515760008181548110610dc557610dc46129be565b5b90600052602060002090600702016040518060e0016040529081600082015481526020016001820160009054906101000a900473ffffffffffffffffffffffffffffffffffffffff1673ffffffffffffffffffffffffffffffffffffffff1673ffffffffffffffffffffffffffffffffffffffff1681526020016002820160009054906101000a900473ffffffffffffffffffffffffffffffffffffffff1673ffffffffffffffffffffffffffffffffffffffff1673ffffffffffffffffffffffffffffffffffffffff1681526020016003820160009054906101000a900473ffffffffffffffffffffffffffffffffffffffff1673ffffffffffffffffffffffffffffffffffffffff1673ffffffffffffffffffffffffffffffffffffffff16815260200160048201548152602001600582015481526020016006820160009054906101000a900460ff161515151581525050838367ffffffffffffffff1681518110610f3657610f356129be565b5b6020026020010181905250600182610f4e9190612e0d565b91505b8080610f5c90612e49565b915050610d2c565b5081925050505b919050565b6000808281548110610f8557610f846129be565b5b90600052602060002090600702016040518060e0016040529081600082015481526020016001820160009054906101000a900473ffffffffffffffffffffffffffffffffffffffff1673ffffffffffffffffffffffffffffffffffffffff1673ffffffffffffffffffffffffffffffffffffffff1681526020016002820160009054906101000a900473ffffffffffffffffffffffffffffffffffffffff1673ffffffffffffffffffffffffffffffffffffffff1673ffffffffffffffffffffffffffffffffffffffff1681526020016003820160009054906101000a900473ffffffffffffffffffffffffffffffffffffffff1673ffffffffffffffffffffffffffffffffffffffff1673ffffffffffffffffffffffffffffffffffffffff16815260200160048201548152602001600582015481526020016006820160009054906101000a900460ff16151515158152505090503373ffffffffffffffffffffffffffffffffffffffff16816020015173ffffffffffffffffffffffffffffffffffffffff161461114d576040517f08c379a000000000000000000000000000000000000000000000000000000000815260040161114490612cc0565b60405180910390fd5b8060800151421115611194576040517f08c379a000000000000000000000000000000000000000000000000000000000815260040161118b90612d2c565b60405180910390fd5b600015158160c001511515146111df576040517f08c379a00000000000000000000000000000000000000000000000000000000081526004016111d690612b22565b60405180910390fd5b6000816060015190508073ffffffffffffffffffffffffffffffffffffffff1663a9059cbb338460a001516040518363ffffffff1660e01b8152600401611227929190612bad565b6020604051808303816000875af1158015611246573d6000803e3d6000fd5b505050506040513d601f19601f8201168201806040525081019061126a9190612c02565b506001806000846020015173ffffffffffffffffffffffffffffffffffffffff1673ffffffffffffffffffffffffffffffffffffffff16815260200190815260200160002060008282829054906101000a900467ffffffffffffffff166112d19190612b71565b92506101000a81548167ffffffffffffffff021916908367ffffffffffffffff1602179055507f2e6ce80b05d67b5aba812f8e95333d141bb7fd2d335f955800635cfdbbb8630e8333846040015160405161132e93929190612e91565b60405180910390a16000826020019073ffffffffffffffffffffffffffffffffffffffff16908173ffffffffffffffffffffffffffffffffffffffff168152505060008260a00181815250506000826060019073ffffffffffffffffffffffffffffffffffffffff16908173ffffffffffffffffffffffffffffffffffffffff16815250506000826040019073ffffffffffffffffffffffffffffffffffffffff16908173ffffffffffffffffffffffffffffffffffffffff1681525050600082608001818152505060008260c0019015159081151581525050816000848154811061141d5761141c6129be565b5b90600052602060002090600702016000820151816000015560208201518160010160006101000a81548173ffffffffffffffffffffffffffffffffffffffff021916908373ffffffffffffffffffffffffffffffffffffffff16021790555060408201518160020160006101000a81548173ffffffffffffffffffffffffffffffffffffffff021916908373ffffffffffffffffffffffffffffffffffffffff16021790555060608201518160030160006101000a81548173ffffffffffffffffffffffffffffffffffffffff021916908373ffffffffffffffffffffffffffffffffffffffff1602179055506080820151816004015560a0820151816005015560c08201518160060160006101000a81548160ff021916908315150217905550905050505050565b60016020528060005260406000206000915054906101000a900467ffffffffffffffff1681565b60606000600260008473ffffffffffffffffffffffffffffffffffffffff1673ffffffffffffffffffffffffffffffffffffffff16815260200190815260200160002060009054906101000a900467ffffffffffffffff1667ffffffffffffffff1667ffffffffffffffff8111156115e8576115e7612dde565b5b60405190808252806020026020018201604052801561162157816020015b61160e6124f1565b8152602001906001900390816116065790505b5090506000600260008573ffffffffffffffffffffffffffffffffffffffff1673ffffffffffffffffffffffffffffffffffffffff16815260200190815260200160002060009054906101000a900467ffffffffffffffff1667ffffffffffffffff160361169257809150506118d5565b6000805b6000805490508110156118ce578473ffffffffffffffffffffffffffffffffffffffff16600082815481106116ce576116cd6129be565b5b906000526020600020906007020160020160009054906101000a900473ffffffffffffffffffffffffffffffffffffffff1673ffffffffffffffffffffffffffffffffffffffff16036118bb576000818154811061172f5761172e6129be565b5b90600052602060002090600702016040518060e0016040529081600082015481526020016001820160009054906101000a900473ffffffffffffffffffffffffffffffffffffffff1673ffffffffffffffffffffffffffffffffffffffff1673ffffffffffffffffffffffffffffffffffffffff1681526020016002820160009054906101000a900473ffffffffffffffffffffffffffffffffffffffff1673ffffffffffffffffffffffffffffffffffffffff1673ffffffffffffffffffffffffffffffffffffffff1681526020016003820160009054906101000a900473ffffffffffffffffffffffffffffffffffffffff1673ffffffffffffffffffffffffffffffffffffffff1673ffffffffffffffffffffffffffffffffffffffff16815260200160048201548152602001600582015481526020016006820160009054906101000a900460ff161515151581525050838367ffffffffffffffff16815181106118a05761189f6129be565b5b60200260200101819052506001826118b89190612e0d565b91505b80806118c690612e49565b915050611696565b5081925050505b919050565b600073ffffffffffffffffffffffffffffffffffffffff168473ffffffffffffffffffffffffffffffffffffffff1603611949576040517f08c379a000000000000000000000000000000000000000000000000000000000815260040161194090612f14565b60405180910390fd5b600073ffffffffffffffffffffffffffffffffffffffff168373ffffffffffffffffffffffffffffffffffffffff16036119b8576040517f08c379a00000000000000000000000000000000000000000000000000000000081526004016119af90612f80565b60405180910390fd5b4282116119fa576040517f08c379a00000000000000000000000000000000000000000000000000000000081526004016119f190612dbe565b60405180910390fd5b60008103611a3d576040517f08c379a0000000000000000000000000000000000000000000000000000000008152600401611a3490612fec565b60405180910390fd5b60008390508073ffffffffffffffffffffffffffffffffffffffff166323b872dd3330856040518463ffffffff1660e01b8152600401611a7f9392919061300c565b6020604051808303816000875af1158015611a9e573d6000803e3d6000fd5b505050506040513d601f19601f82011682018060405250810190611ac29190612c02565b5060006040518060e0016040528060008054905081526020013373ffffffffffffffffffffffffffffffffffffffff1681526020018773ffffffffffffffffffffffffffffffffffffffff1681526020018673ffffffffffffffffffffffffffffffffffffffff16815260200185815260200184815260200160001515815250905060008190806001815401808255809150506001900390600052602060002090600702016000909190919091506000820151816000015560208201518160010160006101000a81548173ffffffffffffffffffffffffffffffffffffffff021916908373ffffffffffffffffffffffffffffffffffffffff16021790555060408201518160020160006101000a81548173ffffffffffffffffffffffffffffffffffffffff021916908373ffffffffffffffffffffffffffffffffffffffff16021790555060608201518160030160006101000a81548173ffffffffffffffffffffffffffffffffffffffff021916908373ffffffffffffffffffffffffffffffffffffffff1602179055506080820151816004015560a0820151816005015560c08201518160060160006101000a81548160ff021916908315150217905550505060018060003373ffffffffffffffffffffffffffffffffffffffff1673ffffffffffffffffffffffffffffffffffffffff16815260200190815260200160002060008282829054906101000a900467ffffffffffffffff16611ce79190612e0d565b92506101000a81548167ffffffffffffffff021916908367ffffffffffffffff1602179055506001600260008873ffffffffffffffffffffffffffffffffffffffff1673ffffffffffffffffffffffffffffffffffffffff16815260200190815260200160002060008282829054906101000a900467ffffffffffffffff16611d709190612e0d565b92506101000a81548167ffffffffffffffff021916908367ffffffffffffffff1602179055507f13f4f2b8e248db04b9c06909af2f8eb5954c0a467baaa4823e14a9f55dee9b456001600080549050611dc99190613043565b3388888888604051611de096959493929190613077565b60405180910390a1505050505050565b6000808381548110611e0557611e046129be565b5b90600052602060002090600702016040518060e0016040529081600082015481526020016001820160009054906101000a900473ffffffffffffffffffffffffffffffffffffffff1673ffffffffffffffffffffffffffffffffffffffff1673ffffffffffffffffffffffffffffffffffffffff1681526020016002820160009054906101000a900473ffffffffffffffffffffffffffffffffffffffff1673ffffffffffffffffffffffffffffffffffffffff1673ffffffffffffffffffffffffffffffffffffffff1681526020016003820160009054906101000a900473ffffffffffffffffffffffffffffffffffffffff1673ffffffffffffffffffffffffffffffffffffffff1673ffffffffffffffffffffffffffffffffffffffff16815260200160048201548152602001600582015481526020016006820160009054906101000a900460ff16151515158152505090503373ffffffffffffffffffffffffffffffffffffffff16816020015173ffffffffffffffffffffffffffffffffffffffff1614611fcd576040517f08c379a0000000000000000000000000000000000000000000000000000000008152600401611fc490612cc0565b60405180910390fd5b8173ffffffffffffffffffffffffffffffffffffffff16816040015173ffffffffffffffffffffffffffffffffffffffff160361203f576040517f08c379a000000000000000000000000000000000000000000000000000000000815260040161203690613124565b60405180910390fd5b600073ffffffffffffffffffffffffffffffffffffffff16816040015173ffffffffffffffffffffffffffffffffffffffff16036120b2576040517f08c379a00000000000000000000000000000000000000000000000000000000081526004016120a990612f14565b60405180910390fd5b80608001514211156120f9576040517f08c379a00000000000000000000000000000000000000000000000000000000081526004016120f090612d2c565b60405180910390fd5b600015158160c00151151514612144576040517f08c379a000000000000000000000000000000000000000000000000000000000815260040161213b90612b22565b60405180910390fd5b600160026000836040015173ffffffffffffffffffffffffffffffffffffffff1673ffffffffffffffffffffffffffffffffffffffff16815260200190815260200160002060008282829054906101000a900467ffffffffffffffff166121ab9190612b71565b92506101000a81548167ffffffffffffffff021916908367ffffffffffffffff16021790555081816040019073ffffffffffffffffffffffffffffffffffffffff16908173ffffffffffffffffffffffffffffffffffffffff16815250506001600260008473ffffffffffffffffffffffffffffffffffffffff1673ffffffffffffffffffffffffffffffffffffffff16815260200190815260200160002060008282829054906101000a900467ffffffffffffffff1661226c9190612e0d565b92506101000a81548167ffffffffffffffff021916908367ffffffffffffffff16021790555080600084815481106122a7576122a66129be565b5b90600052602060002090600702016000820151816000015560208201518160010160006101000a81548173ffffffffffffffffffffffffffffffffffffffff021916908373ffffffffffffffffffffffffffffffffffffffff16021790555060408201518160020160006101000a81548173ffffffffffffffffffffffffffffffffffffffff021916908373ffffffffffffffffffffffffffffffffffffffff16021790555060608201518160030160006101000a81548173ffffffffffffffffffffffffffffffffffffffff021916908373ffffffffffffffffffffffffffffffffffffffff1602179055506080820151816004015560a0820151816005015560c08201518160060160006101000a81548160ff0219169083151502179055509050507f2ae974d7f90755778f8a13273920e403d2265f2f0063297e45c50d873f3fad6f8333846040516123fe93929190612e91565b60405180910390a1505050565b60026020528060005260406000206000915054906101000a900467ffffffffffffffff1681565b6000818154811061244257600080fd5b90600052602060002090600702016000915090508060000154908060010160009054906101000a900473ffffffffffffffffffffffffffffffffffffffff16908060020160009054906101000a900473ffffffffffffffffffffffffffffffffffffffff16908060030160009054906101000a900473ffffffffffffffffffffffffffffffffffffffff16908060040154908060050154908060060160009054906101000a900460ff16905087565b6040518060e0016040528060008152602001600073ffffffffffffffffffffffffffffffffffffffff168152602001600073ffffffffffffffffffffffffffffffffffffffff168152602001600073ffffffffffffffffffffffffffffffffffffffff16815260200160008152602001600081526020016000151581525090565b600080fd5b6000819050919050565b61258a81612577565b811461259557600080fd5b50565b6000813590506125a781612581565b92915050565b6000602082840312156125c3576125c2612572565b5b60006125d184828501612598565b91505092915050565b600080604083850312156125f1576125f0612572565b5b60006125ff85828601612598565b925050602061261085828601612598565b9150509250929050565b600073ffffffffffffffffffffffffffffffffffffffff82169050919050565b60006126458261261a565b9050919050565b6126558161263a565b811461266057600080fd5b50565b6000813590506126728161264c565b92915050565b60006020828403121561268e5761268d612572565b5b600061269c84828501612663565b91505092915050565b600081519050919050565b600082825260208201905092915050565b6000819050602082019050919050565b6126da81612577565b82525050565b6126e98161263a565b82525050565b60008115159050919050565b612704816126ef565b82525050565b60e08201600082015161272060008501826126d1565b50602082015161273360208501826126e0565b50604082015161274660408501826126e0565b50606082015161275960608501826126e0565b50608082015161276c60808501826126d1565b5060a082015161277f60a08501826126d1565b5060c082015161279260c08501826126fb565b50505050565b60006127a4838361270a565b60e08301905092915050565b6000602082019050919050565b60006127c8826126a5565b6127d281856126b0565b93506127dd836126c1565b8060005b8381101561280e5781516127f58882612798565b9750612800836127b0565b9250506001810190506127e1565b5085935050505092915050565b6000602082019050818103600083015261283581846127bd565b905092915050565b600067ffffffffffffffff82169050919050565b61285a8161283d565b82525050565b60006020820190506128756000830184612851565b92915050565b6000806000806080858703121561289557612894612572565b5b60006128a387828801612663565b94505060206128b487828801612663565b93505060406128c587828801612598565b92505060606128d687828801612598565b91505092959194509250565b600080604083850312156128f9576128f8612572565b5b600061290785828601612598565b925050602061291885828601612663565b9150509250929050565b61292b81612577565b82525050565b61293a8161263a565b82525050565b612949816126ef565b82525050565b600060e082019050612964600083018a612922565b6129716020830189612931565b61297e6040830188612931565b61298b6060830187612931565b6129986080830186612922565b6129a560a0830185612922565b6129b260c0830184612940565b98975050505050505050565b7f4e487b7100000000000000000000000000000000000000000000000000000000600052603260045260246000fd5b600082825260208201905092915050565b7f48657269746167653a20596f75206e6f74206865697200000000000000000000600082015250565b6000612a346016836129ed565b9150612a3f826129fe565b602082019050919050565b60006020820190508181036000830152612a6381612a27565b9050919050565b7f48657269746167653a2054696d65206973206e6f74206f766572207965740000600082015250565b6000612aa0601e836129ed565b9150612aab82612a6a565b602082019050919050565b60006020820190508181036000830152612acf81612a93565b9050919050565b7f48657269746167653a20416c72656164792077697468647261776e0000000000600082015250565b6000612b0c601b836129ed565b9150612b1782612ad6565b602082019050919050565b60006020820190508181036000830152612b3b81612aff565b9050919050565b7f4e487b7100000000000000000000000000000000000000000000000000000000600052601160045260246000fd5b6000612b7c8261283d565b9150612b878361283d565b9250828203905067ffffffffffffffff811115612ba757612ba6612b42565b5b92915050565b6000604082019050612bc26000830185612931565b612bcf6020830184612922565b9392505050565b612bdf816126ef565b8114612bea57600080fd5b50565b600081519050612bfc81612bd6565b92915050565b600060208284031215612c1857612c17612572565b5b6000612c2684828501612bed565b91505092915050565b6000608082019050612c446000830187612922565b612c516020830186612931565b612c5e6040830185612931565b612c6b6060830184612922565b95945050505050565b7f48657269746167653a20596f75206e6f74206f776e6572000000000000000000600082015250565b6000612caa6017836129ed565b9150612cb582612c74565b602082019050919050565b60006020820190508181036000830152612cd981612c9d565b9050919050565b7f48657269746167653a2054696d65206973206f76657220796574000000000000600082015250565b6000612d16601a836129ed565b9150612d2182612ce0565b602082019050919050565b60006020820190508181036000830152612d4581612d09565b9050919050565b7f48657269746167653a2054696d65207768656e2077697468647261772069732060008201527f6c6f776572207468656e206e6f77000000000000000000000000000000000000602082015250565b6000612da8602e836129ed565b9150612db382612d4c565b604082019050919050565b60006020820190508181036000830152612dd781612d9b565b9050919050565b7f4e487b7100000000000000000000000000000000000000000000000000000000600052604160045260246000fd5b6000612e188261283d565b9150612e238361283d565b9250828201905067ffffffffffffffff811115612e4357612e42612b42565b5b92915050565b6000612e5482612577565b91507fffffffffffffffffffffffffffffffffffffffffffffffffffffffffffffffff8203612e8657612e85612b42565b5b600182019050919050565b6000606082019050612ea66000830186612922565b612eb36020830185612931565b612ec06040830184612931565b949350505050565b7f48657269746167653a2048656972206973206164647265737328302900000000600082015250565b6000612efe601c836129ed565b9150612f0982612ec8565b602082019050919050565b60006020820190508181036000830152612f2d81612ef1565b9050919050565b7f48657269746167653a20546f6b656e2069732061646472657373283029000000600082015250565b6000612f6a601d836129ed565b9150612f7582612f34565b602082019050919050565b60006020820190508181036000830152612f9981612f5d565b9050919050565b7f48657269746167653a20416d6f756e7420300000000000000000000000000000600082015250565b6000612fd66012836129ed565b9150612fe182612fa0565b602082019050919050565b6000602082019050818103600083015261300581612fc9565b9050919050565b60006060820190506130216000830186612931565b61302e6020830185612931565b61303b6040830184612922565b949350505050565b600061304e82612577565b915061305983612577565b925082820390508181111561307157613070612b42565b5b92915050565b600060c08201905061308c6000830189612922565b6130996020830188612931565b6130a66040830187612931565b6130b36060830186612931565b6130c06080830185612922565b6130cd60a0830184612922565b979650505050505050565b7f48657269746167653a2053616d65206865697200000000000000000000000000600082015250565b600061310e6013836129ed565b9150613119826130d8565b602082019050919050565b6000602082019050818103600083015261313d81613101565b905091905056fea2646970667358221220921a26cbc66bdde9ac5c0445c80c6763bd4cc0db137ae684f41fbaec4ccf2c8064736f6c63430008110033",
  "linkReferences": {},
  "deployedLinkReferences": {}
}