{
  "_format": "hh-sol-artifact-1",
  "contractName": "TheWill",
  "sourceName": "contracts/TheWill.sol",
  "abi": [
    {
      "anonymous": false,
      "inputs": [
        {
          "indexed": false,
          "internalType": "uint256",
          "name": "ID",
          "type": "uint256"
        },
        {
          "indexed": false,
          "internalType": "address",
          "name": "owner",
          "type": "address"
        },
        {
          "indexed": false,
          "internalType": "address",
          "name": "heir",
          "type": "address"
        },
        {
          "indexed": false,
          "internalType": "address",
          "name": "token",
          "type": "address"
        },
        {
          "indexed": false,
          "internalType": "uint256",
          "name": "timeWhenWithdraw",
          "type": "uint256"
        },
        {
          "indexed": false,
          "internalType": "uint256",
          "name": "amount",
          "type": "uint256"
        }
      ],
      "name": "AddAnHeir",
      "type": "event"
    },
    {
      "anonymous": false,
      "inputs": [
        {
          "indexed": false,
          "internalType": "uint256",
          "name": "ID",
          "type": "uint256"
        },
        {
          "indexed": false,
          "internalType": "address",
          "name": "owner",
          "type": "address"
        },
        {
          "indexed": false,
          "internalType": "address",
          "name": "heir",
          "type": "address"
        }
      ],
      "name": "RemoveWill",
      "type": "event"
    },
    {
      "anonymous": false,
      "inputs": [
        {
          "indexed": false,
          "internalType": "uint256[]",
          "name": "IDs",
          "type": "uint256[]"
        },
        {
          "indexed": false,
          "internalType": "address",
          "name": "owner",
          "type": "address"
        },
        {
          "indexed": false,
          "internalType": "uint256[]",
          "name": "newTimes",
          "type": "uint256[]"
        }
      ],
      "name": "ResetTimers",
      "type": "event"
    },
    {
      "anonymous": false,
      "inputs": [
        {
          "indexed": false,
          "internalType": "uint256",
          "name": "ID",
          "type": "uint256"
        },
        {
          "indexed": false,
          "internalType": "address",
          "name": "owner",
          "type": "address"
        },
        {
          "indexed": false,
          "internalType": "uint256",
          "name": "newAmount",
          "type": "uint256"
        }
      ],
      "name": "UpdateAmount",
      "type": "event"
    },
    {
      "anonymous": false,
      "inputs": [
        {
          "indexed": false,
          "internalType": "uint256",
          "name": "ID",
          "type": "uint256"
        },
        {
          "indexed": false,
          "internalType": "address",
          "name": "owner",
          "type": "address"
        },
        {
          "indexed": false,
          "internalType": "address",
          "name": "newHeir",
          "type": "address"
        }
      ],
      "name": "UpdateAnHeir",
      "type": "event"
    },
    {
      "anonymous": false,
      "inputs": [
        {
          "indexed": false,
          "internalType": "uint256",
          "name": "ID",
          "type": "uint256"
        },
        {
          "indexed": false,
          "internalType": "address",
          "name": "owner",
          "type": "address"
        },
        {
          "indexed": false,
          "internalType": "address",
          "name": "heir",
          "type": "address"
        },
        {
          "indexed": false,
          "internalType": "uint256",
          "name": "newTime",
          "type": "uint256"
        }
      ],
      "name": "UpdateWillTimeWhenWithdraw",
      "type": "event"
    },
    {
      "anonymous": false,
      "inputs": [
        {
          "indexed": false,
          "internalType": "uint256",
          "name": "ID",
          "type": "uint256"
        },
        {
          "indexed": false,
          "internalType": "address",
          "name": "owner",
          "type": "address"
        },
        {
          "indexed": false,
          "internalType": "address",
          "name": "heir",
          "type": "address"
        },
        {
          "indexed": false,
          "internalType": "uint256",
          "name": "timeWhenWithdrawn",
          "type": "uint256"
        },
        {
          "indexed": false,
          "internalType": "uint256",
          "name": "amount",
          "type": "uint256"
        }
      ],
      "name": "Withdraw",
      "type": "event"
    },
    {
      "inputs": [
        {
          "internalType": "address",
          "name": "heir",
          "type": "address"
        },
        {
          "internalType": "address",
          "name": "token",
          "type": "address"
        },
        {
          "internalType": "uint256",
          "name": "timeWhenWithdraw",
          "type": "uint256"
        },
        {
          "internalType": "uint256",
          "name": "amount",
          "type": "uint256"
        }
      ],
      "name": "addNewWill",
      "outputs": [],
      "stateMutability": "nonpayable",
      "type": "function"
    },
    {
      "inputs": [
        {
          "internalType": "address",
          "name": "heir",
          "type": "address"
        }
      ],
      "name": "getAllInheritances",
      "outputs": [
        {
          "components": [
            {
              "internalType": "uint256",
              "name": "ID",
              "type": "uint256"
            },
            {
              "internalType": "address",
              "name": "owner",
              "type": "address"
            },
            {
              "internalType": "address",
              "name": "heir",
              "type": "address"
            },
            {
              "internalType": "address",
              "name": "token",
              "type": "address"
            },
            {
              "internalType": "uint256",
              "name": "timeWhenWithdraw",
              "type": "uint256"
            },
            {
              "internalType": "uint256",
              "name": "timeBetweenWithdrawAndStart",
              "type": "uint256"
            },
            {
              "internalType": "uint256",
              "name": "amount",
              "type": "uint256"
            },
            {
              "internalType": "bool",
              "name": "done",
              "type": "bool"
            }
          ],
          "internalType": "struct IHeritage.InheritanceData[]",
          "name": "",
          "type": "tuple[]"
        }
      ],
      "stateMutability": "view",
      "type": "function"
    },
    {
      "inputs": [
        {
          "internalType": "address",
          "name": "owner",
          "type": "address"
        }
      ],
      "name": "getAllWills",
      "outputs": [
        {
          "components": [
            {
              "internalType": "uint256",
              "name": "ID",
              "type": "uint256"
            },
            {
              "internalType": "address",
              "name": "owner",
              "type": "address"
            },
            {
              "internalType": "address",
              "name": "heir",
              "type": "address"
            },
            {
              "internalType": "address",
              "name": "token",
              "type": "address"
            },
            {
              "internalType": "uint256",
              "name": "timeWhenWithdraw",
              "type": "uint256"
            },
            {
              "internalType": "uint256",
              "name": "timeBetweenWithdrawAndStart",
              "type": "uint256"
            },
            {
              "internalType": "uint256",
              "name": "amount",
              "type": "uint256"
            },
            {
              "internalType": "bool",
              "name": "done",
              "type": "bool"
            }
          ],
          "internalType": "struct IHeritage.InheritanceData[]",
          "name": "",
          "type": "tuple[]"
        }
      ],
      "stateMutability": "view",
      "type": "function"
    },
    {
      "inputs": [
        {
          "internalType": "uint256",
          "name": "",
          "type": "uint256"
        }
      ],
      "name": "inheritanceData",
      "outputs": [
        {
          "internalType": "uint256",
          "name": "ID",
          "type": "uint256"
        },
        {
          "internalType": "address",
          "name": "owner",
          "type": "address"
        },
        {
          "internalType": "address",
          "name": "heir",
          "type": "address"
        },
        {
          "internalType": "address",
          "name": "token",
          "type": "address"
        },
        {
          "internalType": "uint256",
          "name": "timeWhenWithdraw",
          "type": "uint256"
        },
        {
          "internalType": "uint256",
          "name": "timeBetweenWithdrawAndStart",
          "type": "uint256"
        },
        {
          "internalType": "uint256",
          "name": "amount",
          "type": "uint256"
        },
        {
          "internalType": "bool",
          "name": "done",
          "type": "bool"
        }
      ],
      "stateMutability": "view",
      "type": "function"
    },
    {
      "inputs": [
        {
          "internalType": "address",
          "name": "",
          "type": "address"
        },
        {
          "internalType": "uint256",
          "name": "",
          "type": "uint256"
        }
      ],
      "name": "inheritancesHeir",
      "outputs": [
        {
          "internalType": "uint256",
          "name": "",
          "type": "uint256"
        }
      ],
      "stateMutability": "view",
      "type": "function"
    },
    {
      "inputs": [
        {
          "internalType": "address",
          "name": "",
          "type": "address"
        },
        {
          "internalType": "uint256",
          "name": "",
          "type": "uint256"
        }
      ],
      "name": "inheritancesOwner",
      "outputs": [
        {
          "internalType": "uint256",
          "name": "",
          "type": "uint256"
        }
      ],
      "stateMutability": "view",
      "type": "function"
    },
    {
      "inputs": [
        {
          "internalType": "uint256",
          "name": "ID",
          "type": "uint256"
        }
      ],
      "name": "removeWill",
      "outputs": [],
      "stateMutability": "nonpayable",
      "type": "function"
    },
    {
      "inputs": [],
      "name": "resetTimers",
      "outputs": [],
      "stateMutability": "nonpayable",
      "type": "function"
    },
    {
      "inputs": [
        {
          "internalType": "uint256",
          "name": "ID",
          "type": "uint256"
        }
      ],
      "name": "resetTimersAtOne",
      "outputs": [],
      "stateMutability": "nonpayable",
      "type": "function"
    },
    {
      "inputs": [
        {
          "internalType": "uint256",
          "name": "ID",
          "type": "uint256"
        },
        {
          "internalType": "uint256",
          "name": "newTime",
          "type": "uint256"
        },
        {
          "internalType": "address",
          "name": "_heir",
          "type": "address"
        },
        {
          "internalType": "uint256",
          "name": "amount",
          "type": "uint256"
        },
        {
          "internalType": "bool",
          "name": "_updateTime",
          "type": "bool"
        },
        {
          "internalType": "bool",
          "name": "_updateHeir",
          "type": "bool"
        },
        {
          "internalType": "bool",
          "name": "_updateAmount",
          "type": "bool"
        }
      ],
      "name": "update",
      "outputs": [],
      "stateMutability": "nonpayable",
      "type": "function"
    },
    {
      "inputs": [
        {
          "internalType": "uint256",
          "name": "ID",
          "type": "uint256"
        },
        {
          "internalType": "uint256",
          "name": "amount",
          "type": "uint256"
        }
      ],
      "name": "updateAmount",
      "outputs": [],
      "stateMutability": "nonpayable",
      "type": "function"
    },
    {
      "inputs": [
        {
          "internalType": "uint256",
          "name": "ID",
          "type": "uint256"
        },
        {
          "internalType": "address",
          "name": "_heir",
          "type": "address"
        }
      ],
      "name": "updateAnHeir",
      "outputs": [],
      "stateMutability": "nonpayable",
      "type": "function"
    },
    {
      "inputs": [
        {
          "internalType": "uint256",
          "name": "ID",
          "type": "uint256"
        },
        {
          "internalType": "uint256",
          "name": "newTime",
          "type": "uint256"
        }
      ],
      "name": "updateWillTimeWhenWithdraw",
      "outputs": [],
      "stateMutability": "nonpayable",
      "type": "function"
    },
    {
      "inputs": [
        {
          "internalType": "uint256",
          "name": "ID",
          "type": "uint256"
        }
      ],
      "name": "withdraw",
      "outputs": [],
      "stateMutability": "nonpayable",
      "type": "function"
    }
  ],
  "bytecode": "0x608060405234801561001057600080fd5b50614bd3806100206000396000f3fe608060405234801561001057600080fd5b50600436106100ea5760003560e01c80636aec11061161008c578063b282e7b811610066578063b282e7b814610245578063e1ff9e8114610261578063e41c377c1461027d578063fcb25e5d146102b4576100ea565b80636aec1106146101c957806372a370bc146101f95780639c7e996814610229576100ea565b806334b12c2b116100c857806334b12c2b1461014357806337013e10146101735780633795b60e146101a357806343cc60b1146101ad576100ea565b80630179cc52146100ef5780632e1a7d4d1461010b57806333a8a2fb14610127575b600080fd5b61010960048036038101906101049190613b55565b6102d0565b005b61012560048036038101906101209190613b95565b61083f565b005b610141600480360381019061013c9190613b55565b6112c3565b005b61015d60048036038101906101589190613c20565b611740565b60405161016a9190613dd8565b60405180910390f35b61018d60048036038101906101889190613dfa565b611a02565b60405161019a9190613e49565b60405180910390f35b6101ab611a33565b005b6101c760048036038101906101c29190613b95565b611e98565b005b6101e360048036038101906101de9190613c20565b6125b1565b6040516101f09190613dd8565b60405180910390f35b610213600480360381019061020e9190613dfa565b612873565b6040516102209190613e49565b60405180910390f35b610243600480360381019061023e9190613e64565b6128a4565b005b61025f600480360381019061025a9190613ecb565b612dc8565b005b61027b60048036038101906102769190613b95565b613515565b005b61029760048036038101906102929190613b95565b61397e565b6040516102ab989796959493929190613f29565b60405180910390f35b6102ce60048036038101906102c99190613fd3565b613a43565b005b60008083815481106102e5576102e4614075565b5b906000526020600020906008020160405180610100016040529081600082015481526020016001820160009054906101000a900473ffffffffffffffffffffffffffffffffffffffff1673ffffffffffffffffffffffffffffffffffffffff1673ffffffffffffffffffffffffffffffffffffffff1681526020016002820160009054906101000a900473ffffffffffffffffffffffffffffffffffffffff1673ffffffffffffffffffffffffffffffffffffffff1673ffffffffffffffffffffffffffffffffffffffff1681526020016003820160009054906101000a900473ffffffffffffffffffffffffffffffffffffffff1673ffffffffffffffffffffffffffffffffffffffff1673ffffffffffffffffffffffffffffffffffffffff1681526020016004820154815260200160058201548152602001600682015481526020016007820160009054906101000a900460ff16151515158152505090503373ffffffffffffffffffffffffffffffffffffffff16816020015173ffffffffffffffffffffffffffffffffffffffff16146104b8576040517f08c379a00000000000000000000000000000000000000000000000000000000081526004016104af90614101565b60405180910390fd5b80608001514211156104ff576040517f08c379a00000000000000000000000000000000000000000000000000000000081526004016104f69061416d565b60405180910390fd5b600015158160e0015115151461054a576040517f08c379a0000000000000000000000000000000000000000000000000000000008152600401610541906141d9565b60405180910390fd5b6000820361058d576040517f08c379a000000000000000000000000000000000000000000000000000000000815260040161058490614245565b60405180910390fd5b8060c0015182036105d3576040517f08c379a00000000000000000000000000000000000000000000000000000000081526004016105ca906142b1565b60405180910390fd5b6000816060015190508160c001518311156106ad5760008173ffffffffffffffffffffffffffffffffffffffff1663dd62ed3e33306040518363ffffffff1660e01b81526004016106259291906142d1565b602060405180830381865afa158015610642573d6000803e3d6000fd5b505050506040513d601f19601f82011682018060405250810190610666919061430f565b9050838110156106ab576040517f08c379a00000000000000000000000000000000000000000000000000000000081526004016106a290614388565b60405180910390fd5b505b828260c001818152505081600085815481106106cc576106cb614075565b5b90600052602060002090600802016000820151816000015560208201518160010160006101000a81548173ffffffffffffffffffffffffffffffffffffffff021916908373ffffffffffffffffffffffffffffffffffffffff16021790555060408201518160020160006101000a81548173ffffffffffffffffffffffffffffffffffffffff021916908373ffffffffffffffffffffffffffffffffffffffff16021790555060608201518160030160006101000a81548173ffffffffffffffffffffffffffffffffffffffff021916908373ffffffffffffffffffffffffffffffffffffffff1602179055506080820151816004015560a0820151816005015560c0820151816006015560e08201518160070160006101000a81548160ff0219169083151502179055509050507f07f364a0e22025373fbd73737f9a989e95741c0a7a85fa996d5c34a8198a482d84836020015185604051610831939291906143a8565b60405180910390a150505050565b600080828154811061085457610853614075565b5b906000526020600020906008020160405180610100016040529081600082015481526020016001820160009054906101000a900473ffffffffffffffffffffffffffffffffffffffff1673ffffffffffffffffffffffffffffffffffffffff1673ffffffffffffffffffffffffffffffffffffffff1681526020016002820160009054906101000a900473ffffffffffffffffffffffffffffffffffffffff1673ffffffffffffffffffffffffffffffffffffffff1673ffffffffffffffffffffffffffffffffffffffff1681526020016003820160009054906101000a900473ffffffffffffffffffffffffffffffffffffffff1673ffffffffffffffffffffffffffffffffffffffff1673ffffffffffffffffffffffffffffffffffffffff1681526020016004820154815260200160058201548152602001600682015481526020016007820160009054906101000a900460ff1615151515815250509050806040015173ffffffffffffffffffffffffffffffffffffffff163373ffffffffffffffffffffffffffffffffffffffff1614610a27576040517f08c379a0000000000000000000000000000000000000000000000000000000008152600401610a1e9061442b565b60405180910390fd5b8060800151421015610a6e576040517f08c379a0000000000000000000000000000000000000000000000000000000008152600401610a6590614497565b60405180910390fd5b600015158160e00151151514610ab9576040517f08c379a0000000000000000000000000000000000000000000000000000000008152600401610ab0906141d9565b60405180910390fd5b60018160e00190151590811515815250506000600160003373ffffffffffffffffffffffffffffffffffffffff1673ffffffffffffffffffffffffffffffffffffffff168152602001908152602001600020805480602002602001604051908101604052809291908181526020018280548015610b5557602002820191906000526020600020905b815481526020019060010190808311610b41575b50505050509050600060026000846040015173ffffffffffffffffffffffffffffffffffffffff1673ffffffffffffffffffffffffffffffffffffffff168152602001908152602001600020805480602002602001604051908101604052809291908181526020018280548015610beb57602002820191906000526020600020905b815481526020019060010190808311610bd7575b5050505050905060005b8251811015610d1f5784838281518110610c1257610c11614075565b5b602002602001015103610d0c578260018451610c2e91906144e6565b81518110610c3f57610c3e614075565b5b6020026020010151600160003373ffffffffffffffffffffffffffffffffffffffff1673ffffffffffffffffffffffffffffffffffffffff1681526020019081526020016000208281548110610c9857610c97614075565b5b9060005260206000200181905550600160003373ffffffffffffffffffffffffffffffffffffffff1673ffffffffffffffffffffffffffffffffffffffff168152602001908152602001600020805480610cf557610cf461451a565b5b600190038181906000526020600020016000905590555b8080610d1790614549565b915050610bf5565b5060005b8151811015610e555784828281518110610d4057610d3f614075565b5b602002602001015103610e42578160018351610d5c91906144e6565b81518110610d6d57610d6c614075565b5b602002602001015160026000866040015173ffffffffffffffffffffffffffffffffffffffff1673ffffffffffffffffffffffffffffffffffffffff1681526020019081526020016000208281548110610dca57610dc9614075565b5b906000526020600020018190555060026000856040015173ffffffffffffffffffffffffffffffffffffffff1673ffffffffffffffffffffffffffffffffffffffff168152602001908152602001600020805480610e2b57610e2a61451a565b5b600190038181906000526020600020016000905590555b8080610e4d90614549565b915050610d23565b5060008360600151905060008173ffffffffffffffffffffffffffffffffffffffff1663dd62ed3e8660200151306040518363ffffffff1660e01b8152600401610ea09291906142d1565b602060405180830381865afa158015610ebd573d6000803e3d6000fd5b505050506040513d601f19601f82011682018060405250810190610ee1919061430f565b905060008273ffffffffffffffffffffffffffffffffffffffff166370a0823187602001516040518263ffffffff1660e01b8152600401610f229190614591565b602060405180830381865afa158015610f3f573d6000803e3d6000fd5b505050506040513d601f19601f82011682018060405250810190610f63919061430f565b9050600082821015611000578373ffffffffffffffffffffffffffffffffffffffff166323b872dd88602001518960400151856040518463ffffffff1660e01b8152600401610fb4939291906145ac565b6020604051808303816000875af1158015610fd3573d6000803e3d6000fd5b505050506040513d601f19601f82011682018060405250810190610ff791906145f8565b50819050611133565b8660c0015183101561109d578373ffffffffffffffffffffffffffffffffffffffff166323b872dd88602001518960400151866040518463ffffffff1660e01b8152600401611051939291906145ac565b6020604051808303816000875af1158015611070573d6000803e3d6000fd5b505050506040513d601f19601f8201168201806040525081019061109491906145f8565b50829050611132565b8373ffffffffffffffffffffffffffffffffffffffff166323b872dd886020015189604001518a60c001516040518463ffffffff1660e01b81526004016110e6939291906145ac565b6020604051808303816000875af1158015611105573d6000803e3d6000fd5b505050506040513d601f19601f8201168201806040525081019061112991906145f8565b508660c0015190505b5b7ffe7813e2866053d5c3938554e517b554fce6666a6561bed9eaa7419b29fa9b6888886020015133428560405161116e959493929190614625565b60405180910390a1866000898154811061118b5761118a614075565b5b90600052602060002090600802016000820151816000015560208201518160010160006101000a81548173ffffffffffffffffffffffffffffffffffffffff021916908373ffffffffffffffffffffffffffffffffffffffff16021790555060408201518160020160006101000a81548173ffffffffffffffffffffffffffffffffffffffff021916908373ffffffffffffffffffffffffffffffffffffffff16021790555060608201518160030160006101000a81548173ffffffffffffffffffffffffffffffffffffffff021916908373ffffffffffffffffffffffffffffffffffffffff1602179055506080820151816004015560a0820151816005015560c0820151816006015560e08201518160070160006101000a81548160ff0219169083151502179055509050505050505050505050565b60008083815481106112d8576112d7614075565b5b906000526020600020906008020160405180610100016040529081600082015481526020016001820160009054906101000a900473ffffffffffffffffffffffffffffffffffffffff1673ffffffffffffffffffffffffffffffffffffffff1673ffffffffffffffffffffffffffffffffffffffff1681526020016002820160009054906101000a900473ffffffffffffffffffffffffffffffffffffffff1673ffffffffffffffffffffffffffffffffffffffff1673ffffffffffffffffffffffffffffffffffffffff1681526020016003820160009054906101000a900473ffffffffffffffffffffffffffffffffffffffff1673ffffffffffffffffffffffffffffffffffffffff1673ffffffffffffffffffffffffffffffffffffffff1681526020016004820154815260200160058201548152602001600682015481526020016007820160009054906101000a900460ff16151515158152505090503373ffffffffffffffffffffffffffffffffffffffff16816020015173ffffffffffffffffffffffffffffffffffffffff16146114ab576040517f08c379a00000000000000000000000000000000000000000000000000000000081526004016114a290614101565b60405180910390fd5b80608001514211156114f2576040517f08c379a00000000000000000000000000000000000000000000000000000000081526004016114e99061416d565b60405180910390fd5b428211611534576040517f08c379a000000000000000000000000000000000000000000000000000000000815260040161152b906146ea565b60405180910390fd5b600015158160e0015115151461157f576040517f08c379a0000000000000000000000000000000000000000000000000000000008152600401611576906141d9565b60405180910390fd5b60008160a00151826080015161159591906144e6565b90508282608001818152505080836115ad91906144e6565b8260a001818152505081600085815481106115cb576115ca614075565b5b90600052602060002090600802016000820151816000015560208201518160010160006101000a81548173ffffffffffffffffffffffffffffffffffffffff021916908373ffffffffffffffffffffffffffffffffffffffff16021790555060408201518160020160006101000a81548173ffffffffffffffffffffffffffffffffffffffff021916908373ffffffffffffffffffffffffffffffffffffffff16021790555060608201518160030160006101000a81548173ffffffffffffffffffffffffffffffffffffffff021916908373ffffffffffffffffffffffffffffffffffffffff1602179055506080820151816004015560a0820151816005015560c0820151816006015560e08201518160070160006101000a81548160ff0219169083151502179055509050507ff6d4f4eb4a955223539787dd64c67a7a9571039c5deccabaf47d097f93e8b41f8433846040015186604051611732949392919061470a565b60405180910390a150505050565b60606000600160008473ffffffffffffffffffffffffffffffffffffffff1673ffffffffffffffffffffffffffffffffffffffff1681526020019081526020016000208054806020026020016040519081016040528092919081815260200182805480156117cd57602002820191906000526020600020905b8154815260200190600101908083116117b9575b505050505090506000815167ffffffffffffffff8111156117f1576117f061474f565b5b60405190808252806020026020018201604052801561182a57816020015b611817613a91565b81526020019060019003908161180f5790505b50905060005b82518110156119f757600083828151811061184e5761184d614075565b5b60200260200101518154811061186757611866614075565b5b906000526020600020906008020160405180610100016040529081600082015481526020016001820160009054906101000a900473ffffffffffffffffffffffffffffffffffffffff1673ffffffffffffffffffffffffffffffffffffffff1673ffffffffffffffffffffffffffffffffffffffff1681526020016002820160009054906101000a900473ffffffffffffffffffffffffffffffffffffffff1673ffffffffffffffffffffffffffffffffffffffff1673ffffffffffffffffffffffffffffffffffffffff1681526020016003820160009054906101000a900473ffffffffffffffffffffffffffffffffffffffff1673ffffffffffffffffffffffffffffffffffffffff1673ffffffffffffffffffffffffffffffffffffffff1681526020016004820154815260200160058201548152602001600682015481526020016007820160009054906101000a900460ff1615151515815250508282815181106119d9576119d8614075565b5b602002602001018190525080806119ef90614549565b915050611830565b508092505050919050565b60026020528160005260406000208181548110611a1e57600080fd5b90600052602060002001600091509150505481565b6000600160003373ffffffffffffffffffffffffffffffffffffffff1673ffffffffffffffffffffffffffffffffffffffff1681526020019081526020016000208054905067ffffffffffffffff811115611a9157611a9061474f565b5b604051908082528060200260200182016040528015611abf5781602001602082028036833780820191505090505b50905060005b600160003373ffffffffffffffffffffffffffffffffffffffff1673ffffffffffffffffffffffffffffffffffffffff16815260200190815260200160002080549050811015611e1b576000808281548110611b2457611b23614075565b5b906000526020600020906008020160405180610100016040529081600082015481526020016001820160009054906101000a900473ffffffffffffffffffffffffffffffffffffffff1673ffffffffffffffffffffffffffffffffffffffff1673ffffffffffffffffffffffffffffffffffffffff1681526020016002820160009054906101000a900473ffffffffffffffffffffffffffffffffffffffff1673ffffffffffffffffffffffffffffffffffffffff1673ffffffffffffffffffffffffffffffffffffffff1681526020016003820160009054906101000a900473ffffffffffffffffffffffffffffffffffffffff1673ffffffffffffffffffffffffffffffffffffffff1673ffffffffffffffffffffffffffffffffffffffff1681526020016004820154815260200160058201548152602001600682015481526020016007820160009054906101000a900460ff16151515158152505090506000428260a00151611c97919061477e565b90508082608001818152505080848481518110611cb757611cb6614075565b5b6020026020010181815250508160008481548110611cd857611cd7614075565b5b90600052602060002090600802016000820151816000015560208201518160010160006101000a81548173ffffffffffffffffffffffffffffffffffffffff021916908373ffffffffffffffffffffffffffffffffffffffff16021790555060408201518160020160006101000a81548173ffffffffffffffffffffffffffffffffffffffff021916908373ffffffffffffffffffffffffffffffffffffffff16021790555060608201518160030160006101000a81548173ffffffffffffffffffffffffffffffffffffffff021916908373ffffffffffffffffffffffffffffffffffffffff1602179055506080820151816004015560a0820151816005015560c0820151816006015560e08201518160070160006101000a81548160ff02191690831515021790555090505050508080611e1390614549565b915050611ac5565b507f0e6cb619afa09f01deabf9f7836949d0de1ba277b61637c5335e8b3017646cdb600160003373ffffffffffffffffffffffffffffffffffffffff1673ffffffffffffffffffffffffffffffffffffffff1681526020019081526020016000203383604051611e8d93929190614937565b60405180910390a150565b6000808281548110611ead57611eac614075565b5b906000526020600020906008020160405180610100016040529081600082015481526020016001820160009054906101000a900473ffffffffffffffffffffffffffffffffffffffff1673ffffffffffffffffffffffffffffffffffffffff1673ffffffffffffffffffffffffffffffffffffffff1681526020016002820160009054906101000a900473ffffffffffffffffffffffffffffffffffffffff1673ffffffffffffffffffffffffffffffffffffffff1673ffffffffffffffffffffffffffffffffffffffff1681526020016003820160009054906101000a900473ffffffffffffffffffffffffffffffffffffffff1673ffffffffffffffffffffffffffffffffffffffff1673ffffffffffffffffffffffffffffffffffffffff1681526020016004820154815260200160058201548152602001600682015481526020016007820160009054906101000a900460ff16151515158152505090503373ffffffffffffffffffffffffffffffffffffffff16816020015173ffffffffffffffffffffffffffffffffffffffff1614612080576040517f08c379a000000000000000000000000000000000000000000000000000000000815260040161207790614101565b60405180910390fd5b80608001514211156120c7576040517f08c379a00000000000000000000000000000000000000000000000000000000081526004016120be9061416d565b60405180910390fd5b600015158160e00151151514612112576040517f08c379a0000000000000000000000000000000000000000000000000000000008152600401612109906141d9565b60405180910390fd5b6000600160003373ffffffffffffffffffffffffffffffffffffffff1673ffffffffffffffffffffffffffffffffffffffff16815260200190815260200160002080548060200260200160405190810160405280929190818152602001828054801561219d57602002820191906000526020600020905b815481526020019060010190808311612189575b50505050509050600060026000846040015173ffffffffffffffffffffffffffffffffffffffff1673ffffffffffffffffffffffffffffffffffffffff16815260200190815260200160002080548060200260200160405190810160405280929190818152602001828054801561223357602002820191906000526020600020905b81548152602001906001019080831161221f575b5050505050905060005b8251811015612367578483828151811061225a57612259614075565b5b60200260200101510361235457826001845161227691906144e6565b8151811061228757612286614075565b5b6020026020010151600160003373ffffffffffffffffffffffffffffffffffffffff1673ffffffffffffffffffffffffffffffffffffffff16815260200190815260200160002082815481106122e0576122df614075565b5b9060005260206000200181905550600160003373ffffffffffffffffffffffffffffffffffffffff1673ffffffffffffffffffffffffffffffffffffffff16815260200190815260200160002080548061233d5761233c61451a565b5b600190038181906000526020600020016000905590555b808061235f90614549565b91505061223d565b5060005b815181101561249d578482828151811061238857612387614075565b5b60200260200101510361248a5781600183516123a491906144e6565b815181106123b5576123b4614075565b5b602002602001015160026000866040015173ffffffffffffffffffffffffffffffffffffffff1673ffffffffffffffffffffffffffffffffffffffff168152602001908152602001600020828154811061241257612411614075565b5b906000526020600020018190555060026000856040015173ffffffffffffffffffffffffffffffffffffffff1673ffffffffffffffffffffffffffffffffffffffff1681526020019081526020016000208054806124735761247261451a565b5b600190038181906000526020600020016000905590555b808061249590614549565b91505061236b565b50600084815481106124b2576124b1614075565b5b90600052602060002090600802016000808201600090556001820160006101000a81549073ffffffffffffffffffffffffffffffffffffffff02191690556002820160006101000a81549073ffffffffffffffffffffffffffffffffffffffff02191690556003820160006101000a81549073ffffffffffffffffffffffffffffffffffffffff02191690556004820160009055600582016000905560068201600090556007820160006101000a81549060ff021916905550507f2e6ce80b05d67b5aba812f8e95333d141bb7fd2d335f955800635cfdbbb8630e843385604001516040516125a39392919061497c565b60405180910390a150505050565b60606000600260008473ffffffffffffffffffffffffffffffffffffffff1673ffffffffffffffffffffffffffffffffffffffff16815260200190815260200160002080548060200260200160405190810160405280929190818152602001828054801561263e57602002820191906000526020600020905b81548152602001906001019080831161262a575b505050505090506000815167ffffffffffffffff8111156126625761266161474f565b5b60405190808252806020026020018201604052801561269b57816020015b612688613a91565b8152602001906001900390816126805790505b50905060005b82518110156128685760008382815181106126bf576126be614075565b5b6020026020010151815481106126d8576126d7614075565b5b906000526020600020906008020160405180610100016040529081600082015481526020016001820160009054906101000a900473ffffffffffffffffffffffffffffffffffffffff1673ffffffffffffffffffffffffffffffffffffffff1673ffffffffffffffffffffffffffffffffffffffff1681526020016002820160009054906101000a900473ffffffffffffffffffffffffffffffffffffffff1673ffffffffffffffffffffffffffffffffffffffff1673ffffffffffffffffffffffffffffffffffffffff1681526020016003820160009054906101000a900473ffffffffffffffffffffffffffffffffffffffff1673ffffffffffffffffffffffffffffffffffffffff1673ffffffffffffffffffffffffffffffffffffffff1681526020016004820154815260200160058201548152602001600682015481526020016007820160009054906101000a900460ff16151515158152505082828151811061284a57612849614075565b5b6020026020010181905250808061286090614549565b9150506126a1565b508092505050919050565b6001602052816000526040600020818154811061288f57600080fd5b90600052602060002001600091509150505481565b600073ffffffffffffffffffffffffffffffffffffffff168473ffffffffffffffffffffffffffffffffffffffff1603612913576040517f08c379a000000000000000000000000000000000000000000000000000000000815260040161290a906149ff565b60405180910390fd5b600073ffffffffffffffffffffffffffffffffffffffff168373ffffffffffffffffffffffffffffffffffffffff1603612982576040517f08c379a000000000000000000000000000000000000000000000000000000000815260040161297990614a6b565b60405180910390fd5b4282116129c4576040517f08c379a00000000000000000000000000000000000000000000000000000000081526004016129bb906146ea565b60405180910390fd5b60008103612a07576040517f08c379a00000000000000000000000000000000000000000000000000000000081526004016129fe90614245565b60405180910390fd5b600083905060008173ffffffffffffffffffffffffffffffffffffffff1663dd62ed3e33306040518363ffffffff1660e01b8152600401612a499291906142d1565b602060405180830381865afa158015612a66573d6000803e3d6000fd5b505050506040513d601f19601f82011682018060405250810190612a8a919061430f565b905082811015612acf576040517f08c379a0000000000000000000000000000000000000000000000000000000008152600401612ac690614388565b60405180910390fd5b60008080549050905060006040518061010001604052808381526020013373ffffffffffffffffffffffffffffffffffffffff1681526020018973ffffffffffffffffffffffffffffffffffffffff1681526020018873ffffffffffffffffffffffffffffffffffffffff1681526020018781526020014288612b5291906144e6565b8152602001868152602001600015158152509050600160003373ffffffffffffffffffffffffffffffffffffffff1673ffffffffffffffffffffffffffffffffffffffff168152602001908152602001600020829080600181540180825580915050600190039060005260206000200160009091909190915055600260008973ffffffffffffffffffffffffffffffffffffffff1673ffffffffffffffffffffffffffffffffffffffff16815260200190815260200160002082908060018154018082558091505060019003906000526020600020016000909190919091505560008190806001815401808255809150506001900390600052602060002090600802016000909190919091506000820151816000015560208201518160010160006101000a81548173ffffffffffffffffffffffffffffffffffffffff021916908373ffffffffffffffffffffffffffffffffffffffff16021790555060408201518160020160006101000a81548173ffffffffffffffffffffffffffffffffffffffff021916908373ffffffffffffffffffffffffffffffffffffffff16021790555060608201518160030160006101000a81548173ffffffffffffffffffffffffffffffffffffffff021916908373ffffffffffffffffffffffffffffffffffffffff1602179055506080820151816004015560a0820151816005015560c0820151816006015560e08201518160070160006101000a81548160ff02191690831515021790555050507f13f4f2b8e248db04b9c06909af2f8eb5954c0a467baaa4823e14a9f55dee9b4582338a8a8a8a604051612db696959493929190614a8b565b60405180910390a15050505050505050565b6000808381548110612ddd57612ddc614075565b5b906000526020600020906008020160405180610100016040529081600082015481526020016001820160009054906101000a900473ffffffffffffffffffffffffffffffffffffffff1673ffffffffffffffffffffffffffffffffffffffff1673ffffffffffffffffffffffffffffffffffffffff1681526020016002820160009054906101000a900473ffffffffffffffffffffffffffffffffffffffff1673ffffffffffffffffffffffffffffffffffffffff1673ffffffffffffffffffffffffffffffffffffffff1681526020016003820160009054906101000a900473ffffffffffffffffffffffffffffffffffffffff1673ffffffffffffffffffffffffffffffffffffffff1673ffffffffffffffffffffffffffffffffffffffff1681526020016004820154815260200160058201548152602001600682015481526020016007820160009054906101000a900460ff16151515158152505090503373ffffffffffffffffffffffffffffffffffffffff16816020015173ffffffffffffffffffffffffffffffffffffffff1614612fb0576040517f08c379a0000000000000000000000000000000000000000000000000000000008152600401612fa790614101565b60405180910390fd5b8173ffffffffffffffffffffffffffffffffffffffff16816040015173ffffffffffffffffffffffffffffffffffffffff1603613022576040517f08c379a000000000000000000000000000000000000000000000000000000000815260040161301990614b38565b60405180910390fd5b600073ffffffffffffffffffffffffffffffffffffffff16816040015173ffffffffffffffffffffffffffffffffffffffff1603613095576040517f08c379a000000000000000000000000000000000000000000000000000000000815260040161308c906149ff565b60405180910390fd5b80608001514211156130dc576040517f08c379a00000000000000000000000000000000000000000000000000000000081526004016130d39061416d565b60405180910390fd5b600015158160e00151151514613127576040517f08c379a000000000000000000000000000000000000000000000000000000000815260040161311e906141d9565b60405180910390fd5b600060026000836040015173ffffffffffffffffffffffffffffffffffffffff1673ffffffffffffffffffffffffffffffffffffffff1681526020019081526020016000208054806020026020016040519081016040528092919081815260200182805480156131b657602002820191906000526020600020905b8154815260200190600101908083116131a2575b5050505050905060005b81518110156132f257848282815181106131dd576131dc614075565b5b6020026020010151036132df5781600183516131f991906144e6565b8151811061320a57613209614075565b5b602002602001015160026000856040015173ffffffffffffffffffffffffffffffffffffffff1673ffffffffffffffffffffffffffffffffffffffff168152602001908152602001600020828154811061326757613266614075565b5b906000526020600020018190555060026000846040015173ffffffffffffffffffffffffffffffffffffffff1673ffffffffffffffffffffffffffffffffffffffff1681526020019081526020016000208054806132c8576132c761451a565b5b600190038181906000526020600020016000905590555b80806132ea90614549565b9150506131c0565b50600260008473ffffffffffffffffffffffffffffffffffffffff1673ffffffffffffffffffffffffffffffffffffffff16815260200190815260200160002084908060018154018082558091505060019003906000526020600020016000909190919091505582826040019073ffffffffffffffffffffffffffffffffffffffff16908173ffffffffffffffffffffffffffffffffffffffff168152505081600085815481106133a6576133a5614075565b5b90600052602060002090600802016000820151816000015560208201518160010160006101000a81548173ffffffffffffffffffffffffffffffffffffffff021916908373ffffffffffffffffffffffffffffffffffffffff16021790555060408201518160020160006101000a81548173ffffffffffffffffffffffffffffffffffffffff021916908373ffffffffffffffffffffffffffffffffffffffff16021790555060608201518160030160006101000a81548173ffffffffffffffffffffffffffffffffffffffff021916908373ffffffffffffffffffffffffffffffffffffffff1602179055506080820151816004015560a0820151816005015560c0820151816006015560e08201518160070160006101000a81548160ff0219169083151502179055509050507f2ae974d7f90755778f8a13273920e403d2265f2f0063297e45c50d873f3fad6f8433856040516135079392919061497c565b60405180910390a150505050565b600080828154811061352a57613529614075565b5b906000526020600020906008020160405180610100016040529081600082015481526020016001820160009054906101000a900473ffffffffffffffffffffffffffffffffffffffff1673ffffffffffffffffffffffffffffffffffffffff1673ffffffffffffffffffffffffffffffffffffffff1681526020016002820160009054906101000a900473ffffffffffffffffffffffffffffffffffffffff1673ffffffffffffffffffffffffffffffffffffffff1673ffffffffffffffffffffffffffffffffffffffff1681526020016003820160009054906101000a900473ffffffffffffffffffffffffffffffffffffffff1673ffffffffffffffffffffffffffffffffffffffff1673ffffffffffffffffffffffffffffffffffffffff1681526020016004820154815260200160058201548152602001600682015481526020016007820160009054906101000a900460ff16151515158152505090503373ffffffffffffffffffffffffffffffffffffffff16816020015173ffffffffffffffffffffffffffffffffffffffff16146136fd576040517f08c379a00000000000000000000000000000000000000000000000000000000081526004016136f490614101565b60405180910390fd5b6000428260a0015161370f919061477e565b90508082608001818152505081600084815481106137305761372f614075565b5b90600052602060002090600802016000820151816000015560208201518160010160006101000a81548173ffffffffffffffffffffffffffffffffffffffff021916908373ffffffffffffffffffffffffffffffffffffffff16021790555060408201518160020160006101000a81548173ffffffffffffffffffffffffffffffffffffffff021916908373ffffffffffffffffffffffffffffffffffffffff16021790555060608201518160030160006101000a81548173ffffffffffffffffffffffffffffffffffffffff021916908373ffffffffffffffffffffffffffffffffffffffff1602179055506080820151816004015560a0820151816005015560c0820151816006015560e08201518160070160006101000a81548160ff0219169083151502179055509050506000600167ffffffffffffffff81111561387b5761387a61474f565b5b6040519080825280602002602001820160405280156138a95781602001602082028036833780820191505090505b50905081816000815181106138c1576138c0614075565b5b6020026020010181815250506000600167ffffffffffffffff8111156138ea576138e961474f565b5b6040519080825280602002602001820160405280156139185781602001602082028036833780820191505090505b50905084816000815181106139305761392f614075565b5b6020026020010181815250507f0e6cb619afa09f01deabf9f7836949d0de1ba277b61637c5335e8b3017646cdb81338460405161396f93929190614b58565b60405180910390a15050505050565b6000818154811061398e57600080fd5b90600052602060002090600802016000915090508060000154908060010160009054906101000a900473ffffffffffffffffffffffffffffffffffffffff16908060020160009054906101000a900473ffffffffffffffffffffffffffffffffffffffff16908060030160009054906101000a900473ffffffffffffffffffffffffffffffffffffffff16908060040154908060050154908060060154908060070160009054906101000a900460ff16905088565b6001151583151503613a5a57613a5987876112c3565b5b6001151582151503613a7157613a708786612dc8565b5b6001151581151503613a8857613a8787856102d0565b5b50505050505050565b60405180610100016040528060008152602001600073ffffffffffffffffffffffffffffffffffffffff168152602001600073ffffffffffffffffffffffffffffffffffffffff168152602001600073ffffffffffffffffffffffffffffffffffffffff1681526020016000815260200160008152602001600081526020016000151581525090565b600080fd5b6000819050919050565b613b3281613b1f565b8114613b3d57600080fd5b50565b600081359050613b4f81613b29565b92915050565b60008060408385031215613b6c57613b6b613b1a565b5b6000613b7a85828601613b40565b9250506020613b8b85828601613b40565b9150509250929050565b600060208284031215613bab57613baa613b1a565b5b6000613bb984828501613b40565b91505092915050565b600073ffffffffffffffffffffffffffffffffffffffff82169050919050565b6000613bed82613bc2565b9050919050565b613bfd81613be2565b8114613c0857600080fd5b50565b600081359050613c1a81613bf4565b92915050565b600060208284031215613c3657613c35613b1a565b5b6000613c4484828501613c0b565b91505092915050565b600081519050919050565b600082825260208201905092915050565b6000819050602082019050919050565b613c8281613b1f565b82525050565b613c9181613be2565b82525050565b60008115159050919050565b613cac81613c97565b82525050565b61010082016000820151613cc96000850182613c79565b506020820151613cdc6020850182613c88565b506040820151613cef6040850182613c88565b506060820151613d026060850182613c88565b506080820151613d156080850182613c79565b5060a0820151613d2860a0850182613c79565b5060c0820151613d3b60c0850182613c79565b5060e0820151613d4e60e0850182613ca3565b50505050565b6000613d608383613cb2565b6101008301905092915050565b6000602082019050919050565b6000613d8582613c4d565b613d8f8185613c58565b9350613d9a83613c69565b8060005b83811015613dcb578151613db28882613d54565b9750613dbd83613d6d565b925050600181019050613d9e565b5085935050505092915050565b60006020820190508181036000830152613df28184613d7a565b905092915050565b60008060408385031215613e1157613e10613b1a565b5b6000613e1f85828601613c0b565b9250506020613e3085828601613b40565b9150509250929050565b613e4381613b1f565b82525050565b6000602082019050613e5e6000830184613e3a565b92915050565b60008060008060808587031215613e7e57613e7d613b1a565b5b6000613e8c87828801613c0b565b9450506020613e9d87828801613c0b565b9350506040613eae87828801613b40565b9250506060613ebf87828801613b40565b91505092959194509250565b60008060408385031215613ee257613ee1613b1a565b5b6000613ef085828601613b40565b9250506020613f0185828601613c0b565b9150509250929050565b613f1481613be2565b82525050565b613f2381613c97565b82525050565b600061010082019050613f3f600083018b613e3a565b613f4c602083018a613f0b565b613f596040830189613f0b565b613f666060830188613f0b565b613f736080830187613e3a565b613f8060a0830186613e3a565b613f8d60c0830185613e3a565b613f9a60e0830184613f1a565b9998505050505050505050565b613fb081613c97565b8114613fbb57600080fd5b50565b600081359050613fcd81613fa7565b92915050565b600080600080600080600060e0888a031215613ff257613ff1613b1a565b5b60006140008a828b01613b40565b97505060206140118a828b01613b40565b96505060406140228a828b01613c0b565b95505060606140338a828b01613b40565b94505060806140448a828b01613fbe565b93505060a06140558a828b01613fbe565b92505060c06140668a828b01613fbe565b91505092959891949750929550565b7f4e487b7100000000000000000000000000000000000000000000000000000000600052603260045260246000fd5b600082825260208201905092915050565b7f48657269746167653a20596f75206e6f74206f776e6572000000000000000000600082015250565b60006140eb6017836140a4565b91506140f6826140b5565b602082019050919050565b6000602082019050818103600083015261411a816140de565b9050919050565b7f48657269746167653a2054696d65206973206f76657220796574000000000000600082015250565b6000614157601a836140a4565b915061416282614121565b602082019050919050565b600060208201905081810360008301526141868161414a565b9050919050565b7f48657269746167653a20416c72656164792077697468647261776e0000000000600082015250565b60006141c3601b836140a4565b91506141ce8261418d565b602082019050919050565b600060208201905081810360008301526141f2816141b6565b9050919050565b7f48657269746167653a20416d6f756e7420300000000000000000000000000000600082015250565b600061422f6012836140a4565b915061423a826141f9565b602082019050919050565b6000602082019050818103600083015261425e81614222565b9050919050565b7f48657269746167653a20416d6f756e74206973207468652073616d6500000000600082015250565b600061429b601c836140a4565b91506142a682614265565b602082019050919050565b600060208201905081810360008301526142ca8161428e565b9050919050565b60006040820190506142e66000830185613f0b565b6142f36020830184613f0b565b9392505050565b60008151905061430981613b29565b92915050565b60006020828403121561432557614324613b1a565b5b6000614333848285016142fa565b91505092915050565b7f4e6f7420656e6f75676820616c6c6f77616e6365000000000000000000000000600082015250565b60006143726014836140a4565b915061437d8261433c565b602082019050919050565b600060208201905081810360008301526143a181614365565b9050919050565b60006060820190506143bd6000830186613e3a565b6143ca6020830185613f0b565b6143d76040830184613e3a565b949350505050565b7f48657269746167653a20596f75206e6f74206865697200000000000000000000600082015250565b60006144156016836140a4565b9150614420826143df565b602082019050919050565b6000602082019050818103600083015261444481614408565b9050919050565b7f48657269746167653a2054696d65206973206e6f74206f766572207965740000600082015250565b6000614481601e836140a4565b915061448c8261444b565b602082019050919050565b600060208201905081810360008301526144b081614474565b9050919050565b7f4e487b7100000000000000000000000000000000000000000000000000000000600052601160045260246000fd5b60006144f182613b1f565b91506144fc83613b1f565b9250828203905081811115614514576145136144b7565b5b92915050565b7f4e487b7100000000000000000000000000000000000000000000000000000000600052603160045260246000fd5b600061455482613b1f565b91507fffffffffffffffffffffffffffffffffffffffffffffffffffffffffffffffff8203614586576145856144b7565b5b600182019050919050565b60006020820190506145a66000830184613f0b565b92915050565b60006060820190506145c16000830186613f0b565b6145ce6020830185613f0b565b6145db6040830184613e3a565b949350505050565b6000815190506145f281613fa7565b92915050565b60006020828403121561460e5761460d613b1a565b5b600061461c848285016145e3565b91505092915050565b600060a08201905061463a6000830188613e3a565b6146476020830187613f0b565b6146546040830186613f0b565b6146616060830185613e3a565b61466e6080830184613e3a565b9695505050505050565b7f48657269746167653a2054696d65207768656e2077697468647261772069732060008201527f6c6f776572207468656e206e6f77000000000000000000000000000000000000602082015250565b60006146d4602e836140a4565b91506146df82614678565b604082019050919050565b60006020820190508181036000830152614703816146c7565b9050919050565b600060808201905061471f6000830187613e3a565b61472c6020830186613f0b565b6147396040830185613f0b565b6147466060830184613e3a565b95945050505050565b7f4e487b7100000000000000000000000000000000000000000000000000000000600052604160045260246000fd5b600061478982613b1f565b915061479483613b1f565b92508282019050808211156147ac576147ab6144b7565b5b92915050565b600081549050919050565b600082825260208201905092915050565b60008190508160005260206000209050919050565b60006147ef8383613c79565b60208301905092915050565b60008160001c9050919050565b6000819050919050565b6000614825614820836147fb565b614808565b9050919050565b60006148388254614812565b9050919050565b6000600182019050919050565b6000614857826147b2565b61486181856147bd565b935061486c836147ce565b8060005b838110156148a4576148818261482c565b61488b88826147e3565b97506148968361483f565b925050600181019050614870565b5085935050505092915050565b600081519050919050565b6000819050602082019050919050565b6000602082019050919050565b60006148e4826148b1565b6148ee81856147bd565b93506148f9836148bc565b8060005b8381101561492a57815161491188826147e3565b975061491c836148cc565b9250506001810190506148fd565b5085935050505092915050565b60006060820190508181036000830152614951818661484c565b90506149606020830185613f0b565b818103604083015261497281846148d9565b9050949350505050565b60006060820190506149916000830186613e3a565b61499e6020830185613f0b565b6149ab6040830184613f0b565b949350505050565b7f48657269746167653a2048656972206973206164647265737328302900000000600082015250565b60006149e9601c836140a4565b91506149f4826149b3565b602082019050919050565b60006020820190508181036000830152614a18816149dc565b9050919050565b7f48657269746167653a20546f6b656e2069732061646472657373283029000000600082015250565b6000614a55601d836140a4565b9150614a6082614a1f565b602082019050919050565b60006020820190508181036000830152614a8481614a48565b9050919050565b600060c082019050614aa06000830189613e3a565b614aad6020830188613f0b565b614aba6040830187613f0b565b614ac76060830186613f0b565b614ad46080830185613e3a565b614ae160a0830184613e3a565b979650505050505050565b7f48657269746167653a2053616d65206865697200000000000000000000000000600082015250565b6000614b226013836140a4565b9150614b2d82614aec565b602082019050919050565b60006020820190508181036000830152614b5181614b15565b9050919050565b60006060820190508181036000830152614b7281866148d9565b9050614b816020830185613f0b565b8181036040830152614b9381846148d9565b905094935050505056fea264697066735822122016f73cf78d3d3286aa2c99da4074c27b6e747f3a3db6e27a53c5e6cc1cd024ce64736f6c63430008110033",
  "linkReferences": {},
  "deployedLinkReferences": {}
}