{
  "_format": "hh-sol-artifact-1",
  "contractName": "TheWill",
  "sourceName": "contracts/TheWill.sol",
  "abi": [
    {
      "anonymous": false,
      "inputs": [
        {
          "indexed": false,
          "internalType": "uint256",
          "name": "ID",
          "type": "uint256"
        },
        {
          "indexed": false,
          "internalType": "address",
          "name": "heir",
          "type": "address"
        },
        {
          "indexed": false,
          "internalType": "address",
          "name": "token",
          "type": "address"
        },
        {
          "indexed": false,
          "internalType": "uint256",
          "name": "timeWhenWithdraw",
          "type": "uint256"
        },
        {
          "indexed": false,
          "internalType": "uint256",
          "name": "amount",
          "type": "uint256"
        }
      ],
      "name": "AddAnHeir",
      "type": "event"
    },
    {
      "anonymous": false,
      "inputs": [
        {
          "indexed": false,
          "internalType": "uint256",
          "name": "ID",
          "type": "uint256"
        },
        {
          "indexed": false,
          "internalType": "uint256",
          "name": "timeWhenWithdrawn",
          "type": "uint256"
        }
      ],
      "name": "Withdraw",
      "type": "event"
    },
    {
      "inputs": [
        {
          "internalType": "address",
          "name": "heir",
          "type": "address"
        },
        {
          "internalType": "address",
          "name": "token",
          "type": "address"
        },
        {
          "internalType": "uint256",
          "name": "timeWhenWithdraw",
          "type": "uint256"
        },
        {
          "internalType": "uint256",
          "name": "amount",
          "type": "uint256"
        }
      ],
      "name": "addNewWill",
      "outputs": [],
      "stateMutability": "nonpayable",
      "type": "function"
    },
    {
      "inputs": [
        {
          "internalType": "uint256",
          "name": "",
          "type": "uint256"
        }
      ],
      "name": "inheritanceData",
      "outputs": [
        {
          "internalType": "address",
          "name": "owner",
          "type": "address"
        },
        {
          "internalType": "address",
          "name": "heir",
          "type": "address"
        },
        {
          "internalType": "address",
          "name": "token",
          "type": "address"
        },
        {
          "internalType": "uint256",
          "name": "timeWhenWithdraw",
          "type": "uint256"
        },
        {
          "internalType": "uint256",
          "name": "amount",
          "type": "uint256"
        },
        {
          "internalType": "bool",
          "name": "done",
          "type": "bool"
        }
      ],
      "stateMutability": "view",
      "type": "function"
    },
    {
      "inputs": [
        {
          "internalType": "address",
          "name": "",
          "type": "address"
        }
      ],
      "name": "inheritancesAmountHeir",
      "outputs": [
        {
          "internalType": "uint64",
          "name": "",
          "type": "uint64"
        }
      ],
      "stateMutability": "view",
      "type": "function"
    },
    {
      "inputs": [
        {
          "internalType": "address",
          "name": "",
          "type": "address"
        }
      ],
      "name": "inheritancesAmountOwner",
      "outputs": [
        {
          "internalType": "uint64",
          "name": "",
          "type": "uint64"
        }
      ],
      "stateMutability": "view",
      "type": "function"
    },
    {
      "inputs": [
        {
          "internalType": "uint256",
          "name": "ID",
          "type": "uint256"
        }
      ],
      "name": "removeWill",
      "outputs": [],
      "stateMutability": "nonpayable",
      "type": "function"
    },
    {
      "inputs": [
        {
          "internalType": "uint256",
          "name": "ID",
          "type": "uint256"
        },
        {
          "internalType": "address",
          "name": "_heir",
          "type": "address"
        }
      ],
      "name": "updateAnHeir",
      "outputs": [],
      "stateMutability": "nonpayable",
      "type": "function"
    },
    {
      "inputs": [
        {
          "internalType": "uint256",
          "name": "ID",
          "type": "uint256"
        },
        {
          "internalType": "uint256",
          "name": "newTime",
          "type": "uint256"
        }
      ],
      "name": "updateWillTimeWhenWithdraw",
      "outputs": [],
      "stateMutability": "nonpayable",
      "type": "function"
    },
    {
      "inputs": [
        {
          "internalType": "uint256",
          "name": "ID",
          "type": "uint256"
        }
      ],
      "name": "withdraw",
      "outputs": [],
      "stateMutability": "nonpayable",
      "type": "function"
    }
  ],
  "bytecode": "0x608060405234801561001057600080fd5b5061230f806100206000396000f3fe608060405234801561001057600080fd5b50600436106100885760003560e01c80639c7e99681161005b5780639c7e996814610111578063b282e7b81461012d578063dac1215b14610149578063e41c377c1461017957610088565b80632e1a7d4d1461008d57806333a8a2fb146100a957806343cc60b1146100c55780635dae92d8146100e1575b600080fd5b6100a760048036038101906100a291906119f0565b6101ae565b005b6100c360048036038101906100be9190611a1d565b61061d565b005b6100df60048036038101906100da91906119f0565b610a02565b005b6100fb60048036038101906100f69190611abb565b610ef9565b6040516101089190611b0b565b60405180910390f35b61012b60048036038101906101269190611b26565b610f20565b005b61014760048036038101906101429190611b8d565b61141f565b005b610163600480360381019061015e9190611abb565b6118d5565b6040516101709190611b0b565b60405180910390f35b610193600480360381019061018e91906119f0565b6118fc565b6040516101a596959493929190611c06565b60405180910390f35b60008082815481106101c3576101c2611c67565b5b90600052602060002090600602016040518060c00160405290816000820160009054906101000a900473ffffffffffffffffffffffffffffffffffffffff1673ffffffffffffffffffffffffffffffffffffffff1673ffffffffffffffffffffffffffffffffffffffff1681526020016001820160009054906101000a900473ffffffffffffffffffffffffffffffffffffffff1673ffffffffffffffffffffffffffffffffffffffff1673ffffffffffffffffffffffffffffffffffffffff1681526020016002820160009054906101000a900473ffffffffffffffffffffffffffffffffffffffff1673ffffffffffffffffffffffffffffffffffffffff1673ffffffffffffffffffffffffffffffffffffffff16815260200160038201548152602001600482015481526020016005820160009054906101000a900460ff1615151515815250509050806020015173ffffffffffffffffffffffffffffffffffffffff163373ffffffffffffffffffffffffffffffffffffffff1614610381576040517f08c379a000000000000000000000000000000000000000000000000000000000815260040161037890611cf3565b60405180910390fd5b80606001514210156103c8576040517f08c379a00000000000000000000000000000000000000000000000000000000081526004016103bf90611d5f565b60405180910390fd5b600015158160a00151151514610413576040517f08c379a000000000000000000000000000000000000000000000000000000000815260040161040a90611dcb565b60405180910390fd5b60018160a00190151590811515815250506000816040015190508073ffffffffffffffffffffffffffffffffffffffff1663a9059cbb3384608001516040518363ffffffff1660e01b815260040161046c929190611deb565b6020604051808303816000875af115801561048b573d6000803e3d6000fd5b505050506040513d601f19601f820116820180604052508101906104af9190611e40565b5081600084815481106104c5576104c4611c67565b5b906000526020600020906006020160008201518160000160006101000a81548173ffffffffffffffffffffffffffffffffffffffff021916908373ffffffffffffffffffffffffffffffffffffffff16021790555060208201518160010160006101000a81548173ffffffffffffffffffffffffffffffffffffffff021916908373ffffffffffffffffffffffffffffffffffffffff16021790555060408201518160020160006101000a81548173ffffffffffffffffffffffffffffffffffffffff021916908373ffffffffffffffffffffffffffffffffffffffff160217905550606082015181600301556080820151816004015560a08201518160050160006101000a81548160ff0219169083151502179055509050507f56ca301a9219608c91e7bcee90e083c19671d2cdcc96752c7af291cee5f9c8c88342604051610610929190611e6d565b60405180910390a1505050565b600080838154811061063257610631611c67565b5b90600052602060002090600602016040518060c00160405290816000820160009054906101000a900473ffffffffffffffffffffffffffffffffffffffff1673ffffffffffffffffffffffffffffffffffffffff1673ffffffffffffffffffffffffffffffffffffffff1681526020016001820160009054906101000a900473ffffffffffffffffffffffffffffffffffffffff1673ffffffffffffffffffffffffffffffffffffffff1673ffffffffffffffffffffffffffffffffffffffff1681526020016002820160009054906101000a900473ffffffffffffffffffffffffffffffffffffffff1673ffffffffffffffffffffffffffffffffffffffff1673ffffffffffffffffffffffffffffffffffffffff16815260200160038201548152602001600482015481526020016005820160009054906101000a900460ff16151515158152505090503373ffffffffffffffffffffffffffffffffffffffff16816000015173ffffffffffffffffffffffffffffffffffffffff16146107f0576040517f08c379a00000000000000000000000000000000000000000000000000000000081526004016107e790611ee2565b60405180910390fd5b8060600151421115610837576040517f08c379a000000000000000000000000000000000000000000000000000000000815260040161082e90611f4e565b60405180910390fd5b428211610879576040517f08c379a000000000000000000000000000000000000000000000000000000000815260040161087090611fe0565b60405180910390fd5b600015158160a001511515146108c4576040517f08c379a00000000000000000000000000000000000000000000000000000000081526004016108bb90611dcb565b60405180910390fd5b8181606001818152505080600084815481106108e3576108e2611c67565b5b906000526020600020906006020160008201518160000160006101000a81548173ffffffffffffffffffffffffffffffffffffffff021916908373ffffffffffffffffffffffffffffffffffffffff16021790555060208201518160010160006101000a81548173ffffffffffffffffffffffffffffffffffffffff021916908373ffffffffffffffffffffffffffffffffffffffff16021790555060408201518160020160006101000a81548173ffffffffffffffffffffffffffffffffffffffff021916908373ffffffffffffffffffffffffffffffffffffffff160217905550606082015181600301556080820151816004015560a08201518160050160006101000a81548160ff021916908315150217905550905050505050565b6000808281548110610a1757610a16611c67565b5b90600052602060002090600602016040518060c00160405290816000820160009054906101000a900473ffffffffffffffffffffffffffffffffffffffff1673ffffffffffffffffffffffffffffffffffffffff1673ffffffffffffffffffffffffffffffffffffffff1681526020016001820160009054906101000a900473ffffffffffffffffffffffffffffffffffffffff1673ffffffffffffffffffffffffffffffffffffffff1673ffffffffffffffffffffffffffffffffffffffff1681526020016002820160009054906101000a900473ffffffffffffffffffffffffffffffffffffffff1673ffffffffffffffffffffffffffffffffffffffff1673ffffffffffffffffffffffffffffffffffffffff16815260200160038201548152602001600482015481526020016005820160009054906101000a900460ff16151515158152505090503373ffffffffffffffffffffffffffffffffffffffff16816000015173ffffffffffffffffffffffffffffffffffffffff1614610bd5576040517f08c379a0000000000000000000000000000000000000000000000000000000008152600401610bcc90611ee2565b60405180910390fd5b8060600151421115610c1c576040517f08c379a0000000000000000000000000000000000000000000000000000000008152600401610c1390611f4e565b60405180910390fd5b600015158160a00151151514610c67576040517f08c379a0000000000000000000000000000000000000000000000000000000008152600401610c5e90611dcb565b60405180910390fd5b6000816040015190508073ffffffffffffffffffffffffffffffffffffffff1663a9059cbb3384608001516040518363ffffffff1660e01b8152600401610caf929190611deb565b6020604051808303816000875af1158015610cce573d6000803e3d6000fd5b505050506040513d601f19601f82011682018060405250810190610cf29190611e40565b506000826000019073ffffffffffffffffffffffffffffffffffffffff16908173ffffffffffffffffffffffffffffffffffffffff168152505060008260800181815250506000826040019073ffffffffffffffffffffffffffffffffffffffff16908173ffffffffffffffffffffffffffffffffffffffff16815250506000826020019073ffffffffffffffffffffffffffffffffffffffff16908173ffffffffffffffffffffffffffffffffffffffff1681525050600082606001818152505060008260a00190151590811515815250508160008481548110610dda57610dd9611c67565b5b906000526020600020906006020160008201518160000160006101000a81548173ffffffffffffffffffffffffffffffffffffffff021916908373ffffffffffffffffffffffffffffffffffffffff16021790555060208201518160010160006101000a81548173ffffffffffffffffffffffffffffffffffffffff021916908373ffffffffffffffffffffffffffffffffffffffff16021790555060408201518160020160006101000a81548173ffffffffffffffffffffffffffffffffffffffff021916908373ffffffffffffffffffffffffffffffffffffffff160217905550606082015181600301556080820151816004015560a08201518160050160006101000a81548160ff021916908315150217905550905050505050565b60016020528060005260406000206000915054906101000a900467ffffffffffffffff1681565b600073ffffffffffffffffffffffffffffffffffffffff168473ffffffffffffffffffffffffffffffffffffffff1603610f8f576040517f08c379a0000000000000000000000000000000000000000000000000000000008152600401610f869061204c565b60405180910390fd5b600073ffffffffffffffffffffffffffffffffffffffff168373ffffffffffffffffffffffffffffffffffffffff1603610ffe576040517f08c379a0000000000000000000000000000000000000000000000000000000008152600401610ff5906120b8565b60405180910390fd5b428211611040576040517f08c379a000000000000000000000000000000000000000000000000000000000815260040161103790611fe0565b60405180910390fd5b60008103611083576040517f08c379a000000000000000000000000000000000000000000000000000000000815260040161107a90612124565b60405180910390fd5b60008390508073ffffffffffffffffffffffffffffffffffffffff166323b872dd3330856040518463ffffffff1660e01b81526004016110c593929190612144565b6020604051808303816000875af11580156110e4573d6000803e3d6000fd5b505050506040513d601f19601f820116820180604052508101906111089190611e40565b5060006040518060c001604052803373ffffffffffffffffffffffffffffffffffffffff1681526020018773ffffffffffffffffffffffffffffffffffffffff1681526020018673ffffffffffffffffffffffffffffffffffffffff168152602001858152602001848152602001600015158152509050600081908060018154018082558091505060019003906000526020600020906006020160009091909190915060008201518160000160006101000a81548173ffffffffffffffffffffffffffffffffffffffff021916908373ffffffffffffffffffffffffffffffffffffffff16021790555060208201518160010160006101000a81548173ffffffffffffffffffffffffffffffffffffffff021916908373ffffffffffffffffffffffffffffffffffffffff16021790555060408201518160020160006101000a81548173ffffffffffffffffffffffffffffffffffffffff021916908373ffffffffffffffffffffffffffffffffffffffff160217905550606082015181600301556080820151816004015560a08201518160050160006101000a81548160ff021916908315150217905550505060018060003373ffffffffffffffffffffffffffffffffffffffff1673ffffffffffffffffffffffffffffffffffffffff16815260200190815260200160002060008282829054906101000a900467ffffffffffffffff1661131891906121aa565b92506101000a81548167ffffffffffffffff021916908367ffffffffffffffff1602179055506001600260008873ffffffffffffffffffffffffffffffffffffffff1673ffffffffffffffffffffffffffffffffffffffff16815260200190815260200160002060008282829054906101000a900467ffffffffffffffff166113a191906121aa565b92506101000a81548167ffffffffffffffff021916908367ffffffffffffffff1602179055507f811f15659bb1e8b798231524857e53faeb3bff2a90fc2bf81ebbc80747e81e3560016000805490506113fa91906121e6565b8787878760405161140f95949392919061221a565b60405180910390a1505050505050565b600080838154811061143457611433611c67565b5b90600052602060002090600602016040518060c00160405290816000820160009054906101000a900473ffffffffffffffffffffffffffffffffffffffff1673ffffffffffffffffffffffffffffffffffffffff1673ffffffffffffffffffffffffffffffffffffffff1681526020016001820160009054906101000a900473ffffffffffffffffffffffffffffffffffffffff1673ffffffffffffffffffffffffffffffffffffffff1673ffffffffffffffffffffffffffffffffffffffff1681526020016002820160009054906101000a900473ffffffffffffffffffffffffffffffffffffffff1673ffffffffffffffffffffffffffffffffffffffff1673ffffffffffffffffffffffffffffffffffffffff16815260200160038201548152602001600482015481526020016005820160009054906101000a900460ff16151515158152505090503373ffffffffffffffffffffffffffffffffffffffff16816000015173ffffffffffffffffffffffffffffffffffffffff16146115f2576040517f08c379a00000000000000000000000000000000000000000000000000000000081526004016115e990611ee2565b60405180910390fd5b8173ffffffffffffffffffffffffffffffffffffffff16816020015173ffffffffffffffffffffffffffffffffffffffff1603611664576040517f08c379a000000000000000000000000000000000000000000000000000000000815260040161165b906122b9565b60405180910390fd5b600073ffffffffffffffffffffffffffffffffffffffff16816020015173ffffffffffffffffffffffffffffffffffffffff16036116d7576040517f08c379a00000000000000000000000000000000000000000000000000000000081526004016116ce9061204c565b60405180910390fd5b806060015142111561171e576040517f08c379a000000000000000000000000000000000000000000000000000000000815260040161171590611f4e565b60405180910390fd5b600015158160a00151151514611769576040517f08c379a000000000000000000000000000000000000000000000000000000000815260040161176090611dcb565b60405180910390fd5b81816020019073ffffffffffffffffffffffffffffffffffffffff16908173ffffffffffffffffffffffffffffffffffffffff168152505080600084815481106117b6576117b5611c67565b5b906000526020600020906006020160008201518160000160006101000a81548173ffffffffffffffffffffffffffffffffffffffff021916908373ffffffffffffffffffffffffffffffffffffffff16021790555060208201518160010160006101000a81548173ffffffffffffffffffffffffffffffffffffffff021916908373ffffffffffffffffffffffffffffffffffffffff16021790555060408201518160020160006101000a81548173ffffffffffffffffffffffffffffffffffffffff021916908373ffffffffffffffffffffffffffffffffffffffff160217905550606082015181600301556080820151816004015560a08201518160050160006101000a81548160ff021916908315150217905550905050505050565b60026020528060005260406000206000915054906101000a900467ffffffffffffffff1681565b6000818154811061190c57600080fd5b90600052602060002090600602016000915090508060000160009054906101000a900473ffffffffffffffffffffffffffffffffffffffff16908060010160009054906101000a900473ffffffffffffffffffffffffffffffffffffffff16908060020160009054906101000a900473ffffffffffffffffffffffffffffffffffffffff16908060030154908060040154908060050160009054906101000a900460ff16905086565b600080fd5b6000819050919050565b6119cd816119ba565b81146119d857600080fd5b50565b6000813590506119ea816119c4565b92915050565b600060208284031215611a0657611a056119b5565b5b6000611a14848285016119db565b91505092915050565b60008060408385031215611a3457611a336119b5565b5b6000611a42858286016119db565b9250506020611a53858286016119db565b9150509250929050565b600073ffffffffffffffffffffffffffffffffffffffff82169050919050565b6000611a8882611a5d565b9050919050565b611a9881611a7d565b8114611aa357600080fd5b50565b600081359050611ab581611a8f565b92915050565b600060208284031215611ad157611ad06119b5565b5b6000611adf84828501611aa6565b91505092915050565b600067ffffffffffffffff82169050919050565b611b0581611ae8565b82525050565b6000602082019050611b206000830184611afc565b92915050565b60008060008060808587031215611b4057611b3f6119b5565b5b6000611b4e87828801611aa6565b9450506020611b5f87828801611aa6565b9350506040611b70878288016119db565b9250506060611b81878288016119db565b91505092959194509250565b60008060408385031215611ba457611ba36119b5565b5b6000611bb2858286016119db565b9250506020611bc385828601611aa6565b9150509250929050565b611bd681611a7d565b82525050565b611be5816119ba565b82525050565b60008115159050919050565b611c0081611beb565b82525050565b600060c082019050611c1b6000830189611bcd565b611c286020830188611bcd565b611c356040830187611bcd565b611c426060830186611bdc565b611c4f6080830185611bdc565b611c5c60a0830184611bf7565b979650505050505050565b7f4e487b7100000000000000000000000000000000000000000000000000000000600052603260045260246000fd5b600082825260208201905092915050565b7f48657269746167653a20596f75206e6f74206865697200000000000000000000600082015250565b6000611cdd601683611c96565b9150611ce882611ca7565b602082019050919050565b60006020820190508181036000830152611d0c81611cd0565b9050919050565b7f48657269746167653a2054696d65206973206e6f74206f766572207965740000600082015250565b6000611d49601e83611c96565b9150611d5482611d13565b602082019050919050565b60006020820190508181036000830152611d7881611d3c565b9050919050565b7f48657269746167653a20416c72656164792077697468647261776e0000000000600082015250565b6000611db5601b83611c96565b9150611dc082611d7f565b602082019050919050565b60006020820190508181036000830152611de481611da8565b9050919050565b6000604082019050611e006000830185611bcd565b611e0d6020830184611bdc565b9392505050565b611e1d81611beb565b8114611e2857600080fd5b50565b600081519050611e3a81611e14565b92915050565b600060208284031215611e5657611e556119b5565b5b6000611e6484828501611e2b565b91505092915050565b6000604082019050611e826000830185611bdc565b611e8f6020830184611bdc565b9392505050565b7f48657269746167653a20596f75206e6f74206f776e6572000000000000000000600082015250565b6000611ecc601783611c96565b9150611ed782611e96565b602082019050919050565b60006020820190508181036000830152611efb81611ebf565b9050919050565b7f48657269746167653a2054696d65206973206f76657220796574000000000000600082015250565b6000611f38601a83611c96565b9150611f4382611f02565b602082019050919050565b60006020820190508181036000830152611f6781611f2b565b9050919050565b7f48657269746167653a2054696d65207768656e2077697468647261772069732060008201527f6c6f776572207468656e206e6f77000000000000000000000000000000000000602082015250565b6000611fca602e83611c96565b9150611fd582611f6e565b604082019050919050565b60006020820190508181036000830152611ff981611fbd565b9050919050565b7f48657269746167653a2048656972206973206164647265737328302900000000600082015250565b6000612036601c83611c96565b915061204182612000565b602082019050919050565b6000602082019050818103600083015261206581612029565b9050919050565b7f48657269746167653a20546f6b656e2069732061646472657373283029000000600082015250565b60006120a2601d83611c96565b91506120ad8261206c565b602082019050919050565b600060208201905081810360008301526120d181612095565b9050919050565b7f48657269746167653a20416d6f756e7420300000000000000000000000000000600082015250565b600061210e601283611c96565b9150612119826120d8565b602082019050919050565b6000602082019050818103600083015261213d81612101565b9050919050565b60006060820190506121596000830186611bcd565b6121666020830185611bcd565b6121736040830184611bdc565b949350505050565b7f4e487b7100000000000000000000000000000000000000000000000000000000600052601160045260246000fd5b60006121b582611ae8565b91506121c083611ae8565b9250828201905067ffffffffffffffff8111156121e0576121df61217b565b5b92915050565b60006121f1826119ba565b91506121fc836119ba565b92508282039050818111156122145761221361217b565b5b92915050565b600060a08201905061222f6000830188611bdc565b61223c6020830187611bcd565b6122496040830186611bcd565b6122566060830185611bdc565b6122636080830184611bdc565b9695505050505050565b7f48657269746167653a2053616d65206865697200000000000000000000000000600082015250565b60006122a3601383611c96565b91506122ae8261226d565b602082019050919050565b600060208201905081810360008301526122d281612296565b905091905056fea2646970667358221220e5cbfeaaa9691f3c493ff25194d281b9d747a941191d5b9c24239052d61b345464736f6c63430008110033",
  "linkReferences": {},
  "deployedLinkReferences": {}
}