{
  "_format": "hh-sol-artifact-1",
  "contractName": "TheWill",
  "sourceName": "contracts/TheWill.sol",
  "abi": [
    {
      "anonymous": false,
      "inputs": [
        {
          "indexed": false,
          "internalType": "uint256",
          "name": "ID",
          "type": "uint256"
        },
        {
          "indexed": false,
          "internalType": "address",
          "name": "owner",
          "type": "address"
        },
        {
          "indexed": false,
          "internalType": "address",
          "name": "heir",
          "type": "address"
        },
        {
          "indexed": false,
          "internalType": "address",
          "name": "token",
          "type": "address"
        },
        {
          "indexed": false,
          "internalType": "uint256",
          "name": "timeWhenWithdraw",
          "type": "uint256"
        },
        {
          "indexed": false,
          "internalType": "uint256",
          "name": "amount",
          "type": "uint256"
        }
      ],
      "name": "AddAnHeir",
      "type": "event"
    },
    {
      "anonymous": false,
      "inputs": [
        {
          "indexed": false,
          "internalType": "uint256",
          "name": "ID",
          "type": "uint256"
        },
        {
          "indexed": false,
          "internalType": "address",
          "name": "owner",
          "type": "address"
        },
        {
          "indexed": false,
          "internalType": "address",
          "name": "heir",
          "type": "address"
        }
      ],
      "name": "RemoveWill",
      "type": "event"
    },
    {
      "anonymous": false,
      "inputs": [
        {
          "indexed": false,
          "internalType": "uint256[]",
          "name": "IDs",
          "type": "uint256[]"
        },
        {
          "indexed": false,
          "internalType": "address",
          "name": "owner",
          "type": "address"
        },
        {
          "indexed": false,
          "internalType": "uint256[]",
          "name": "newTimes",
          "type": "uint256[]"
        }
      ],
      "name": "ResetTimers",
      "type": "event"
    },
    {
      "anonymous": false,
      "inputs": [
        {
          "indexed": false,
          "internalType": "uint256",
          "name": "ID",
          "type": "uint256"
        },
        {
          "indexed": false,
          "internalType": "address",
          "name": "owner",
          "type": "address"
        },
        {
          "indexed": false,
          "internalType": "uint256",
          "name": "newAmount",
          "type": "uint256"
        }
      ],
      "name": "UpdateAmount",
      "type": "event"
    },
    {
      "anonymous": false,
      "inputs": [
        {
          "indexed": false,
          "internalType": "uint256",
          "name": "ID",
          "type": "uint256"
        },
        {
          "indexed": false,
          "internalType": "address",
          "name": "owner",
          "type": "address"
        },
        {
          "indexed": false,
          "internalType": "address",
          "name": "newHeir",
          "type": "address"
        }
      ],
      "name": "UpdateAnHeir",
      "type": "event"
    },
    {
      "anonymous": false,
      "inputs": [
        {
          "indexed": false,
          "internalType": "uint256",
          "name": "ID",
          "type": "uint256"
        },
        {
          "indexed": false,
          "internalType": "address",
          "name": "owner",
          "type": "address"
        },
        {
          "indexed": false,
          "internalType": "address",
          "name": "heir",
          "type": "address"
        },
        {
          "indexed": false,
          "internalType": "uint256",
          "name": "newTime",
          "type": "uint256"
        }
      ],
      "name": "UpdateWillTimeWhenWithdraw",
      "type": "event"
    },
    {
      "anonymous": false,
      "inputs": [
        {
          "indexed": false,
          "internalType": "uint256",
          "name": "ID",
          "type": "uint256"
        },
        {
          "indexed": false,
          "internalType": "address",
          "name": "owner",
          "type": "address"
        },
        {
          "indexed": false,
          "internalType": "address",
          "name": "heir",
          "type": "address"
        },
        {
          "indexed": false,
          "internalType": "uint256",
          "name": "timeWhenWithdrawn",
          "type": "uint256"
        },
        {
          "indexed": false,
          "internalType": "uint256",
          "name": "amount",
          "type": "uint256"
        }
      ],
      "name": "Withdraw",
      "type": "event"
    },
    {
      "inputs": [
        {
          "internalType": "address",
          "name": "heir",
          "type": "address"
        },
        {
          "internalType": "address",
          "name": "token",
          "type": "address"
        },
        {
          "internalType": "uint256",
          "name": "timeWhenWithdraw",
          "type": "uint256"
        },
        {
          "internalType": "uint256",
          "name": "timeBetweenWithdrawAndStart",
          "type": "uint256"
        },
        {
          "internalType": "uint256",
          "name": "amount",
          "type": "uint256"
        }
      ],
      "name": "addNewWill",
      "outputs": [],
      "stateMutability": "nonpayable",
      "type": "function"
    },
    {
      "inputs": [
        {
          "internalType": "address",
          "name": "heir",
          "type": "address"
        }
      ],
      "name": "getAllInheritances",
      "outputs": [
        {
          "components": [
            {
              "internalType": "uint256",
              "name": "ID",
              "type": "uint256"
            },
            {
              "internalType": "address",
              "name": "owner",
              "type": "address"
            },
            {
              "internalType": "address",
              "name": "heir",
              "type": "address"
            },
            {
              "internalType": "address",
              "name": "token",
              "type": "address"
            },
            {
              "internalType": "uint256",
              "name": "timeWhenWithdraw",
              "type": "uint256"
            },
            {
              "internalType": "uint256",
              "name": "timeBetweenWithdrawAndStart",
              "type": "uint256"
            },
            {
              "internalType": "uint256",
              "name": "amount",
              "type": "uint256"
            },
            {
              "internalType": "bool",
              "name": "done",
              "type": "bool"
            }
          ],
          "internalType": "struct IHeritage.InheritanceData[]",
          "name": "",
          "type": "tuple[]"
        }
      ],
      "stateMutability": "view",
      "type": "function"
    },
    {
      "inputs": [
        {
          "internalType": "address",
          "name": "owner",
          "type": "address"
        }
      ],
      "name": "getAllWills",
      "outputs": [
        {
          "components": [
            {
              "internalType": "uint256",
              "name": "ID",
              "type": "uint256"
            },
            {
              "internalType": "address",
              "name": "owner",
              "type": "address"
            },
            {
              "internalType": "address",
              "name": "heir",
              "type": "address"
            },
            {
              "internalType": "address",
              "name": "token",
              "type": "address"
            },
            {
              "internalType": "uint256",
              "name": "timeWhenWithdraw",
              "type": "uint256"
            },
            {
              "internalType": "uint256",
              "name": "timeBetweenWithdrawAndStart",
              "type": "uint256"
            },
            {
              "internalType": "uint256",
              "name": "amount",
              "type": "uint256"
            },
            {
              "internalType": "bool",
              "name": "done",
              "type": "bool"
            }
          ],
          "internalType": "struct IHeritage.InheritanceData[]",
          "name": "",
          "type": "tuple[]"
        }
      ],
      "stateMutability": "view",
      "type": "function"
    },
    {
      "inputs": [
        {
          "internalType": "uint256",
          "name": "",
          "type": "uint256"
        }
      ],
      "name": "inheritanceData",
      "outputs": [
        {
          "internalType": "uint256",
          "name": "ID",
          "type": "uint256"
        },
        {
          "internalType": "address",
          "name": "owner",
          "type": "address"
        },
        {
          "internalType": "address",
          "name": "heir",
          "type": "address"
        },
        {
          "internalType": "address",
          "name": "token",
          "type": "address"
        },
        {
          "internalType": "uint256",
          "name": "timeWhenWithdraw",
          "type": "uint256"
        },
        {
          "internalType": "uint256",
          "name": "timeBetweenWithdrawAndStart",
          "type": "uint256"
        },
        {
          "internalType": "uint256",
          "name": "amount",
          "type": "uint256"
        },
        {
          "internalType": "bool",
          "name": "done",
          "type": "bool"
        }
      ],
      "stateMutability": "view",
      "type": "function"
    },
    {
      "inputs": [
        {
          "internalType": "address",
          "name": "",
          "type": "address"
        },
        {
          "internalType": "uint256",
          "name": "",
          "type": "uint256"
        }
      ],
      "name": "inheritancesHeir",
      "outputs": [
        {
          "internalType": "uint256",
          "name": "",
          "type": "uint256"
        }
      ],
      "stateMutability": "view",
      "type": "function"
    },
    {
      "inputs": [
        {
          "internalType": "address",
          "name": "",
          "type": "address"
        },
        {
          "internalType": "uint256",
          "name": "",
          "type": "uint256"
        }
      ],
      "name": "inheritancesOwner",
      "outputs": [
        {
          "internalType": "uint256",
          "name": "",
          "type": "uint256"
        }
      ],
      "stateMutability": "view",
      "type": "function"
    },
    {
      "inputs": [
        {
          "internalType": "uint256",
          "name": "ID",
          "type": "uint256"
        }
      ],
      "name": "removeWill",
      "outputs": [],
      "stateMutability": "nonpayable",
      "type": "function"
    },
    {
      "inputs": [],
      "name": "resetTimers",
      "outputs": [],
      "stateMutability": "nonpayable",
      "type": "function"
    },
    {
      "inputs": [
        {
          "internalType": "uint256",
          "name": "ID",
          "type": "uint256"
        }
      ],
      "name": "resetTimersAtOne",
      "outputs": [],
      "stateMutability": "nonpayable",
      "type": "function"
    },
    {
      "inputs": [
        {
          "internalType": "uint256",
          "name": "ID",
          "type": "uint256"
        },
        {
          "internalType": "uint256",
          "name": "newTime",
          "type": "uint256"
        },
        {
          "internalType": "address",
          "name": "_heir",
          "type": "address"
        },
        {
          "internalType": "uint256",
          "name": "amount",
          "type": "uint256"
        },
        {
          "internalType": "bool",
          "name": "_updateTime",
          "type": "bool"
        },
        {
          "internalType": "bool",
          "name": "_updateHeir",
          "type": "bool"
        },
        {
          "internalType": "bool",
          "name": "_updateAmount",
          "type": "bool"
        }
      ],
      "name": "update",
      "outputs": [],
      "stateMutability": "nonpayable",
      "type": "function"
    },
    {
      "inputs": [
        {
          "internalType": "uint256",
          "name": "ID",
          "type": "uint256"
        },
        {
          "internalType": "uint256",
          "name": "amount",
          "type": "uint256"
        }
      ],
      "name": "updateAmount",
      "outputs": [],
      "stateMutability": "nonpayable",
      "type": "function"
    },
    {
      "inputs": [
        {
          "internalType": "uint256",
          "name": "ID",
          "type": "uint256"
        },
        {
          "internalType": "address",
          "name": "_heir",
          "type": "address"
        }
      ],
      "name": "updateAnHeir",
      "outputs": [],
      "stateMutability": "nonpayable",
      "type": "function"
    },
    {
      "inputs": [
        {
          "internalType": "uint256",
          "name": "ID",
          "type": "uint256"
        },
        {
          "internalType": "uint256",
          "name": "newTime",
          "type": "uint256"
        }
      ],
      "name": "updateWillTimeWhenWithdraw",
      "outputs": [],
      "stateMutability": "nonpayable",
      "type": "function"
    },
    {
      "inputs": [
        {
          "internalType": "uint256",
          "name": "ID",
          "type": "uint256"
        }
      ],
      "name": "withdraw",
      "outputs": [],
      "stateMutability": "nonpayable",
      "type": "function"
    }
  ],
  "bytecode": "0x608060405234801561001057600080fd5b50614be9806100206000396000f3fe608060405234801561001057600080fd5b50600436106100ea5760003560e01c806343cc60b11161008c578063b282e7b811610066578063b282e7b814610245578063e1ff9e8114610261578063e41c377c1461027d578063fcb25e5d146102b4576100ea565b806343cc60b1146101c95780636aec1106146101e557806372a370bc14610215576100ea565b806334b12c2b116100c857806334b12c2b1461014357806337013e10146101735780633795b60e146101a3578063433c154c146101ad576100ea565b80630179cc52146100ef5780632e1a7d4d1461010b57806333a8a2fb14610127575b600080fd5b61010960048036038101906101049190613b57565b6102d0565b005b61012560048036038101906101209190613b97565b61083f565b005b610141600480360381019061013c9190613b57565b6112cf565b005b61015d60048036038101906101589190613c22565b61174c565b60405161016a9190613dda565b60405180910390f35b61018d60048036038101906101889190613dfc565b611a0e565b60405161019a9190613e4b565b60405180910390f35b6101ab611a3f565b005b6101c760048036038101906101c29190613e66565b611ea4565b005b6101e360048036038101906101de9190613b97565b6123be565b005b6101ff60048036038101906101fa9190613c22565b612ad7565b60405161020c9190613dda565b60405180910390f35b61022f600480360381019061022a9190613dfc565b612d99565b60405161023c9190613e4b565b60405180910390f35b61025f600480360381019061025a9190613ee1565b612dca565b005b61027b60048036038101906102769190613b97565b613517565b005b61029760048036038101906102929190613b97565b613980565b6040516102ab989796959493929190613f3f565b60405180910390f35b6102ce60048036038101906102c99190613fe9565b613a45565b005b60008083815481106102e5576102e461408b565b5b906000526020600020906008020160405180610100016040529081600082015481526020016001820160009054906101000a900473ffffffffffffffffffffffffffffffffffffffff1673ffffffffffffffffffffffffffffffffffffffff1673ffffffffffffffffffffffffffffffffffffffff1681526020016002820160009054906101000a900473ffffffffffffffffffffffffffffffffffffffff1673ffffffffffffffffffffffffffffffffffffffff1673ffffffffffffffffffffffffffffffffffffffff1681526020016003820160009054906101000a900473ffffffffffffffffffffffffffffffffffffffff1673ffffffffffffffffffffffffffffffffffffffff1673ffffffffffffffffffffffffffffffffffffffff1681526020016004820154815260200160058201548152602001600682015481526020016007820160009054906101000a900460ff16151515158152505090503373ffffffffffffffffffffffffffffffffffffffff16816020015173ffffffffffffffffffffffffffffffffffffffff16146104b8576040517f08c379a00000000000000000000000000000000000000000000000000000000081526004016104af90614117565b60405180910390fd5b80608001514211156104ff576040517f08c379a00000000000000000000000000000000000000000000000000000000081526004016104f690614183565b60405180910390fd5b600015158160e0015115151461054a576040517f08c379a0000000000000000000000000000000000000000000000000000000008152600401610541906141ef565b60405180910390fd5b6000820361058d576040517f08c379a00000000000000000000000000000000000000000000000000000000081526004016105849061425b565b60405180910390fd5b8060c0015182036105d3576040517f08c379a00000000000000000000000000000000000000000000000000000000081526004016105ca906142c7565b60405180910390fd5b6000816060015190508160c001518311156106ad5760008173ffffffffffffffffffffffffffffffffffffffff1663dd62ed3e33306040518363ffffffff1660e01b81526004016106259291906142e7565b602060405180830381865afa158015610642573d6000803e3d6000fd5b505050506040513d601f19601f820116820180604052508101906106669190614325565b9050838110156106ab576040517f08c379a00000000000000000000000000000000000000000000000000000000081526004016106a29061439e565b60405180910390fd5b505b828260c001818152505081600085815481106106cc576106cb61408b565b5b90600052602060002090600802016000820151816000015560208201518160010160006101000a81548173ffffffffffffffffffffffffffffffffffffffff021916908373ffffffffffffffffffffffffffffffffffffffff16021790555060408201518160020160006101000a81548173ffffffffffffffffffffffffffffffffffffffff021916908373ffffffffffffffffffffffffffffffffffffffff16021790555060608201518160030160006101000a81548173ffffffffffffffffffffffffffffffffffffffff021916908373ffffffffffffffffffffffffffffffffffffffff1602179055506080820151816004015560a0820151816005015560c0820151816006015560e08201518160070160006101000a81548160ff0219169083151502179055509050507f07f364a0e22025373fbd73737f9a989e95741c0a7a85fa996d5c34a8198a482d84836020015185604051610831939291906143be565b60405180910390a150505050565b60008082815481106108545761085361408b565b5b906000526020600020906008020160405180610100016040529081600082015481526020016001820160009054906101000a900473ffffffffffffffffffffffffffffffffffffffff1673ffffffffffffffffffffffffffffffffffffffff1673ffffffffffffffffffffffffffffffffffffffff1681526020016002820160009054906101000a900473ffffffffffffffffffffffffffffffffffffffff1673ffffffffffffffffffffffffffffffffffffffff1673ffffffffffffffffffffffffffffffffffffffff1681526020016003820160009054906101000a900473ffffffffffffffffffffffffffffffffffffffff1673ffffffffffffffffffffffffffffffffffffffff1673ffffffffffffffffffffffffffffffffffffffff1681526020016004820154815260200160058201548152602001600682015481526020016007820160009054906101000a900460ff1615151515815250509050806040015173ffffffffffffffffffffffffffffffffffffffff163373ffffffffffffffffffffffffffffffffffffffff1614610a27576040517f08c379a0000000000000000000000000000000000000000000000000000000008152600401610a1e90614441565b60405180910390fd5b8060800151421015610a6e576040517f08c379a0000000000000000000000000000000000000000000000000000000008152600401610a65906144ad565b60405180910390fd5b600015158160e00151151514610ab9576040517f08c379a0000000000000000000000000000000000000000000000000000000008152600401610ab0906141ef565b60405180910390fd5b60018160e0019015159081151581525050600060016000836020015173ffffffffffffffffffffffffffffffffffffffff1673ffffffffffffffffffffffffffffffffffffffff168152602001908152602001600020805480602002602001604051908101604052809291908181526020018280548015610b5957602002820191906000526020600020905b815481526020019060010190808311610b45575b50505050509050600060026000846040015173ffffffffffffffffffffffffffffffffffffffff1673ffffffffffffffffffffffffffffffffffffffff168152602001908152602001600020805480602002602001604051908101604052809291908181526020018280548015610bef57602002820191906000526020600020905b815481526020019060010190808311610bdb575b5050505050905060005b8251811015610d2b5784838281518110610c1657610c1561408b565b5b602002602001015103610d18578260018451610c3291906144fc565b81518110610c4357610c4261408b565b5b602002602001015160016000866020015173ffffffffffffffffffffffffffffffffffffffff1673ffffffffffffffffffffffffffffffffffffffff1681526020019081526020016000208281548110610ca057610c9f61408b565b5b906000526020600020018190555060016000856020015173ffffffffffffffffffffffffffffffffffffffff1673ffffffffffffffffffffffffffffffffffffffff168152602001908152602001600020805480610d0157610d00614530565b5b600190038181906000526020600020016000905590555b8080610d239061455f565b915050610bf9565b5060005b8151811015610e615784828281518110610d4c57610d4b61408b565b5b602002602001015103610e4e578160018351610d6891906144fc565b81518110610d7957610d7861408b565b5b602002602001015160026000866040015173ffffffffffffffffffffffffffffffffffffffff1673ffffffffffffffffffffffffffffffffffffffff1681526020019081526020016000208281548110610dd657610dd561408b565b5b906000526020600020018190555060026000856040015173ffffffffffffffffffffffffffffffffffffffff1673ffffffffffffffffffffffffffffffffffffffff168152602001908152602001600020805480610e3757610e36614530565b5b600190038181906000526020600020016000905590555b8080610e599061455f565b915050610d2f565b5060008360600151905060008173ffffffffffffffffffffffffffffffffffffffff1663dd62ed3e8660200151306040518363ffffffff1660e01b8152600401610eac9291906142e7565b602060405180830381865afa158015610ec9573d6000803e3d6000fd5b505050506040513d601f19601f82011682018060405250810190610eed9190614325565b905060008273ffffffffffffffffffffffffffffffffffffffff166370a0823187602001516040518263ffffffff1660e01b8152600401610f2e91906145a7565b602060405180830381865afa158015610f4b573d6000803e3d6000fd5b505050506040513d601f19601f82011682018060405250810190610f6f9190614325565b905060008282101561100c578373ffffffffffffffffffffffffffffffffffffffff166323b872dd88602001518960400151856040518463ffffffff1660e01b8152600401610fc0939291906145c2565b6020604051808303816000875af1158015610fdf573d6000803e3d6000fd5b505050506040513d601f19601f82011682018060405250810190611003919061460e565b5081905061113f565b8660c001518310156110a9578373ffffffffffffffffffffffffffffffffffffffff166323b872dd88602001518960400151866040518463ffffffff1660e01b815260040161105d939291906145c2565b6020604051808303816000875af115801561107c573d6000803e3d6000fd5b505050506040513d601f19601f820116820180604052508101906110a0919061460e565b5082905061113e565b8373ffffffffffffffffffffffffffffffffffffffff166323b872dd886020015189604001518a60c001516040518463ffffffff1660e01b81526004016110f2939291906145c2565b6020604051808303816000875af1158015611111573d6000803e3d6000fd5b505050506040513d601f19601f82011682018060405250810190611135919061460e565b508660c0015190505b5b7ffe7813e2866053d5c3938554e517b554fce6666a6561bed9eaa7419b29fa9b6888886020015133428560405161117a95949392919061463b565b60405180910390a186600089815481106111975761119661408b565b5b90600052602060002090600802016000820151816000015560208201518160010160006101000a81548173ffffffffffffffffffffffffffffffffffffffff021916908373ffffffffffffffffffffffffffffffffffffffff16021790555060408201518160020160006101000a81548173ffffffffffffffffffffffffffffffffffffffff021916908373ffffffffffffffffffffffffffffffffffffffff16021790555060608201518160030160006101000a81548173ffffffffffffffffffffffffffffffffffffffff021916908373ffffffffffffffffffffffffffffffffffffffff1602179055506080820151816004015560a0820151816005015560c0820151816006015560e08201518160070160006101000a81548160ff0219169083151502179055509050505050505050505050565b60008083815481106112e4576112e361408b565b5b906000526020600020906008020160405180610100016040529081600082015481526020016001820160009054906101000a900473ffffffffffffffffffffffffffffffffffffffff1673ffffffffffffffffffffffffffffffffffffffff1673ffffffffffffffffffffffffffffffffffffffff1681526020016002820160009054906101000a900473ffffffffffffffffffffffffffffffffffffffff1673ffffffffffffffffffffffffffffffffffffffff1673ffffffffffffffffffffffffffffffffffffffff1681526020016003820160009054906101000a900473ffffffffffffffffffffffffffffffffffffffff1673ffffffffffffffffffffffffffffffffffffffff1673ffffffffffffffffffffffffffffffffffffffff1681526020016004820154815260200160058201548152602001600682015481526020016007820160009054906101000a900460ff16151515158152505090503373ffffffffffffffffffffffffffffffffffffffff16816020015173ffffffffffffffffffffffffffffffffffffffff16146114b7576040517f08c379a00000000000000000000000000000000000000000000000000000000081526004016114ae90614117565b60405180910390fd5b80608001514211156114fe576040517f08c379a00000000000000000000000000000000000000000000000000000000081526004016114f590614183565b60405180910390fd5b428211611540576040517f08c379a000000000000000000000000000000000000000000000000000000000815260040161153790614700565b60405180910390fd5b600015158160e0015115151461158b576040517f08c379a0000000000000000000000000000000000000000000000000000000008152600401611582906141ef565b60405180910390fd5b60008160a0015182608001516115a191906144fc565b90508282608001818152505080836115b991906144fc565b8260a001818152505081600085815481106115d7576115d661408b565b5b90600052602060002090600802016000820151816000015560208201518160010160006101000a81548173ffffffffffffffffffffffffffffffffffffffff021916908373ffffffffffffffffffffffffffffffffffffffff16021790555060408201518160020160006101000a81548173ffffffffffffffffffffffffffffffffffffffff021916908373ffffffffffffffffffffffffffffffffffffffff16021790555060608201518160030160006101000a81548173ffffffffffffffffffffffffffffffffffffffff021916908373ffffffffffffffffffffffffffffffffffffffff1602179055506080820151816004015560a0820151816005015560c0820151816006015560e08201518160070160006101000a81548160ff0219169083151502179055509050507ff6d4f4eb4a955223539787dd64c67a7a9571039c5deccabaf47d097f93e8b41f843384604001518660405161173e9493929190614720565b60405180910390a150505050565b60606000600160008473ffffffffffffffffffffffffffffffffffffffff1673ffffffffffffffffffffffffffffffffffffffff1681526020019081526020016000208054806020026020016040519081016040528092919081815260200182805480156117d957602002820191906000526020600020905b8154815260200190600101908083116117c5575b505050505090506000815167ffffffffffffffff8111156117fd576117fc614765565b5b60405190808252806020026020018201604052801561183657816020015b611823613a93565b81526020019060019003908161181b5790505b50905060005b8251811015611a0357600083828151811061185a5761185961408b565b5b6020026020010151815481106118735761187261408b565b5b906000526020600020906008020160405180610100016040529081600082015481526020016001820160009054906101000a900473ffffffffffffffffffffffffffffffffffffffff1673ffffffffffffffffffffffffffffffffffffffff1673ffffffffffffffffffffffffffffffffffffffff1681526020016002820160009054906101000a900473ffffffffffffffffffffffffffffffffffffffff1673ffffffffffffffffffffffffffffffffffffffff1673ffffffffffffffffffffffffffffffffffffffff1681526020016003820160009054906101000a900473ffffffffffffffffffffffffffffffffffffffff1673ffffffffffffffffffffffffffffffffffffffff1673ffffffffffffffffffffffffffffffffffffffff1681526020016004820154815260200160058201548152602001600682015481526020016007820160009054906101000a900460ff1615151515815250508282815181106119e5576119e461408b565b5b602002602001018190525080806119fb9061455f565b91505061183c565b508092505050919050565b60026020528160005260406000208181548110611a2a57600080fd5b90600052602060002001600091509150505481565b6000600160003373ffffffffffffffffffffffffffffffffffffffff1673ffffffffffffffffffffffffffffffffffffffff1681526020019081526020016000208054905067ffffffffffffffff811115611a9d57611a9c614765565b5b604051908082528060200260200182016040528015611acb5781602001602082028036833780820191505090505b50905060005b600160003373ffffffffffffffffffffffffffffffffffffffff1673ffffffffffffffffffffffffffffffffffffffff16815260200190815260200160002080549050811015611e27576000808281548110611b3057611b2f61408b565b5b906000526020600020906008020160405180610100016040529081600082015481526020016001820160009054906101000a900473ffffffffffffffffffffffffffffffffffffffff1673ffffffffffffffffffffffffffffffffffffffff1673ffffffffffffffffffffffffffffffffffffffff1681526020016002820160009054906101000a900473ffffffffffffffffffffffffffffffffffffffff1673ffffffffffffffffffffffffffffffffffffffff1673ffffffffffffffffffffffffffffffffffffffff1681526020016003820160009054906101000a900473ffffffffffffffffffffffffffffffffffffffff1673ffffffffffffffffffffffffffffffffffffffff1673ffffffffffffffffffffffffffffffffffffffff1681526020016004820154815260200160058201548152602001600682015481526020016007820160009054906101000a900460ff16151515158152505090506000428260a00151611ca39190614794565b90508082608001818152505080848481518110611cc357611cc261408b565b5b6020026020010181815250508160008481548110611ce457611ce361408b565b5b90600052602060002090600802016000820151816000015560208201518160010160006101000a81548173ffffffffffffffffffffffffffffffffffffffff021916908373ffffffffffffffffffffffffffffffffffffffff16021790555060408201518160020160006101000a81548173ffffffffffffffffffffffffffffffffffffffff021916908373ffffffffffffffffffffffffffffffffffffffff16021790555060608201518160030160006101000a81548173ffffffffffffffffffffffffffffffffffffffff021916908373ffffffffffffffffffffffffffffffffffffffff1602179055506080820151816004015560a0820151816005015560c0820151816006015560e08201518160070160006101000a81548160ff02191690831515021790555090505050508080611e1f9061455f565b915050611ad1565b507f0e6cb619afa09f01deabf9f7836949d0de1ba277b61637c5335e8b3017646cdb600160003373ffffffffffffffffffffffffffffffffffffffff1673ffffffffffffffffffffffffffffffffffffffff1681526020019081526020016000203383604051611e999392919061494d565b60405180910390a150565b600073ffffffffffffffffffffffffffffffffffffffff168573ffffffffffffffffffffffffffffffffffffffff1603611f13576040517f08c379a0000000000000000000000000000000000000000000000000000000008152600401611f0a906149de565b60405180910390fd5b600073ffffffffffffffffffffffffffffffffffffffff168473ffffffffffffffffffffffffffffffffffffffff1603611f82576040517f08c379a0000000000000000000000000000000000000000000000000000000008152600401611f7990614a4a565b60405180910390fd5b428311611fc4576040517f08c379a0000000000000000000000000000000000000000000000000000000008152600401611fbb90614700565b60405180910390fd5b60008103612007576040517f08c379a0000000000000000000000000000000000000000000000000000000008152600401611ffe9061425b565b60405180910390fd5b600084905060008173ffffffffffffffffffffffffffffffffffffffff1663dd62ed3e33306040518363ffffffff1660e01b81526004016120499291906142e7565b602060405180830381865afa158015612066573d6000803e3d6000fd5b505050506040513d601f19601f8201168201806040525081019061208a9190614325565b9050828110156120cf576040517f08c379a00000000000000000000000000000000000000000000000000000000081526004016120c69061439e565b60405180910390fd5b60008080549050905060006040518061010001604052808381526020013373ffffffffffffffffffffffffffffffffffffffff1681526020018a73ffffffffffffffffffffffffffffffffffffffff1681526020018973ffffffffffffffffffffffffffffffffffffffff168152602001888152602001878152602001868152602001600015158152509050600160003373ffffffffffffffffffffffffffffffffffffffff1673ffffffffffffffffffffffffffffffffffffffff168152602001908152602001600020829080600181540180825580915050600190039060005260206000200160009091909190915055600260008a73ffffffffffffffffffffffffffffffffffffffff1673ffffffffffffffffffffffffffffffffffffffff16815260200190815260200160002082908060018154018082558091505060019003906000526020600020016000909190919091505560008190806001815401808255809150506001900390600052602060002090600802016000909190919091506000820151816000015560208201518160010160006101000a81548173ffffffffffffffffffffffffffffffffffffffff021916908373ffffffffffffffffffffffffffffffffffffffff16021790555060408201518160020160006101000a81548173ffffffffffffffffffffffffffffffffffffffff021916908373ffffffffffffffffffffffffffffffffffffffff16021790555060608201518160030160006101000a81548173ffffffffffffffffffffffffffffffffffffffff021916908373ffffffffffffffffffffffffffffffffffffffff1602179055506080820151816004015560a0820151816005015560c0820151816006015560e08201518160070160006101000a81548160ff02191690831515021790555050507f13f4f2b8e248db04b9c06909af2f8eb5954c0a467baaa4823e14a9f55dee9b4582338b8b8b8a6040516123ab96959493929190614a6a565b60405180910390a1505050505050505050565b60008082815481106123d3576123d261408b565b5b906000526020600020906008020160405180610100016040529081600082015481526020016001820160009054906101000a900473ffffffffffffffffffffffffffffffffffffffff1673ffffffffffffffffffffffffffffffffffffffff1673ffffffffffffffffffffffffffffffffffffffff1681526020016002820160009054906101000a900473ffffffffffffffffffffffffffffffffffffffff1673ffffffffffffffffffffffffffffffffffffffff1673ffffffffffffffffffffffffffffffffffffffff1681526020016003820160009054906101000a900473ffffffffffffffffffffffffffffffffffffffff1673ffffffffffffffffffffffffffffffffffffffff1673ffffffffffffffffffffffffffffffffffffffff1681526020016004820154815260200160058201548152602001600682015481526020016007820160009054906101000a900460ff16151515158152505090503373ffffffffffffffffffffffffffffffffffffffff16816020015173ffffffffffffffffffffffffffffffffffffffff16146125a6576040517f08c379a000000000000000000000000000000000000000000000000000000000815260040161259d90614117565b60405180910390fd5b80608001514211156125ed576040517f08c379a00000000000000000000000000000000000000000000000000000000081526004016125e490614183565b60405180910390fd5b600015158160e00151151514612638576040517f08c379a000000000000000000000000000000000000000000000000000000000815260040161262f906141ef565b60405180910390fd5b6000600160003373ffffffffffffffffffffffffffffffffffffffff1673ffffffffffffffffffffffffffffffffffffffff1681526020019081526020016000208054806020026020016040519081016040528092919081815260200182805480156126c357602002820191906000526020600020905b8154815260200190600101908083116126af575b50505050509050600060026000846040015173ffffffffffffffffffffffffffffffffffffffff1673ffffffffffffffffffffffffffffffffffffffff16815260200190815260200160002080548060200260200160405190810160405280929190818152602001828054801561275957602002820191906000526020600020905b815481526020019060010190808311612745575b5050505050905060005b825181101561288d57848382815181106127805761277f61408b565b5b60200260200101510361287a57826001845161279c91906144fc565b815181106127ad576127ac61408b565b5b6020026020010151600160003373ffffffffffffffffffffffffffffffffffffffff1673ffffffffffffffffffffffffffffffffffffffff16815260200190815260200160002082815481106128065761280561408b565b5b9060005260206000200181905550600160003373ffffffffffffffffffffffffffffffffffffffff1673ffffffffffffffffffffffffffffffffffffffff16815260200190815260200160002080548061286357612862614530565b5b600190038181906000526020600020016000905590555b80806128859061455f565b915050612763565b5060005b81518110156129c357848282815181106128ae576128ad61408b565b5b6020026020010151036129b05781600183516128ca91906144fc565b815181106128db576128da61408b565b5b602002602001015160026000866040015173ffffffffffffffffffffffffffffffffffffffff1673ffffffffffffffffffffffffffffffffffffffff16815260200190815260200160002082815481106129385761293761408b565b5b906000526020600020018190555060026000856040015173ffffffffffffffffffffffffffffffffffffffff1673ffffffffffffffffffffffffffffffffffffffff16815260200190815260200160002080548061299957612998614530565b5b600190038181906000526020600020016000905590555b80806129bb9061455f565b915050612891565b50600084815481106129d8576129d761408b565b5b90600052602060002090600802016000808201600090556001820160006101000a81549073ffffffffffffffffffffffffffffffffffffffff02191690556002820160006101000a81549073ffffffffffffffffffffffffffffffffffffffff02191690556003820160006101000a81549073ffffffffffffffffffffffffffffffffffffffff02191690556004820160009055600582016000905560068201600090556007820160006101000a81549060ff021916905550507f2e6ce80b05d67b5aba812f8e95333d141bb7fd2d335f955800635cfdbbb8630e84338560400151604051612ac993929190614acb565b60405180910390a150505050565b60606000600260008473ffffffffffffffffffffffffffffffffffffffff1673ffffffffffffffffffffffffffffffffffffffff168152602001908152602001600020805480602002602001604051908101604052809291908181526020018280548015612b6457602002820191906000526020600020905b815481526020019060010190808311612b50575b505050505090506000815167ffffffffffffffff811115612b8857612b87614765565b5b604051908082528060200260200182016040528015612bc157816020015b612bae613a93565b815260200190600190039081612ba65790505b50905060005b8251811015612d8e576000838281518110612be557612be461408b565b5b602002602001015181548110612bfe57612bfd61408b565b5b906000526020600020906008020160405180610100016040529081600082015481526020016001820160009054906101000a900473ffffffffffffffffffffffffffffffffffffffff1673ffffffffffffffffffffffffffffffffffffffff1673ffffffffffffffffffffffffffffffffffffffff1681526020016002820160009054906101000a900473ffffffffffffffffffffffffffffffffffffffff1673ffffffffffffffffffffffffffffffffffffffff1673ffffffffffffffffffffffffffffffffffffffff1681526020016003820160009054906101000a900473ffffffffffffffffffffffffffffffffffffffff1673ffffffffffffffffffffffffffffffffffffffff1673ffffffffffffffffffffffffffffffffffffffff1681526020016004820154815260200160058201548152602001600682015481526020016007820160009054906101000a900460ff161515151581525050828281518110612d7057612d6f61408b565b5b60200260200101819052508080612d869061455f565b915050612bc7565b508092505050919050565b60016020528160005260406000208181548110612db557600080fd5b90600052602060002001600091509150505481565b6000808381548110612ddf57612dde61408b565b5b906000526020600020906008020160405180610100016040529081600082015481526020016001820160009054906101000a900473ffffffffffffffffffffffffffffffffffffffff1673ffffffffffffffffffffffffffffffffffffffff1673ffffffffffffffffffffffffffffffffffffffff1681526020016002820160009054906101000a900473ffffffffffffffffffffffffffffffffffffffff1673ffffffffffffffffffffffffffffffffffffffff1673ffffffffffffffffffffffffffffffffffffffff1681526020016003820160009054906101000a900473ffffffffffffffffffffffffffffffffffffffff1673ffffffffffffffffffffffffffffffffffffffff1673ffffffffffffffffffffffffffffffffffffffff1681526020016004820154815260200160058201548152602001600682015481526020016007820160009054906101000a900460ff16151515158152505090503373ffffffffffffffffffffffffffffffffffffffff16816020015173ffffffffffffffffffffffffffffffffffffffff1614612fb2576040517f08c379a0000000000000000000000000000000000000000000000000000000008152600401612fa990614117565b60405180910390fd5b8173ffffffffffffffffffffffffffffffffffffffff16816040015173ffffffffffffffffffffffffffffffffffffffff1603613024576040517f08c379a000000000000000000000000000000000000000000000000000000000815260040161301b90614b4e565b60405180910390fd5b600073ffffffffffffffffffffffffffffffffffffffff16816040015173ffffffffffffffffffffffffffffffffffffffff1603613097576040517f08c379a000000000000000000000000000000000000000000000000000000000815260040161308e906149de565b60405180910390fd5b80608001514211156130de576040517f08c379a00000000000000000000000000000000000000000000000000000000081526004016130d590614183565b60405180910390fd5b600015158160e00151151514613129576040517f08c379a0000000000000000000000000000000000000000000000000000000008152600401613120906141ef565b60405180910390fd5b600060026000836040015173ffffffffffffffffffffffffffffffffffffffff1673ffffffffffffffffffffffffffffffffffffffff1681526020019081526020016000208054806020026020016040519081016040528092919081815260200182805480156131b857602002820191906000526020600020905b8154815260200190600101908083116131a4575b5050505050905060005b81518110156132f457848282815181106131df576131de61408b565b5b6020026020010151036132e15781600183516131fb91906144fc565b8151811061320c5761320b61408b565b5b602002602001015160026000856040015173ffffffffffffffffffffffffffffffffffffffff1673ffffffffffffffffffffffffffffffffffffffff16815260200190815260200160002082815481106132695761326861408b565b5b906000526020600020018190555060026000846040015173ffffffffffffffffffffffffffffffffffffffff1673ffffffffffffffffffffffffffffffffffffffff1681526020019081526020016000208054806132ca576132c9614530565b5b600190038181906000526020600020016000905590555b80806132ec9061455f565b9150506131c2565b50600260008473ffffffffffffffffffffffffffffffffffffffff1673ffffffffffffffffffffffffffffffffffffffff16815260200190815260200160002084908060018154018082558091505060019003906000526020600020016000909190919091505582826040019073ffffffffffffffffffffffffffffffffffffffff16908173ffffffffffffffffffffffffffffffffffffffff168152505081600085815481106133a8576133a761408b565b5b90600052602060002090600802016000820151816000015560208201518160010160006101000a81548173ffffffffffffffffffffffffffffffffffffffff021916908373ffffffffffffffffffffffffffffffffffffffff16021790555060408201518160020160006101000a81548173ffffffffffffffffffffffffffffffffffffffff021916908373ffffffffffffffffffffffffffffffffffffffff16021790555060608201518160030160006101000a81548173ffffffffffffffffffffffffffffffffffffffff021916908373ffffffffffffffffffffffffffffffffffffffff1602179055506080820151816004015560a0820151816005015560c0820151816006015560e08201518160070160006101000a81548160ff0219169083151502179055509050507f2ae974d7f90755778f8a13273920e403d2265f2f0063297e45c50d873f3fad6f84338560405161350993929190614acb565b60405180910390a150505050565b600080828154811061352c5761352b61408b565b5b906000526020600020906008020160405180610100016040529081600082015481526020016001820160009054906101000a900473ffffffffffffffffffffffffffffffffffffffff1673ffffffffffffffffffffffffffffffffffffffff1673ffffffffffffffffffffffffffffffffffffffff1681526020016002820160009054906101000a900473ffffffffffffffffffffffffffffffffffffffff1673ffffffffffffffffffffffffffffffffffffffff1673ffffffffffffffffffffffffffffffffffffffff1681526020016003820160009054906101000a900473ffffffffffffffffffffffffffffffffffffffff1673ffffffffffffffffffffffffffffffffffffffff1673ffffffffffffffffffffffffffffffffffffffff1681526020016004820154815260200160058201548152602001600682015481526020016007820160009054906101000a900460ff16151515158152505090503373ffffffffffffffffffffffffffffffffffffffff16816020015173ffffffffffffffffffffffffffffffffffffffff16146136ff576040517f08c379a00000000000000000000000000000000000000000000000000000000081526004016136f690614117565b60405180910390fd5b6000428260a001516137119190614794565b90508082608001818152505081600084815481106137325761373161408b565b5b90600052602060002090600802016000820151816000015560208201518160010160006101000a81548173ffffffffffffffffffffffffffffffffffffffff021916908373ffffffffffffffffffffffffffffffffffffffff16021790555060408201518160020160006101000a81548173ffffffffffffffffffffffffffffffffffffffff021916908373ffffffffffffffffffffffffffffffffffffffff16021790555060608201518160030160006101000a81548173ffffffffffffffffffffffffffffffffffffffff021916908373ffffffffffffffffffffffffffffffffffffffff1602179055506080820151816004015560a0820151816005015560c0820151816006015560e08201518160070160006101000a81548160ff0219169083151502179055509050506000600167ffffffffffffffff81111561387d5761387c614765565b5b6040519080825280602002602001820160405280156138ab5781602001602082028036833780820191505090505b50905081816000815181106138c3576138c261408b565b5b6020026020010181815250506000600167ffffffffffffffff8111156138ec576138eb614765565b5b60405190808252806020026020018201604052801561391a5781602001602082028036833780820191505090505b50905084816000815181106139325761393161408b565b5b6020026020010181815250507f0e6cb619afa09f01deabf9f7836949d0de1ba277b61637c5335e8b3017646cdb81338460405161397193929190614b6e565b60405180910390a15050505050565b6000818154811061399057600080fd5b90600052602060002090600802016000915090508060000154908060010160009054906101000a900473ffffffffffffffffffffffffffffffffffffffff16908060020160009054906101000a900473ffffffffffffffffffffffffffffffffffffffff16908060030160009054906101000a900473ffffffffffffffffffffffffffffffffffffffff16908060040154908060050154908060060154908060070160009054906101000a900460ff16905088565b6001151583151503613a5c57613a5b87876112cf565b5b6001151582151503613a7357613a728786612dca565b5b6001151581151503613a8a57613a8987856102d0565b5b50505050505050565b60405180610100016040528060008152602001600073ffffffffffffffffffffffffffffffffffffffff168152602001600073ffffffffffffffffffffffffffffffffffffffff168152602001600073ffffffffffffffffffffffffffffffffffffffff1681526020016000815260200160008152602001600081526020016000151581525090565b600080fd5b6000819050919050565b613b3481613b21565b8114613b3f57600080fd5b50565b600081359050613b5181613b2b565b92915050565b60008060408385031215613b6e57613b6d613b1c565b5b6000613b7c85828601613b42565b9250506020613b8d85828601613b42565b9150509250929050565b600060208284031215613bad57613bac613b1c565b5b6000613bbb84828501613b42565b91505092915050565b600073ffffffffffffffffffffffffffffffffffffffff82169050919050565b6000613bef82613bc4565b9050919050565b613bff81613be4565b8114613c0a57600080fd5b50565b600081359050613c1c81613bf6565b92915050565b600060208284031215613c3857613c37613b1c565b5b6000613c4684828501613c0d565b91505092915050565b600081519050919050565b600082825260208201905092915050565b6000819050602082019050919050565b613c8481613b21565b82525050565b613c9381613be4565b82525050565b60008115159050919050565b613cae81613c99565b82525050565b61010082016000820151613ccb6000850182613c7b565b506020820151613cde6020850182613c8a565b506040820151613cf16040850182613c8a565b506060820151613d046060850182613c8a565b506080820151613d176080850182613c7b565b5060a0820151613d2a60a0850182613c7b565b5060c0820151613d3d60c0850182613c7b565b5060e0820151613d5060e0850182613ca5565b50505050565b6000613d628383613cb4565b6101008301905092915050565b6000602082019050919050565b6000613d8782613c4f565b613d918185613c5a565b9350613d9c83613c6b565b8060005b83811015613dcd578151613db48882613d56565b9750613dbf83613d6f565b925050600181019050613da0565b5085935050505092915050565b60006020820190508181036000830152613df48184613d7c565b905092915050565b60008060408385031215613e1357613e12613b1c565b5b6000613e2185828601613c0d565b9250506020613e3285828601613b42565b9150509250929050565b613e4581613b21565b82525050565b6000602082019050613e606000830184613e3c565b92915050565b600080600080600060a08688031215613e8257613e81613b1c565b5b6000613e9088828901613c0d565b9550506020613ea188828901613c0d565b9450506040613eb288828901613b42565b9350506060613ec388828901613b42565b9250506080613ed488828901613b42565b9150509295509295909350565b60008060408385031215613ef857613ef7613b1c565b5b6000613f0685828601613b42565b9250506020613f1785828601613c0d565b9150509250929050565b613f2a81613be4565b82525050565b613f3981613c99565b82525050565b600061010082019050613f55600083018b613e3c565b613f62602083018a613f21565b613f6f6040830189613f21565b613f7c6060830188613f21565b613f896080830187613e3c565b613f9660a0830186613e3c565b613fa360c0830185613e3c565b613fb060e0830184613f30565b9998505050505050505050565b613fc681613c99565b8114613fd157600080fd5b50565b600081359050613fe381613fbd565b92915050565b600080600080600080600060e0888a03121561400857614007613b1c565b5b60006140168a828b01613b42565b97505060206140278a828b01613b42565b96505060406140388a828b01613c0d565b95505060606140498a828b01613b42565b945050608061405a8a828b01613fd4565b93505060a061406b8a828b01613fd4565b92505060c061407c8a828b01613fd4565b91505092959891949750929550565b7f4e487b7100000000000000000000000000000000000000000000000000000000600052603260045260246000fd5b600082825260208201905092915050565b7f48657269746167653a20596f75206e6f74206f776e6572000000000000000000600082015250565b60006141016017836140ba565b915061410c826140cb565b602082019050919050565b60006020820190508181036000830152614130816140f4565b9050919050565b7f48657269746167653a2054696d65206973206f76657220796574000000000000600082015250565b600061416d601a836140ba565b915061417882614137565b602082019050919050565b6000602082019050818103600083015261419c81614160565b9050919050565b7f48657269746167653a20416c72656164792077697468647261776e0000000000600082015250565b60006141d9601b836140ba565b91506141e4826141a3565b602082019050919050565b60006020820190508181036000830152614208816141cc565b9050919050565b7f48657269746167653a20416d6f756e7420300000000000000000000000000000600082015250565b60006142456012836140ba565b91506142508261420f565b602082019050919050565b6000602082019050818103600083015261427481614238565b9050919050565b7f48657269746167653a20416d6f756e74206973207468652073616d6500000000600082015250565b60006142b1601c836140ba565b91506142bc8261427b565b602082019050919050565b600060208201905081810360008301526142e0816142a4565b9050919050565b60006040820190506142fc6000830185613f21565b6143096020830184613f21565b9392505050565b60008151905061431f81613b2b565b92915050565b60006020828403121561433b5761433a613b1c565b5b600061434984828501614310565b91505092915050565b7f4e6f7420656e6f75676820616c6c6f77616e6365000000000000000000000000600082015250565b60006143886014836140ba565b915061439382614352565b602082019050919050565b600060208201905081810360008301526143b78161437b565b9050919050565b60006060820190506143d36000830186613e3c565b6143e06020830185613f21565b6143ed6040830184613e3c565b949350505050565b7f48657269746167653a20596f75206e6f74206865697200000000000000000000600082015250565b600061442b6016836140ba565b9150614436826143f5565b602082019050919050565b6000602082019050818103600083015261445a8161441e565b9050919050565b7f48657269746167653a2054696d65206973206e6f74206f766572207965740000600082015250565b6000614497601e836140ba565b91506144a282614461565b602082019050919050565b600060208201905081810360008301526144c68161448a565b9050919050565b7f4e487b7100000000000000000000000000000000000000000000000000000000600052601160045260246000fd5b600061450782613b21565b915061451283613b21565b925082820390508181111561452a576145296144cd565b5b92915050565b7f4e487b7100000000000000000000000000000000000000000000000000000000600052603160045260246000fd5b600061456a82613b21565b91507fffffffffffffffffffffffffffffffffffffffffffffffffffffffffffffffff820361459c5761459b6144cd565b5b600182019050919050565b60006020820190506145bc6000830184613f21565b92915050565b60006060820190506145d76000830186613f21565b6145e46020830185613f21565b6145f16040830184613e3c565b949350505050565b60008151905061460881613fbd565b92915050565b60006020828403121561462457614623613b1c565b5b6000614632848285016145f9565b91505092915050565b600060a0820190506146506000830188613e3c565b61465d6020830187613f21565b61466a6040830186613f21565b6146776060830185613e3c565b6146846080830184613e3c565b9695505050505050565b7f48657269746167653a2054696d65207768656e2077697468647261772069732060008201527f6c6f776572207468656e206e6f77000000000000000000000000000000000000602082015250565b60006146ea602e836140ba565b91506146f58261468e565b604082019050919050565b60006020820190508181036000830152614719816146dd565b9050919050565b60006080820190506147356000830187613e3c565b6147426020830186613f21565b61474f6040830185613f21565b61475c6060830184613e3c565b95945050505050565b7f4e487b7100000000000000000000000000000000000000000000000000000000600052604160045260246000fd5b600061479f82613b21565b91506147aa83613b21565b92508282019050808211156147c2576147c16144cd565b5b92915050565b600081549050919050565b600082825260208201905092915050565b60008190508160005260206000209050919050565b60006148058383613c7b565b60208301905092915050565b60008160001c9050919050565b6000819050919050565b600061483b61483683614811565b61481e565b9050919050565b600061484e8254614828565b9050919050565b6000600182019050919050565b600061486d826147c8565b61487781856147d3565b9350614882836147e4565b8060005b838110156148ba5761489782614842565b6148a188826147f9565b97506148ac83614855565b925050600181019050614886565b5085935050505092915050565b600081519050919050565b6000819050602082019050919050565b6000602082019050919050565b60006148fa826148c7565b61490481856147d3565b935061490f836148d2565b8060005b8381101561494057815161492788826147f9565b9750614932836148e2565b925050600181019050614913565b5085935050505092915050565b600060608201905081810360008301526149678186614862565b90506149766020830185613f21565b818103604083015261498881846148ef565b9050949350505050565b7f48657269746167653a2048656972206973206164647265737328302900000000600082015250565b60006149c8601c836140ba565b91506149d382614992565b602082019050919050565b600060208201905081810360008301526149f7816149bb565b9050919050565b7f48657269746167653a20546f6b656e2069732061646472657373283029000000600082015250565b6000614a34601d836140ba565b9150614a3f826149fe565b602082019050919050565b60006020820190508181036000830152614a6381614a27565b9050919050565b600060c082019050614a7f6000830189613e3c565b614a8c6020830188613f21565b614a996040830187613f21565b614aa66060830186613f21565b614ab36080830185613e3c565b614ac060a0830184613e3c565b979650505050505050565b6000606082019050614ae06000830186613e3c565b614aed6020830185613f21565b614afa6040830184613f21565b949350505050565b7f48657269746167653a2053616d65206865697200000000000000000000000000600082015250565b6000614b386013836140ba565b9150614b4382614b02565b602082019050919050565b60006020820190508181036000830152614b6781614b2b565b9050919050565b60006060820190508181036000830152614b8881866148ef565b9050614b976020830185613f21565b8181036040830152614ba981846148ef565b905094935050505056fea26469706673582212203ef84fbdfd56af7d3fa7b0369c9c915ee4d162e8c01f742c249f72823c3857af64736f6c63430008110033",
  "linkReferences": {},
  "deployedLinkReferences": {}
}