{
  "_format": "hh-sol-artifact-1",
  "contractName": "dWill",
  "sourceName": "contracts/dWill.sol",
  "abi": [
    {
      "anonymous": false,
      "inputs": [
        {
          "indexed": true,
          "internalType": "uint256",
          "name": "ID",
          "type": "uint256"
        },
        {
          "indexed": true,
          "internalType": "address",
          "name": "owner",
          "type": "address"
        },
        {
          "indexed": true,
          "internalType": "address",
          "name": "heir",
          "type": "address"
        },
        {
          "indexed": false,
          "internalType": "contract IERC20",
          "name": "token",
          "type": "address"
        },
        {
          "indexed": false,
          "internalType": "uint256",
          "name": "withdrawalTime",
          "type": "uint256"
        },
        {
          "indexed": false,
          "internalType": "uint256",
          "name": "amount",
          "type": "uint256"
        }
      ],
      "name": "AddWill",
      "type": "event"
    },
    {
      "anonymous": false,
      "inputs": [
        {
          "indexed": true,
          "internalType": "uint256",
          "name": "ID",
          "type": "uint256"
        },
        {
          "indexed": true,
          "internalType": "address",
          "name": "owner",
          "type": "address"
        },
        {
          "indexed": true,
          "internalType": "address",
          "name": "heir",
          "type": "address"
        }
      ],
      "name": "RemoveWill",
      "type": "event"
    },
    {
      "anonymous": false,
      "inputs": [
        {
          "indexed": true,
          "internalType": "uint256",
          "name": "ID",
          "type": "uint256"
        },
        {
          "indexed": false,
          "internalType": "uint256",
          "name": "oldAmount",
          "type": "uint256"
        },
        {
          "indexed": false,
          "internalType": "uint256",
          "name": "newAmount",
          "type": "uint256"
        }
      ],
      "name": "UpdateAmount",
      "type": "event"
    },
    {
      "anonymous": false,
      "inputs": [
        {
          "indexed": true,
          "internalType": "uint256",
          "name": "ID",
          "type": "uint256"
        },
        {
          "indexed": true,
          "internalType": "address",
          "name": "oldHeir",
          "type": "address"
        },
        {
          "indexed": true,
          "internalType": "address",
          "name": "newHeir",
          "type": "address"
        }
      ],
      "name": "UpdateHeir",
      "type": "event"
    },
    {
      "anonymous": false,
      "inputs": [
        {
          "indexed": true,
          "internalType": "uint256",
          "name": "ID",
          "type": "uint256"
        },
        {
          "indexed": false,
          "internalType": "uint256",
          "name": "oldWithdrawalTime",
          "type": "uint256"
        },
        {
          "indexed": false,
          "internalType": "uint256",
          "name": "newWithdrawalTime",
          "type": "uint256"
        }
      ],
      "name": "UpdateWithdrawalTime",
      "type": "event"
    },
    {
      "anonymous": false,
      "inputs": [
        {
          "indexed": true,
          "internalType": "uint256",
          "name": "ID",
          "type": "uint256"
        },
        {
          "indexed": true,
          "internalType": "address",
          "name": "owner",
          "type": "address"
        },
        {
          "indexed": true,
          "internalType": "address",
          "name": "heir",
          "type": "address"
        },
        {
          "indexed": false,
          "internalType": "contract IERC20",
          "name": "token",
          "type": "address"
        },
        {
          "indexed": false,
          "internalType": "uint256",
          "name": "time",
          "type": "uint256"
        },
        {
          "indexed": false,
          "internalType": "uint256",
          "name": "amount",
          "type": "uint256"
        }
      ],
      "name": "Withdraw",
      "type": "event"
    },
    {
      "inputs": [
        {
          "internalType": "address",
          "name": "heir",
          "type": "address"
        },
        {
          "internalType": "contract IERC20",
          "name": "token",
          "type": "address"
        },
        {
          "internalType": "uint256",
          "name": "withdrawalTime",
          "type": "uint256"
        },
        {
          "internalType": "uint256",
          "name": "amount",
          "type": "uint256"
        }
      ],
      "name": "addWill",
      "outputs": [
        {
          "internalType": "uint256",
          "name": "ID",
          "type": "uint256"
        }
      ],
      "stateMutability": "nonpayable",
      "type": "function"
    },
    {
      "inputs": [
        {
          "internalType": "address",
          "name": "heir",
          "type": "address"
        },
        {
          "internalType": "uint256",
          "name": "index",
          "type": "uint256"
        }
      ],
      "name": "getInheritance",
      "outputs": [
        {
          "components": [
            {
              "internalType": "uint256",
              "name": "ID",
              "type": "uint256"
            },
            {
              "internalType": "address",
              "name": "owner",
              "type": "address"
            },
            {
              "internalType": "address",
              "name": "heir",
              "type": "address"
            },
            {
              "internalType": "contract IERC20",
              "name": "token",
              "type": "address"
            },
            {
              "internalType": "uint256",
              "name": "creationTime",
              "type": "uint256"
            },
            {
              "internalType": "uint256",
              "name": "withdrawalTime",
              "type": "uint256"
            },
            {
              "internalType": "uint256",
              "name": "timeInterval",
              "type": "uint256"
            },
            {
              "internalType": "uint256",
              "name": "amount",
              "type": "uint256"
            },
            {
              "internalType": "bool",
              "name": "done",
              "type": "bool"
            }
          ],
          "internalType": "struct IHeritage.WillData",
          "name": "inheritance",
          "type": "tuple"
        }
      ],
      "stateMutability": "view",
      "type": "function"
    },
    {
      "inputs": [
        {
          "internalType": "address",
          "name": "heir",
          "type": "address"
        }
      ],
      "name": "getInheritancesLength",
      "outputs": [
        {
          "internalType": "uint256",
          "name": "_length",
          "type": "uint256"
        }
      ],
      "stateMutability": "view",
      "type": "function"
    },
    {
      "inputs": [
        {
          "internalType": "address",
          "name": "owner",
          "type": "address"
        },
        {
          "internalType": "uint256",
          "name": "index",
          "type": "uint256"
        }
      ],
      "name": "getWill",
      "outputs": [
        {
          "components": [
            {
              "internalType": "uint256",
              "name": "ID",
              "type": "uint256"
            },
            {
              "internalType": "address",
              "name": "owner",
              "type": "address"
            },
            {
              "internalType": "address",
              "name": "heir",
              "type": "address"
            },
            {
              "internalType": "contract IERC20",
              "name": "token",
              "type": "address"
            },
            {
              "internalType": "uint256",
              "name": "creationTime",
              "type": "uint256"
            },
            {
              "internalType": "uint256",
              "name": "withdrawalTime",
              "type": "uint256"
            },
            {
              "internalType": "uint256",
              "name": "timeInterval",
              "type": "uint256"
            },
            {
              "internalType": "uint256",
              "name": "amount",
              "type": "uint256"
            },
            {
              "internalType": "bool",
              "name": "done",
              "type": "bool"
            }
          ],
          "internalType": "struct IHeritage.WillData",
          "name": "will",
          "type": "tuple"
        }
      ],
      "stateMutability": "view",
      "type": "function"
    },
    {
      "inputs": [
        {
          "internalType": "address",
          "name": "owner",
          "type": "address"
        }
      ],
      "name": "getWillsLength",
      "outputs": [
        {
          "internalType": "uint256",
          "name": "_length",
          "type": "uint256"
        }
      ],
      "stateMutability": "view",
      "type": "function"
    },
    {
      "inputs": [
        {
          "internalType": "address",
          "name": "",
          "type": "address"
        },
        {
          "internalType": "uint256",
          "name": "",
          "type": "uint256"
        }
      ],
      "name": "heirInheritances",
      "outputs": [
        {
          "internalType": "uint256",
          "name": "",
          "type": "uint256"
        }
      ],
      "stateMutability": "view",
      "type": "function"
    },
    {
      "inputs": [
        {
          "internalType": "address",
          "name": "",
          "type": "address"
        },
        {
          "internalType": "uint256",
          "name": "",
          "type": "uint256"
        }
      ],
      "name": "ownerWills",
      "outputs": [
        {
          "internalType": "uint256",
          "name": "",
          "type": "uint256"
        }
      ],
      "stateMutability": "view",
      "type": "function"
    },
    {
      "inputs": [
        {
          "internalType": "uint256",
          "name": "ID",
          "type": "uint256"
        }
      ],
      "name": "removeWill",
      "outputs": [],
      "stateMutability": "nonpayable",
      "type": "function"
    },
    {
      "inputs": [
        {
          "internalType": "uint256[]",
          "name": "IDs",
          "type": "uint256[]"
        }
      ],
      "name": "resetTimers",
      "outputs": [],
      "stateMutability": "nonpayable",
      "type": "function"
    },
    {
      "inputs": [
        {
          "internalType": "uint256",
          "name": "ID",
          "type": "uint256"
        },
        {
          "internalType": "uint256",
          "name": "_withdrawalTime",
          "type": "uint256"
        },
        {
          "internalType": "address",
          "name": "_heir",
          "type": "address"
        },
        {
          "internalType": "uint256",
          "name": "_amount",
          "type": "uint256"
        }
      ],
      "name": "update",
      "outputs": [],
      "stateMutability": "nonpayable",
      "type": "function"
    },
    {
      "inputs": [
        {
          "internalType": "uint256",
          "name": "ID",
          "type": "uint256"
        },
        {
          "internalType": "uint256",
          "name": "_amount",
          "type": "uint256"
        }
      ],
      "name": "updateAmount",
      "outputs": [],
      "stateMutability": "nonpayable",
      "type": "function"
    },
    {
      "inputs": [
        {
          "internalType": "uint256",
          "name": "ID",
          "type": "uint256"
        },
        {
          "internalType": "address",
          "name": "_heir",
          "type": "address"
        }
      ],
      "name": "updateHeir",
      "outputs": [],
      "stateMutability": "nonpayable",
      "type": "function"
    },
    {
      "inputs": [
        {
          "internalType": "uint256",
          "name": "ID",
          "type": "uint256"
        },
        {
          "internalType": "uint256",
          "name": "_withdrawalTime",
          "type": "uint256"
        }
      ],
      "name": "updateWithdrawalTime",
      "outputs": [],
      "stateMutability": "nonpayable",
      "type": "function"
    },
    {
      "inputs": [
        {
          "internalType": "address",
          "name": "",
          "type": "address"
        },
        {
          "internalType": "contract IERC20",
          "name": "",
          "type": "address"
        }
      ],
      "name": "willAmountForToken",
      "outputs": [
        {
          "internalType": "uint256",
          "name": "",
          "type": "uint256"
        }
      ],
      "stateMutability": "view",
      "type": "function"
    },
    {
      "inputs": [
        {
          "internalType": "uint256",
          "name": "",
          "type": "uint256"
        }
      ],
      "name": "willData",
      "outputs": [
        {
          "internalType": "uint256",
          "name": "ID",
          "type": "uint256"
        },
        {
          "internalType": "address",
          "name": "owner",
          "type": "address"
        },
        {
          "internalType": "address",
          "name": "heir",
          "type": "address"
        },
        {
          "internalType": "contract IERC20",
          "name": "token",
          "type": "address"
        },
        {
          "internalType": "uint256",
          "name": "creationTime",
          "type": "uint256"
        },
        {
          "internalType": "uint256",
          "name": "withdrawalTime",
          "type": "uint256"
        },
        {
          "internalType": "uint256",
          "name": "timeInterval",
          "type": "uint256"
        },
        {
          "internalType": "uint256",
          "name": "amount",
          "type": "uint256"
        },
        {
          "internalType": "bool",
          "name": "done",
          "type": "bool"
        }
      ],
      "stateMutability": "view",
      "type": "function"
    },
    {
      "inputs": [
        {
          "internalType": "uint256",
          "name": "ID",
          "type": "uint256"
        }
      ],
      "name": "withdraw",
      "outputs": [
        {
          "internalType": "uint256",
          "name": "amount",
          "type": "uint256"
        }
      ],
      "stateMutability": "nonpayable",
      "type": "function"
    }
  ],
  "bytecode": "0x608060405234801561001057600080fd5b506145ea806100206000396000f3fe608060405234801561001057600080fd5b50600436106101005760003560e01c8063747a236211610097578063c23b0d3f11610066578063c23b0d3f146102e1578063dc2e26ea146102fd578063dfc0a61814610335578063fc4d2f0e1461036557610100565b8063747a23621461023557806381fb0ee7146102655780638a61708914610295578063a7457f3c146102c557610100565b80632c80d9a7116100d35780632c80d9a7146101895780632e1a7d4d146101b957806343cc60b1146101e95780636345843e1461020557610100565b80630179cc52146101055780630469de05146101215780630dbf05e41461013d578063272f20d614610159575b600080fd5b61011f600480360381019061011a91906134a7565b610395565b005b61013b600480360381019061013691906134a7565b6108e1565b005b61015760048036038101906101529190613545565b610b14565b005b610173600480360381019061016e9190613585565b61105f565b6040516101809190613714565b60405180910390f35b6101a3600480360381019061019e9190613585565b6112dc565b6040516101b0919061373f565b60405180910390f35b6101d360048036038101906101ce919061375a565b61130d565b6040516101e0919061373f565b60405180910390f35b61020360048036038101906101fe919061375a565b611aef565b005b61021f600480360381019061021a9190613787565b612082565b60405161022c919061373f565b60405180910390f35b61024f600480360381019061024a91906137f2565b6120ce565b60405161025c919061373f565b60405180910390f35b61027f600480360381019061027a9190613585565b6127ea565b60405161028c9190613714565b60405180910390f35b6102af60048036038101906102aa9190613585565b612a67565b6040516102bc919061373f565b60405180910390f35b6102df60048036038101906102da91906139b2565b612a98565b005b6102fb60048036038101906102f691906139fb565b612cd5565b005b6103176004803603810190610312919061375a565b612eca565b60405161032c99989796959493929190613a8f565b60405180910390f35b61034f600480360381019061034a9190613b1c565b612f95565b60405161035c919061373f565b60405180910390f35b61037f600480360381019061037a9190613787565b612fba565b60405161038c919061373f565b60405180910390f35b60008083815481106103aa576103a9613b5c565b5b9060005260206000209060090201905061051e8160405180610120016040529081600082015481526020016001820160009054906101000a900473ffffffffffffffffffffffffffffffffffffffff1673ffffffffffffffffffffffffffffffffffffffff1673ffffffffffffffffffffffffffffffffffffffff1681526020016002820160009054906101000a900473ffffffffffffffffffffffffffffffffffffffff1673ffffffffffffffffffffffffffffffffffffffff1673ffffffffffffffffffffffffffffffffffffffff1681526020016003820160009054906101000a900473ffffffffffffffffffffffffffffffffffffffff1673ffffffffffffffffffffffffffffffffffffffff1673ffffffffffffffffffffffffffffffffffffffff168152602001600482015481526020016005820154815260200160068201548152602001600782015481526020016008820160009054906101000a900460ff161515151581525050613006565b60008160030160009054906101000a900473ffffffffffffffffffffffffffffffffffffffff1673ffffffffffffffffffffffffffffffffffffffff1663dd62ed3e8360010160009054906101000a900473ffffffffffffffffffffffffffffffffffffffff16306040518363ffffffff1660e01b81526004016105a3929190613b8b565b602060405180830381865afa1580156105c0573d6000803e3d6000fd5b505050506040513d601f19601f820116820180604052508101906105e49190613bc9565b9050816007015483600360008560010160009054906101000a900473ffffffffffffffffffffffffffffffffffffffff1673ffffffffffffffffffffffffffffffffffffffff1673ffffffffffffffffffffffffffffffffffffffff16815260200190815260200160002060008560030160009054906101000a900473ffffffffffffffffffffffffffffffffffffffff1673ffffffffffffffffffffffffffffffffffffffff1673ffffffffffffffffffffffffffffffffffffffff168152602001908152602001600020546106bb9190613c25565b6106c59190613c59565b600360008460010160009054906101000a900473ffffffffffffffffffffffffffffffffffffffff1673ffffffffffffffffffffffffffffffffffffffff1673ffffffffffffffffffffffffffffffffffffffff16815260200190815260200160002060008460030160009054906101000a900473ffffffffffffffffffffffffffffffffffffffff1673ffffffffffffffffffffffffffffffffffffffff1673ffffffffffffffffffffffffffffffffffffffff16815260200190815260200160002081905550600360008360010160009054906101000a900473ffffffffffffffffffffffffffffffffffffffff1673ffffffffffffffffffffffffffffffffffffffff1673ffffffffffffffffffffffffffffffffffffffff16815260200190815260200160002060008360030160009054906101000a900473ffffffffffffffffffffffffffffffffffffffff1673ffffffffffffffffffffffffffffffffffffffff1673ffffffffffffffffffffffffffffffffffffffff16815260200190815260200160002054811015610894576040517f08c379a000000000000000000000000000000000000000000000000000000000815260040161088b90613cea565b60405180910390fd5b837fef32e85efc4b16a5db6af86cfb845c4b514b044cda661e397720bee512bde8f48360070154856040516108ca929190613d0a565b60405180910390a282826007018190555050505050565b60008083815481106108f6576108f5613b5c565b5b90600052602060002090600902019050610a6a8160405180610120016040529081600082015481526020016001820160009054906101000a900473ffffffffffffffffffffffffffffffffffffffff1673ffffffffffffffffffffffffffffffffffffffff1673ffffffffffffffffffffffffffffffffffffffff1681526020016002820160009054906101000a900473ffffffffffffffffffffffffffffffffffffffff1673ffffffffffffffffffffffffffffffffffffffff1673ffffffffffffffffffffffffffffffffffffffff1681526020016003820160009054906101000a900473ffffffffffffffffffffffffffffffffffffffff1673ffffffffffffffffffffffffffffffffffffffff1673ffffffffffffffffffffffffffffffffffffffff168152602001600482015481526020016005820154815260200160068201548152602001600782015481526020016008820160009054906101000a900460ff161515151581525050613006565b80600401548211610ab0576040517f08c379a0000000000000000000000000000000000000000000000000000000008152600401610aa790613da5565b60405180910390fd5b827f0895702ba21cdd0de9a3bf435016b294c4510ea28b4dff157b3d4bc0755ce6e6826005015484604051610ae6929190613d0a565b60405180910390a2818160050181905550806004015482610b079190613c59565b8160060181905550505050565b6000808381548110610b2957610b28613b5c565b5b90600052602060002090600902019050610c9d8160405180610120016040529081600082015481526020016001820160009054906101000a900473ffffffffffffffffffffffffffffffffffffffff1673ffffffffffffffffffffffffffffffffffffffff1673ffffffffffffffffffffffffffffffffffffffff1681526020016002820160009054906101000a900473ffffffffffffffffffffffffffffffffffffffff1673ffffffffffffffffffffffffffffffffffffffff1673ffffffffffffffffffffffffffffffffffffffff1681526020016003820160009054906101000a900473ffffffffffffffffffffffffffffffffffffffff1673ffffffffffffffffffffffffffffffffffffffff1673ffffffffffffffffffffffffffffffffffffffff168152602001600482015481526020016005820154815260200160068201548152602001600782015481526020016008820160009054906101000a900460ff161515151581525050613006565b8173ffffffffffffffffffffffffffffffffffffffff168160020160009054906101000a900473ffffffffffffffffffffffffffffffffffffffff1673ffffffffffffffffffffffffffffffffffffffff1603610d2f576040517f08c379a0000000000000000000000000000000000000000000000000000000008152600401610d2690613e11565b60405180910390fd5b600073ffffffffffffffffffffffffffffffffffffffff168273ffffffffffffffffffffffffffffffffffffffff1603610d9e576040517f08c379a0000000000000000000000000000000000000000000000000000000008152600401610d9590613e7d565b60405180910390fd5b6000600460008360020160009054906101000a900473ffffffffffffffffffffffffffffffffffffffff1673ffffffffffffffffffffffffffffffffffffffff1673ffffffffffffffffffffffffffffffffffffffff1681526020019081526020016000209050600060056000868152602001908152602001600020549050600060018380549050610e309190613c59565b9050808214610eae57828181548110610e4c57610e4b613b5c565b5b9060005260206000200154838381548110610e6a57610e69613b5c565b5b90600052602060002001819055508160056000858581548110610e9057610e8f613b5c565b5b90600052602060002001548152602001908152602001600020819055505b82805480610ebf57610ebe613e9d565b5b60019003818190600052602060002001600090559055600460008673ffffffffffffffffffffffffffffffffffffffff1673ffffffffffffffffffffffffffffffffffffffff168152602001908152602001600020805490506005600088815260200190815260200160002081905550600460008673ffffffffffffffffffffffffffffffffffffffff1673ffffffffffffffffffffffffffffffffffffffff1681526020019081526020016000208690806001815401808255809150506001900390600052602060002001600090919091909150558473ffffffffffffffffffffffffffffffffffffffff168460020160009054906101000a900473ffffffffffffffffffffffffffffffffffffffff1673ffffffffffffffffffffffffffffffffffffffff16877fb254e86e4a2583306d918edddac2d643aba365c5632f61a625930d649684357a60405160405180910390a4848460020160006101000a81548173ffffffffffffffffffffffffffffffffffffffff021916908373ffffffffffffffffffffffffffffffffffffffff160217905550505050505050565b6110676133cd565b6000600160008573ffffffffffffffffffffffffffffffffffffffff1673ffffffffffffffffffffffffffffffffffffffff1681526020019081526020016000208054806020026020016040519081016040528092919081815260200182805480156110f257602002820191906000526020600020905b8154815260200190600101908083116110de575b505050505090508051831061113c576040517f08c379a000000000000000000000000000000000000000000000000000000000815260040161113390613f3e565b60405180910390fd5b600081848151811061115157611150613b5c565b5b60200260200101518154811061116a57611169613b5c565b5b906000526020600020906009020160405180610120016040529081600082015481526020016001820160009054906101000a900473ffffffffffffffffffffffffffffffffffffffff1673ffffffffffffffffffffffffffffffffffffffff1673ffffffffffffffffffffffffffffffffffffffff1681526020016002820160009054906101000a900473ffffffffffffffffffffffffffffffffffffffff1673ffffffffffffffffffffffffffffffffffffffff1673ffffffffffffffffffffffffffffffffffffffff1681526020016003820160009054906101000a900473ffffffffffffffffffffffffffffffffffffffff1673ffffffffffffffffffffffffffffffffffffffff1673ffffffffffffffffffffffffffffffffffffffff168152602001600482015481526020016005820154815260200160068201548152602001600782015481526020016008820160009054906101000a900460ff16151515158152505091505092915050565b600460205281600052604060002081815481106112f857600080fd5b90600052602060002001600091509150505481565b6000806000838154811061132457611323613b5c565b5b90600052602060002090600902019050806005015442101561137b576040517f08c379a000000000000000000000000000000000000000000000000000000000815260040161137290613fd0565b60405180910390fd5b8060020160009054906101000a900473ffffffffffffffffffffffffffffffffffffffff1673ffffffffffffffffffffffffffffffffffffffff163373ffffffffffffffffffffffffffffffffffffffff161461140d576040517f08c379a00000000000000000000000000000000000000000000000000000000081526004016114049061403c565b60405180910390fd5b600015158160080160009054906101000a900460ff16151514611465576040517f08c379a000000000000000000000000000000000000000000000000000000000815260040161145c906140a8565b60405180910390fd5b60018160080160006101000a81548160ff0219169083151502179055506000600160008360010160009054906101000a900473ffffffffffffffffffffffffffffffffffffffff1673ffffffffffffffffffffffffffffffffffffffff1673ffffffffffffffffffffffffffffffffffffffff16815260200190815260200160002090506000600260008681526020019081526020016000205490506000600183805490506115149190613c59565b9050808214611592578281815481106115305761152f613b5c565b5b906000526020600020015483838154811061154e5761154d613b5c565b5b9060005260206000200181905550816002600085858154811061157457611573613b5c565b5b90600052602060002001548152602001908152602001600020819055505b828054806115a3576115a2613e9d565b5b600190038181906000526020600020016000905590556000600460008660020160009054906101000a900473ffffffffffffffffffffffffffffffffffffffff1673ffffffffffffffffffffffffffffffffffffffff1673ffffffffffffffffffffffffffffffffffffffff168152602001908152602001600020905060056000888152602001908152602001600020549250600181805490506116479190613c59565b91508183146116c55780828154811061166357611662613b5c565b5b906000526020600020015481848154811061168157611680613b5c565b5b906000526020600020018190555082600560008386815481106116a7576116a6613b5c565b5b90600052602060002001548152602001908152602001600020819055505b808054806116d6576116d5613e9d565b5b6001900381819060005260206000200160009055905560008560030160009054906101000a900473ffffffffffffffffffffffffffffffffffffffff1673ffffffffffffffffffffffffffffffffffffffff166370a082318760010160009054906101000a900473ffffffffffffffffffffffffffffffffffffffff166040518263ffffffff1660e01b815260040161176f91906140c8565b602060405180830381865afa15801561178c573d6000803e3d6000fd5b505050506040513d601f19601f820116820180604052508101906117b09190613bc9565b905060008660030160009054906101000a900473ffffffffffffffffffffffffffffffffffffffff1673ffffffffffffffffffffffffffffffffffffffff1663dd62ed3e8860010160009054906101000a900473ffffffffffffffffffffffffffffffffffffffff16306040518363ffffffff1660e01b8152600401611837929190613b8b565b602060405180830381865afa158015611854573d6000803e3d6000fd5b505050506040513d601f19601f820116820180604052508101906118789190613bc9565b9050866007015497508782101561188d578197505b87811015611899578097505b6119328760010160009054906101000a900473ffffffffffffffffffffffffffffffffffffffff168860020160009054906101000a900473ffffffffffffffffffffffffffffffffffffffff168a8a60030160009054906101000a900473ffffffffffffffffffffffffffffffffffffffff1673ffffffffffffffffffffffffffffffffffffffff166130c7909392919063ffffffff16565b87600360008960010160009054906101000a900473ffffffffffffffffffffffffffffffffffffffff1673ffffffffffffffffffffffffffffffffffffffff1673ffffffffffffffffffffffffffffffffffffffff16815260200190815260200160002060008960030160009054906101000a900473ffffffffffffffffffffffffffffffffffffffff1673ffffffffffffffffffffffffffffffffffffffff1673ffffffffffffffffffffffffffffffffffffffff1681526020019081526020016000206000828254611a069190613c59565b925050819055508660020160009054906101000a900473ffffffffffffffffffffffffffffffffffffffff1673ffffffffffffffffffffffffffffffffffffffff168760010160009054906101000a900473ffffffffffffffffffffffffffffffffffffffff1673ffffffffffffffffffffffffffffffffffffffff168a7fae7c0fdf04394e630f0f88db0daac3232a0f060314499da12bfabe13dc9988ae8a60030160009054906101000a900473ffffffffffffffffffffffffffffffffffffffff16428d604051611adb939291906140e3565b60405180910390a450505050505050919050565b6000808281548110611b0457611b03613b5c565b5b906000526020600020906009020160405180610120016040529081600082015481526020016001820160009054906101000a900473ffffffffffffffffffffffffffffffffffffffff1673ffffffffffffffffffffffffffffffffffffffff1673ffffffffffffffffffffffffffffffffffffffff1681526020016002820160009054906101000a900473ffffffffffffffffffffffffffffffffffffffff1673ffffffffffffffffffffffffffffffffffffffff1673ffffffffffffffffffffffffffffffffffffffff1681526020016003820160009054906101000a900473ffffffffffffffffffffffffffffffffffffffff1673ffffffffffffffffffffffffffffffffffffffff1673ffffffffffffffffffffffffffffffffffffffff168152602001600482015481526020016005820154815260200160068201548152602001600782015481526020016008820160009054906101000a900460ff1615151515815250509050611c7881613006565b600060016000836020015173ffffffffffffffffffffffffffffffffffffffff1673ffffffffffffffffffffffffffffffffffffffff1681526020019081526020016000209050600060026000858152602001908152602001600020549050600060018380549050611cea9190613c59565b9050808214611d6857828181548110611d0657611d05613b5c565b5b9060005260206000200154838381548110611d2457611d23613b5c565b5b90600052602060002001819055508160026000858581548110611d4a57611d49613b5c565b5b90600052602060002001548152602001908152602001600020819055505b82805480611d7957611d78613e9d565b5b60019003818190600052602060002001600090559055600060046000866040015173ffffffffffffffffffffffffffffffffffffffff1673ffffffffffffffffffffffffffffffffffffffff16815260200190815260200160002090506005600087815260200190815260200160002054925060018180549050611dfd9190613c59565b9150818314611e7b57808281548110611e1957611e18613b5c565b5b9060005260206000200154818481548110611e3757611e36613b5c565b5b90600052602060002001819055508260056000838681548110611e5d57611e5c613b5c565b5b90600052602060002001548152602001908152602001600020819055505b80805480611e8c57611e8b613e9d565b5b6001900381819060005260206000200160009055905560008681548110611eb657611eb5613b5c565b5b90600052602060002090600902016000808201600090556001820160006101000a81549073ffffffffffffffffffffffffffffffffffffffff02191690556002820160006101000a81549073ffffffffffffffffffffffffffffffffffffffff02191690556003820160006101000a81549073ffffffffffffffffffffffffffffffffffffffff021916905560048201600090556005820160009055600682016000905560078201600090556008820160006101000a81549060ff021916905550508460e0015160036000876020015173ffffffffffffffffffffffffffffffffffffffff1673ffffffffffffffffffffffffffffffffffffffff1681526020019081526020016000206000876060015173ffffffffffffffffffffffffffffffffffffffff1673ffffffffffffffffffffffffffffffffffffffff16815260200190815260200160002060008282546120109190613c59565b92505081905550846040015173ffffffffffffffffffffffffffffffffffffffff16856020015173ffffffffffffffffffffffffffffffffffffffff16877f2e6ce80b05d67b5aba812f8e95333d141bb7fd2d335f955800635cfdbbb8630e60405160405180910390a4505050505050565b6000600460008373ffffffffffffffffffffffffffffffffffffffff1673ffffffffffffffffffffffffffffffffffffffff168152602001908152602001600020805490509050919050565b60008073ffffffffffffffffffffffffffffffffffffffff168573ffffffffffffffffffffffffffffffffffffffff160361213e576040517f08c379a000000000000000000000000000000000000000000000000000000000815260040161213590613e7d565b60405180910390fd5b600073ffffffffffffffffffffffffffffffffffffffff168473ffffffffffffffffffffffffffffffffffffffff16036121ad576040517f08c379a00000000000000000000000000000000000000000000000000000000081526004016121a490614166565b60405180910390fd5b4283116121ef576040517f08c379a00000000000000000000000000000000000000000000000000000000081526004016121e690613da5565b60405180910390fd5b60008203612232576040517f08c379a0000000000000000000000000000000000000000000000000000000008152600401612229906141d2565b60405180910390fd5b60008473ffffffffffffffffffffffffffffffffffffffff1663dd62ed3e33306040518363ffffffff1660e01b815260040161226f929190613b8b565b602060405180830381865afa15801561228c573d6000803e3d6000fd5b505050506040513d601f19601f820116820180604052508101906122b09190613bc9565b905082600360003373ffffffffffffffffffffffffffffffffffffffff1673ffffffffffffffffffffffffffffffffffffffff16815260200190815260200160002060008773ffffffffffffffffffffffffffffffffffffffff1673ffffffffffffffffffffffffffffffffffffffff168152602001908152602001600020600082825461233e9190613c25565b92505081905550600360003373ffffffffffffffffffffffffffffffffffffffff1673ffffffffffffffffffffffffffffffffffffffff16815260200190815260200160002060008673ffffffffffffffffffffffffffffffffffffffff1673ffffffffffffffffffffffffffffffffffffffff16815260200190815260200160002054811015612404576040517f08c379a00000000000000000000000000000000000000000000000000000000081526004016123fb90613cea565b60405180910390fd5b600080549050915060006040518061012001604052808481526020013373ffffffffffffffffffffffffffffffffffffffff1681526020018873ffffffffffffffffffffffffffffffffffffffff1681526020018773ffffffffffffffffffffffffffffffffffffffff168152602001428152602001868152602001428761248c9190613c59565b815260200185815260200160001515815250905060008190806001815401808255809150506001900390600052602060002090600902016000909190919091506000820151816000015560208201518160010160006101000a81548173ffffffffffffffffffffffffffffffffffffffff021916908373ffffffffffffffffffffffffffffffffffffffff16021790555060408201518160020160006101000a81548173ffffffffffffffffffffffffffffffffffffffff021916908373ffffffffffffffffffffffffffffffffffffffff16021790555060608201518160030160006101000a81548173ffffffffffffffffffffffffffffffffffffffff021916908373ffffffffffffffffffffffffffffffffffffffff1602179055506080820151816004015560a0820151816005015560c0820151816006015560e082015181600701556101008201518160080160006101000a81548160ff0219169083151502179055505050600160003373ffffffffffffffffffffffffffffffffffffffff1673ffffffffffffffffffffffffffffffffffffffff168152602001908152602001600020805490506002600085815260200190815260200160002081905550600460008873ffffffffffffffffffffffffffffffffffffffff1673ffffffffffffffffffffffffffffffffffffffff168152602001908152602001600020805490506005600085815260200190815260200160002081905550600160003373ffffffffffffffffffffffffffffffffffffffff1673ffffffffffffffffffffffffffffffffffffffff168152602001908152602001600020839080600181540180825580915050600190039060005260206000200160009091909190915055600460008873ffffffffffffffffffffffffffffffffffffffff1673ffffffffffffffffffffffffffffffffffffffff1681526020019081526020016000208390806001815401808255809150506001900390600052602060002001600090919091909150558673ffffffffffffffffffffffffffffffffffffffff163373ffffffffffffffffffffffffffffffffffffffff16847f85d017ff3a7e23e1a84ecf47aa05db16f3b877868ba03ecbcbb8238427dc66e08989896040516127d8939291906140e3565b60405180910390a45050949350505050565b6127f26133cd565b6000600460008573ffffffffffffffffffffffffffffffffffffffff1673ffffffffffffffffffffffffffffffffffffffff16815260200190815260200160002080548060200260200160405190810160405280929190818152602001828054801561287d57602002820191906000526020600020905b815481526020019060010190808311612869575b50505050509050805183106128c7576040517f08c379a00000000000000000000000000000000000000000000000000000000081526004016128be90613f3e565b60405180910390fd5b60008184815181106128dc576128db613b5c565b5b6020026020010151815481106128f5576128f4613b5c565b5b906000526020600020906009020160405180610120016040529081600082015481526020016001820160009054906101000a900473ffffffffffffffffffffffffffffffffffffffff1673ffffffffffffffffffffffffffffffffffffffff1673ffffffffffffffffffffffffffffffffffffffff1681526020016002820160009054906101000a900473ffffffffffffffffffffffffffffffffffffffff1673ffffffffffffffffffffffffffffffffffffffff1673ffffffffffffffffffffffffffffffffffffffff1681526020016003820160009054906101000a900473ffffffffffffffffffffffffffffffffffffffff1673ffffffffffffffffffffffffffffffffffffffff1673ffffffffffffffffffffffffffffffffffffffff168152602001600482015481526020016005820154815260200160068201548152602001600782015481526020016008820160009054906101000a900460ff16151515158152505091505092915050565b60016020528160005260406000208181548110612a8357600080fd5b90600052602060002001600091509150505481565b60005b8151811015612cd157600080838381518110612aba57612ab9613b5c565b5b602002602001015181548110612ad357612ad2613b5c565b5b90600052602060002090600902019050612c478160405180610120016040529081600082015481526020016001820160009054906101000a900473ffffffffffffffffffffffffffffffffffffffff1673ffffffffffffffffffffffffffffffffffffffff1673ffffffffffffffffffffffffffffffffffffffff1681526020016002820160009054906101000a900473ffffffffffffffffffffffffffffffffffffffff1673ffffffffffffffffffffffffffffffffffffffff1673ffffffffffffffffffffffffffffffffffffffff1681526020016003820160009054906101000a900473ffffffffffffffffffffffffffffffffffffffff1673ffffffffffffffffffffffffffffffffffffffff1673ffffffffffffffffffffffffffffffffffffffff168152602001600482015481526020016005820154815260200160068201548152602001600782015481526020016008820160009054906101000a900460ff161515151581525050613006565b6000428260060154612c599190613c25565b9050838381518110612c6e57612c6d613b5c565b5b60200260200101517f0895702ba21cdd0de9a3bf435016b294c4510ea28b4dff157b3d4bc0755ce6e6836005015483604051612cab929190613d0a565b60405180910390a280826005018190555050508080612cc9906141f2565b915050612a9b565b5050565b6000808581548110612cea57612ce9613b5c565b5b906000526020600020906009020160405180610120016040529081600082015481526020016001820160009054906101000a900473ffffffffffffffffffffffffffffffffffffffff1673ffffffffffffffffffffffffffffffffffffffff1673ffffffffffffffffffffffffffffffffffffffff1681526020016002820160009054906101000a900473ffffffffffffffffffffffffffffffffffffffff1673ffffffffffffffffffffffffffffffffffffffff1673ffffffffffffffffffffffffffffffffffffffff1681526020016003820160009054906101000a900473ffffffffffffffffffffffffffffffffffffffff1673ffffffffffffffffffffffffffffffffffffffff1673ffffffffffffffffffffffffffffffffffffffff168152602001600482015481526020016005820154815260200160068201548152602001600782015481526020016008820160009054906101000a900460ff16151515158152505090508060a001518414612e6b57612e6a85856108e1565b5b806040015173ffffffffffffffffffffffffffffffffffffffff168373ffffffffffffffffffffffffffffffffffffffff1614612ead57612eac8584610b14565b5b8060e001518214612ec357612ec28583610395565b5b5050505050565b60008181548110612eda57600080fd5b90600052602060002090600902016000915090508060000154908060010160009054906101000a900473ffffffffffffffffffffffffffffffffffffffff16908060020160009054906101000a900473ffffffffffffffffffffffffffffffffffffffff16908060030160009054906101000a900473ffffffffffffffffffffffffffffffffffffffff16908060040154908060050154908060060154908060070154908060080160009054906101000a900460ff16905089565b6003602052816000526040600020602052806000526040600020600091509150505481565b6000600160008373ffffffffffffffffffffffffffffffffffffffff1673ffffffffffffffffffffffffffffffffffffffff168152602001908152602001600020805490509050919050565b3373ffffffffffffffffffffffffffffffffffffffff16816020015173ffffffffffffffffffffffffffffffffffffffff1614613078576040517f08c379a000000000000000000000000000000000000000000000000000000000815260040161306f90614286565b60405180910390fd5b600015158161010001511515146130c4576040517f08c379a00000000000000000000000000000000000000000000000000000000081526004016130bb906140a8565b60405180910390fd5b50565b61314a846323b872dd60e01b8585856040516024016130e8939291906142a6565b604051602081830303815290604052907bffffffffffffffffffffffffffffffffffffffffffffffffffffffff19166020820180517bffffffffffffffffffffffffffffffffffffffffffffffffffffffff8381831617835250505050613150565b50505050565b60006131b2826040518060400160405280602081526020017f5361666545524332303a206c6f772d6c6576656c2063616c6c206661696c65648152508573ffffffffffffffffffffffffffffffffffffffff166132179092919063ffffffff16565b905060008151111561321257808060200190518101906131d29190614309565b613211576040517f08c379a0000000000000000000000000000000000000000000000000000000008152600401613208906143a8565b60405180910390fd5b5b505050565b6060613226848460008561322f565b90509392505050565b606082471015613274576040517f08c379a000000000000000000000000000000000000000000000000000000000815260040161326b9061443a565b60405180910390fd5b61327d85613343565b6132bc576040517f08c379a00000000000000000000000000000000000000000000000000000000081526004016132b3906144a6565b60405180910390fd5b6000808673ffffffffffffffffffffffffffffffffffffffff1685876040516132e59190614537565b60006040518083038185875af1925050503d8060008114613322576040519150601f19603f3d011682016040523d82523d6000602084013e613327565b606091505b5091509150613337828286613366565b92505050949350505050565b6000808273ffffffffffffffffffffffffffffffffffffffff163b119050919050565b60608315613376578290506133c6565b6000835111156133895782518084602001fd5b816040517f08c379a00000000000000000000000000000000000000000000000000000000081526004016133bd9190614592565b60405180910390fd5b9392505050565b60405180610120016040528060008152602001600073ffffffffffffffffffffffffffffffffffffffff168152602001600073ffffffffffffffffffffffffffffffffffffffff168152602001600073ffffffffffffffffffffffffffffffffffffffff168152602001600081526020016000815260200160008152602001600081526020016000151581525090565b6000604051905090565b600080fd5b600080fd5b6000819050919050565b61348481613471565b811461348f57600080fd5b50565b6000813590506134a18161347b565b92915050565b600080604083850312156134be576134bd613467565b5b60006134cc85828601613492565b92505060206134dd85828601613492565b9150509250929050565b600073ffffffffffffffffffffffffffffffffffffffff82169050919050565b6000613512826134e7565b9050919050565b61352281613507565b811461352d57600080fd5b50565b60008135905061353f81613519565b92915050565b6000806040838503121561355c5761355b613467565b5b600061356a85828601613492565b925050602061357b85828601613530565b9150509250929050565b6000806040838503121561359c5761359b613467565b5b60006135aa85828601613530565b92505060206135bb85828601613492565b9150509250929050565b6135ce81613471565b82525050565b6135dd81613507565b82525050565b6000819050919050565b60006136086136036135fe846134e7565b6135e3565b6134e7565b9050919050565b600061361a826135ed565b9050919050565b600061362c8261360f565b9050919050565b61363c81613621565b82525050565b60008115159050919050565b61365781613642565b82525050565b6101208201600082015161367460008501826135c5565b50602082015161368760208501826135d4565b50604082015161369a60408501826135d4565b5060608201516136ad6060850182613633565b5060808201516136c060808501826135c5565b5060a08201516136d360a08501826135c5565b5060c08201516136e660c08501826135c5565b5060e08201516136f960e08501826135c5565b5061010082015161370e61010085018261364e565b50505050565b60006101208201905061372a600083018461365d565b92915050565b61373981613471565b82525050565b60006020820190506137546000830184613730565b92915050565b6000602082840312156137705761376f613467565b5b600061377e84828501613492565b91505092915050565b60006020828403121561379d5761379c613467565b5b60006137ab84828501613530565b91505092915050565b60006137bf82613507565b9050919050565b6137cf816137b4565b81146137da57600080fd5b50565b6000813590506137ec816137c6565b92915050565b6000806000806080858703121561380c5761380b613467565b5b600061381a87828801613530565b945050602061382b878288016137dd565b935050604061383c87828801613492565b925050606061384d87828801613492565b91505092959194509250565b600080fd5b6000601f19601f8301169050919050565b7f4e487b7100000000000000000000000000000000000000000000000000000000600052604160045260246000fd5b6138a78261385e565b810181811067ffffffffffffffff821117156138c6576138c561386f565b5b80604052505050565b60006138d961345d565b90506138e5828261389e565b919050565b600067ffffffffffffffff8211156139055761390461386f565b5b602082029050602081019050919050565b600080fd5b600061392e613929846138ea565b6138cf565b9050808382526020820190506020840283018581111561395157613950613916565b5b835b8181101561397a57806139668882613492565b845260208401935050602081019050613953565b5050509392505050565b600082601f83011261399957613998613859565b5b81356139a984826020860161391b565b91505092915050565b6000602082840312156139c8576139c7613467565b5b600082013567ffffffffffffffff8111156139e6576139e561346c565b5b6139f284828501613984565b91505092915050565b60008060008060808587031215613a1557613a14613467565b5b6000613a2387828801613492565b9450506020613a3487828801613492565b9350506040613a4587828801613530565b9250506060613a5687828801613492565b91505092959194509250565b613a6b81613507565b82525050565b613a7a81613621565b82525050565b613a8981613642565b82525050565b600061012082019050613aa5600083018c613730565b613ab2602083018b613a62565b613abf604083018a613a62565b613acc6060830189613a71565b613ad96080830188613730565b613ae660a0830187613730565b613af360c0830186613730565b613b0060e0830185613730565b613b0e610100830184613a80565b9a9950505050505050505050565b60008060408385031215613b3357613b32613467565b5b6000613b4185828601613530565b9250506020613b52858286016137dd565b9150509250929050565b7f4e487b7100000000000000000000000000000000000000000000000000000000600052603260045260246000fd5b6000604082019050613ba06000830185613a62565b613bad6020830184613a62565b9392505050565b600081519050613bc38161347b565b92915050565b600060208284031215613bdf57613bde613467565b5b6000613bed84828501613bb4565b91505092915050565b7f4e487b7100000000000000000000000000000000000000000000000000000000600052601160045260246000fd5b6000613c3082613471565b9150613c3b83613471565b9250828201905080821115613c5357613c52613bf6565b5b92915050565b6000613c6482613471565b9150613c6f83613471565b9250828203905081811115613c8757613c86613bf6565b5b92915050565b600082825260208201905092915050565b7f6457696c6c3a204e6f7420656e6f75676820616c6c6f77616e63650000000000600082015250565b6000613cd4601b83613c8d565b9150613cdf82613c9e565b602082019050919050565b60006020820190508181036000830152613d0381613cc7565b9050919050565b6000604082019050613d1f6000830185613730565b613d2c6020830184613730565b9392505050565b7f6457696c6c3a205769746864726177616c2074696d652068617320616c72656160008201527f6479206578706972656400000000000000000000000000000000000000000000602082015250565b6000613d8f602a83613c8d565b9150613d9a82613d33565b604082019050919050565b60006020820190508181036000830152613dbe81613d82565b9050919050565b7f6457696c6c3a204e65772068656972206973207468652073616d650000000000600082015250565b6000613dfb601b83613c8d565b9150613e0682613dc5565b602082019050919050565b60006020820190508181036000830152613e2a81613dee565b9050919050565b7f6457696c6c3a2048656972206973206164647265737328302900000000000000600082015250565b6000613e67601983613c8d565b9150613e7282613e31565b602082019050919050565b60006020820190508181036000830152613e9681613e5a565b9050919050565b7f4e487b7100000000000000000000000000000000000000000000000000000000600052603160045260246000fd5b7f6457696c6c3a20696e646578206d757374206265206c6f776572205f6865697260008201527f496e6865726974616e6365732e6c656e67746800000000000000000000000000602082015250565b6000613f28603383613c8d565b9150613f3382613ecc565b604082019050919050565b60006020820190508181036000830152613f5781613f1b565b9050919050565b7f6457696c6c3a205769746864726177616c206973206e6f74207965742061766160008201527f696c61626c650000000000000000000000000000000000000000000000000000602082015250565b6000613fba602683613c8d565b9150613fc582613f5e565b604082019050919050565b60006020820190508181036000830152613fe981613fad565b9050919050565b7f6457696c6c3a2043616c6c6572206973206e6f74207468652068656972000000600082015250565b6000614026601d83613c8d565b915061403182613ff0565b602082019050919050565b6000602082019050818103600083015261405581614019565b9050919050565b7f6457696c6c3a20416c72656164792077697468647261776e0000000000000000600082015250565b6000614092601883613c8d565b915061409d8261405c565b602082019050919050565b600060208201905081810360008301526140c181614085565b9050919050565b60006020820190506140dd6000830184613a62565b92915050565b60006060820190506140f86000830186613a71565b6141056020830185613730565b6141126040830184613730565b949350505050565b7f6457696c6c3a20546f6b656e2069732061646472657373283029000000000000600082015250565b6000614150601a83613c8d565b915061415b8261411a565b602082019050919050565b6000602082019050818103600083015261417f81614143565b9050919050565b7f6457696c6c3a20416d6f756e7420697320300000000000000000000000000000600082015250565b60006141bc601283613c8d565b91506141c782614186565b602082019050919050565b600060208201905081810360008301526141eb816141af565b9050919050565b60006141fd82613471565b91507fffffffffffffffffffffffffffffffffffffffffffffffffffffffffffffffff820361422f5761422e613bf6565b5b600182019050919050565b7f6457696c6c3a2043616c6c6572206973206e6f7420746865206f776e65720000600082015250565b6000614270601e83613c8d565b915061427b8261423a565b602082019050919050565b6000602082019050818103600083015261429f81614263565b9050919050565b60006060820190506142bb6000830186613a62565b6142c86020830185613a62565b6142d56040830184613730565b949350505050565b6142e681613642565b81146142f157600080fd5b50565b600081519050614303816142dd565b92915050565b60006020828403121561431f5761431e613467565b5b600061432d848285016142f4565b91505092915050565b7f5361666545524332303a204552433230206f7065726174696f6e20646964206e60008201527f6f74207375636365656400000000000000000000000000000000000000000000602082015250565b6000614392602a83613c8d565b915061439d82614336565b604082019050919050565b600060208201905081810360008301526143c181614385565b9050919050565b7f416464726573733a20696e73756666696369656e742062616c616e636520666f60008201527f722063616c6c0000000000000000000000000000000000000000000000000000602082015250565b6000614424602683613c8d565b915061442f826143c8565b604082019050919050565b6000602082019050818103600083015261445381614417565b9050919050565b7f416464726573733a2063616c6c20746f206e6f6e2d636f6e7472616374000000600082015250565b6000614490601d83613c8d565b915061449b8261445a565b602082019050919050565b600060208201905081810360008301526144bf81614483565b9050919050565b600081519050919050565b600081905092915050565b60005b838110156144fa5780820151818401526020810190506144df565b60008484015250505050565b6000614511826144c6565b61451b81856144d1565b935061452b8185602086016144dc565b80840191505092915050565b60006145438284614506565b915081905092915050565b600081519050919050565b60006145648261454e565b61456e8185613c8d565b935061457e8185602086016144dc565b6145878161385e565b840191505092915050565b600060208201905081810360008301526145ac8184614559565b90509291505056fea26469706673582212209078cf02618755a8186b7a53ede62a700f2c2b8f619b133269d35033bbdcdce664736f6c63430008110033",
  "linkReferences": {},
  "deployedLinkReferences": {}
}