{
  "_format": "hh-sol-artifact-1",
  "contractName": "dWill",
  "sourceName": "contracts/dWill.sol",
  "abi": [
    {
      "inputs": [
        {
          "internalType": "address",
          "name": "_feeCollector",
          "type": "address"
        },
        {
          "internalType": "uint256",
          "name": "_fee",
          "type": "uint256"
        }
      ],
      "stateMutability": "nonpayable",
      "type": "constructor"
    },
    {
      "anonymous": false,
      "inputs": [
        {
          "indexed": true,
          "internalType": "uint256",
          "name": "ID",
          "type": "uint256"
        },
        {
          "indexed": true,
          "internalType": "address",
          "name": "owner",
          "type": "address"
        },
        {
          "indexed": true,
          "internalType": "address",
          "name": "heir",
          "type": "address"
        },
        {
          "indexed": false,
          "internalType": "contract IERC20",
          "name": "token",
          "type": "address"
        },
        {
          "indexed": false,
          "internalType": "uint256",
          "name": "withdrawalTime",
          "type": "uint256"
        },
        {
          "indexed": false,
          "internalType": "uint256",
          "name": "amount",
          "type": "uint256"
        }
      ],
      "name": "AddWill",
      "type": "event"
    },
    {
      "anonymous": false,
      "inputs": [
        {
          "indexed": true,
          "internalType": "uint256",
          "name": "ID",
          "type": "uint256"
        },
        {
          "indexed": true,
          "internalType": "contract IERC20",
          "name": "token",
          "type": "address"
        },
        {
          "indexed": false,
          "internalType": "uint256",
          "name": "amount",
          "type": "uint256"
        }
      ],
      "name": "CollectFee",
      "type": "event"
    },
    {
      "anonymous": false,
      "inputs": [
        {
          "indexed": true,
          "internalType": "address",
          "name": "previousOwner",
          "type": "address"
        },
        {
          "indexed": true,
          "internalType": "address",
          "name": "newOwner",
          "type": "address"
        }
      ],
      "name": "OwnershipTransferred",
      "type": "event"
    },
    {
      "anonymous": false,
      "inputs": [
        {
          "indexed": true,
          "internalType": "uint256",
          "name": "ID",
          "type": "uint256"
        },
        {
          "indexed": true,
          "internalType": "address",
          "name": "owner",
          "type": "address"
        },
        {
          "indexed": true,
          "internalType": "address",
          "name": "heir",
          "type": "address"
        }
      ],
      "name": "RemoveWill",
      "type": "event"
    },
    {
      "anonymous": false,
      "inputs": [
        {
          "indexed": false,
          "internalType": "uint256",
          "name": "oldFee",
          "type": "uint256"
        },
        {
          "indexed": false,
          "internalType": "uint256",
          "name": "newFee",
          "type": "uint256"
        }
      ],
      "name": "SetFee",
      "type": "event"
    },
    {
      "anonymous": false,
      "inputs": [
        {
          "indexed": true,
          "internalType": "address",
          "name": "oldFeeCollector",
          "type": "address"
        },
        {
          "indexed": true,
          "internalType": "address",
          "name": "newFeeCollector",
          "type": "address"
        }
      ],
      "name": "SetFeeCollector",
      "type": "event"
    },
    {
      "anonymous": false,
      "inputs": [
        {
          "indexed": true,
          "internalType": "uint256",
          "name": "ID",
          "type": "uint256"
        },
        {
          "indexed": false,
          "internalType": "uint256",
          "name": "oldAmount",
          "type": "uint256"
        },
        {
          "indexed": false,
          "internalType": "uint256",
          "name": "newAmount",
          "type": "uint256"
        }
      ],
      "name": "UpdateAmount",
      "type": "event"
    },
    {
      "anonymous": false,
      "inputs": [
        {
          "indexed": true,
          "internalType": "uint256",
          "name": "ID",
          "type": "uint256"
        },
        {
          "indexed": true,
          "internalType": "address",
          "name": "oldHeir",
          "type": "address"
        },
        {
          "indexed": true,
          "internalType": "address",
          "name": "newHeir",
          "type": "address"
        }
      ],
      "name": "UpdateHeir",
      "type": "event"
    },
    {
      "anonymous": false,
      "inputs": [
        {
          "indexed": true,
          "internalType": "uint256",
          "name": "ID",
          "type": "uint256"
        },
        {
          "indexed": false,
          "internalType": "uint256",
          "name": "oldWithdrawalTime",
          "type": "uint256"
        },
        {
          "indexed": false,
          "internalType": "uint256",
          "name": "newWithdrawalTime",
          "type": "uint256"
        }
      ],
      "name": "UpdateWithdrawalTime",
      "type": "event"
    },
    {
      "anonymous": false,
      "inputs": [
        {
          "indexed": true,
          "internalType": "uint256",
          "name": "ID",
          "type": "uint256"
        },
        {
          "indexed": true,
          "internalType": "address",
          "name": "owner",
          "type": "address"
        },
        {
          "indexed": true,
          "internalType": "address",
          "name": "heir",
          "type": "address"
        },
        {
          "indexed": false,
          "internalType": "contract IERC20",
          "name": "token",
          "type": "address"
        },
        {
          "indexed": false,
          "internalType": "uint256",
          "name": "time",
          "type": "uint256"
        },
        {
          "indexed": false,
          "internalType": "uint256",
          "name": "amount",
          "type": "uint256"
        }
      ],
      "name": "Withdraw",
      "type": "event"
    },
    {
      "inputs": [
        {
          "internalType": "address",
          "name": "heir",
          "type": "address"
        },
        {
          "internalType": "contract IERC20",
          "name": "token",
          "type": "address"
        },
        {
          "internalType": "uint256",
          "name": "withdrawalTime",
          "type": "uint256"
        },
        {
          "internalType": "uint256",
          "name": "amount",
          "type": "uint256"
        }
      ],
      "name": "addWill",
      "outputs": [
        {
          "internalType": "uint256",
          "name": "ID",
          "type": "uint256"
        }
      ],
      "stateMutability": "nonpayable",
      "type": "function"
    },
    {
      "inputs": [],
      "name": "fee",
      "outputs": [
        {
          "internalType": "uint256",
          "name": "",
          "type": "uint256"
        }
      ],
      "stateMutability": "view",
      "type": "function"
    },
    {
      "inputs": [],
      "name": "feeCollector",
      "outputs": [
        {
          "internalType": "address",
          "name": "",
          "type": "address"
        }
      ],
      "stateMutability": "view",
      "type": "function"
    },
    {
      "inputs": [
        {
          "internalType": "address",
          "name": "heir",
          "type": "address"
        },
        {
          "internalType": "uint256",
          "name": "index",
          "type": "uint256"
        }
      ],
      "name": "getInheritance",
      "outputs": [
        {
          "components": [
            {
              "internalType": "uint256",
              "name": "ID",
              "type": "uint256"
            },
            {
              "internalType": "address",
              "name": "owner",
              "type": "address"
            },
            {
              "internalType": "address",
              "name": "heir",
              "type": "address"
            },
            {
              "internalType": "contract IERC20",
              "name": "token",
              "type": "address"
            },
            {
              "internalType": "uint256",
              "name": "creationTime",
              "type": "uint256"
            },
            {
              "internalType": "uint256",
              "name": "withdrawalTime",
              "type": "uint256"
            },
            {
              "internalType": "uint256",
              "name": "timeInterval",
              "type": "uint256"
            },
            {
              "internalType": "uint256",
              "name": "amount",
              "type": "uint256"
            },
            {
              "internalType": "uint256",
              "name": "fee",
              "type": "uint256"
            },
            {
              "internalType": "bool",
              "name": "done",
              "type": "bool"
            }
          ],
          "internalType": "struct IHeritage.WillData",
          "name": "inheritance",
          "type": "tuple"
        }
      ],
      "stateMutability": "view",
      "type": "function"
    },
    {
      "inputs": [
        {
          "internalType": "address",
          "name": "heir",
          "type": "address"
        }
      ],
      "name": "getInheritancesLength",
      "outputs": [
        {
          "internalType": "uint256",
          "name": "_length",
          "type": "uint256"
        }
      ],
      "stateMutability": "view",
      "type": "function"
    },
    {
      "inputs": [
        {
          "internalType": "address",
          "name": "owner",
          "type": "address"
        },
        {
          "internalType": "uint256",
          "name": "index",
          "type": "uint256"
        }
      ],
      "name": "getWill",
      "outputs": [
        {
          "components": [
            {
              "internalType": "uint256",
              "name": "ID",
              "type": "uint256"
            },
            {
              "internalType": "address",
              "name": "owner",
              "type": "address"
            },
            {
              "internalType": "address",
              "name": "heir",
              "type": "address"
            },
            {
              "internalType": "contract IERC20",
              "name": "token",
              "type": "address"
            },
            {
              "internalType": "uint256",
              "name": "creationTime",
              "type": "uint256"
            },
            {
              "internalType": "uint256",
              "name": "withdrawalTime",
              "type": "uint256"
            },
            {
              "internalType": "uint256",
              "name": "timeInterval",
              "type": "uint256"
            },
            {
              "internalType": "uint256",
              "name": "amount",
              "type": "uint256"
            },
            {
              "internalType": "uint256",
              "name": "fee",
              "type": "uint256"
            },
            {
              "internalType": "bool",
              "name": "done",
              "type": "bool"
            }
          ],
          "internalType": "struct IHeritage.WillData",
          "name": "will",
          "type": "tuple"
        }
      ],
      "stateMutability": "view",
      "type": "function"
    },
    {
      "inputs": [
        {
          "internalType": "address",
          "name": "owner",
          "type": "address"
        }
      ],
      "name": "getWillsLength",
      "outputs": [
        {
          "internalType": "uint256",
          "name": "_length",
          "type": "uint256"
        }
      ],
      "stateMutability": "view",
      "type": "function"
    },
    {
      "inputs": [
        {
          "internalType": "address",
          "name": "",
          "type": "address"
        },
        {
          "internalType": "uint256",
          "name": "",
          "type": "uint256"
        }
      ],
      "name": "heirInheritances",
      "outputs": [
        {
          "internalType": "uint256",
          "name": "",
          "type": "uint256"
        }
      ],
      "stateMutability": "view",
      "type": "function"
    },
    {
      "inputs": [],
      "name": "owner",
      "outputs": [
        {
          "internalType": "address",
          "name": "",
          "type": "address"
        }
      ],
      "stateMutability": "view",
      "type": "function"
    },
    {
      "inputs": [
        {
          "internalType": "address",
          "name": "",
          "type": "address"
        },
        {
          "internalType": "uint256",
          "name": "",
          "type": "uint256"
        }
      ],
      "name": "ownerWills",
      "outputs": [
        {
          "internalType": "uint256",
          "name": "",
          "type": "uint256"
        }
      ],
      "stateMutability": "view",
      "type": "function"
    },
    {
      "inputs": [
        {
          "internalType": "uint256",
          "name": "ID",
          "type": "uint256"
        }
      ],
      "name": "removeWill",
      "outputs": [],
      "stateMutability": "nonpayable",
      "type": "function"
    },
    {
      "inputs": [],
      "name": "renounceOwnership",
      "outputs": [],
      "stateMutability": "nonpayable",
      "type": "function"
    },
    {
      "inputs": [
        {
          "internalType": "uint256[]",
          "name": "IDs",
          "type": "uint256[]"
        }
      ],
      "name": "resetTimers",
      "outputs": [],
      "stateMutability": "nonpayable",
      "type": "function"
    },
    {
      "inputs": [
        {
          "internalType": "uint256",
          "name": "_fee",
          "type": "uint256"
        }
      ],
      "name": "setFee",
      "outputs": [],
      "stateMutability": "nonpayable",
      "type": "function"
    },
    {
      "inputs": [
        {
          "internalType": "address",
          "name": "_feeCollector",
          "type": "address"
        }
      ],
      "name": "setFeeCollector",
      "outputs": [],
      "stateMutability": "nonpayable",
      "type": "function"
    },
    {
      "inputs": [
        {
          "internalType": "address",
          "name": "newOwner",
          "type": "address"
        }
      ],
      "name": "transferOwnership",
      "outputs": [],
      "stateMutability": "nonpayable",
      "type": "function"
    },
    {
      "inputs": [
        {
          "internalType": "uint256",
          "name": "ID",
          "type": "uint256"
        },
        {
          "internalType": "uint256",
          "name": "_withdrawalTime",
          "type": "uint256"
        },
        {
          "internalType": "address",
          "name": "_heir",
          "type": "address"
        },
        {
          "internalType": "uint256",
          "name": "_amount",
          "type": "uint256"
        }
      ],
      "name": "update",
      "outputs": [],
      "stateMutability": "nonpayable",
      "type": "function"
    },
    {
      "inputs": [
        {
          "internalType": "uint256",
          "name": "ID",
          "type": "uint256"
        },
        {
          "internalType": "uint256",
          "name": "_amount",
          "type": "uint256"
        }
      ],
      "name": "updateAmount",
      "outputs": [],
      "stateMutability": "nonpayable",
      "type": "function"
    },
    {
      "inputs": [
        {
          "internalType": "uint256",
          "name": "ID",
          "type": "uint256"
        },
        {
          "internalType": "address",
          "name": "_heir",
          "type": "address"
        }
      ],
      "name": "updateHeir",
      "outputs": [],
      "stateMutability": "nonpayable",
      "type": "function"
    },
    {
      "inputs": [
        {
          "internalType": "uint256",
          "name": "ID",
          "type": "uint256"
        },
        {
          "internalType": "uint256",
          "name": "_withdrawalTime",
          "type": "uint256"
        }
      ],
      "name": "updateWithdrawalTime",
      "outputs": [],
      "stateMutability": "nonpayable",
      "type": "function"
    },
    {
      "inputs": [
        {
          "internalType": "address",
          "name": "",
          "type": "address"
        },
        {
          "internalType": "contract IERC20",
          "name": "",
          "type": "address"
        }
      ],
      "name": "willAmountForToken",
      "outputs": [
        {
          "internalType": "uint256",
          "name": "",
          "type": "uint256"
        }
      ],
      "stateMutability": "view",
      "type": "function"
    },
    {
      "inputs": [
        {
          "internalType": "uint256",
          "name": "",
          "type": "uint256"
        }
      ],
      "name": "willData",
      "outputs": [
        {
          "internalType": "uint256",
          "name": "ID",
          "type": "uint256"
        },
        {
          "internalType": "address",
          "name": "owner",
          "type": "address"
        },
        {
          "internalType": "address",
          "name": "heir",
          "type": "address"
        },
        {
          "internalType": "contract IERC20",
          "name": "token",
          "type": "address"
        },
        {
          "internalType": "uint256",
          "name": "creationTime",
          "type": "uint256"
        },
        {
          "internalType": "uint256",
          "name": "withdrawalTime",
          "type": "uint256"
        },
        {
          "internalType": "uint256",
          "name": "timeInterval",
          "type": "uint256"
        },
        {
          "internalType": "uint256",
          "name": "amount",
          "type": "uint256"
        },
        {
          "internalType": "uint256",
          "name": "fee",
          "type": "uint256"
        },
        {
          "internalType": "bool",
          "name": "done",
          "type": "bool"
        }
      ],
      "stateMutability": "view",
      "type": "function"
    },
    {
      "inputs": [
        {
          "internalType": "uint256",
          "name": "ID",
          "type": "uint256"
        }
      ],
      "name": "withdraw",
      "outputs": [
        {
          "internalType": "uint256",
          "name": "amount",
          "type": "uint256"
        }
      ],
      "stateMutability": "nonpayable",
      "type": "function"
    }
  ],
  "bytecode": "0x60806040523480156200001157600080fd5b506040516200554a3803806200554a8339818101604052810190620000379190620003b8565b620000576200004b6200008160201b60201c565b6200008960201b60201c565b62000068826200014d60201b60201c565b62000079816200027f60201b60201c565b50506200057e565b600033905090565b60008060009054906101000a900473ffffffffffffffffffffffffffffffffffffffff169050816000806101000a81548173ffffffffffffffffffffffffffffffffffffffff021916908373ffffffffffffffffffffffffffffffffffffffff1602179055508173ffffffffffffffffffffffffffffffffffffffff168173ffffffffffffffffffffffffffffffffffffffff167f8be0079c531659141344cd1fd0a4f28419497f9722a3daafe3b4186f6b6457e060405160405180910390a35050565b600073ffffffffffffffffffffffffffffffffffffffff168173ffffffffffffffffffffffffffffffffffffffff1603620001bf576040517f08c379a0000000000000000000000000000000000000000000000000000000008152600401620001b69062000486565b60405180910390fd5b8073ffffffffffffffffffffffffffffffffffffffff16600760009054906101000a900473ffffffffffffffffffffffffffffffffffffffff1673ffffffffffffffffffffffffffffffffffffffff167f9ea5568f737dfb292c6112b470f5deda06c5b264cdc5b29687cbf6f27a73964d60405160405180910390a380600760006101000a81548173ffffffffffffffffffffffffffffffffffffffff021916908373ffffffffffffffffffffffffffffffffffffffff16021790555050565b66b1a2bc2ec50000811115620002cc576040517f08c379a0000000000000000000000000000000000000000000000000000000008152600401620002c3906200051e565b60405180910390fd5b7f032dc6a2d839eb179729a55633fdf1c41a1fc4739394154117005db2b354b9b5600854826040516200030192919062000551565b60405180910390a18060088190555050565b600080fd5b600073ffffffffffffffffffffffffffffffffffffffff82169050919050565b6000620003458262000318565b9050919050565b620003578162000338565b81146200036357600080fd5b50565b60008151905062000377816200034c565b92915050565b6000819050919050565b62000392816200037d565b81146200039e57600080fd5b50565b600081519050620003b28162000387565b92915050565b60008060408385031215620003d257620003d162000313565b5b6000620003e28582860162000366565b9250506020620003f585828601620003a1565b9150509250929050565b600082825260208201905092915050565b7f6457696c6c3a2043616e27742073657420666565436f6c6c6563746f7220746f60008201527f2061646472657373283029000000000000000000000000000000000000000000602082015250565b60006200046e602b83620003ff565b91506200047b8262000410565b604082019050919050565b60006020820190508181036000830152620004a1816200045f565b9050919050565b7f6457696c6c3a20466565206d757374206265206c6f776572206f72206571756160008201527f6c20352500000000000000000000000000000000000000000000000000000000602082015250565b600062000506602483620003ff565b91506200051382620004a8565b604082019050919050565b600060208201905081810360008301526200053981620004f7565b9050919050565b6200054b816200037d565b82525050565b600060408201905062000568600083018562000540565b62000577602083018462000540565b9392505050565b614fbc806200058e6000396000f3fe608060405234801561001057600080fd5b506004361061014d5760003560e01c806381fb0ee7116100c3578063c415b95c1161007c578063c415b95c146103aa578063dc2e26ea146103c8578063ddca3f4314610401578063dfc0a6181461041f578063f2fde38b1461044f578063fc4d2f0e1461046b5761014d565b806381fb0ee7146102d85780638a617089146103085780638da5cb5b14610338578063a42dce8014610356578063a7457f3c14610372578063c23b0d3f1461038e5761014d565b80632e1a7d4d116101155780632e1a7d4d1461020657806343cc60b1146102365780636345843e1461025257806369fe0e2d14610282578063715018a61461029e578063747a2362146102a85761014d565b80630179cc52146101525780630469de051461016e5780630dbf05e41461018a578063272f20d6146101a65780632c80d9a7146101d6575b600080fd5b61016c60048036038101906101679190613b91565b61049b565b005b61018860048036038101906101839190613b91565b6109f2565b005b6101a4600480360381019061019f9190613c2f565b610c30565b005b6101c060048036038101906101bb9190613c6f565b611186565b6040516101cd9190613e13565b60405180910390f35b6101f060048036038101906101eb9190613c6f565b61140d565b6040516101fd9190613e3e565b60405180910390f35b610220600480360381019061021b9190613e59565b61143e565b60405161022d9190613e3e565b60405180910390f35b610250600480360381019061024b9190613e59565b611d6a565b005b61026c60048036038101906102679190613e86565b612310565b6040516102799190613e3e565b60405180910390f35b61029c60048036038101906102979190613e59565b61235c565b005b6102a6612370565b005b6102c260048036038101906102bd9190613ef1565b612384565b6040516102cf9190613e3e565b60405180910390f35b6102f260048036038101906102ed9190613c6f565b612ab3565b6040516102ff9190613e13565b60405180910390f35b610322600480360381019061031d9190613c6f565b612d3a565b60405161032f9190613e3e565b60405180910390f35b610340612d6b565b60405161034d9190613f67565b60405180910390f35b610370600480360381019061036b9190613e86565b612d94565b005b61038c600480360381019061038791906140db565b612da8565b005b6103a860048036038101906103a39190614124565b612ff0565b005b6103b26131f0565b6040516103bf9190613f67565b60405180910390f35b6103e260048036038101906103dd9190613e59565b613216565b6040516103f89a999897969594939291906141a9565b60405180910390f35b6104096132e7565b6040516104169190613e3e565b60405180910390f35b61043960048036038101906104349190614245565b6132ed565b6040516104469190613e3e565b60405180910390f35b61046960048036038101906104649190613e86565b613312565b005b61048560048036038101906104809190613e86565b613395565b6040516104929190613e3e565b60405180910390f35b6000600183815481106104b1576104b0614285565b5b90600052602060002090600a0201905061062f8160405180610140016040529081600082015481526020016001820160009054906101000a900473ffffffffffffffffffffffffffffffffffffffff1673ffffffffffffffffffffffffffffffffffffffff1673ffffffffffffffffffffffffffffffffffffffff1681526020016002820160009054906101000a900473ffffffffffffffffffffffffffffffffffffffff1673ffffffffffffffffffffffffffffffffffffffff1673ffffffffffffffffffffffffffffffffffffffff1681526020016003820160009054906101000a900473ffffffffffffffffffffffffffffffffffffffff1673ffffffffffffffffffffffffffffffffffffffff1673ffffffffffffffffffffffffffffffffffffffff16815260200160048201548152602001600582015481526020016006820154815260200160078201548152602001600882015481526020016009820160009054906101000a900460ff1615151515815250506133e1565b60008160030160009054906101000a900473ffffffffffffffffffffffffffffffffffffffff1673ffffffffffffffffffffffffffffffffffffffff1663dd62ed3e8360010160009054906101000a900473ffffffffffffffffffffffffffffffffffffffff16306040518363ffffffff1660e01b81526004016106b49291906142b4565b602060405180830381865afa1580156106d1573d6000803e3d6000fd5b505050506040513d601f19601f820116820180604052508101906106f591906142f2565b9050816007015483600460008560010160009054906101000a900473ffffffffffffffffffffffffffffffffffffffff1673ffffffffffffffffffffffffffffffffffffffff1673ffffffffffffffffffffffffffffffffffffffff16815260200190815260200160002060008560030160009054906101000a900473ffffffffffffffffffffffffffffffffffffffff1673ffffffffffffffffffffffffffffffffffffffff1673ffffffffffffffffffffffffffffffffffffffff168152602001908152602001600020546107cc919061434e565b6107d69190614382565b600460008460010160009054906101000a900473ffffffffffffffffffffffffffffffffffffffff1673ffffffffffffffffffffffffffffffffffffffff1673ffffffffffffffffffffffffffffffffffffffff16815260200190815260200160002060008460030160009054906101000a900473ffffffffffffffffffffffffffffffffffffffff1673ffffffffffffffffffffffffffffffffffffffff1673ffffffffffffffffffffffffffffffffffffffff16815260200190815260200160002081905550600460008360010160009054906101000a900473ffffffffffffffffffffffffffffffffffffffff1673ffffffffffffffffffffffffffffffffffffffff1673ffffffffffffffffffffffffffffffffffffffff16815260200190815260200160002060008360030160009054906101000a900473ffffffffffffffffffffffffffffffffffffffff1673ffffffffffffffffffffffffffffffffffffffff1673ffffffffffffffffffffffffffffffffffffffff168152602001908152602001600020548110156109a5576040517f08c379a000000000000000000000000000000000000000000000000000000000815260040161099c90614413565b60405180910390fd5b837fef32e85efc4b16a5db6af86cfb845c4b514b044cda661e397720bee512bde8f48360070154856040516109db929190614433565b60405180910390a282826007018190555050505050565b600060018381548110610a0857610a07614285565b5b90600052602060002090600a02019050610b868160405180610140016040529081600082015481526020016001820160009054906101000a900473ffffffffffffffffffffffffffffffffffffffff1673ffffffffffffffffffffffffffffffffffffffff1673ffffffffffffffffffffffffffffffffffffffff1681526020016002820160009054906101000a900473ffffffffffffffffffffffffffffffffffffffff1673ffffffffffffffffffffffffffffffffffffffff1673ffffffffffffffffffffffffffffffffffffffff1681526020016003820160009054906101000a900473ffffffffffffffffffffffffffffffffffffffff1673ffffffffffffffffffffffffffffffffffffffff1673ffffffffffffffffffffffffffffffffffffffff16815260200160048201548152602001600582015481526020016006820154815260200160078201548152602001600882015481526020016009820160009054906101000a900460ff1615151515815250506133e1565b80600401548211610bcc576040517f08c379a0000000000000000000000000000000000000000000000000000000008152600401610bc3906144ce565b60405180910390fd5b827f0895702ba21cdd0de9a3bf435016b294c4510ea28b4dff157b3d4bc0755ce6e6826005015484604051610c02929190614433565b60405180910390a2818160050181905550806004015482610c239190614382565b8160060181905550505050565b600060018381548110610c4657610c45614285565b5b90600052602060002090600a02019050610dc48160405180610140016040529081600082015481526020016001820160009054906101000a900473ffffffffffffffffffffffffffffffffffffffff1673ffffffffffffffffffffffffffffffffffffffff1673ffffffffffffffffffffffffffffffffffffffff1681526020016002820160009054906101000a900473ffffffffffffffffffffffffffffffffffffffff1673ffffffffffffffffffffffffffffffffffffffff1673ffffffffffffffffffffffffffffffffffffffff1681526020016003820160009054906101000a900473ffffffffffffffffffffffffffffffffffffffff1673ffffffffffffffffffffffffffffffffffffffff1673ffffffffffffffffffffffffffffffffffffffff16815260200160048201548152602001600582015481526020016006820154815260200160078201548152602001600882015481526020016009820160009054906101000a900460ff1615151515815250506133e1565b8173ffffffffffffffffffffffffffffffffffffffff168160020160009054906101000a900473ffffffffffffffffffffffffffffffffffffffff1673ffffffffffffffffffffffffffffffffffffffff1603610e56576040517f08c379a0000000000000000000000000000000000000000000000000000000008152600401610e4d9061453a565b60405180910390fd5b600073ffffffffffffffffffffffffffffffffffffffff168273ffffffffffffffffffffffffffffffffffffffff1603610ec5576040517f08c379a0000000000000000000000000000000000000000000000000000000008152600401610ebc906145a6565b60405180910390fd5b6000600560008360020160009054906101000a900473ffffffffffffffffffffffffffffffffffffffff1673ffffffffffffffffffffffffffffffffffffffff1673ffffffffffffffffffffffffffffffffffffffff1681526020019081526020016000209050600060066000868152602001908152602001600020549050600060018380549050610f579190614382565b9050808214610fd557828181548110610f7357610f72614285565b5b9060005260206000200154838381548110610f9157610f90614285565b5b90600052602060002001819055508160066000858581548110610fb757610fb6614285565b5b90600052602060002001548152602001908152602001600020819055505b82805480610fe657610fe56145c6565b5b60019003818190600052602060002001600090559055600560008673ffffffffffffffffffffffffffffffffffffffff1673ffffffffffffffffffffffffffffffffffffffff168152602001908152602001600020805490506006600088815260200190815260200160002081905550600560008673ffffffffffffffffffffffffffffffffffffffff1673ffffffffffffffffffffffffffffffffffffffff1681526020019081526020016000208690806001815401808255809150506001900390600052602060002001600090919091909150558473ffffffffffffffffffffffffffffffffffffffff168460020160009054906101000a900473ffffffffffffffffffffffffffffffffffffffff1673ffffffffffffffffffffffffffffffffffffffff16877fb254e86e4a2583306d918edddac2d643aba365c5632f61a625930d649684357a60405160405180910390a4848460020160006101000a81548173ffffffffffffffffffffffffffffffffffffffff021916908373ffffffffffffffffffffffffffffffffffffffff160217905550505050505050565b61118e613ab0565b6000600260008573ffffffffffffffffffffffffffffffffffffffff1673ffffffffffffffffffffffffffffffffffffffff16815260200190815260200160002080548060200260200160405190810160405280929190818152602001828054801561121957602002820191906000526020600020905b815481526020019060010190808311611205575b5050505050905080518310611263576040517f08c379a000000000000000000000000000000000000000000000000000000000815260040161125a90614667565b60405180910390fd5b600181848151811061127857611277614285565b5b60200260200101518154811061129157611290614285565b5b90600052602060002090600a020160405180610140016040529081600082015481526020016001820160009054906101000a900473ffffffffffffffffffffffffffffffffffffffff1673ffffffffffffffffffffffffffffffffffffffff1673ffffffffffffffffffffffffffffffffffffffff1681526020016002820160009054906101000a900473ffffffffffffffffffffffffffffffffffffffff1673ffffffffffffffffffffffffffffffffffffffff1673ffffffffffffffffffffffffffffffffffffffff1681526020016003820160009054906101000a900473ffffffffffffffffffffffffffffffffffffffff1673ffffffffffffffffffffffffffffffffffffffff1673ffffffffffffffffffffffffffffffffffffffff16815260200160048201548152602001600582015481526020016006820154815260200160078201548152602001600882015481526020016009820160009054906101000a900460ff16151515158152505091505092915050565b6005602052816000526040600020818154811061142957600080fd5b90600052602060002001600091509150505481565b6000806001838154811061145557611454614285565b5b90600052602060002090600a0201905080600501544210156114ac576040517f08c379a00000000000000000000000000000000000000000000000000000000081526004016114a3906146f9565b60405180910390fd5b8060020160009054906101000a900473ffffffffffffffffffffffffffffffffffffffff1673ffffffffffffffffffffffffffffffffffffffff163373ffffffffffffffffffffffffffffffffffffffff161461153e576040517f08c379a000000000000000000000000000000000000000000000000000000000815260040161153590614765565b60405180910390fd5b600015158160090160009054906101000a900460ff16151514611596576040517f08c379a000000000000000000000000000000000000000000000000000000000815260040161158d906147d1565b60405180910390fd5b60018160090160006101000a81548160ff0219169083151502179055506000600260008360010160009054906101000a900473ffffffffffffffffffffffffffffffffffffffff1673ffffffffffffffffffffffffffffffffffffffff1673ffffffffffffffffffffffffffffffffffffffff16815260200190815260200160002090506000600360008681526020019081526020016000205490506000600183805490506116459190614382565b90508082146116c35782818154811061166157611660614285565b5b906000526020600020015483838154811061167f5761167e614285565b5b906000526020600020018190555081600360008585815481106116a5576116a4614285565b5b90600052602060002001548152602001908152602001600020819055505b828054806116d4576116d36145c6565b5b600190038181906000526020600020016000905590556000600560008660020160009054906101000a900473ffffffffffffffffffffffffffffffffffffffff1673ffffffffffffffffffffffffffffffffffffffff1673ffffffffffffffffffffffffffffffffffffffff168152602001908152602001600020905060066000888152602001908152602001600020549250600181805490506117789190614382565b91508183146117f65780828154811061179457611793614285565b5b90600052602060002001548184815481106117b2576117b1614285565b5b906000526020600020018190555082600660008386815481106117d8576117d7614285565b5b90600052602060002001548152602001908152602001600020819055505b80805480611807576118066145c6565b5b6001900381819060005260206000200160009055905560008560030160009054906101000a900473ffffffffffffffffffffffffffffffffffffffff1673ffffffffffffffffffffffffffffffffffffffff166370a082318760010160009054906101000a900473ffffffffffffffffffffffffffffffffffffffff166040518263ffffffff1660e01b81526004016118a09190613f67565b602060405180830381865afa1580156118bd573d6000803e3d6000fd5b505050506040513d601f19601f820116820180604052508101906118e191906142f2565b905060008660030160009054906101000a900473ffffffffffffffffffffffffffffffffffffffff1673ffffffffffffffffffffffffffffffffffffffff1663dd62ed3e8860010160009054906101000a900473ffffffffffffffffffffffffffffffffffffffff16306040518363ffffffff1660e01b81526004016119689291906142b4565b602060405180830381865afa158015611985573d6000803e3d6000fd5b505050506040513d601f19601f820116820180604052508101906119a991906142f2565b905086600701549750878210156119be578197505b878110156119ca578097505b87600460008960010160009054906101000a900473ffffffffffffffffffffffffffffffffffffffff1673ffffffffffffffffffffffffffffffffffffffff1673ffffffffffffffffffffffffffffffffffffffff16815260200190815260200160002060008960030160009054906101000a900473ffffffffffffffffffffffffffffffffffffffff1673ffffffffffffffffffffffffffffffffffffffff1673ffffffffffffffffffffffffffffffffffffffff1681526020019081526020016000206000828254611a9e9190614382565b925050819055506000670de0b6b3a764000088600801548a611ac091906147f1565b611aca9190614862565b90506000811115611bee57611b6c8860010160009054906101000a900473ffffffffffffffffffffffffffffffffffffffff16600760009054906101000a900473ffffffffffffffffffffffffffffffffffffffff16838b60030160009054906101000a900473ffffffffffffffffffffffffffffffffffffffff1673ffffffffffffffffffffffffffffffffffffffff166134a2909392919063ffffffff16565b8760030160009054906101000a900473ffffffffffffffffffffffffffffffffffffffff1673ffffffffffffffffffffffffffffffffffffffff168a7fd4a05d00378fb0ed712cdbfde5101a2144caaec5d7c5adbcb7ecdcec0398d45683604051611bd79190613e3e565b60405180910390a38089611beb9190614382565b98505b611c878860010160009054906101000a900473ffffffffffffffffffffffffffffffffffffffff168960020160009054906101000a900473ffffffffffffffffffffffffffffffffffffffff168b8b60030160009054906101000a900473ffffffffffffffffffffffffffffffffffffffff1673ffffffffffffffffffffffffffffffffffffffff166134a2909392919063ffffffff16565b8760020160009054906101000a900473ffffffffffffffffffffffffffffffffffffffff1673ffffffffffffffffffffffffffffffffffffffff168860010160009054906101000a900473ffffffffffffffffffffffffffffffffffffffff1673ffffffffffffffffffffffffffffffffffffffff168b7fae7c0fdf04394e630f0f88db0daac3232a0f060314499da12bfabe13dc9988ae8b60030160009054906101000a900473ffffffffffffffffffffffffffffffffffffffff16428e604051611d5593929190614893565b60405180910390a45050505050505050919050565b600060018281548110611d8057611d7f614285565b5b90600052602060002090600a020160405180610140016040529081600082015481526020016001820160009054906101000a900473ffffffffffffffffffffffffffffffffffffffff1673ffffffffffffffffffffffffffffffffffffffff1673ffffffffffffffffffffffffffffffffffffffff1681526020016002820160009054906101000a900473ffffffffffffffffffffffffffffffffffffffff1673ffffffffffffffffffffffffffffffffffffffff1673ffffffffffffffffffffffffffffffffffffffff1681526020016003820160009054906101000a900473ffffffffffffffffffffffffffffffffffffffff1673ffffffffffffffffffffffffffffffffffffffff1673ffffffffffffffffffffffffffffffffffffffff16815260200160048201548152602001600582015481526020016006820154815260200160078201548152602001600882015481526020016009820160009054906101000a900460ff1615151515815250509050611efe816133e1565b600060026000836020015173ffffffffffffffffffffffffffffffffffffffff1673ffffffffffffffffffffffffffffffffffffffff1681526020019081526020016000209050600060036000858152602001908152602001600020549050600060018380549050611f709190614382565b9050808214611fee57828181548110611f8c57611f8b614285565b5b9060005260206000200154838381548110611faa57611fa9614285565b5b90600052602060002001819055508160036000858581548110611fd057611fcf614285565b5b90600052602060002001548152602001908152602001600020819055505b82805480611fff57611ffe6145c6565b5b60019003818190600052602060002001600090559055600060056000866040015173ffffffffffffffffffffffffffffffffffffffff1673ffffffffffffffffffffffffffffffffffffffff168152602001908152602001600020905060066000878152602001908152602001600020549250600181805490506120839190614382565b91508183146121015780828154811061209f5761209e614285565b5b90600052602060002001548184815481106120bd576120bc614285565b5b906000526020600020018190555082600660008386815481106120e3576120e2614285565b5b90600052602060002001548152602001908152602001600020819055505b80805480612112576121116145c6565b5b600190038181906000526020600020016000905590556001868154811061213c5761213b614285565b5b90600052602060002090600a02016000808201600090556001820160006101000a81549073ffffffffffffffffffffffffffffffffffffffff02191690556002820160006101000a81549073ffffffffffffffffffffffffffffffffffffffff02191690556003820160006101000a81549073ffffffffffffffffffffffffffffffffffffffff0219169055600482016000905560058201600090556006820160009055600782016000905560088201600090556009820160006101000a81549060ff021916905550508460e0015160046000876020015173ffffffffffffffffffffffffffffffffffffffff1673ffffffffffffffffffffffffffffffffffffffff1681526020019081526020016000206000876060015173ffffffffffffffffffffffffffffffffffffffff1673ffffffffffffffffffffffffffffffffffffffff168152602001908152602001600020600082825461229e9190614382565b92505081905550846040015173ffffffffffffffffffffffffffffffffffffffff16856020015173ffffffffffffffffffffffffffffffffffffffff16877f2e6ce80b05d67b5aba812f8e95333d141bb7fd2d335f955800635cfdbbb8630e60405160405180910390a4505050505050565b6000600560008373ffffffffffffffffffffffffffffffffffffffff1673ffffffffffffffffffffffffffffffffffffffff168152602001908152602001600020805490509050919050565b61236461352b565b61236d816135a9565b50565b61237861352b565b6123826000613638565b565b60008073ffffffffffffffffffffffffffffffffffffffff168573ffffffffffffffffffffffffffffffffffffffff16036123f4576040517f08c379a00000000000000000000000000000000000000000000000000000000081526004016123eb906145a6565b60405180910390fd5b600073ffffffffffffffffffffffffffffffffffffffff168473ffffffffffffffffffffffffffffffffffffffff1603612463576040517f08c379a000000000000000000000000000000000000000000000000000000000815260040161245a90614916565b60405180910390fd5b4283116124a5576040517f08c379a000000000000000000000000000000000000000000000000000000000815260040161249c906144ce565b60405180910390fd5b600082036124e8576040517f08c379a00000000000000000000000000000000000000000000000000000000081526004016124df90614982565b60405180910390fd5b60008473ffffffffffffffffffffffffffffffffffffffff1663dd62ed3e33306040518363ffffffff1660e01b81526004016125259291906142b4565b602060405180830381865afa158015612542573d6000803e3d6000fd5b505050506040513d601f19601f8201168201806040525081019061256691906142f2565b905082600460003373ffffffffffffffffffffffffffffffffffffffff1673ffffffffffffffffffffffffffffffffffffffff16815260200190815260200160002060008773ffffffffffffffffffffffffffffffffffffffff1673ffffffffffffffffffffffffffffffffffffffff16815260200190815260200160002060008282546125f4919061434e565b92505081905550600460003373ffffffffffffffffffffffffffffffffffffffff1673ffffffffffffffffffffffffffffffffffffffff16815260200190815260200160002060008673ffffffffffffffffffffffffffffffffffffffff1673ffffffffffffffffffffffffffffffffffffffff168152602001908152602001600020548110156126ba576040517f08c379a00000000000000000000000000000000000000000000000000000000081526004016126b190614413565b60405180910390fd5b600180549050915060006040518061014001604052808481526020013373ffffffffffffffffffffffffffffffffffffffff1681526020018873ffffffffffffffffffffffffffffffffffffffff1681526020018773ffffffffffffffffffffffffffffffffffffffff16815260200142815260200186815260200142876127429190614382565b8152602001858152602001600854815260200160001515815250905060018190806001815401808255809150506001900390600052602060002090600a02016000909190919091506000820151816000015560208201518160010160006101000a81548173ffffffffffffffffffffffffffffffffffffffff021916908373ffffffffffffffffffffffffffffffffffffffff16021790555060408201518160020160006101000a81548173ffffffffffffffffffffffffffffffffffffffff021916908373ffffffffffffffffffffffffffffffffffffffff16021790555060608201518160030160006101000a81548173ffffffffffffffffffffffffffffffffffffffff021916908373ffffffffffffffffffffffffffffffffffffffff1602179055506080820151816004015560a0820151816005015560c0820151816006015560e0820151816007015561010082015181600801556101208201518160090160006101000a81548160ff0219169083151502179055505050600260003373ffffffffffffffffffffffffffffffffffffffff1673ffffffffffffffffffffffffffffffffffffffff168152602001908152602001600020805490506003600085815260200190815260200160002081905550600560008873ffffffffffffffffffffffffffffffffffffffff1673ffffffffffffffffffffffffffffffffffffffff168152602001908152602001600020805490506006600085815260200190815260200160002081905550600260003373ffffffffffffffffffffffffffffffffffffffff1673ffffffffffffffffffffffffffffffffffffffff168152602001908152602001600020839080600181540180825580915050600190039060005260206000200160009091909190915055600560008873ffffffffffffffffffffffffffffffffffffffff1673ffffffffffffffffffffffffffffffffffffffff1681526020019081526020016000208390806001815401808255809150506001900390600052602060002001600090919091909150558673ffffffffffffffffffffffffffffffffffffffff163373ffffffffffffffffffffffffffffffffffffffff16847f85d017ff3a7e23e1a84ecf47aa05db16f3b877868ba03ecbcbb8238427dc66e0898989604051612aa193929190614893565b60405180910390a45050949350505050565b612abb613ab0565b6000600560008573ffffffffffffffffffffffffffffffffffffffff1673ffffffffffffffffffffffffffffffffffffffff168152602001908152602001600020805480602002602001604051908101604052809291908181526020018280548015612b4657602002820191906000526020600020905b815481526020019060010190808311612b32575b5050505050905080518310612b90576040517f08c379a0000000000000000000000000000000000000000000000000000000008152600401612b8790614667565b60405180910390fd5b6001818481518110612ba557612ba4614285565b5b602002602001015181548110612bbe57612bbd614285565b5b90600052602060002090600a020160405180610140016040529081600082015481526020016001820160009054906101000a900473ffffffffffffffffffffffffffffffffffffffff1673ffffffffffffffffffffffffffffffffffffffff1673ffffffffffffffffffffffffffffffffffffffff1681526020016002820160009054906101000a900473ffffffffffffffffffffffffffffffffffffffff1673ffffffffffffffffffffffffffffffffffffffff1673ffffffffffffffffffffffffffffffffffffffff1681526020016003820160009054906101000a900473ffffffffffffffffffffffffffffffffffffffff1673ffffffffffffffffffffffffffffffffffffffff1673ffffffffffffffffffffffffffffffffffffffff16815260200160048201548152602001600582015481526020016006820154815260200160078201548152602001600882015481526020016009820160009054906101000a900460ff16151515158152505091505092915050565b60026020528160005260406000208181548110612d5657600080fd5b90600052602060002001600091509150505481565b60008060009054906101000a900473ffffffffffffffffffffffffffffffffffffffff16905090565b612d9c61352b565b612da5816136fc565b50565b60005b8151811015612fec5760006001838381518110612dcb57612dca614285565b5b602002602001015181548110612de457612de3614285565b5b90600052602060002090600a02019050612f628160405180610140016040529081600082015481526020016001820160009054906101000a900473ffffffffffffffffffffffffffffffffffffffff1673ffffffffffffffffffffffffffffffffffffffff1673ffffffffffffffffffffffffffffffffffffffff1681526020016002820160009054906101000a900473ffffffffffffffffffffffffffffffffffffffff1673ffffffffffffffffffffffffffffffffffffffff1673ffffffffffffffffffffffffffffffffffffffff1681526020016003820160009054906101000a900473ffffffffffffffffffffffffffffffffffffffff1673ffffffffffffffffffffffffffffffffffffffff1673ffffffffffffffffffffffffffffffffffffffff16815260200160048201548152602001600582015481526020016006820154815260200160078201548152602001600882015481526020016009820160009054906101000a900460ff1615151515815250506133e1565b6000428260060154612f74919061434e565b9050838381518110612f8957612f88614285565b5b60200260200101517f0895702ba21cdd0de9a3bf435016b294c4510ea28b4dff157b3d4bc0755ce6e6836005015483604051612fc6929190614433565b60405180910390a280826005018190555050508080612fe4906149a2565b915050612dab565b5050565b60006001858154811061300657613005614285565b5b90600052602060002090600a020160405180610140016040529081600082015481526020016001820160009054906101000a900473ffffffffffffffffffffffffffffffffffffffff1673ffffffffffffffffffffffffffffffffffffffff1673ffffffffffffffffffffffffffffffffffffffff1681526020016002820160009054906101000a900473ffffffffffffffffffffffffffffffffffffffff1673ffffffffffffffffffffffffffffffffffffffff1673ffffffffffffffffffffffffffffffffffffffff1681526020016003820160009054906101000a900473ffffffffffffffffffffffffffffffffffffffff1673ffffffffffffffffffffffffffffffffffffffff1673ffffffffffffffffffffffffffffffffffffffff16815260200160048201548152602001600582015481526020016006820154815260200160078201548152602001600882015481526020016009820160009054906101000a900460ff16151515158152505090508060a0015184146131915761319085856109f2565b5b806040015173ffffffffffffffffffffffffffffffffffffffff168373ffffffffffffffffffffffffffffffffffffffff16146131d3576131d28584610c30565b5b8060e0015182146131e9576131e8858361049b565b5b5050505050565b600760009054906101000a900473ffffffffffffffffffffffffffffffffffffffff1681565b6001818154811061322657600080fd5b90600052602060002090600a02016000915090508060000154908060010160009054906101000a900473ffffffffffffffffffffffffffffffffffffffff16908060020160009054906101000a900473ffffffffffffffffffffffffffffffffffffffff16908060030160009054906101000a900473ffffffffffffffffffffffffffffffffffffffff16908060040154908060050154908060060154908060070154908060080154908060090160009054906101000a900460ff1690508a565b60085481565b6004602052816000526040600020602052806000526040600020600091509150505481565b61331a61352b565b600073ffffffffffffffffffffffffffffffffffffffff168173ffffffffffffffffffffffffffffffffffffffff1603613389576040517f08c379a000000000000000000000000000000000000000000000000000000000815260040161338090614a5c565b60405180910390fd5b61339281613638565b50565b6000600260008373ffffffffffffffffffffffffffffffffffffffff1673ffffffffffffffffffffffffffffffffffffffff168152602001908152602001600020805490509050919050565b3373ffffffffffffffffffffffffffffffffffffffff16816020015173ffffffffffffffffffffffffffffffffffffffff1614613453576040517f08c379a000000000000000000000000000000000000000000000000000000000815260040161344a90614ac8565b60405180910390fd5b6000151581610120015115151461349f576040517f08c379a0000000000000000000000000000000000000000000000000000000008152600401613496906147d1565b60405180910390fd5b50565b613525846323b872dd60e01b8585856040516024016134c393929190614ae8565b604051602081830303815290604052907bffffffffffffffffffffffffffffffffffffffffffffffffffffffff19166020820180517bffffffffffffffffffffffffffffffffffffffffffffffffffffffff838183161783525050505061382b565b50505050565b6135336138f2565b73ffffffffffffffffffffffffffffffffffffffff16613551612d6b565b73ffffffffffffffffffffffffffffffffffffffff16146135a7576040517f08c379a000000000000000000000000000000000000000000000000000000000815260040161359e90614b6b565b60405180910390fd5b565b66b1a2bc2ec500008111156135f3576040517f08c379a00000000000000000000000000000000000000000000000000000000081526004016135ea90614bfd565b60405180910390fd5b7f032dc6a2d839eb179729a55633fdf1c41a1fc4739394154117005db2b354b9b560085482604051613626929190614433565b60405180910390a18060088190555050565b60008060009054906101000a900473ffffffffffffffffffffffffffffffffffffffff169050816000806101000a81548173ffffffffffffffffffffffffffffffffffffffff021916908373ffffffffffffffffffffffffffffffffffffffff1602179055508173ffffffffffffffffffffffffffffffffffffffff168173ffffffffffffffffffffffffffffffffffffffff167f8be0079c531659141344cd1fd0a4f28419497f9722a3daafe3b4186f6b6457e060405160405180910390a35050565b600073ffffffffffffffffffffffffffffffffffffffff168173ffffffffffffffffffffffffffffffffffffffff160361376b576040517f08c379a000000000000000000000000000000000000000000000000000000000815260040161376290614c8f565b60405180910390fd5b8073ffffffffffffffffffffffffffffffffffffffff16600760009054906101000a900473ffffffffffffffffffffffffffffffffffffffff1673ffffffffffffffffffffffffffffffffffffffff167f9ea5568f737dfb292c6112b470f5deda06c5b264cdc5b29687cbf6f27a73964d60405160405180910390a380600760006101000a81548173ffffffffffffffffffffffffffffffffffffffff021916908373ffffffffffffffffffffffffffffffffffffffff16021790555050565b600061388d826040518060400160405280602081526020017f5361666545524332303a206c6f772d6c6576656c2063616c6c206661696c65648152508573ffffffffffffffffffffffffffffffffffffffff166138fa9092919063ffffffff16565b90506000815111156138ed57808060200190518101906138ad9190614cdb565b6138ec576040517f08c379a00000000000000000000000000000000000000000000000000000000081526004016138e390614d7a565b60405180910390fd5b5b505050565b600033905090565b60606139098484600085613912565b90509392505050565b606082471015613957576040517f08c379a000000000000000000000000000000000000000000000000000000000815260040161394e90614e0c565b60405180910390fd5b61396085613a26565b61399f576040517f08c379a000000000000000000000000000000000000000000000000000000000815260040161399690614e78565b60405180910390fd5b6000808673ffffffffffffffffffffffffffffffffffffffff1685876040516139c89190614f09565b60006040518083038185875af1925050503d8060008114613a05576040519150601f19603f3d011682016040523d82523d6000602084013e613a0a565b606091505b5091509150613a1a828286613a49565b92505050949350505050565b6000808273ffffffffffffffffffffffffffffffffffffffff163b119050919050565b60608315613a5957829050613aa9565b600083511115613a6c5782518084602001fd5b816040517f08c379a0000000000000000000000000000000000000000000000000000000008152600401613aa09190614f64565b60405180910390fd5b9392505050565b60405180610140016040528060008152602001600073ffffffffffffffffffffffffffffffffffffffff168152602001600073ffffffffffffffffffffffffffffffffffffffff168152602001600073ffffffffffffffffffffffffffffffffffffffff16815260200160008152602001600081526020016000815260200160008152602001600081526020016000151581525090565b6000604051905090565b600080fd5b600080fd5b6000819050919050565b613b6e81613b5b565b8114613b7957600080fd5b50565b600081359050613b8b81613b65565b92915050565b60008060408385031215613ba857613ba7613b51565b5b6000613bb685828601613b7c565b9250506020613bc785828601613b7c565b9150509250929050565b600073ffffffffffffffffffffffffffffffffffffffff82169050919050565b6000613bfc82613bd1565b9050919050565b613c0c81613bf1565b8114613c1757600080fd5b50565b600081359050613c2981613c03565b92915050565b60008060408385031215613c4657613c45613b51565b5b6000613c5485828601613b7c565b9250506020613c6585828601613c1a565b9150509250929050565b60008060408385031215613c8657613c85613b51565b5b6000613c9485828601613c1a565b9250506020613ca585828601613b7c565b9150509250929050565b613cb881613b5b565b82525050565b613cc781613bf1565b82525050565b6000819050919050565b6000613cf2613ced613ce884613bd1565b613ccd565b613bd1565b9050919050565b6000613d0482613cd7565b9050919050565b6000613d1682613cf9565b9050919050565b613d2681613d0b565b82525050565b60008115159050919050565b613d4181613d2c565b82525050565b61014082016000820151613d5e6000850182613caf565b506020820151613d716020850182613cbe565b506040820151613d846040850182613cbe565b506060820151613d976060850182613d1d565b506080820151613daa6080850182613caf565b5060a0820151613dbd60a0850182613caf565b5060c0820151613dd060c0850182613caf565b5060e0820151613de360e0850182613caf565b50610100820151613df8610100850182613caf565b50610120820151613e0d610120850182613d38565b50505050565b600061014082019050613e296000830184613d47565b92915050565b613e3881613b5b565b82525050565b6000602082019050613e536000830184613e2f565b92915050565b600060208284031215613e6f57613e6e613b51565b5b6000613e7d84828501613b7c565b91505092915050565b600060208284031215613e9c57613e9b613b51565b5b6000613eaa84828501613c1a565b91505092915050565b6000613ebe82613bf1565b9050919050565b613ece81613eb3565b8114613ed957600080fd5b50565b600081359050613eeb81613ec5565b92915050565b60008060008060808587031215613f0b57613f0a613b51565b5b6000613f1987828801613c1a565b9450506020613f2a87828801613edc565b9350506040613f3b87828801613b7c565b9250506060613f4c87828801613b7c565b91505092959194509250565b613f6181613bf1565b82525050565b6000602082019050613f7c6000830184613f58565b92915050565b600080fd5b6000601f19601f8301169050919050565b7f4e487b7100000000000000000000000000000000000000000000000000000000600052604160045260246000fd5b613fd082613f87565b810181811067ffffffffffffffff82111715613fef57613fee613f98565b5b80604052505050565b6000614002613b47565b905061400e8282613fc7565b919050565b600067ffffffffffffffff82111561402e5761402d613f98565b5b602082029050602081019050919050565b600080fd5b600061405761405284614013565b613ff8565b9050808382526020820190506020840283018581111561407a5761407961403f565b5b835b818110156140a3578061408f8882613b7c565b84526020840193505060208101905061407c565b5050509392505050565b600082601f8301126140c2576140c1613f82565b5b81356140d2848260208601614044565b91505092915050565b6000602082840312156140f1576140f0613b51565b5b600082013567ffffffffffffffff81111561410f5761410e613b56565b5b61411b848285016140ad565b91505092915050565b6000806000806080858703121561413e5761413d613b51565b5b600061414c87828801613b7c565b945050602061415d87828801613b7c565b935050604061416e87828801613c1a565b925050606061417f87828801613b7c565b91505092959194509250565b61419481613d0b565b82525050565b6141a381613d2c565b82525050565b6000610140820190506141bf600083018d613e2f565b6141cc602083018c613f58565b6141d9604083018b613f58565b6141e6606083018a61418b565b6141f36080830189613e2f565b61420060a0830188613e2f565b61420d60c0830187613e2f565b61421a60e0830186613e2f565b614228610100830185613e2f565b61423661012083018461419a565b9b9a5050505050505050505050565b6000806040838503121561425c5761425b613b51565b5b600061426a85828601613c1a565b925050602061427b85828601613edc565b9150509250929050565b7f4e487b7100000000000000000000000000000000000000000000000000000000600052603260045260246000fd5b60006040820190506142c96000830185613f58565b6142d66020830184613f58565b9392505050565b6000815190506142ec81613b65565b92915050565b60006020828403121561430857614307613b51565b5b6000614316848285016142dd565b91505092915050565b7f4e487b7100000000000000000000000000000000000000000000000000000000600052601160045260246000fd5b600061435982613b5b565b915061436483613b5b565b925082820190508082111561437c5761437b61431f565b5b92915050565b600061438d82613b5b565b915061439883613b5b565b92508282039050818111156143b0576143af61431f565b5b92915050565b600082825260208201905092915050565b7f6457696c6c3a204e6f7420656e6f75676820616c6c6f77616e63650000000000600082015250565b60006143fd601b836143b6565b9150614408826143c7565b602082019050919050565b6000602082019050818103600083015261442c816143f0565b9050919050565b60006040820190506144486000830185613e2f565b6144556020830184613e2f565b9392505050565b7f6457696c6c3a205769746864726177616c2074696d652068617320616c72656160008201527f6479206578706972656400000000000000000000000000000000000000000000602082015250565b60006144b8602a836143b6565b91506144c38261445c565b604082019050919050565b600060208201905081810360008301526144e7816144ab565b9050919050565b7f6457696c6c3a204e65772068656972206973207468652073616d650000000000600082015250565b6000614524601b836143b6565b915061452f826144ee565b602082019050919050565b6000602082019050818103600083015261455381614517565b9050919050565b7f6457696c6c3a2048656972206973206164647265737328302900000000000000600082015250565b60006145906019836143b6565b915061459b8261455a565b602082019050919050565b600060208201905081810360008301526145bf81614583565b9050919050565b7f4e487b7100000000000000000000000000000000000000000000000000000000600052603160045260246000fd5b7f6457696c6c3a20496e646578206d757374206265206c6f776572205f6865697260008201527f496e6865726974616e6365732e6c656e67746800000000000000000000000000602082015250565b60006146516033836143b6565b915061465c826145f5565b604082019050919050565b6000602082019050818103600083015261468081614644565b9050919050565b7f6457696c6c3a205769746864726177616c206973206e6f74207965742061766160008201527f696c61626c650000000000000000000000000000000000000000000000000000602082015250565b60006146e36026836143b6565b91506146ee82614687565b604082019050919050565b60006020820190508181036000830152614712816146d6565b9050919050565b7f6457696c6c3a2043616c6c6572206973206e6f74207468652068656972000000600082015250565b600061474f601d836143b6565b915061475a82614719565b602082019050919050565b6000602082019050818103600083015261477e81614742565b9050919050565b7f6457696c6c3a20416c72656164792077697468647261776e0000000000000000600082015250565b60006147bb6018836143b6565b91506147c682614785565b602082019050919050565b600060208201905081810360008301526147ea816147ae565b9050919050565b60006147fc82613b5b565b915061480783613b5b565b925082820261481581613b5b565b9150828204841483151761482c5761482b61431f565b5b5092915050565b7f4e487b7100000000000000000000000000000000000000000000000000000000600052601260045260246000fd5b600061486d82613b5b565b915061487883613b5b565b92508261488857614887614833565b5b828204905092915050565b60006060820190506148a8600083018661418b565b6148b56020830185613e2f565b6148c26040830184613e2f565b949350505050565b7f6457696c6c3a20546f6b656e2069732061646472657373283029000000000000600082015250565b6000614900601a836143b6565b915061490b826148ca565b602082019050919050565b6000602082019050818103600083015261492f816148f3565b9050919050565b7f6457696c6c3a20416d6f756e7420697320300000000000000000000000000000600082015250565b600061496c6012836143b6565b915061497782614936565b602082019050919050565b6000602082019050818103600083015261499b8161495f565b9050919050565b60006149ad82613b5b565b91507fffffffffffffffffffffffffffffffffffffffffffffffffffffffffffffffff82036149df576149de61431f565b5b600182019050919050565b7f4f776e61626c653a206e6577206f776e657220697320746865207a65726f206160008201527f6464726573730000000000000000000000000000000000000000000000000000602082015250565b6000614a466026836143b6565b9150614a51826149ea565b604082019050919050565b60006020820190508181036000830152614a7581614a39565b9050919050565b7f6457696c6c3a2043616c6c6572206973206e6f7420746865206f776e65720000600082015250565b6000614ab2601e836143b6565b9150614abd82614a7c565b602082019050919050565b60006020820190508181036000830152614ae181614aa5565b9050919050565b6000606082019050614afd6000830186613f58565b614b0a6020830185613f58565b614b176040830184613e2f565b949350505050565b7f4f776e61626c653a2063616c6c6572206973206e6f7420746865206f776e6572600082015250565b6000614b556020836143b6565b9150614b6082614b1f565b602082019050919050565b60006020820190508181036000830152614b8481614b48565b9050919050565b7f6457696c6c3a20466565206d757374206265206c6f776572206f72206571756160008201527f6c20352500000000000000000000000000000000000000000000000000000000602082015250565b6000614be76024836143b6565b9150614bf282614b8b565b604082019050919050565b60006020820190508181036000830152614c1681614bda565b9050919050565b7f6457696c6c3a2043616e27742073657420666565436f6c6c6563746f7220746f60008201527f2061646472657373283029000000000000000000000000000000000000000000602082015250565b6000614c79602b836143b6565b9150614c8482614c1d565b604082019050919050565b60006020820190508181036000830152614ca881614c6c565b9050919050565b614cb881613d2c565b8114614cc357600080fd5b50565b600081519050614cd581614caf565b92915050565b600060208284031215614cf157614cf0613b51565b5b6000614cff84828501614cc6565b91505092915050565b7f5361666545524332303a204552433230206f7065726174696f6e20646964206e60008201527f6f74207375636365656400000000000000000000000000000000000000000000602082015250565b6000614d64602a836143b6565b9150614d6f82614d08565b604082019050919050565b60006020820190508181036000830152614d9381614d57565b9050919050565b7f416464726573733a20696e73756666696369656e742062616c616e636520666f60008201527f722063616c6c0000000000000000000000000000000000000000000000000000602082015250565b6000614df66026836143b6565b9150614e0182614d9a565b604082019050919050565b60006020820190508181036000830152614e2581614de9565b9050919050565b7f416464726573733a2063616c6c20746f206e6f6e2d636f6e7472616374000000600082015250565b6000614e62601d836143b6565b9150614e6d82614e2c565b602082019050919050565b60006020820190508181036000830152614e9181614e55565b9050919050565b600081519050919050565b600081905092915050565b60005b83811015614ecc578082015181840152602081019050614eb1565b60008484015250505050565b6000614ee382614e98565b614eed8185614ea3565b9350614efd818560208601614eae565b80840191505092915050565b6000614f158284614ed8565b915081905092915050565b600081519050919050565b6000614f3682614f20565b614f4081856143b6565b9350614f50818560208601614eae565b614f5981613f87565b840191505092915050565b60006020820190508181036000830152614f7e8184614f2b565b90509291505056fea2646970667358221220cd589257d4e8046240d1931eef9d4c7f8688ba94daa4c2ded7292977c2af392e64736f6c63430008110033",
  "linkReferences": {},
  "deployedLinkReferences": {}
}