{
  "_format": "hh-sol-artifact-1",
  "contractName": "dWill",
  "sourceName": "contracts/dWill.sol",
  "abi": [
    {
      "anonymous": false,
      "inputs": [
        {
          "indexed": false,
          "internalType": "uint256",
          "name": "ID",
          "type": "uint256"
        },
        {
          "indexed": false,
          "internalType": "address",
          "name": "owner",
          "type": "address"
        },
        {
          "indexed": false,
          "internalType": "address",
          "name": "heir",
          "type": "address"
        },
        {
          "indexed": false,
          "internalType": "address",
          "name": "token",
          "type": "address"
        },
        {
          "indexed": false,
          "internalType": "uint256",
          "name": "timeWhenWithdraw",
          "type": "uint256"
        },
        {
          "indexed": false,
          "internalType": "uint256",
          "name": "amount",
          "type": "uint256"
        }
      ],
      "name": "AddAnHeir",
      "type": "event"
    },
    {
      "anonymous": false,
      "inputs": [
        {
          "indexed": false,
          "internalType": "uint256",
          "name": "ID",
          "type": "uint256"
        },
        {
          "indexed": false,
          "internalType": "address",
          "name": "owner",
          "type": "address"
        },
        {
          "indexed": false,
          "internalType": "address",
          "name": "heir",
          "type": "address"
        }
      ],
      "name": "RemoveWill",
      "type": "event"
    },
    {
      "anonymous": false,
      "inputs": [
        {
          "indexed": false,
          "internalType": "uint256[]",
          "name": "IDs",
          "type": "uint256[]"
        },
        {
          "indexed": false,
          "internalType": "address",
          "name": "owner",
          "type": "address"
        },
        {
          "indexed": false,
          "internalType": "uint256[]",
          "name": "newTimes",
          "type": "uint256[]"
        }
      ],
      "name": "ResetTimers",
      "type": "event"
    },
    {
      "anonymous": false,
      "inputs": [
        {
          "indexed": false,
          "internalType": "uint256",
          "name": "ID",
          "type": "uint256"
        },
        {
          "indexed": false,
          "internalType": "address",
          "name": "owner",
          "type": "address"
        },
        {
          "indexed": false,
          "internalType": "uint256",
          "name": "newAmount",
          "type": "uint256"
        }
      ],
      "name": "UpdateAmount",
      "type": "event"
    },
    {
      "anonymous": false,
      "inputs": [
        {
          "indexed": false,
          "internalType": "uint256",
          "name": "ID",
          "type": "uint256"
        },
        {
          "indexed": false,
          "internalType": "address",
          "name": "owner",
          "type": "address"
        },
        {
          "indexed": false,
          "internalType": "address",
          "name": "newHeir",
          "type": "address"
        }
      ],
      "name": "UpdateAnHeir",
      "type": "event"
    },
    {
      "anonymous": false,
      "inputs": [
        {
          "indexed": false,
          "internalType": "uint256",
          "name": "ID",
          "type": "uint256"
        },
        {
          "indexed": false,
          "internalType": "address",
          "name": "owner",
          "type": "address"
        },
        {
          "indexed": false,
          "internalType": "address",
          "name": "heir",
          "type": "address"
        },
        {
          "indexed": false,
          "internalType": "uint256",
          "name": "newTime",
          "type": "uint256"
        }
      ],
      "name": "UpdateWillTimeWhenWithdraw",
      "type": "event"
    },
    {
      "anonymous": false,
      "inputs": [
        {
          "indexed": false,
          "internalType": "uint256",
          "name": "ID",
          "type": "uint256"
        },
        {
          "indexed": false,
          "internalType": "address",
          "name": "owner",
          "type": "address"
        },
        {
          "indexed": false,
          "internalType": "address",
          "name": "heir",
          "type": "address"
        },
        {
          "indexed": false,
          "internalType": "uint256",
          "name": "timeWhenWithdrawn",
          "type": "uint256"
        },
        {
          "indexed": false,
          "internalType": "uint256",
          "name": "amount",
          "type": "uint256"
        }
      ],
      "name": "Withdraw",
      "type": "event"
    },
    {
      "inputs": [
        {
          "internalType": "address",
          "name": "heir",
          "type": "address"
        },
        {
          "internalType": "address",
          "name": "token",
          "type": "address"
        },
        {
          "internalType": "uint256",
          "name": "timeWhenWithdraw",
          "type": "uint256"
        },
        {
          "internalType": "uint256",
          "name": "amount",
          "type": "uint256"
        }
      ],
      "name": "addNewWill",
      "outputs": [],
      "stateMutability": "nonpayable",
      "type": "function"
    },
    {
      "inputs": [
        {
          "internalType": "address",
          "name": "heir",
          "type": "address"
        }
      ],
      "name": "getAllInheritances",
      "outputs": [
        {
          "components": [
            {
              "internalType": "uint256",
              "name": "ID",
              "type": "uint256"
            },
            {
              "internalType": "address",
              "name": "owner",
              "type": "address"
            },
            {
              "internalType": "address",
              "name": "heir",
              "type": "address"
            },
            {
              "internalType": "address",
              "name": "token",
              "type": "address"
            },
            {
              "internalType": "uint256",
              "name": "timeWhenWithdraw",
              "type": "uint256"
            },
            {
              "internalType": "uint256",
              "name": "timeBetweenWithdrawAndStart",
              "type": "uint256"
            },
            {
              "internalType": "uint256",
              "name": "amount",
              "type": "uint256"
            },
            {
              "internalType": "bool",
              "name": "done",
              "type": "bool"
            }
          ],
          "internalType": "struct IHeritage.InheritanceData[]",
          "name": "",
          "type": "tuple[]"
        }
      ],
      "stateMutability": "view",
      "type": "function"
    },
    {
      "inputs": [
        {
          "internalType": "address",
          "name": "owner",
          "type": "address"
        }
      ],
      "name": "getAllWills",
      "outputs": [
        {
          "components": [
            {
              "internalType": "uint256",
              "name": "ID",
              "type": "uint256"
            },
            {
              "internalType": "address",
              "name": "owner",
              "type": "address"
            },
            {
              "internalType": "address",
              "name": "heir",
              "type": "address"
            },
            {
              "internalType": "address",
              "name": "token",
              "type": "address"
            },
            {
              "internalType": "uint256",
              "name": "timeWhenWithdraw",
              "type": "uint256"
            },
            {
              "internalType": "uint256",
              "name": "timeBetweenWithdrawAndStart",
              "type": "uint256"
            },
            {
              "internalType": "uint256",
              "name": "amount",
              "type": "uint256"
            },
            {
              "internalType": "bool",
              "name": "done",
              "type": "bool"
            }
          ],
          "internalType": "struct IHeritage.InheritanceData[]",
          "name": "",
          "type": "tuple[]"
        }
      ],
      "stateMutability": "view",
      "type": "function"
    },
    {
      "inputs": [
        {
          "internalType": "address",
          "name": "owner",
          "type": "address"
        },
        {
          "internalType": "address",
          "name": "token",
          "type": "address"
        }
      ],
      "name": "getAllWillsAmountThisToken",
      "outputs": [
        {
          "internalType": "uint256",
          "name": "",
          "type": "uint256"
        }
      ],
      "stateMutability": "view",
      "type": "function"
    },
    {
      "inputs": [
        {
          "internalType": "uint256",
          "name": "",
          "type": "uint256"
        }
      ],
      "name": "inheritanceData",
      "outputs": [
        {
          "internalType": "uint256",
          "name": "ID",
          "type": "uint256"
        },
        {
          "internalType": "address",
          "name": "owner",
          "type": "address"
        },
        {
          "internalType": "address",
          "name": "heir",
          "type": "address"
        },
        {
          "internalType": "address",
          "name": "token",
          "type": "address"
        },
        {
          "internalType": "uint256",
          "name": "timeWhenWithdraw",
          "type": "uint256"
        },
        {
          "internalType": "uint256",
          "name": "timeBetweenWithdrawAndStart",
          "type": "uint256"
        },
        {
          "internalType": "uint256",
          "name": "amount",
          "type": "uint256"
        },
        {
          "internalType": "bool",
          "name": "done",
          "type": "bool"
        }
      ],
      "stateMutability": "view",
      "type": "function"
    },
    {
      "inputs": [
        {
          "internalType": "address",
          "name": "",
          "type": "address"
        },
        {
          "internalType": "uint256",
          "name": "",
          "type": "uint256"
        }
      ],
      "name": "inheritancesHeir",
      "outputs": [
        {
          "internalType": "uint256",
          "name": "",
          "type": "uint256"
        }
      ],
      "stateMutability": "view",
      "type": "function"
    },
    {
      "inputs": [
        {
          "internalType": "address",
          "name": "",
          "type": "address"
        },
        {
          "internalType": "uint256",
          "name": "",
          "type": "uint256"
        }
      ],
      "name": "inheritancesOwner",
      "outputs": [
        {
          "internalType": "uint256",
          "name": "",
          "type": "uint256"
        }
      ],
      "stateMutability": "view",
      "type": "function"
    },
    {
      "inputs": [
        {
          "internalType": "uint256",
          "name": "ID",
          "type": "uint256"
        }
      ],
      "name": "removeWill",
      "outputs": [],
      "stateMutability": "nonpayable",
      "type": "function"
    },
    {
      "inputs": [],
      "name": "resetTimers",
      "outputs": [],
      "stateMutability": "nonpayable",
      "type": "function"
    },
    {
      "inputs": [
        {
          "internalType": "uint256",
          "name": "ID",
          "type": "uint256"
        }
      ],
      "name": "resetTimersAtOne",
      "outputs": [],
      "stateMutability": "nonpayable",
      "type": "function"
    },
    {
      "inputs": [
        {
          "internalType": "uint256",
          "name": "ID",
          "type": "uint256"
        },
        {
          "internalType": "uint256",
          "name": "newTime",
          "type": "uint256"
        },
        {
          "internalType": "address",
          "name": "_heir",
          "type": "address"
        },
        {
          "internalType": "uint256",
          "name": "amount",
          "type": "uint256"
        },
        {
          "internalType": "bool",
          "name": "_updateTime",
          "type": "bool"
        },
        {
          "internalType": "bool",
          "name": "_updateHeir",
          "type": "bool"
        },
        {
          "internalType": "bool",
          "name": "_updateAmount",
          "type": "bool"
        }
      ],
      "name": "update",
      "outputs": [],
      "stateMutability": "nonpayable",
      "type": "function"
    },
    {
      "inputs": [
        {
          "internalType": "uint256",
          "name": "ID",
          "type": "uint256"
        },
        {
          "internalType": "uint256",
          "name": "amount",
          "type": "uint256"
        }
      ],
      "name": "updateAmount",
      "outputs": [],
      "stateMutability": "nonpayable",
      "type": "function"
    },
    {
      "inputs": [
        {
          "internalType": "uint256",
          "name": "ID",
          "type": "uint256"
        },
        {
          "internalType": "address",
          "name": "_heir",
          "type": "address"
        }
      ],
      "name": "updateAnHeir",
      "outputs": [],
      "stateMutability": "nonpayable",
      "type": "function"
    },
    {
      "inputs": [
        {
          "internalType": "uint256",
          "name": "ID",
          "type": "uint256"
        },
        {
          "internalType": "uint256",
          "name": "newTime",
          "type": "uint256"
        }
      ],
      "name": "updateWillTimeWhenWithdraw",
      "outputs": [],
      "stateMutability": "nonpayable",
      "type": "function"
    },
    {
      "inputs": [
        {
          "internalType": "uint256",
          "name": "ID",
          "type": "uint256"
        }
      ],
      "name": "withdraw",
      "outputs": [],
      "stateMutability": "nonpayable",
      "type": "function"
    }
  ],
  "bytecode": "0x608060405234801561001057600080fd5b50614cb1806100206000396000f3fe608060405234801561001057600080fd5b50600436106100f55760003560e01c80636aec110611610097578063b282e7b811610066578063b282e7b814610280578063e1ff9e811461029c578063e41c377c146102b8578063fcb25e5d146102ef576100f5565b80636aec1106146101d457806372a370bc146102045780639c7e996814610234578063a3352e0614610250576100f5565b806334b12c2b116100d357806334b12c2b1461014e57806337013e101461017e5780633795b60e146101ae57806343cc60b1146101b8576100f5565b80630179cc52146100fa5780632e1a7d4d1461011657806333a8a2fb14610132575b600080fd5b610114600480360381019061010f9190613d7a565b61030b565b005b610130600480360381019061012b9190613dba565b610833565b005b61014c60048036038101906101479190613d7a565b6112c7565b005b61016860048036038101906101639190613e45565b6116fd565b6040516101759190613ffd565b60405180910390f35b6101986004803603810190610193919061401f565b6119bf565b6040516101a5919061406e565b60405180910390f35b6101b66119f0565b005b6101d260048036038101906101cd9190613dba565b611e5c565b005b6101ee60048036038101906101e99190613e45565b61252e565b6040516101fb9190613ffd565b60405180910390f35b61021e6004803603810190610219919061401f565b6127f0565b60405161022b919061406e565b60405180910390f35b61024e60048036038101906102499190614089565b612821565b005b61026a600480360381019061026591906140f0565b612d5f565b604051610277919061406e565b60405180910390f35b61029a60048036038101906102959190614130565b613034565b005b6102b660048036038101906102b19190613dba565b61373a565b005b6102d260048036038101906102cd9190613dba565b613ba3565b6040516102e698979695949392919061418e565b60405180910390f35b61030960048036038101906103049190614238565b613c68565b005b60008083815481106103205761031f6142da565b5b906000526020600020906008020160405180610100016040529081600082015481526020016001820160009054906101000a900473ffffffffffffffffffffffffffffffffffffffff1673ffffffffffffffffffffffffffffffffffffffff1673ffffffffffffffffffffffffffffffffffffffff1681526020016002820160009054906101000a900473ffffffffffffffffffffffffffffffffffffffff1673ffffffffffffffffffffffffffffffffffffffff1673ffffffffffffffffffffffffffffffffffffffff1681526020016003820160009054906101000a900473ffffffffffffffffffffffffffffffffffffffff1673ffffffffffffffffffffffffffffffffffffffff1673ffffffffffffffffffffffffffffffffffffffff1681526020016004820154815260200160058201548152602001600682015481526020016007820160009054906101000a900460ff16151515158152505090503373ffffffffffffffffffffffffffffffffffffffff16816020015173ffffffffffffffffffffffffffffffffffffffff16146104f3576040517f08c379a00000000000000000000000000000000000000000000000000000000081526004016104ea90614366565b60405180910390fd5b600015158160e0015115151461053e576040517f08c379a0000000000000000000000000000000000000000000000000000000008152600401610535906143d2565b60405180910390fd5b60008203610581576040517f08c379a00000000000000000000000000000000000000000000000000000000081526004016105789061443e565b60405180910390fd5b8060c0015182036105c7576040517f08c379a00000000000000000000000000000000000000000000000000000000081526004016105be906144aa565b60405180910390fd5b6000816060015190508160c001518311156106a15760008173ffffffffffffffffffffffffffffffffffffffff1663dd62ed3e33306040518363ffffffff1660e01b81526004016106199291906144ca565b602060405180830381865afa158015610636573d6000803e3d6000fd5b505050506040513d601f19601f8201168201806040525081019061065a9190614508565b90508381101561069f576040517f08c379a000000000000000000000000000000000000000000000000000000000815260040161069690614581565b60405180910390fd5b505b828260c001818152505081600085815481106106c0576106bf6142da565b5b90600052602060002090600802016000820151816000015560208201518160010160006101000a81548173ffffffffffffffffffffffffffffffffffffffff021916908373ffffffffffffffffffffffffffffffffffffffff16021790555060408201518160020160006101000a81548173ffffffffffffffffffffffffffffffffffffffff021916908373ffffffffffffffffffffffffffffffffffffffff16021790555060608201518160030160006101000a81548173ffffffffffffffffffffffffffffffffffffffff021916908373ffffffffffffffffffffffffffffffffffffffff1602179055506080820151816004015560a0820151816005015560c0820151816006015560e08201518160070160006101000a81548160ff0219169083151502179055509050507f07f364a0e22025373fbd73737f9a989e95741c0a7a85fa996d5c34a8198a482d84836020015185604051610825939291906145a1565b60405180910390a150505050565b6000808281548110610848576108476142da565b5b906000526020600020906008020160405180610100016040529081600082015481526020016001820160009054906101000a900473ffffffffffffffffffffffffffffffffffffffff1673ffffffffffffffffffffffffffffffffffffffff1673ffffffffffffffffffffffffffffffffffffffff1681526020016002820160009054906101000a900473ffffffffffffffffffffffffffffffffffffffff1673ffffffffffffffffffffffffffffffffffffffff1673ffffffffffffffffffffffffffffffffffffffff1681526020016003820160009054906101000a900473ffffffffffffffffffffffffffffffffffffffff1673ffffffffffffffffffffffffffffffffffffffff1673ffffffffffffffffffffffffffffffffffffffff1681526020016004820154815260200160058201548152602001600682015481526020016007820160009054906101000a900460ff1615151515815250509050806040015173ffffffffffffffffffffffffffffffffffffffff163373ffffffffffffffffffffffffffffffffffffffff1614610a1b576040517f08c379a0000000000000000000000000000000000000000000000000000000008152600401610a1290614624565b60405180910390fd5b8060800151421015610a62576040517f08c379a0000000000000000000000000000000000000000000000000000000008152600401610a5990614690565b60405180910390fd5b600015158160e00151151514610aad576040517f08c379a0000000000000000000000000000000000000000000000000000000008152600401610aa4906143d2565b60405180910390fd5b60018160e0019015159081151581525050600060016000836020015173ffffffffffffffffffffffffffffffffffffffff1673ffffffffffffffffffffffffffffffffffffffff168152602001908152602001600020805480602002602001604051908101604052809291908181526020018280548015610b4d57602002820191906000526020600020905b815481526020019060010190808311610b39575b50505050509050600060026000846040015173ffffffffffffffffffffffffffffffffffffffff1673ffffffffffffffffffffffffffffffffffffffff168152602001908152602001600020805480602002602001604051908101604052809291908181526020018280548015610be357602002820191906000526020600020905b815481526020019060010190808311610bcf575b5050505050905060005b8251811015610d1f5784838281518110610c0a57610c096142da565b5b602002602001015103610d0c578260018451610c2691906146df565b81518110610c3757610c366142da565b5b602002602001015160016000866020015173ffffffffffffffffffffffffffffffffffffffff1673ffffffffffffffffffffffffffffffffffffffff1681526020019081526020016000208281548110610c9457610c936142da565b5b906000526020600020018190555060016000856020015173ffffffffffffffffffffffffffffffffffffffff1673ffffffffffffffffffffffffffffffffffffffff168152602001908152602001600020805480610cf557610cf4614713565b5b600190038181906000526020600020016000905590555b8080610d1790614742565b915050610bed565b5060005b8151811015610e555784828281518110610d4057610d3f6142da565b5b602002602001015103610e42578160018351610d5c91906146df565b81518110610d6d57610d6c6142da565b5b602002602001015160026000866040015173ffffffffffffffffffffffffffffffffffffffff1673ffffffffffffffffffffffffffffffffffffffff1681526020019081526020016000208281548110610dca57610dc96142da565b5b906000526020600020018190555060026000856040015173ffffffffffffffffffffffffffffffffffffffff1673ffffffffffffffffffffffffffffffffffffffff168152602001908152602001600020805480610e2b57610e2a614713565b5b600190038181906000526020600020016000905590555b8080610e4d90614742565b915050610d23565b5060008360600151905060008173ffffffffffffffffffffffffffffffffffffffff1663dd62ed3e8660200151306040518363ffffffff1660e01b8152600401610ea09291906144ca565b602060405180830381865afa158015610ebd573d6000803e3d6000fd5b505050506040513d601f19601f82011682018060405250810190610ee19190614508565b905060008273ffffffffffffffffffffffffffffffffffffffff166370a0823187602001516040518263ffffffff1660e01b8152600401610f22919061478a565b602060405180830381865afa158015610f3f573d6000803e3d6000fd5b505050506040513d601f19601f82011682018060405250810190610f639190614508565b905060008660c00151821015611004578373ffffffffffffffffffffffffffffffffffffffff166323b872dd88602001518960400151856040518463ffffffff1660e01b8152600401610fb8939291906147a5565b6020604051808303816000875af1158015610fd7573d6000803e3d6000fd5b505050506040513d601f19601f82011682018060405250810190610ffb91906147f1565b50819050611137565b8660c001518310156110a1578373ffffffffffffffffffffffffffffffffffffffff166323b872dd88602001518960400151866040518463ffffffff1660e01b8152600401611055939291906147a5565b6020604051808303816000875af1158015611074573d6000803e3d6000fd5b505050506040513d601f19601f8201168201806040525081019061109891906147f1565b50829050611136565b8373ffffffffffffffffffffffffffffffffffffffff166323b872dd886020015189604001518a60c001516040518463ffffffff1660e01b81526004016110ea939291906147a5565b6020604051808303816000875af1158015611109573d6000803e3d6000fd5b505050506040513d601f19601f8201168201806040525081019061112d91906147f1565b508660c0015190505b5b7ffe7813e2866053d5c3938554e517b554fce6666a6561bed9eaa7419b29fa9b6888886020015133428560405161117295949392919061481e565b60405180910390a1866000898154811061118f5761118e6142da565b5b90600052602060002090600802016000820151816000015560208201518160010160006101000a81548173ffffffffffffffffffffffffffffffffffffffff021916908373ffffffffffffffffffffffffffffffffffffffff16021790555060408201518160020160006101000a81548173ffffffffffffffffffffffffffffffffffffffff021916908373ffffffffffffffffffffffffffffffffffffffff16021790555060608201518160030160006101000a81548173ffffffffffffffffffffffffffffffffffffffff021916908373ffffffffffffffffffffffffffffffffffffffff1602179055506080820151816004015560a0820151816005015560c0820151816006015560e08201518160070160006101000a81548160ff0219169083151502179055509050505050505050505050565b60008083815481106112dc576112db6142da565b5b906000526020600020906008020160405180610100016040529081600082015481526020016001820160009054906101000a900473ffffffffffffffffffffffffffffffffffffffff1673ffffffffffffffffffffffffffffffffffffffff1673ffffffffffffffffffffffffffffffffffffffff1681526020016002820160009054906101000a900473ffffffffffffffffffffffffffffffffffffffff1673ffffffffffffffffffffffffffffffffffffffff1673ffffffffffffffffffffffffffffffffffffffff1681526020016003820160009054906101000a900473ffffffffffffffffffffffffffffffffffffffff1673ffffffffffffffffffffffffffffffffffffffff1673ffffffffffffffffffffffffffffffffffffffff1681526020016004820154815260200160058201548152602001600682015481526020016007820160009054906101000a900460ff16151515158152505090503373ffffffffffffffffffffffffffffffffffffffff16816020015173ffffffffffffffffffffffffffffffffffffffff16146114af576040517f08c379a00000000000000000000000000000000000000000000000000000000081526004016114a690614366565b60405180910390fd5b4282116114f1576040517f08c379a00000000000000000000000000000000000000000000000000000000081526004016114e8906148e3565b60405180910390fd5b600015158160e0015115151461153c576040517f08c379a0000000000000000000000000000000000000000000000000000000008152600401611533906143d2565b60405180910390fd5b60008160a00151826080015161155291906146df565b905082826080018181525050808361156a91906146df565b8260a00181815250508160008581548110611588576115876142da565b5b90600052602060002090600802016000820151816000015560208201518160010160006101000a81548173ffffffffffffffffffffffffffffffffffffffff021916908373ffffffffffffffffffffffffffffffffffffffff16021790555060408201518160020160006101000a81548173ffffffffffffffffffffffffffffffffffffffff021916908373ffffffffffffffffffffffffffffffffffffffff16021790555060608201518160030160006101000a81548173ffffffffffffffffffffffffffffffffffffffff021916908373ffffffffffffffffffffffffffffffffffffffff1602179055506080820151816004015560a0820151816005015560c0820151816006015560e08201518160070160006101000a81548160ff0219169083151502179055509050507ff6d4f4eb4a955223539787dd64c67a7a9571039c5deccabaf47d097f93e8b41f84338460400151866040516116ef9493929190614903565b60405180910390a150505050565b60606000600160008473ffffffffffffffffffffffffffffffffffffffff1673ffffffffffffffffffffffffffffffffffffffff16815260200190815260200160002080548060200260200160405190810160405280929190818152602001828054801561178a57602002820191906000526020600020905b815481526020019060010190808311611776575b505050505090506000815167ffffffffffffffff8111156117ae576117ad614948565b5b6040519080825280602002602001820160405280156117e757816020015b6117d4613cb6565b8152602001906001900390816117cc5790505b50905060005b82518110156119b457600083828151811061180b5761180a6142da565b5b602002602001015181548110611824576118236142da565b5b906000526020600020906008020160405180610100016040529081600082015481526020016001820160009054906101000a900473ffffffffffffffffffffffffffffffffffffffff1673ffffffffffffffffffffffffffffffffffffffff1673ffffffffffffffffffffffffffffffffffffffff1681526020016002820160009054906101000a900473ffffffffffffffffffffffffffffffffffffffff1673ffffffffffffffffffffffffffffffffffffffff1673ffffffffffffffffffffffffffffffffffffffff1681526020016003820160009054906101000a900473ffffffffffffffffffffffffffffffffffffffff1673ffffffffffffffffffffffffffffffffffffffff1673ffffffffffffffffffffffffffffffffffffffff1681526020016004820154815260200160058201548152602001600682015481526020016007820160009054906101000a900460ff161515151581525050828281518110611996576119956142da565b5b602002602001018190525080806119ac90614742565b9150506117ed565b508092505050919050565b600260205281600052604060002081815481106119db57600080fd5b90600052602060002001600091509150505481565b6000600160003373ffffffffffffffffffffffffffffffffffffffff1673ffffffffffffffffffffffffffffffffffffffff168152602001908152602001600020805480602002602001604051908101604052809291908181526020018280548015611a7b57602002820191906000526020600020905b815481526020019060010190808311611a67575b505050505090506000815167ffffffffffffffff811115611a9f57611a9e614948565b5b604051908082528060200260200182016040528015611acd5781602001602082028036833780820191505090505b50905060005b8251811015611e1c57600080848381518110611af257611af16142da565b5b602002602001015181548110611b0b57611b0a6142da565b5b906000526020600020906008020160405180610100016040529081600082015481526020016001820160009054906101000a900473ffffffffffffffffffffffffffffffffffffffff1673ffffffffffffffffffffffffffffffffffffffff1673ffffffffffffffffffffffffffffffffffffffff1681526020016002820160009054906101000a900473ffffffffffffffffffffffffffffffffffffffff1673ffffffffffffffffffffffffffffffffffffffff1673ffffffffffffffffffffffffffffffffffffffff1681526020016003820160009054906101000a900473ffffffffffffffffffffffffffffffffffffffff1673ffffffffffffffffffffffffffffffffffffffff1673ffffffffffffffffffffffffffffffffffffffff1681526020016004820154815260200160058201548152602001600682015481526020016007820160009054906101000a900460ff16151515158152505090506000428260a00151611c7e9190614977565b90508082608001818152505080848481518110611c9e57611c9d6142da565b5b602002602001018181525050816000868581518110611cc057611cbf6142da565b5b602002602001015181548110611cd957611cd86142da565b5b90600052602060002090600802016000820151816000015560208201518160010160006101000a81548173ffffffffffffffffffffffffffffffffffffffff021916908373ffffffffffffffffffffffffffffffffffffffff16021790555060408201518160020160006101000a81548173ffffffffffffffffffffffffffffffffffffffff021916908373ffffffffffffffffffffffffffffffffffffffff16021790555060608201518160030160006101000a81548173ffffffffffffffffffffffffffffffffffffffff021916908373ffffffffffffffffffffffffffffffffffffffff1602179055506080820151816004015560a0820151816005015560c0820151816006015560e08201518160070160006101000a81548160ff02191690831515021790555090505050508080611e1490614742565b915050611ad3565b507f0e6cb619afa09f01deabf9f7836949d0de1ba277b61637c5335e8b3017646cdb823383604051611e5093929190614a5a565b60405180910390a15050565b6000808281548110611e7157611e706142da565b5b906000526020600020906008020160405180610100016040529081600082015481526020016001820160009054906101000a900473ffffffffffffffffffffffffffffffffffffffff1673ffffffffffffffffffffffffffffffffffffffff1673ffffffffffffffffffffffffffffffffffffffff1681526020016002820160009054906101000a900473ffffffffffffffffffffffffffffffffffffffff1673ffffffffffffffffffffffffffffffffffffffff1673ffffffffffffffffffffffffffffffffffffffff1681526020016003820160009054906101000a900473ffffffffffffffffffffffffffffffffffffffff1673ffffffffffffffffffffffffffffffffffffffff1673ffffffffffffffffffffffffffffffffffffffff1681526020016004820154815260200160058201548152602001600682015481526020016007820160009054906101000a900460ff16151515158152505090503373ffffffffffffffffffffffffffffffffffffffff16816020015173ffffffffffffffffffffffffffffffffffffffff1614612044576040517f08c379a000000000000000000000000000000000000000000000000000000000815260040161203b90614366565b60405180910390fd5b600015158160e0015115151461208f576040517f08c379a0000000000000000000000000000000000000000000000000000000008152600401612086906143d2565b60405180910390fd5b6000600160003373ffffffffffffffffffffffffffffffffffffffff1673ffffffffffffffffffffffffffffffffffffffff16815260200190815260200160002080548060200260200160405190810160405280929190818152602001828054801561211a57602002820191906000526020600020905b815481526020019060010190808311612106575b50505050509050600060026000846040015173ffffffffffffffffffffffffffffffffffffffff1673ffffffffffffffffffffffffffffffffffffffff1681526020019081526020016000208054806020026020016040519081016040528092919081815260200182805480156121b057602002820191906000526020600020905b81548152602001906001019080831161219c575b5050505050905060005b82518110156122e457848382815181106121d7576121d66142da565b5b6020026020010151036122d15782600184516121f391906146df565b81518110612204576122036142da565b5b6020026020010151600160003373ffffffffffffffffffffffffffffffffffffffff1673ffffffffffffffffffffffffffffffffffffffff168152602001908152602001600020828154811061225d5761225c6142da565b5b9060005260206000200181905550600160003373ffffffffffffffffffffffffffffffffffffffff1673ffffffffffffffffffffffffffffffffffffffff1681526020019081526020016000208054806122ba576122b9614713565b5b600190038181906000526020600020016000905590555b80806122dc90614742565b9150506121ba565b5060005b815181101561241a5784828281518110612305576123046142da565b5b60200260200101510361240757816001835161232191906146df565b81518110612332576123316142da565b5b602002602001015160026000866040015173ffffffffffffffffffffffffffffffffffffffff1673ffffffffffffffffffffffffffffffffffffffff168152602001908152602001600020828154811061238f5761238e6142da565b5b906000526020600020018190555060026000856040015173ffffffffffffffffffffffffffffffffffffffff1673ffffffffffffffffffffffffffffffffffffffff1681526020019081526020016000208054806123f0576123ef614713565b5b600190038181906000526020600020016000905590555b808061241290614742565b9150506122e8565b506000848154811061242f5761242e6142da565b5b90600052602060002090600802016000808201600090556001820160006101000a81549073ffffffffffffffffffffffffffffffffffffffff02191690556002820160006101000a81549073ffffffffffffffffffffffffffffffffffffffff02191690556003820160006101000a81549073ffffffffffffffffffffffffffffffffffffffff02191690556004820160009055600582016000905560068201600090556007820160006101000a81549060ff021916905550507f2e6ce80b05d67b5aba812f8e95333d141bb7fd2d335f955800635cfdbbb8630e8433856040015160405161252093929190614a9f565b60405180910390a150505050565b60606000600260008473ffffffffffffffffffffffffffffffffffffffff1673ffffffffffffffffffffffffffffffffffffffff1681526020019081526020016000208054806020026020016040519081016040528092919081815260200182805480156125bb57602002820191906000526020600020905b8154815260200190600101908083116125a7575b505050505090506000815167ffffffffffffffff8111156125df576125de614948565b5b60405190808252806020026020018201604052801561261857816020015b612605613cb6565b8152602001906001900390816125fd5790505b50905060005b82518110156127e557600083828151811061263c5761263b6142da565b5b602002602001015181548110612655576126546142da565b5b906000526020600020906008020160405180610100016040529081600082015481526020016001820160009054906101000a900473ffffffffffffffffffffffffffffffffffffffff1673ffffffffffffffffffffffffffffffffffffffff1673ffffffffffffffffffffffffffffffffffffffff1681526020016002820160009054906101000a900473ffffffffffffffffffffffffffffffffffffffff1673ffffffffffffffffffffffffffffffffffffffff1673ffffffffffffffffffffffffffffffffffffffff1681526020016003820160009054906101000a900473ffffffffffffffffffffffffffffffffffffffff1673ffffffffffffffffffffffffffffffffffffffff1673ffffffffffffffffffffffffffffffffffffffff1681526020016004820154815260200160058201548152602001600682015481526020016007820160009054906101000a900460ff1615151515815250508282815181106127c7576127c66142da565b5b602002602001018190525080806127dd90614742565b91505061261e565b508092505050919050565b6001602052816000526040600020818154811061280c57600080fd5b90600052602060002001600091509150505481565b600073ffffffffffffffffffffffffffffffffffffffff168473ffffffffffffffffffffffffffffffffffffffff1603612890576040517f08c379a000000000000000000000000000000000000000000000000000000000815260040161288790614b22565b60405180910390fd5b600073ffffffffffffffffffffffffffffffffffffffff168373ffffffffffffffffffffffffffffffffffffffff16036128ff576040517f08c379a00000000000000000000000000000000000000000000000000000000081526004016128f690614b8e565b60405180910390fd5b428211612941576040517f08c379a0000000000000000000000000000000000000000000000000000000008152600401612938906148e3565b60405180910390fd5b60008103612984576040517f08c379a000000000000000000000000000000000000000000000000000000000815260040161297b9061443e565b60405180910390fd5b600083905060006129953386612d5f565b905060008273ffffffffffffffffffffffffffffffffffffffff1663dd62ed3e33306040518363ffffffff1660e01b81526004016129d49291906144ca565b602060405180830381865afa1580156129f1573d6000803e3d6000fd5b505050506040513d601f19601f82011682018060405250810190612a159190614508565b90508184612a239190614977565b811015612a65576040517f08c379a0000000000000000000000000000000000000000000000000000000008152600401612a5c90614581565b60405180910390fd5b60008080549050905060006040518061010001604052808381526020013373ffffffffffffffffffffffffffffffffffffffff1681526020018a73ffffffffffffffffffffffffffffffffffffffff1681526020018973ffffffffffffffffffffffffffffffffffffffff1681526020018881526020014289612ae891906146df565b8152602001878152602001600015158152509050600160003373ffffffffffffffffffffffffffffffffffffffff1673ffffffffffffffffffffffffffffffffffffffff168152602001908152602001600020829080600181540180825580915050600190039060005260206000200160009091909190915055600260008a73ffffffffffffffffffffffffffffffffffffffff1673ffffffffffffffffffffffffffffffffffffffff16815260200190815260200160002082908060018154018082558091505060019003906000526020600020016000909190919091505560008190806001815401808255809150506001900390600052602060002090600802016000909190919091506000820151816000015560208201518160010160006101000a81548173ffffffffffffffffffffffffffffffffffffffff021916908373ffffffffffffffffffffffffffffffffffffffff16021790555060408201518160020160006101000a81548173ffffffffffffffffffffffffffffffffffffffff021916908373ffffffffffffffffffffffffffffffffffffffff16021790555060608201518160030160006101000a81548173ffffffffffffffffffffffffffffffffffffffff021916908373ffffffffffffffffffffffffffffffffffffffff1602179055506080820151816004015560a0820151816005015560c0820151816006015560e08201518160070160006101000a81548160ff02191690831515021790555050507f13f4f2b8e248db04b9c06909af2f8eb5954c0a467baaa4823e14a9f55dee9b4582338b8b8b8b604051612d4c96959493929190614bae565b60405180910390a1505050505050505050565b600080600160008573ffffffffffffffffffffffffffffffffffffffff1673ffffffffffffffffffffffffffffffffffffffff168152602001908152602001600020805480602002602001604051908101604052809291908181526020018280548015612deb57602002820191906000526020600020905b815481526020019060010190808311612dd7575b505050505090506000805b825181101561302857600080848381518110612e1557612e146142da565b5b602002602001015181548110612e2e57612e2d6142da565b5b906000526020600020906008020160405180610100016040529081600082015481526020016001820160009054906101000a900473ffffffffffffffffffffffffffffffffffffffff1673ffffffffffffffffffffffffffffffffffffffff1673ffffffffffffffffffffffffffffffffffffffff1681526020016002820160009054906101000a900473ffffffffffffffffffffffffffffffffffffffff1673ffffffffffffffffffffffffffffffffffffffff1673ffffffffffffffffffffffffffffffffffffffff1681526020016003820160009054906101000a900473ffffffffffffffffffffffffffffffffffffffff1673ffffffffffffffffffffffffffffffffffffffff1673ffffffffffffffffffffffffffffffffffffffff1681526020016004820154815260200160058201548152602001600682015481526020016007820160009054906101000a900460ff1615151515815250509050806060015173ffffffffffffffffffffffffffffffffffffffff168673ffffffffffffffffffffffffffffffffffffffff1603613014576000848381518110612fdb57612fda6142da565b5b602002602001015181548110612ff457612ff36142da565b5b906000526020600020906008020160060154836130119190614977565b92505b50808061302090614742565b915050612df6565b50809250505092915050565b6000808381548110613049576130486142da565b5b906000526020600020906008020160405180610100016040529081600082015481526020016001820160009054906101000a900473ffffffffffffffffffffffffffffffffffffffff1673ffffffffffffffffffffffffffffffffffffffff1673ffffffffffffffffffffffffffffffffffffffff1681526020016002820160009054906101000a900473ffffffffffffffffffffffffffffffffffffffff1673ffffffffffffffffffffffffffffffffffffffff1673ffffffffffffffffffffffffffffffffffffffff1681526020016003820160009054906101000a900473ffffffffffffffffffffffffffffffffffffffff1673ffffffffffffffffffffffffffffffffffffffff1673ffffffffffffffffffffffffffffffffffffffff1681526020016004820154815260200160058201548152602001600682015481526020016007820160009054906101000a900460ff16151515158152505090503373ffffffffffffffffffffffffffffffffffffffff16816020015173ffffffffffffffffffffffffffffffffffffffff161461321c576040517f08c379a000000000000000000000000000000000000000000000000000000000815260040161321390614366565b60405180910390fd5b8173ffffffffffffffffffffffffffffffffffffffff16816040015173ffffffffffffffffffffffffffffffffffffffff160361328e576040517f08c379a000000000000000000000000000000000000000000000000000000000815260040161328590614c5b565b60405180910390fd5b600073ffffffffffffffffffffffffffffffffffffffff16816040015173ffffffffffffffffffffffffffffffffffffffff1603613301576040517f08c379a00000000000000000000000000000000000000000000000000000000081526004016132f890614b22565b60405180910390fd5b600015158160e0015115151461334c576040517f08c379a0000000000000000000000000000000000000000000000000000000008152600401613343906143d2565b60405180910390fd5b600060026000836040015173ffffffffffffffffffffffffffffffffffffffff1673ffffffffffffffffffffffffffffffffffffffff1681526020019081526020016000208054806020026020016040519081016040528092919081815260200182805480156133db57602002820191906000526020600020905b8154815260200190600101908083116133c7575b5050505050905060005b81518110156135175784828281518110613402576134016142da565b5b60200260200101510361350457816001835161341e91906146df565b8151811061342f5761342e6142da565b5b602002602001015160026000856040015173ffffffffffffffffffffffffffffffffffffffff1673ffffffffffffffffffffffffffffffffffffffff168152602001908152602001600020828154811061348c5761348b6142da565b5b906000526020600020018190555060026000846040015173ffffffffffffffffffffffffffffffffffffffff1673ffffffffffffffffffffffffffffffffffffffff1681526020019081526020016000208054806134ed576134ec614713565b5b600190038181906000526020600020016000905590555b808061350f90614742565b9150506133e5565b50600260008473ffffffffffffffffffffffffffffffffffffffff1673ffffffffffffffffffffffffffffffffffffffff16815260200190815260200160002084908060018154018082558091505060019003906000526020600020016000909190919091505582826040019073ffffffffffffffffffffffffffffffffffffffff16908173ffffffffffffffffffffffffffffffffffffffff168152505081600085815481106135cb576135ca6142da565b5b90600052602060002090600802016000820151816000015560208201518160010160006101000a81548173ffffffffffffffffffffffffffffffffffffffff021916908373ffffffffffffffffffffffffffffffffffffffff16021790555060408201518160020160006101000a81548173ffffffffffffffffffffffffffffffffffffffff021916908373ffffffffffffffffffffffffffffffffffffffff16021790555060608201518160030160006101000a81548173ffffffffffffffffffffffffffffffffffffffff021916908373ffffffffffffffffffffffffffffffffffffffff1602179055506080820151816004015560a0820151816005015560c0820151816006015560e08201518160070160006101000a81548160ff0219169083151502179055509050507f2ae974d7f90755778f8a13273920e403d2265f2f0063297e45c50d873f3fad6f84338560405161372c93929190614a9f565b60405180910390a150505050565b600080828154811061374f5761374e6142da565b5b906000526020600020906008020160405180610100016040529081600082015481526020016001820160009054906101000a900473ffffffffffffffffffffffffffffffffffffffff1673ffffffffffffffffffffffffffffffffffffffff1673ffffffffffffffffffffffffffffffffffffffff1681526020016002820160009054906101000a900473ffffffffffffffffffffffffffffffffffffffff1673ffffffffffffffffffffffffffffffffffffffff1673ffffffffffffffffffffffffffffffffffffffff1681526020016003820160009054906101000a900473ffffffffffffffffffffffffffffffffffffffff1673ffffffffffffffffffffffffffffffffffffffff1673ffffffffffffffffffffffffffffffffffffffff1681526020016004820154815260200160058201548152602001600682015481526020016007820160009054906101000a900460ff16151515158152505090503373ffffffffffffffffffffffffffffffffffffffff16816020015173ffffffffffffffffffffffffffffffffffffffff1614613922576040517f08c379a000000000000000000000000000000000000000000000000000000000815260040161391990614366565b60405180910390fd5b6000428260a001516139349190614977565b9050808260800181815250508160008481548110613955576139546142da565b5b90600052602060002090600802016000820151816000015560208201518160010160006101000a81548173ffffffffffffffffffffffffffffffffffffffff021916908373ffffffffffffffffffffffffffffffffffffffff16021790555060408201518160020160006101000a81548173ffffffffffffffffffffffffffffffffffffffff021916908373ffffffffffffffffffffffffffffffffffffffff16021790555060608201518160030160006101000a81548173ffffffffffffffffffffffffffffffffffffffff021916908373ffffffffffffffffffffffffffffffffffffffff1602179055506080820151816004015560a0820151816005015560c0820151816006015560e08201518160070160006101000a81548160ff0219169083151502179055509050506000600167ffffffffffffffff811115613aa057613a9f614948565b5b604051908082528060200260200182016040528015613ace5781602001602082028036833780820191505090505b5090508181600081518110613ae657613ae56142da565b5b6020026020010181815250506000600167ffffffffffffffff811115613b0f57613b0e614948565b5b604051908082528060200260200182016040528015613b3d5781602001602082028036833780820191505090505b5090508481600081518110613b5557613b546142da565b5b6020026020010181815250507f0e6cb619afa09f01deabf9f7836949d0de1ba277b61637c5335e8b3017646cdb813384604051613b9493929190614a5a565b60405180910390a15050505050565b60008181548110613bb357600080fd5b90600052602060002090600802016000915090508060000154908060010160009054906101000a900473ffffffffffffffffffffffffffffffffffffffff16908060020160009054906101000a900473ffffffffffffffffffffffffffffffffffffffff16908060030160009054906101000a900473ffffffffffffffffffffffffffffffffffffffff16908060040154908060050154908060060154908060070160009054906101000a900460ff16905088565b6001151583151503613c7f57613c7e87876112c7565b5b6001151582151503613c9657613c958786613034565b5b6001151581151503613cad57613cac878561030b565b5b50505050505050565b60405180610100016040528060008152602001600073ffffffffffffffffffffffffffffffffffffffff168152602001600073ffffffffffffffffffffffffffffffffffffffff168152602001600073ffffffffffffffffffffffffffffffffffffffff1681526020016000815260200160008152602001600081526020016000151581525090565b600080fd5b6000819050919050565b613d5781613d44565b8114613d6257600080fd5b50565b600081359050613d7481613d4e565b92915050565b60008060408385031215613d9157613d90613d3f565b5b6000613d9f85828601613d65565b9250506020613db085828601613d65565b9150509250929050565b600060208284031215613dd057613dcf613d3f565b5b6000613dde84828501613d65565b91505092915050565b600073ffffffffffffffffffffffffffffffffffffffff82169050919050565b6000613e1282613de7565b9050919050565b613e2281613e07565b8114613e2d57600080fd5b50565b600081359050613e3f81613e19565b92915050565b600060208284031215613e5b57613e5a613d3f565b5b6000613e6984828501613e30565b91505092915050565b600081519050919050565b600082825260208201905092915050565b6000819050602082019050919050565b613ea781613d44565b82525050565b613eb681613e07565b82525050565b60008115159050919050565b613ed181613ebc565b82525050565b61010082016000820151613eee6000850182613e9e565b506020820151613f016020850182613ead565b506040820151613f146040850182613ead565b506060820151613f276060850182613ead565b506080820151613f3a6080850182613e9e565b5060a0820151613f4d60a0850182613e9e565b5060c0820151613f6060c0850182613e9e565b5060e0820151613f7360e0850182613ec8565b50505050565b6000613f858383613ed7565b6101008301905092915050565b6000602082019050919050565b6000613faa82613e72565b613fb48185613e7d565b9350613fbf83613e8e565b8060005b83811015613ff0578151613fd78882613f79565b9750613fe283613f92565b925050600181019050613fc3565b5085935050505092915050565b600060208201905081810360008301526140178184613f9f565b905092915050565b6000806040838503121561403657614035613d3f565b5b600061404485828601613e30565b925050602061405585828601613d65565b9150509250929050565b61406881613d44565b82525050565b6000602082019050614083600083018461405f565b92915050565b600080600080608085870312156140a3576140a2613d3f565b5b60006140b187828801613e30565b94505060206140c287828801613e30565b93505060406140d387828801613d65565b92505060606140e487828801613d65565b91505092959194509250565b6000806040838503121561410757614106613d3f565b5b600061411585828601613e30565b925050602061412685828601613e30565b9150509250929050565b6000806040838503121561414757614146613d3f565b5b600061415585828601613d65565b925050602061416685828601613e30565b9150509250929050565b61417981613e07565b82525050565b61418881613ebc565b82525050565b6000610100820190506141a4600083018b61405f565b6141b1602083018a614170565b6141be6040830189614170565b6141cb6060830188614170565b6141d8608083018761405f565b6141e560a083018661405f565b6141f260c083018561405f565b6141ff60e083018461417f565b9998505050505050505050565b61421581613ebc565b811461422057600080fd5b50565b6000813590506142328161420c565b92915050565b600080600080600080600060e0888a03121561425757614256613d3f565b5b60006142658a828b01613d65565b97505060206142768a828b01613d65565b96505060406142878a828b01613e30565b95505060606142988a828b01613d65565b94505060806142a98a828b01614223565b93505060a06142ba8a828b01614223565b92505060c06142cb8a828b01614223565b91505092959891949750929550565b7f4e487b7100000000000000000000000000000000000000000000000000000000600052603260045260246000fd5b600082825260208201905092915050565b7f6457696c6c3a20596f75206e6f74206f776e6572000000000000000000000000600082015250565b6000614350601483614309565b915061435b8261431a565b602082019050919050565b6000602082019050818103600083015261437f81614343565b9050919050565b7f6457696c6c3a20416c72656164792077697468647261776e0000000000000000600082015250565b60006143bc601883614309565b91506143c782614386565b602082019050919050565b600060208201905081810360008301526143eb816143af565b9050919050565b7f6457696c6c3a20416d6f756e7420300000000000000000000000000000000000600082015250565b6000614428600f83614309565b9150614433826143f2565b602082019050919050565b600060208201905081810360008301526144578161441b565b9050919050565b7f6457696c6c3a20416d6f756e74206973207468652073616d6500000000000000600082015250565b6000614494601983614309565b915061449f8261445e565b602082019050919050565b600060208201905081810360008301526144c381614487565b9050919050565b60006040820190506144df6000830185614170565b6144ec6020830184614170565b9392505050565b60008151905061450281613d4e565b92915050565b60006020828403121561451e5761451d613d3f565b5b600061452c848285016144f3565b91505092915050565b7f6457696c6c3a204e6f7420656e6f75676820616c6c6f77616e63650000000000600082015250565b600061456b601b83614309565b915061457682614535565b602082019050919050565b6000602082019050818103600083015261459a8161455e565b9050919050565b60006060820190506145b6600083018661405f565b6145c36020830185614170565b6145d0604083018461405f565b949350505050565b7f6457696c6c3a20596f75206e6f74206865697200000000000000000000000000600082015250565b600061460e601383614309565b9150614619826145d8565b602082019050919050565b6000602082019050818103600083015261463d81614601565b9050919050565b7f6457696c6c3a2054696d65206973206e6f74206f766572207965740000000000600082015250565b600061467a601b83614309565b915061468582614644565b602082019050919050565b600060208201905081810360008301526146a98161466d565b9050919050565b7f4e487b7100000000000000000000000000000000000000000000000000000000600052601160045260246000fd5b60006146ea82613d44565b91506146f583613d44565b925082820390508181111561470d5761470c6146b0565b5b92915050565b7f4e487b7100000000000000000000000000000000000000000000000000000000600052603160045260246000fd5b600061474d82613d44565b91507fffffffffffffffffffffffffffffffffffffffffffffffffffffffffffffffff820361477f5761477e6146b0565b5b600182019050919050565b600060208201905061479f6000830184614170565b92915050565b60006060820190506147ba6000830186614170565b6147c76020830185614170565b6147d4604083018461405f565b949350505050565b6000815190506147eb8161420c565b92915050565b60006020828403121561480757614806613d3f565b5b6000614815848285016147dc565b91505092915050565b600060a082019050614833600083018861405f565b6148406020830187614170565b61484d6040830186614170565b61485a606083018561405f565b614867608083018461405f565b9695505050505050565b7f6457696c6c3a2054696d65207768656e207769746864726177206973206c6f7760008201527f6572207468656e206e6f77000000000000000000000000000000000000000000602082015250565b60006148cd602b83614309565b91506148d882614871565b604082019050919050565b600060208201905081810360008301526148fc816148c0565b9050919050565b6000608082019050614918600083018761405f565b6149256020830186614170565b6149326040830185614170565b61493f606083018461405f565b95945050505050565b7f4e487b7100000000000000000000000000000000000000000000000000000000600052604160045260246000fd5b600061498282613d44565b915061498d83613d44565b92508282019050808211156149a5576149a46146b0565b5b92915050565b600081519050919050565b600082825260208201905092915050565b6000819050602082019050919050565b60006149e38383613e9e565b60208301905092915050565b6000602082019050919050565b6000614a07826149ab565b614a1181856149b6565b9350614a1c836149c7565b8060005b83811015614a4d578151614a3488826149d7565b9750614a3f836149ef565b925050600181019050614a20565b5085935050505092915050565b60006060820190508181036000830152614a7481866149fc565b9050614a836020830185614170565b8181036040830152614a9581846149fc565b9050949350505050565b6000606082019050614ab4600083018661405f565b614ac16020830185614170565b614ace6040830184614170565b949350505050565b7f6457696c6c3a2048656972206973206164647265737328302900000000000000600082015250565b6000614b0c601983614309565b9150614b1782614ad6565b602082019050919050565b60006020820190508181036000830152614b3b81614aff565b9050919050565b7f6457696c6c3a20546f6b656e2069732061646472657373283029000000000000600082015250565b6000614b78601a83614309565b9150614b8382614b42565b602082019050919050565b60006020820190508181036000830152614ba781614b6b565b9050919050565b600060c082019050614bc3600083018961405f565b614bd06020830188614170565b614bdd6040830187614170565b614bea6060830186614170565b614bf7608083018561405f565b614c0460a083018461405f565b979650505050505050565b7f6457696c6c3a2053616d65206865697200000000000000000000000000000000600082015250565b6000614c45601083614309565b9150614c5082614c0f565b602082019050919050565b60006020820190508181036000830152614c7481614c38565b905091905056fea2646970667358221220b8a9d2aa84f00c117ef603ea77d13f94a3c01fb97bb8616c9485a85685ef08e264736f6c63430008110033",
  "linkReferences": {},
  "deployedLinkReferences": {}
}