{
  "_format": "hh-sol-artifact-1",
  "contractName": "dWill",
  "sourceName": "contracts/dWill.sol",
  "abi": [
    {
      "anonymous": false,
      "inputs": [
        {
          "indexed": false,
          "internalType": "uint256",
          "name": "ID",
          "type": "uint256"
        },
        {
          "indexed": false,
          "internalType": "address",
          "name": "owner",
          "type": "address"
        },
        {
          "indexed": false,
          "internalType": "address",
          "name": "heir",
          "type": "address"
        },
        {
          "indexed": false,
          "internalType": "address",
          "name": "token",
          "type": "address"
        },
        {
          "indexed": false,
          "internalType": "uint256",
          "name": "timeWhenWithdraw",
          "type": "uint256"
        },
        {
          "indexed": false,
          "internalType": "uint256",
          "name": "amount",
          "type": "uint256"
        }
      ],
      "name": "AddAnHeir",
      "type": "event"
    },
    {
      "anonymous": false,
      "inputs": [
        {
          "indexed": false,
          "internalType": "uint256",
          "name": "ID",
          "type": "uint256"
        },
        {
          "indexed": false,
          "internalType": "address",
          "name": "owner",
          "type": "address"
        },
        {
          "indexed": false,
          "internalType": "address",
          "name": "heir",
          "type": "address"
        }
      ],
      "name": "RemoveWill",
      "type": "event"
    },
    {
      "anonymous": false,
      "inputs": [
        {
          "indexed": false,
          "internalType": "uint256[]",
          "name": "IDs",
          "type": "uint256[]"
        },
        {
          "indexed": false,
          "internalType": "address",
          "name": "owner",
          "type": "address"
        },
        {
          "indexed": false,
          "internalType": "uint256[]",
          "name": "newTimes",
          "type": "uint256[]"
        }
      ],
      "name": "ResetTimers",
      "type": "event"
    },
    {
      "anonymous": false,
      "inputs": [
        {
          "indexed": false,
          "internalType": "uint256",
          "name": "ID",
          "type": "uint256"
        },
        {
          "indexed": false,
          "internalType": "address",
          "name": "owner",
          "type": "address"
        },
        {
          "indexed": false,
          "internalType": "uint256",
          "name": "newAmount",
          "type": "uint256"
        }
      ],
      "name": "UpdateAmount",
      "type": "event"
    },
    {
      "anonymous": false,
      "inputs": [
        {
          "indexed": false,
          "internalType": "uint256",
          "name": "ID",
          "type": "uint256"
        },
        {
          "indexed": false,
          "internalType": "address",
          "name": "owner",
          "type": "address"
        },
        {
          "indexed": false,
          "internalType": "address",
          "name": "newHeir",
          "type": "address"
        }
      ],
      "name": "UpdateAnHeir",
      "type": "event"
    },
    {
      "anonymous": false,
      "inputs": [
        {
          "indexed": false,
          "internalType": "uint256",
          "name": "ID",
          "type": "uint256"
        },
        {
          "indexed": false,
          "internalType": "address",
          "name": "owner",
          "type": "address"
        },
        {
          "indexed": false,
          "internalType": "address",
          "name": "heir",
          "type": "address"
        },
        {
          "indexed": false,
          "internalType": "uint256",
          "name": "newTime",
          "type": "uint256"
        }
      ],
      "name": "UpdateWillTimeWhenWithdraw",
      "type": "event"
    },
    {
      "anonymous": false,
      "inputs": [
        {
          "indexed": false,
          "internalType": "uint256",
          "name": "ID",
          "type": "uint256"
        },
        {
          "indexed": false,
          "internalType": "address",
          "name": "owner",
          "type": "address"
        },
        {
          "indexed": false,
          "internalType": "address",
          "name": "heir",
          "type": "address"
        },
        {
          "indexed": false,
          "internalType": "uint256",
          "name": "timeWhenWithdrawn",
          "type": "uint256"
        },
        {
          "indexed": false,
          "internalType": "uint256",
          "name": "amount",
          "type": "uint256"
        }
      ],
      "name": "Withdraw",
      "type": "event"
    },
    {
      "inputs": [
        {
          "internalType": "address",
          "name": "heir",
          "type": "address"
        },
        {
          "internalType": "address",
          "name": "token",
          "type": "address"
        },
        {
          "internalType": "uint256",
          "name": "timeWhenWithdraw",
          "type": "uint256"
        },
        {
          "internalType": "uint256",
          "name": "amount",
          "type": "uint256"
        }
      ],
      "name": "addNewWill",
      "outputs": [],
      "stateMutability": "nonpayable",
      "type": "function"
    },
    {
      "inputs": [
        {
          "internalType": "address",
          "name": "heir",
          "type": "address"
        }
      ],
      "name": "getAllInheritances",
      "outputs": [
        {
          "components": [
            {
              "internalType": "uint256",
              "name": "ID",
              "type": "uint256"
            },
            {
              "internalType": "address",
              "name": "owner",
              "type": "address"
            },
            {
              "internalType": "address",
              "name": "heir",
              "type": "address"
            },
            {
              "internalType": "address",
              "name": "token",
              "type": "address"
            },
            {
              "internalType": "uint256",
              "name": "timeWhenWithdraw",
              "type": "uint256"
            },
            {
              "internalType": "uint256",
              "name": "timeBetweenWithdrawAndStart",
              "type": "uint256"
            },
            {
              "internalType": "uint256",
              "name": "amount",
              "type": "uint256"
            },
            {
              "internalType": "bool",
              "name": "done",
              "type": "bool"
            }
          ],
          "internalType": "struct IHeritage.InheritanceData[]",
          "name": "",
          "type": "tuple[]"
        }
      ],
      "stateMutability": "view",
      "type": "function"
    },
    {
      "inputs": [
        {
          "internalType": "address",
          "name": "owner",
          "type": "address"
        }
      ],
      "name": "getAllWills",
      "outputs": [
        {
          "components": [
            {
              "internalType": "uint256",
              "name": "ID",
              "type": "uint256"
            },
            {
              "internalType": "address",
              "name": "owner",
              "type": "address"
            },
            {
              "internalType": "address",
              "name": "heir",
              "type": "address"
            },
            {
              "internalType": "address",
              "name": "token",
              "type": "address"
            },
            {
              "internalType": "uint256",
              "name": "timeWhenWithdraw",
              "type": "uint256"
            },
            {
              "internalType": "uint256",
              "name": "timeBetweenWithdrawAndStart",
              "type": "uint256"
            },
            {
              "internalType": "uint256",
              "name": "amount",
              "type": "uint256"
            },
            {
              "internalType": "bool",
              "name": "done",
              "type": "bool"
            }
          ],
          "internalType": "struct IHeritage.InheritanceData[]",
          "name": "",
          "type": "tuple[]"
        }
      ],
      "stateMutability": "view",
      "type": "function"
    },
    {
      "inputs": [
        {
          "internalType": "address",
          "name": "owner",
          "type": "address"
        },
        {
          "internalType": "address",
          "name": "token",
          "type": "address"
        }
      ],
      "name": "getAllWillsAmountThisToken",
      "outputs": [
        {
          "internalType": "uint256",
          "name": "",
          "type": "uint256"
        }
      ],
      "stateMutability": "view",
      "type": "function"
    },
    {
      "inputs": [
        {
          "internalType": "uint256",
          "name": "",
          "type": "uint256"
        }
      ],
      "name": "inheritanceData",
      "outputs": [
        {
          "internalType": "uint256",
          "name": "ID",
          "type": "uint256"
        },
        {
          "internalType": "address",
          "name": "owner",
          "type": "address"
        },
        {
          "internalType": "address",
          "name": "heir",
          "type": "address"
        },
        {
          "internalType": "address",
          "name": "token",
          "type": "address"
        },
        {
          "internalType": "uint256",
          "name": "timeWhenWithdraw",
          "type": "uint256"
        },
        {
          "internalType": "uint256",
          "name": "timeBetweenWithdrawAndStart",
          "type": "uint256"
        },
        {
          "internalType": "uint256",
          "name": "amount",
          "type": "uint256"
        },
        {
          "internalType": "bool",
          "name": "done",
          "type": "bool"
        }
      ],
      "stateMutability": "view",
      "type": "function"
    },
    {
      "inputs": [
        {
          "internalType": "address",
          "name": "",
          "type": "address"
        },
        {
          "internalType": "uint256",
          "name": "",
          "type": "uint256"
        }
      ],
      "name": "inheritancesHeir",
      "outputs": [
        {
          "internalType": "uint256",
          "name": "",
          "type": "uint256"
        }
      ],
      "stateMutability": "view",
      "type": "function"
    },
    {
      "inputs": [
        {
          "internalType": "address",
          "name": "",
          "type": "address"
        },
        {
          "internalType": "uint256",
          "name": "",
          "type": "uint256"
        }
      ],
      "name": "inheritancesOwner",
      "outputs": [
        {
          "internalType": "uint256",
          "name": "",
          "type": "uint256"
        }
      ],
      "stateMutability": "view",
      "type": "function"
    },
    {
      "inputs": [
        {
          "internalType": "uint256",
          "name": "ID",
          "type": "uint256"
        }
      ],
      "name": "removeWill",
      "outputs": [],
      "stateMutability": "nonpayable",
      "type": "function"
    },
    {
      "inputs": [],
      "name": "resetTimers",
      "outputs": [],
      "stateMutability": "nonpayable",
      "type": "function"
    },
    {
      "inputs": [
        {
          "internalType": "uint256",
          "name": "ID",
          "type": "uint256"
        }
      ],
      "name": "resetTimersAtOne",
      "outputs": [],
      "stateMutability": "nonpayable",
      "type": "function"
    },
    {
      "inputs": [
        {
          "internalType": "uint256",
          "name": "ID",
          "type": "uint256"
        },
        {
          "internalType": "uint256",
          "name": "newTime",
          "type": "uint256"
        },
        {
          "internalType": "address",
          "name": "_heir",
          "type": "address"
        },
        {
          "internalType": "uint256",
          "name": "amount",
          "type": "uint256"
        },
        {
          "internalType": "bool",
          "name": "_updateTime",
          "type": "bool"
        },
        {
          "internalType": "bool",
          "name": "_updateHeir",
          "type": "bool"
        },
        {
          "internalType": "bool",
          "name": "_updateAmount",
          "type": "bool"
        }
      ],
      "name": "update",
      "outputs": [],
      "stateMutability": "nonpayable",
      "type": "function"
    },
    {
      "inputs": [
        {
          "internalType": "uint256",
          "name": "ID",
          "type": "uint256"
        },
        {
          "internalType": "uint256",
          "name": "amount",
          "type": "uint256"
        }
      ],
      "name": "updateAmount",
      "outputs": [],
      "stateMutability": "nonpayable",
      "type": "function"
    },
    {
      "inputs": [
        {
          "internalType": "uint256",
          "name": "ID",
          "type": "uint256"
        },
        {
          "internalType": "address",
          "name": "_heir",
          "type": "address"
        }
      ],
      "name": "updateAnHeir",
      "outputs": [],
      "stateMutability": "nonpayable",
      "type": "function"
    },
    {
      "inputs": [
        {
          "internalType": "uint256",
          "name": "ID",
          "type": "uint256"
        },
        {
          "internalType": "uint256",
          "name": "newTime",
          "type": "uint256"
        }
      ],
      "name": "updateWillTimeWhenWithdraw",
      "outputs": [],
      "stateMutability": "nonpayable",
      "type": "function"
    },
    {
      "inputs": [
        {
          "internalType": "uint256",
          "name": "ID",
          "type": "uint256"
        }
      ],
      "name": "withdraw",
      "outputs": [],
      "stateMutability": "nonpayable",
      "type": "function"
    }
  ],
  "bytecode": "0x608060405234801561001057600080fd5b50614df2806100206000396000f3fe608060405234801561001057600080fd5b50600436106100f55760003560e01c80636aec110611610097578063b282e7b811610066578063b282e7b814610280578063e1ff9e811461029c578063e41c377c146102b8578063fcb25e5d146102ef576100f5565b80636aec1106146101d457806372a370bc146102045780639c7e996814610234578063a3352e0614610250576100f5565b806334b12c2b116100d357806334b12c2b1461014e57806337013e101461017e5780633795b60e146101ae57806343cc60b1146101b8576100f5565b80630179cc52146100fa5780632e1a7d4d1461011657806333a8a2fb14610132575b600080fd5b610114600480360381019061010f9190613e4f565b61030b565b005b610130600480360381019061012b9190613e8f565b61087a565b005b61014c60048036038101906101479190613e4f565b61130e565b005b61016860048036038101906101639190613f1a565b61178b565b60405161017591906140d2565b60405180910390f35b610198600480360381019061019391906140f4565b611a4d565b6040516101a59190614143565b60405180910390f35b6101b6611a7e565b005b6101d260048036038101906101cd9190613e8f565b611eea565b005b6101ee60048036038101906101e99190613f1a565b6125bc565b6040516101fb91906140d2565b60405180910390f35b61021e600480360381019061021991906140f4565b61287e565b60405161022b9190614143565b60405180910390f35b61024e6004803603810190610249919061415e565b6128af565b005b61026a600480360381019061026591906141c5565b612ded565b6040516102779190614143565b60405180910390f35b61029a60048036038101906102959190614205565b6130c2565b005b6102b660048036038101906102b19190613e8f565b61380f565b005b6102d260048036038101906102cd9190613e8f565b613c78565b6040516102e6989796959493929190614263565b60405180910390f35b6103096004803603810190610304919061430d565b613d3d565b005b60008083815481106103205761031f6143af565b5b906000526020600020906008020160405180610100016040529081600082015481526020016001820160009054906101000a900473ffffffffffffffffffffffffffffffffffffffff1673ffffffffffffffffffffffffffffffffffffffff1673ffffffffffffffffffffffffffffffffffffffff1681526020016002820160009054906101000a900473ffffffffffffffffffffffffffffffffffffffff1673ffffffffffffffffffffffffffffffffffffffff1673ffffffffffffffffffffffffffffffffffffffff1681526020016003820160009054906101000a900473ffffffffffffffffffffffffffffffffffffffff1673ffffffffffffffffffffffffffffffffffffffff1673ffffffffffffffffffffffffffffffffffffffff1681526020016004820154815260200160058201548152602001600682015481526020016007820160009054906101000a900460ff16151515158152505090503373ffffffffffffffffffffffffffffffffffffffff16816020015173ffffffffffffffffffffffffffffffffffffffff16146104f3576040517f08c379a00000000000000000000000000000000000000000000000000000000081526004016104ea9061443b565b60405180910390fd5b806080015142111561053a576040517f08c379a0000000000000000000000000000000000000000000000000000000008152600401610531906144a7565b60405180910390fd5b600015158160e00151151514610585576040517f08c379a000000000000000000000000000000000000000000000000000000000815260040161057c90614513565b60405180910390fd5b600082036105c8576040517f08c379a00000000000000000000000000000000000000000000000000000000081526004016105bf9061457f565b60405180910390fd5b8060c00151820361060e576040517f08c379a0000000000000000000000000000000000000000000000000000000008152600401610605906145eb565b60405180910390fd5b6000816060015190508160c001518311156106e85760008173ffffffffffffffffffffffffffffffffffffffff1663dd62ed3e33306040518363ffffffff1660e01b815260040161066092919061460b565b602060405180830381865afa15801561067d573d6000803e3d6000fd5b505050506040513d601f19601f820116820180604052508101906106a19190614649565b9050838110156106e6576040517f08c379a00000000000000000000000000000000000000000000000000000000081526004016106dd906146c2565b60405180910390fd5b505b828260c00181815250508160008581548110610707576107066143af565b5b90600052602060002090600802016000820151816000015560208201518160010160006101000a81548173ffffffffffffffffffffffffffffffffffffffff021916908373ffffffffffffffffffffffffffffffffffffffff16021790555060408201518160020160006101000a81548173ffffffffffffffffffffffffffffffffffffffff021916908373ffffffffffffffffffffffffffffffffffffffff16021790555060608201518160030160006101000a81548173ffffffffffffffffffffffffffffffffffffffff021916908373ffffffffffffffffffffffffffffffffffffffff1602179055506080820151816004015560a0820151816005015560c0820151816006015560e08201518160070160006101000a81548160ff0219169083151502179055509050507f07f364a0e22025373fbd73737f9a989e95741c0a7a85fa996d5c34a8198a482d8483602001518560405161086c939291906146e2565b60405180910390a150505050565b600080828154811061088f5761088e6143af565b5b906000526020600020906008020160405180610100016040529081600082015481526020016001820160009054906101000a900473ffffffffffffffffffffffffffffffffffffffff1673ffffffffffffffffffffffffffffffffffffffff1673ffffffffffffffffffffffffffffffffffffffff1681526020016002820160009054906101000a900473ffffffffffffffffffffffffffffffffffffffff1673ffffffffffffffffffffffffffffffffffffffff1673ffffffffffffffffffffffffffffffffffffffff1681526020016003820160009054906101000a900473ffffffffffffffffffffffffffffffffffffffff1673ffffffffffffffffffffffffffffffffffffffff1673ffffffffffffffffffffffffffffffffffffffff1681526020016004820154815260200160058201548152602001600682015481526020016007820160009054906101000a900460ff1615151515815250509050806040015173ffffffffffffffffffffffffffffffffffffffff163373ffffffffffffffffffffffffffffffffffffffff1614610a62576040517f08c379a0000000000000000000000000000000000000000000000000000000008152600401610a5990614765565b60405180910390fd5b8060800151421015610aa9576040517f08c379a0000000000000000000000000000000000000000000000000000000008152600401610aa0906147d1565b60405180910390fd5b600015158160e00151151514610af4576040517f08c379a0000000000000000000000000000000000000000000000000000000008152600401610aeb90614513565b60405180910390fd5b60018160e0019015159081151581525050600060016000836020015173ffffffffffffffffffffffffffffffffffffffff1673ffffffffffffffffffffffffffffffffffffffff168152602001908152602001600020805480602002602001604051908101604052809291908181526020018280548015610b9457602002820191906000526020600020905b815481526020019060010190808311610b80575b50505050509050600060026000846040015173ffffffffffffffffffffffffffffffffffffffff1673ffffffffffffffffffffffffffffffffffffffff168152602001908152602001600020805480602002602001604051908101604052809291908181526020018280548015610c2a57602002820191906000526020600020905b815481526020019060010190808311610c16575b5050505050905060005b8251811015610d665784838281518110610c5157610c506143af565b5b602002602001015103610d53578260018451610c6d9190614820565b81518110610c7e57610c7d6143af565b5b602002602001015160016000866020015173ffffffffffffffffffffffffffffffffffffffff1673ffffffffffffffffffffffffffffffffffffffff1681526020019081526020016000208281548110610cdb57610cda6143af565b5b906000526020600020018190555060016000856020015173ffffffffffffffffffffffffffffffffffffffff1673ffffffffffffffffffffffffffffffffffffffff168152602001908152602001600020805480610d3c57610d3b614854565b5b600190038181906000526020600020016000905590555b8080610d5e90614883565b915050610c34565b5060005b8151811015610e9c5784828281518110610d8757610d866143af565b5b602002602001015103610e89578160018351610da39190614820565b81518110610db457610db36143af565b5b602002602001015160026000866040015173ffffffffffffffffffffffffffffffffffffffff1673ffffffffffffffffffffffffffffffffffffffff1681526020019081526020016000208281548110610e1157610e106143af565b5b906000526020600020018190555060026000856040015173ffffffffffffffffffffffffffffffffffffffff1673ffffffffffffffffffffffffffffffffffffffff168152602001908152602001600020805480610e7257610e71614854565b5b600190038181906000526020600020016000905590555b8080610e9490614883565b915050610d6a565b5060008360600151905060008173ffffffffffffffffffffffffffffffffffffffff1663dd62ed3e8660200151306040518363ffffffff1660e01b8152600401610ee792919061460b565b602060405180830381865afa158015610f04573d6000803e3d6000fd5b505050506040513d601f19601f82011682018060405250810190610f289190614649565b905060008273ffffffffffffffffffffffffffffffffffffffff166370a0823187602001516040518263ffffffff1660e01b8152600401610f6991906148cb565b602060405180830381865afa158015610f86573d6000803e3d6000fd5b505050506040513d601f19601f82011682018060405250810190610faa9190614649565b905060008660c0015182101561104b578373ffffffffffffffffffffffffffffffffffffffff166323b872dd88602001518960400151856040518463ffffffff1660e01b8152600401610fff939291906148e6565b6020604051808303816000875af115801561101e573d6000803e3d6000fd5b505050506040513d601f19601f820116820180604052508101906110429190614932565b5081905061117e565b8660c001518310156110e8578373ffffffffffffffffffffffffffffffffffffffff166323b872dd88602001518960400151866040518463ffffffff1660e01b815260040161109c939291906148e6565b6020604051808303816000875af11580156110bb573d6000803e3d6000fd5b505050506040513d601f19601f820116820180604052508101906110df9190614932565b5082905061117d565b8373ffffffffffffffffffffffffffffffffffffffff166323b872dd886020015189604001518a60c001516040518463ffffffff1660e01b8152600401611131939291906148e6565b6020604051808303816000875af1158015611150573d6000803e3d6000fd5b505050506040513d601f19601f820116820180604052508101906111749190614932565b508660c0015190505b5b7ffe7813e2866053d5c3938554e517b554fce6666a6561bed9eaa7419b29fa9b688888602001513342856040516111b995949392919061495f565b60405180910390a186600089815481106111d6576111d56143af565b5b90600052602060002090600802016000820151816000015560208201518160010160006101000a81548173ffffffffffffffffffffffffffffffffffffffff021916908373ffffffffffffffffffffffffffffffffffffffff16021790555060408201518160020160006101000a81548173ffffffffffffffffffffffffffffffffffffffff021916908373ffffffffffffffffffffffffffffffffffffffff16021790555060608201518160030160006101000a81548173ffffffffffffffffffffffffffffffffffffffff021916908373ffffffffffffffffffffffffffffffffffffffff1602179055506080820151816004015560a0820151816005015560c0820151816006015560e08201518160070160006101000a81548160ff0219169083151502179055509050505050505050505050565b6000808381548110611323576113226143af565b5b906000526020600020906008020160405180610100016040529081600082015481526020016001820160009054906101000a900473ffffffffffffffffffffffffffffffffffffffff1673ffffffffffffffffffffffffffffffffffffffff1673ffffffffffffffffffffffffffffffffffffffff1681526020016002820160009054906101000a900473ffffffffffffffffffffffffffffffffffffffff1673ffffffffffffffffffffffffffffffffffffffff1673ffffffffffffffffffffffffffffffffffffffff1681526020016003820160009054906101000a900473ffffffffffffffffffffffffffffffffffffffff1673ffffffffffffffffffffffffffffffffffffffff1673ffffffffffffffffffffffffffffffffffffffff1681526020016004820154815260200160058201548152602001600682015481526020016007820160009054906101000a900460ff16151515158152505090503373ffffffffffffffffffffffffffffffffffffffff16816020015173ffffffffffffffffffffffffffffffffffffffff16146114f6576040517f08c379a00000000000000000000000000000000000000000000000000000000081526004016114ed9061443b565b60405180910390fd5b806080015142111561153d576040517f08c379a0000000000000000000000000000000000000000000000000000000008152600401611534906144a7565b60405180910390fd5b42821161157f576040517f08c379a000000000000000000000000000000000000000000000000000000000815260040161157690614a24565b60405180910390fd5b600015158160e001511515146115ca576040517f08c379a00000000000000000000000000000000000000000000000000000000081526004016115c190614513565b60405180910390fd5b60008160a0015182608001516115e09190614820565b90508282608001818152505080836115f89190614820565b8260a00181815250508160008581548110611616576116156143af565b5b90600052602060002090600802016000820151816000015560208201518160010160006101000a81548173ffffffffffffffffffffffffffffffffffffffff021916908373ffffffffffffffffffffffffffffffffffffffff16021790555060408201518160020160006101000a81548173ffffffffffffffffffffffffffffffffffffffff021916908373ffffffffffffffffffffffffffffffffffffffff16021790555060608201518160030160006101000a81548173ffffffffffffffffffffffffffffffffffffffff021916908373ffffffffffffffffffffffffffffffffffffffff1602179055506080820151816004015560a0820151816005015560c0820151816006015560e08201518160070160006101000a81548160ff0219169083151502179055509050507ff6d4f4eb4a955223539787dd64c67a7a9571039c5deccabaf47d097f93e8b41f843384604001518660405161177d9493929190614a44565b60405180910390a150505050565b60606000600160008473ffffffffffffffffffffffffffffffffffffffff1673ffffffffffffffffffffffffffffffffffffffff16815260200190815260200160002080548060200260200160405190810160405280929190818152602001828054801561181857602002820191906000526020600020905b815481526020019060010190808311611804575b505050505090506000815167ffffffffffffffff81111561183c5761183b614a89565b5b60405190808252806020026020018201604052801561187557816020015b611862613d8b565b81526020019060019003908161185a5790505b50905060005b8251811015611a42576000838281518110611899576118986143af565b5b6020026020010151815481106118b2576118b16143af565b5b906000526020600020906008020160405180610100016040529081600082015481526020016001820160009054906101000a900473ffffffffffffffffffffffffffffffffffffffff1673ffffffffffffffffffffffffffffffffffffffff1673ffffffffffffffffffffffffffffffffffffffff1681526020016002820160009054906101000a900473ffffffffffffffffffffffffffffffffffffffff1673ffffffffffffffffffffffffffffffffffffffff1673ffffffffffffffffffffffffffffffffffffffff1681526020016003820160009054906101000a900473ffffffffffffffffffffffffffffffffffffffff1673ffffffffffffffffffffffffffffffffffffffff1673ffffffffffffffffffffffffffffffffffffffff1681526020016004820154815260200160058201548152602001600682015481526020016007820160009054906101000a900460ff161515151581525050828281518110611a2457611a236143af565b5b60200260200101819052508080611a3a90614883565b91505061187b565b508092505050919050565b60026020528160005260406000208181548110611a6957600080fd5b90600052602060002001600091509150505481565b6000600160003373ffffffffffffffffffffffffffffffffffffffff1673ffffffffffffffffffffffffffffffffffffffff168152602001908152602001600020805480602002602001604051908101604052809291908181526020018280548015611b0957602002820191906000526020600020905b815481526020019060010190808311611af5575b505050505090506000815167ffffffffffffffff811115611b2d57611b2c614a89565b5b604051908082528060200260200182016040528015611b5b5781602001602082028036833780820191505090505b50905060005b8251811015611eaa57600080848381518110611b8057611b7f6143af565b5b602002602001015181548110611b9957611b986143af565b5b906000526020600020906008020160405180610100016040529081600082015481526020016001820160009054906101000a900473ffffffffffffffffffffffffffffffffffffffff1673ffffffffffffffffffffffffffffffffffffffff1673ffffffffffffffffffffffffffffffffffffffff1681526020016002820160009054906101000a900473ffffffffffffffffffffffffffffffffffffffff1673ffffffffffffffffffffffffffffffffffffffff1673ffffffffffffffffffffffffffffffffffffffff1681526020016003820160009054906101000a900473ffffffffffffffffffffffffffffffffffffffff1673ffffffffffffffffffffffffffffffffffffffff1673ffffffffffffffffffffffffffffffffffffffff1681526020016004820154815260200160058201548152602001600682015481526020016007820160009054906101000a900460ff16151515158152505090506000428260a00151611d0c9190614ab8565b90508082608001818152505080848481518110611d2c57611d2b6143af565b5b602002602001018181525050816000868581518110611d4e57611d4d6143af565b5b602002602001015181548110611d6757611d666143af565b5b90600052602060002090600802016000820151816000015560208201518160010160006101000a81548173ffffffffffffffffffffffffffffffffffffffff021916908373ffffffffffffffffffffffffffffffffffffffff16021790555060408201518160020160006101000a81548173ffffffffffffffffffffffffffffffffffffffff021916908373ffffffffffffffffffffffffffffffffffffffff16021790555060608201518160030160006101000a81548173ffffffffffffffffffffffffffffffffffffffff021916908373ffffffffffffffffffffffffffffffffffffffff1602179055506080820151816004015560a0820151816005015560c0820151816006015560e08201518160070160006101000a81548160ff02191690831515021790555090505050508080611ea290614883565b915050611b61565b507f0e6cb619afa09f01deabf9f7836949d0de1ba277b61637c5335e8b3017646cdb823383604051611ede93929190614b9b565b60405180910390a15050565b6000808281548110611eff57611efe6143af565b5b906000526020600020906008020160405180610100016040529081600082015481526020016001820160009054906101000a900473ffffffffffffffffffffffffffffffffffffffff1673ffffffffffffffffffffffffffffffffffffffff1673ffffffffffffffffffffffffffffffffffffffff1681526020016002820160009054906101000a900473ffffffffffffffffffffffffffffffffffffffff1673ffffffffffffffffffffffffffffffffffffffff1673ffffffffffffffffffffffffffffffffffffffff1681526020016003820160009054906101000a900473ffffffffffffffffffffffffffffffffffffffff1673ffffffffffffffffffffffffffffffffffffffff1673ffffffffffffffffffffffffffffffffffffffff1681526020016004820154815260200160058201548152602001600682015481526020016007820160009054906101000a900460ff16151515158152505090503373ffffffffffffffffffffffffffffffffffffffff16816020015173ffffffffffffffffffffffffffffffffffffffff16146120d2576040517f08c379a00000000000000000000000000000000000000000000000000000000081526004016120c99061443b565b60405180910390fd5b600015158160e0015115151461211d576040517f08c379a000000000000000000000000000000000000000000000000000000000815260040161211490614513565b60405180910390fd5b6000600160003373ffffffffffffffffffffffffffffffffffffffff1673ffffffffffffffffffffffffffffffffffffffff1681526020019081526020016000208054806020026020016040519081016040528092919081815260200182805480156121a857602002820191906000526020600020905b815481526020019060010190808311612194575b50505050509050600060026000846040015173ffffffffffffffffffffffffffffffffffffffff1673ffffffffffffffffffffffffffffffffffffffff16815260200190815260200160002080548060200260200160405190810160405280929190818152602001828054801561223e57602002820191906000526020600020905b81548152602001906001019080831161222a575b5050505050905060005b82518110156123725784838281518110612265576122646143af565b5b60200260200101510361235f5782600184516122819190614820565b81518110612292576122916143af565b5b6020026020010151600160003373ffffffffffffffffffffffffffffffffffffffff1673ffffffffffffffffffffffffffffffffffffffff16815260200190815260200160002082815481106122eb576122ea6143af565b5b9060005260206000200181905550600160003373ffffffffffffffffffffffffffffffffffffffff1673ffffffffffffffffffffffffffffffffffffffff16815260200190815260200160002080548061234857612347614854565b5b600190038181906000526020600020016000905590555b808061236a90614883565b915050612248565b5060005b81518110156124a85784828281518110612393576123926143af565b5b6020026020010151036124955781600183516123af9190614820565b815181106123c0576123bf6143af565b5b602002602001015160026000866040015173ffffffffffffffffffffffffffffffffffffffff1673ffffffffffffffffffffffffffffffffffffffff168152602001908152602001600020828154811061241d5761241c6143af565b5b906000526020600020018190555060026000856040015173ffffffffffffffffffffffffffffffffffffffff1673ffffffffffffffffffffffffffffffffffffffff16815260200190815260200160002080548061247e5761247d614854565b5b600190038181906000526020600020016000905590555b80806124a090614883565b915050612376565b50600084815481106124bd576124bc6143af565b5b90600052602060002090600802016000808201600090556001820160006101000a81549073ffffffffffffffffffffffffffffffffffffffff02191690556002820160006101000a81549073ffffffffffffffffffffffffffffffffffffffff02191690556003820160006101000a81549073ffffffffffffffffffffffffffffffffffffffff02191690556004820160009055600582016000905560068201600090556007820160006101000a81549060ff021916905550507f2e6ce80b05d67b5aba812f8e95333d141bb7fd2d335f955800635cfdbbb8630e843385604001516040516125ae93929190614be0565b60405180910390a150505050565b60606000600260008473ffffffffffffffffffffffffffffffffffffffff1673ffffffffffffffffffffffffffffffffffffffff16815260200190815260200160002080548060200260200160405190810160405280929190818152602001828054801561264957602002820191906000526020600020905b815481526020019060010190808311612635575b505050505090506000815167ffffffffffffffff81111561266d5761266c614a89565b5b6040519080825280602002602001820160405280156126a657816020015b612693613d8b565b81526020019060019003908161268b5790505b50905060005b82518110156128735760008382815181106126ca576126c96143af565b5b6020026020010151815481106126e3576126e26143af565b5b906000526020600020906008020160405180610100016040529081600082015481526020016001820160009054906101000a900473ffffffffffffffffffffffffffffffffffffffff1673ffffffffffffffffffffffffffffffffffffffff1673ffffffffffffffffffffffffffffffffffffffff1681526020016002820160009054906101000a900473ffffffffffffffffffffffffffffffffffffffff1673ffffffffffffffffffffffffffffffffffffffff1673ffffffffffffffffffffffffffffffffffffffff1681526020016003820160009054906101000a900473ffffffffffffffffffffffffffffffffffffffff1673ffffffffffffffffffffffffffffffffffffffff1673ffffffffffffffffffffffffffffffffffffffff1681526020016004820154815260200160058201548152602001600682015481526020016007820160009054906101000a900460ff161515151581525050828281518110612855576128546143af565b5b6020026020010181905250808061286b90614883565b9150506126ac565b508092505050919050565b6001602052816000526040600020818154811061289a57600080fd5b90600052602060002001600091509150505481565b600073ffffffffffffffffffffffffffffffffffffffff168473ffffffffffffffffffffffffffffffffffffffff160361291e576040517f08c379a000000000000000000000000000000000000000000000000000000000815260040161291590614c63565b60405180910390fd5b600073ffffffffffffffffffffffffffffffffffffffff168373ffffffffffffffffffffffffffffffffffffffff160361298d576040517f08c379a000000000000000000000000000000000000000000000000000000000815260040161298490614ccf565b60405180910390fd5b4282116129cf576040517f08c379a00000000000000000000000000000000000000000000000000000000081526004016129c690614a24565b60405180910390fd5b60008103612a12576040517f08c379a0000000000000000000000000000000000000000000000000000000008152600401612a099061457f565b60405180910390fd5b60008390506000612a233386612ded565b905060008273ffffffffffffffffffffffffffffffffffffffff1663dd62ed3e33306040518363ffffffff1660e01b8152600401612a6292919061460b565b602060405180830381865afa158015612a7f573d6000803e3d6000fd5b505050506040513d601f19601f82011682018060405250810190612aa39190614649565b90508184612ab19190614ab8565b811015612af3576040517f08c379a0000000000000000000000000000000000000000000000000000000008152600401612aea906146c2565b60405180910390fd5b60008080549050905060006040518061010001604052808381526020013373ffffffffffffffffffffffffffffffffffffffff1681526020018a73ffffffffffffffffffffffffffffffffffffffff1681526020018973ffffffffffffffffffffffffffffffffffffffff1681526020018881526020014289612b769190614820565b8152602001878152602001600015158152509050600160003373ffffffffffffffffffffffffffffffffffffffff1673ffffffffffffffffffffffffffffffffffffffff168152602001908152602001600020829080600181540180825580915050600190039060005260206000200160009091909190915055600260008a73ffffffffffffffffffffffffffffffffffffffff1673ffffffffffffffffffffffffffffffffffffffff16815260200190815260200160002082908060018154018082558091505060019003906000526020600020016000909190919091505560008190806001815401808255809150506001900390600052602060002090600802016000909190919091506000820151816000015560208201518160010160006101000a81548173ffffffffffffffffffffffffffffffffffffffff021916908373ffffffffffffffffffffffffffffffffffffffff16021790555060408201518160020160006101000a81548173ffffffffffffffffffffffffffffffffffffffff021916908373ffffffffffffffffffffffffffffffffffffffff16021790555060608201518160030160006101000a81548173ffffffffffffffffffffffffffffffffffffffff021916908373ffffffffffffffffffffffffffffffffffffffff1602179055506080820151816004015560a0820151816005015560c0820151816006015560e08201518160070160006101000a81548160ff02191690831515021790555050507f13f4f2b8e248db04b9c06909af2f8eb5954c0a467baaa4823e14a9f55dee9b4582338b8b8b8b604051612dda96959493929190614cef565b60405180910390a1505050505050505050565b600080600160008573ffffffffffffffffffffffffffffffffffffffff1673ffffffffffffffffffffffffffffffffffffffff168152602001908152602001600020805480602002602001604051908101604052809291908181526020018280548015612e7957602002820191906000526020600020905b815481526020019060010190808311612e65575b505050505090506000805b82518110156130b657600080848381518110612ea357612ea26143af565b5b602002602001015181548110612ebc57612ebb6143af565b5b906000526020600020906008020160405180610100016040529081600082015481526020016001820160009054906101000a900473ffffffffffffffffffffffffffffffffffffffff1673ffffffffffffffffffffffffffffffffffffffff1673ffffffffffffffffffffffffffffffffffffffff1681526020016002820160009054906101000a900473ffffffffffffffffffffffffffffffffffffffff1673ffffffffffffffffffffffffffffffffffffffff1673ffffffffffffffffffffffffffffffffffffffff1681526020016003820160009054906101000a900473ffffffffffffffffffffffffffffffffffffffff1673ffffffffffffffffffffffffffffffffffffffff1673ffffffffffffffffffffffffffffffffffffffff1681526020016004820154815260200160058201548152602001600682015481526020016007820160009054906101000a900460ff1615151515815250509050806060015173ffffffffffffffffffffffffffffffffffffffff168673ffffffffffffffffffffffffffffffffffffffff16036130a2576000848381518110613069576130686143af565b5b602002602001015181548110613082576130816143af565b5b9060005260206000209060080201600601548361309f9190614ab8565b92505b5080806130ae90614883565b915050612e84565b50809250505092915050565b60008083815481106130d7576130d66143af565b5b906000526020600020906008020160405180610100016040529081600082015481526020016001820160009054906101000a900473ffffffffffffffffffffffffffffffffffffffff1673ffffffffffffffffffffffffffffffffffffffff1673ffffffffffffffffffffffffffffffffffffffff1681526020016002820160009054906101000a900473ffffffffffffffffffffffffffffffffffffffff1673ffffffffffffffffffffffffffffffffffffffff1673ffffffffffffffffffffffffffffffffffffffff1681526020016003820160009054906101000a900473ffffffffffffffffffffffffffffffffffffffff1673ffffffffffffffffffffffffffffffffffffffff1673ffffffffffffffffffffffffffffffffffffffff1681526020016004820154815260200160058201548152602001600682015481526020016007820160009054906101000a900460ff16151515158152505090503373ffffffffffffffffffffffffffffffffffffffff16816020015173ffffffffffffffffffffffffffffffffffffffff16146132aa576040517f08c379a00000000000000000000000000000000000000000000000000000000081526004016132a19061443b565b60405180910390fd5b8173ffffffffffffffffffffffffffffffffffffffff16816040015173ffffffffffffffffffffffffffffffffffffffff160361331c576040517f08c379a000000000000000000000000000000000000000000000000000000000815260040161331390614d9c565b60405180910390fd5b600073ffffffffffffffffffffffffffffffffffffffff16816040015173ffffffffffffffffffffffffffffffffffffffff160361338f576040517f08c379a000000000000000000000000000000000000000000000000000000000815260040161338690614c63565b60405180910390fd5b80608001514211156133d6576040517f08c379a00000000000000000000000000000000000000000000000000000000081526004016133cd906144a7565b60405180910390fd5b600015158160e00151151514613421576040517f08c379a000000000000000000000000000000000000000000000000000000000815260040161341890614513565b60405180910390fd5b600060026000836040015173ffffffffffffffffffffffffffffffffffffffff1673ffffffffffffffffffffffffffffffffffffffff1681526020019081526020016000208054806020026020016040519081016040528092919081815260200182805480156134b057602002820191906000526020600020905b81548152602001906001019080831161349c575b5050505050905060005b81518110156135ec57848282815181106134d7576134d66143af565b5b6020026020010151036135d95781600183516134f39190614820565b81518110613504576135036143af565b5b602002602001015160026000856040015173ffffffffffffffffffffffffffffffffffffffff1673ffffffffffffffffffffffffffffffffffffffff1681526020019081526020016000208281548110613561576135606143af565b5b906000526020600020018190555060026000846040015173ffffffffffffffffffffffffffffffffffffffff1673ffffffffffffffffffffffffffffffffffffffff1681526020019081526020016000208054806135c2576135c1614854565b5b600190038181906000526020600020016000905590555b80806135e490614883565b9150506134ba565b50600260008473ffffffffffffffffffffffffffffffffffffffff1673ffffffffffffffffffffffffffffffffffffffff16815260200190815260200160002084908060018154018082558091505060019003906000526020600020016000909190919091505582826040019073ffffffffffffffffffffffffffffffffffffffff16908173ffffffffffffffffffffffffffffffffffffffff168152505081600085815481106136a05761369f6143af565b5b90600052602060002090600802016000820151816000015560208201518160010160006101000a81548173ffffffffffffffffffffffffffffffffffffffff021916908373ffffffffffffffffffffffffffffffffffffffff16021790555060408201518160020160006101000a81548173ffffffffffffffffffffffffffffffffffffffff021916908373ffffffffffffffffffffffffffffffffffffffff16021790555060608201518160030160006101000a81548173ffffffffffffffffffffffffffffffffffffffff021916908373ffffffffffffffffffffffffffffffffffffffff1602179055506080820151816004015560a0820151816005015560c0820151816006015560e08201518160070160006101000a81548160ff0219169083151502179055509050507f2ae974d7f90755778f8a13273920e403d2265f2f0063297e45c50d873f3fad6f84338560405161380193929190614be0565b60405180910390a150505050565b6000808281548110613824576138236143af565b5b906000526020600020906008020160405180610100016040529081600082015481526020016001820160009054906101000a900473ffffffffffffffffffffffffffffffffffffffff1673ffffffffffffffffffffffffffffffffffffffff1673ffffffffffffffffffffffffffffffffffffffff1681526020016002820160009054906101000a900473ffffffffffffffffffffffffffffffffffffffff1673ffffffffffffffffffffffffffffffffffffffff1673ffffffffffffffffffffffffffffffffffffffff1681526020016003820160009054906101000a900473ffffffffffffffffffffffffffffffffffffffff1673ffffffffffffffffffffffffffffffffffffffff1673ffffffffffffffffffffffffffffffffffffffff1681526020016004820154815260200160058201548152602001600682015481526020016007820160009054906101000a900460ff16151515158152505090503373ffffffffffffffffffffffffffffffffffffffff16816020015173ffffffffffffffffffffffffffffffffffffffff16146139f7576040517f08c379a00000000000000000000000000000000000000000000000000000000081526004016139ee9061443b565b60405180910390fd5b6000428260a00151613a099190614ab8565b9050808260800181815250508160008481548110613a2a57613a296143af565b5b90600052602060002090600802016000820151816000015560208201518160010160006101000a81548173ffffffffffffffffffffffffffffffffffffffff021916908373ffffffffffffffffffffffffffffffffffffffff16021790555060408201518160020160006101000a81548173ffffffffffffffffffffffffffffffffffffffff021916908373ffffffffffffffffffffffffffffffffffffffff16021790555060608201518160030160006101000a81548173ffffffffffffffffffffffffffffffffffffffff021916908373ffffffffffffffffffffffffffffffffffffffff1602179055506080820151816004015560a0820151816005015560c0820151816006015560e08201518160070160006101000a81548160ff0219169083151502179055509050506000600167ffffffffffffffff811115613b7557613b74614a89565b5b604051908082528060200260200182016040528015613ba35781602001602082028036833780820191505090505b5090508181600081518110613bbb57613bba6143af565b5b6020026020010181815250506000600167ffffffffffffffff811115613be457613be3614a89565b5b604051908082528060200260200182016040528015613c125781602001602082028036833780820191505090505b5090508481600081518110613c2a57613c296143af565b5b6020026020010181815250507f0e6cb619afa09f01deabf9f7836949d0de1ba277b61637c5335e8b3017646cdb813384604051613c6993929190614b9b565b60405180910390a15050505050565b60008181548110613c8857600080fd5b90600052602060002090600802016000915090508060000154908060010160009054906101000a900473ffffffffffffffffffffffffffffffffffffffff16908060020160009054906101000a900473ffffffffffffffffffffffffffffffffffffffff16908060030160009054906101000a900473ffffffffffffffffffffffffffffffffffffffff16908060040154908060050154908060060154908060070160009054906101000a900460ff16905088565b6001151583151503613d5457613d53878761130e565b5b6001151582151503613d6b57613d6a87866130c2565b5b6001151581151503613d8257613d81878561030b565b5b50505050505050565b60405180610100016040528060008152602001600073ffffffffffffffffffffffffffffffffffffffff168152602001600073ffffffffffffffffffffffffffffffffffffffff168152602001600073ffffffffffffffffffffffffffffffffffffffff1681526020016000815260200160008152602001600081526020016000151581525090565b600080fd5b6000819050919050565b613e2c81613e19565b8114613e3757600080fd5b50565b600081359050613e4981613e23565b92915050565b60008060408385031215613e6657613e65613e14565b5b6000613e7485828601613e3a565b9250506020613e8585828601613e3a565b9150509250929050565b600060208284031215613ea557613ea4613e14565b5b6000613eb384828501613e3a565b91505092915050565b600073ffffffffffffffffffffffffffffffffffffffff82169050919050565b6000613ee782613ebc565b9050919050565b613ef781613edc565b8114613f0257600080fd5b50565b600081359050613f1481613eee565b92915050565b600060208284031215613f3057613f2f613e14565b5b6000613f3e84828501613f05565b91505092915050565b600081519050919050565b600082825260208201905092915050565b6000819050602082019050919050565b613f7c81613e19565b82525050565b613f8b81613edc565b82525050565b60008115159050919050565b613fa681613f91565b82525050565b61010082016000820151613fc36000850182613f73565b506020820151613fd66020850182613f82565b506040820151613fe96040850182613f82565b506060820151613ffc6060850182613f82565b50608082015161400f6080850182613f73565b5060a082015161402260a0850182613f73565b5060c082015161403560c0850182613f73565b5060e082015161404860e0850182613f9d565b50505050565b600061405a8383613fac565b6101008301905092915050565b6000602082019050919050565b600061407f82613f47565b6140898185613f52565b935061409483613f63565b8060005b838110156140c55781516140ac888261404e565b97506140b783614067565b925050600181019050614098565b5085935050505092915050565b600060208201905081810360008301526140ec8184614074565b905092915050565b6000806040838503121561410b5761410a613e14565b5b600061411985828601613f05565b925050602061412a85828601613e3a565b9150509250929050565b61413d81613e19565b82525050565b60006020820190506141586000830184614134565b92915050565b6000806000806080858703121561417857614177613e14565b5b600061418687828801613f05565b945050602061419787828801613f05565b93505060406141a887828801613e3a565b92505060606141b987828801613e3a565b91505092959194509250565b600080604083850312156141dc576141db613e14565b5b60006141ea85828601613f05565b92505060206141fb85828601613f05565b9150509250929050565b6000806040838503121561421c5761421b613e14565b5b600061422a85828601613e3a565b925050602061423b85828601613f05565b9150509250929050565b61424e81613edc565b82525050565b61425d81613f91565b82525050565b600061010082019050614279600083018b614134565b614286602083018a614245565b6142936040830189614245565b6142a06060830188614245565b6142ad6080830187614134565b6142ba60a0830186614134565b6142c760c0830185614134565b6142d460e0830184614254565b9998505050505050505050565b6142ea81613f91565b81146142f557600080fd5b50565b600081359050614307816142e1565b92915050565b600080600080600080600060e0888a03121561432c5761432b613e14565b5b600061433a8a828b01613e3a565b975050602061434b8a828b01613e3a565b965050604061435c8a828b01613f05565b955050606061436d8a828b01613e3a565b945050608061437e8a828b016142f8565b93505060a061438f8a828b016142f8565b92505060c06143a08a828b016142f8565b91505092959891949750929550565b7f4e487b7100000000000000000000000000000000000000000000000000000000600052603260045260246000fd5b600082825260208201905092915050565b7f6457696c6c3a20596f75206e6f74206f776e6572000000000000000000000000600082015250565b60006144256014836143de565b9150614430826143ef565b602082019050919050565b6000602082019050818103600083015261445481614418565b9050919050565b7f6457696c6c3a2054696d65206973206f76657220796574000000000000000000600082015250565b60006144916017836143de565b915061449c8261445b565b602082019050919050565b600060208201905081810360008301526144c081614484565b9050919050565b7f6457696c6c3a20416c72656164792077697468647261776e0000000000000000600082015250565b60006144fd6018836143de565b9150614508826144c7565b602082019050919050565b6000602082019050818103600083015261452c816144f0565b9050919050565b7f6457696c6c3a20416d6f756e7420300000000000000000000000000000000000600082015250565b6000614569600f836143de565b915061457482614533565b602082019050919050565b600060208201905081810360008301526145988161455c565b9050919050565b7f6457696c6c3a20416d6f756e74206973207468652073616d6500000000000000600082015250565b60006145d56019836143de565b91506145e08261459f565b602082019050919050565b60006020820190508181036000830152614604816145c8565b9050919050565b60006040820190506146206000830185614245565b61462d6020830184614245565b9392505050565b60008151905061464381613e23565b92915050565b60006020828403121561465f5761465e613e14565b5b600061466d84828501614634565b91505092915050565b7f6457696c6c3a204e6f7420656e6f75676820616c6c6f77616e63650000000000600082015250565b60006146ac601b836143de565b91506146b782614676565b602082019050919050565b600060208201905081810360008301526146db8161469f565b9050919050565b60006060820190506146f76000830186614134565b6147046020830185614245565b6147116040830184614134565b949350505050565b7f6457696c6c3a20596f75206e6f74206865697200000000000000000000000000600082015250565b600061474f6013836143de565b915061475a82614719565b602082019050919050565b6000602082019050818103600083015261477e81614742565b9050919050565b7f6457696c6c3a2054696d65206973206e6f74206f766572207965740000000000600082015250565b60006147bb601b836143de565b91506147c682614785565b602082019050919050565b600060208201905081810360008301526147ea816147ae565b9050919050565b7f4e487b7100000000000000000000000000000000000000000000000000000000600052601160045260246000fd5b600061482b82613e19565b915061483683613e19565b925082820390508181111561484e5761484d6147f1565b5b92915050565b7f4e487b7100000000000000000000000000000000000000000000000000000000600052603160045260246000fd5b600061488e82613e19565b91507fffffffffffffffffffffffffffffffffffffffffffffffffffffffffffffffff82036148c0576148bf6147f1565b5b600182019050919050565b60006020820190506148e06000830184614245565b92915050565b60006060820190506148fb6000830186614245565b6149086020830185614245565b6149156040830184614134565b949350505050565b60008151905061492c816142e1565b92915050565b60006020828403121561494857614947613e14565b5b60006149568482850161491d565b91505092915050565b600060a0820190506149746000830188614134565b6149816020830187614245565b61498e6040830186614245565b61499b6060830185614134565b6149a86080830184614134565b9695505050505050565b7f6457696c6c3a2054696d65207768656e207769746864726177206973206c6f7760008201527f6572207468656e206e6f77000000000000000000000000000000000000000000602082015250565b6000614a0e602b836143de565b9150614a19826149b2565b604082019050919050565b60006020820190508181036000830152614a3d81614a01565b9050919050565b6000608082019050614a596000830187614134565b614a666020830186614245565b614a736040830185614245565b614a806060830184614134565b95945050505050565b7f4e487b7100000000000000000000000000000000000000000000000000000000600052604160045260246000fd5b6000614ac382613e19565b9150614ace83613e19565b9250828201905080821115614ae657614ae56147f1565b5b92915050565b600081519050919050565b600082825260208201905092915050565b6000819050602082019050919050565b6000614b248383613f73565b60208301905092915050565b6000602082019050919050565b6000614b4882614aec565b614b528185614af7565b9350614b5d83614b08565b8060005b83811015614b8e578151614b758882614b18565b9750614b8083614b30565b925050600181019050614b61565b5085935050505092915050565b60006060820190508181036000830152614bb58186614b3d565b9050614bc46020830185614245565b8181036040830152614bd68184614b3d565b9050949350505050565b6000606082019050614bf56000830186614134565b614c026020830185614245565b614c0f6040830184614245565b949350505050565b7f6457696c6c3a2048656972206973206164647265737328302900000000000000600082015250565b6000614c4d6019836143de565b9150614c5882614c17565b602082019050919050565b60006020820190508181036000830152614c7c81614c40565b9050919050565b7f6457696c6c3a20546f6b656e2069732061646472657373283029000000000000600082015250565b6000614cb9601a836143de565b9150614cc482614c83565b602082019050919050565b60006020820190508181036000830152614ce881614cac565b9050919050565b600060c082019050614d046000830189614134565b614d116020830188614245565b614d1e6040830187614245565b614d2b6060830186614245565b614d386080830185614134565b614d4560a0830184614134565b979650505050505050565b7f6457696c6c3a2053616d65206865697200000000000000000000000000000000600082015250565b6000614d866010836143de565b9150614d9182614d50565b602082019050919050565b60006020820190508181036000830152614db581614d79565b905091905056fea2646970667358221220b521660d16a1b1785e6b65095f967a4e267a22c6baba3f219ab11cc6ba51cd9364736f6c63430008110033",
  "linkReferences": {},
  "deployedLinkReferences": {}
}